{
  "contractName": "CSGOSteamTrade",
  "abi": [
    {
      "constant": true,
      "inputs": [],
      "name": "MINIMUM_PURCHASE_OFFER_AGE",
      "outputs": [
        {
          "name": "",
          "type": "uint256"
        }
      ],
      "payable": false,
      "stateMutability": "view",
      "type": "function"
    },
    {
      "constant": false,
      "inputs": [],
      "name": "renounceOwnership",
      "outputs": [],
      "payable": false,
      "stateMutability": "nonpayable",
      "type": "function"
    },
    {
      "constant": true,
      "inputs": [],
      "name": "owner",
      "outputs": [
        {
          "name": "",
          "type": "address"
        }
      ],
      "payable": false,
      "stateMutability": "view",
      "type": "function"
    },
    {
      "constant": true,
      "inputs": [],
      "name": "OWNERSHIP_STATUS_TRUE",
      "outputs": [
        {
          "name": "",
          "type": "uint256"
        }
      ],
      "payable": false,
      "stateMutability": "view",
      "type": "function"
    },
    {
      "constant": true,
      "inputs": [],
      "name": "OWNERSHIP_STATUS_FALSE",
      "outputs": [
        {
          "name": "",
          "type": "uint256"
        }
      ],
      "payable": false,
      "stateMutability": "view",
      "type": "function"
    },
    {
      "constant": true,
      "inputs": [],
      "name": "CHECK_INVENTORY_CONTAINS_ITEM_METHOD",
      "outputs": [
        {
          "name": "",
          "type": "string"
        }
      ],
      "payable": false,
      "stateMutability": "view",
      "type": "function"
    },
    {
      "constant": true,
      "inputs": [],
      "name": "OWNERSHIP_STATUS_INVENTORY_PRIVATE",
      "outputs": [
        {
          "name": "",
          "type": "uint256"
        }
      ],
      "payable": false,
      "stateMutability": "view",
      "type": "function"
    },
    {
      "constant": false,
      "inputs": [
        {
          "name": "_newOwner",
          "type": "address"
        }
      ],
      "name": "transferOwnership",
      "outputs": [],
      "payable": false,
      "stateMutability": "nonpayable",
      "type": "function"
    },
    {
      "inputs": [
        {
          "name": "_link",
          "type": "address"
        }
      ],
      "payable": false,
      "stateMutability": "nonpayable",
      "type": "constructor"
    },
    {
      "anonymous": false,
      "inputs": [
        {
          "components": [
            {
              "name": "listingId",
              "type": "uint256"
            },
            {
              "name": "ownerInspectLink",
              "type": "string"
            },
            {
              "name": "wear",
              "type": "string"
            },
            {
              "name": "skinName",
              "type": "string"
            },
            {
              "name": "paintSeed",
              "type": "uint256"
            },
            {
              "name": "extraItemData",
              "type": "string"
            },
            {
              "name": "price",
              "type": "uint256"
            },
            {
              "name": "sellerAddress",
              "type": "address"
            },
            {
              "components": [
                {
                  "name": "owner",
                  "type": "address"
                },
                {
                  "name": "creationTimestamp",
                  "type": "uint256"
                },
                {
                  "name": "buyerTradeURL",
                  "type": "string"
                },
                {
                  "name": "exists",
                  "type": "bool"
                }
              ],
              "name": "purchaseOffer",
              "type": "tuple"
            },
            {
              "name": "exists",
              "type": "bool"
            }
          ],
          "indexed": false,
          "name": "listing",
          "type": "tuple"
        }
      ],
      "name": "ListingCreation",
      "type": "event"
    },
    {
      "anonymous": false,
      "inputs": [
        {
          "indexed": true,
          "name": "buyerTradeURL",
          "type": "string"
        },
        {
          "indexed": true,
          "name": "buyerAddress",
          "type": "address"
        },
        {
          "components": [
            {
              "name": "listingId",
              "type": "uint256"
            },
            {
              "name": "ownerInspectLink",
              "type": "string"
            },
            {
              "name": "wear",
              "type": "string"
            },
            {
              "name": "skinName",
              "type": "string"
            },
            {
              "name": "paintSeed",
              "type": "uint256"
            },
            {
              "name": "extraItemData",
              "type": "string"
            },
            {
              "name": "price",
              "type": "uint256"
            },
            {
              "name": "sellerAddress",
              "type": "address"
            },
            {
              "components": [
                {
                  "name": "owner",
                  "type": "address"
                },
                {
                  "name": "creationTimestamp",
                  "type": "uint256"
                },
                {
                  "name": "buyerTradeURL",
                  "type": "string"
                },
                {
                  "name": "exists",
                  "type": "bool"
                }
              ],
              "name": "purchaseOffer",
              "type": "tuple"
            },
            {
              "name": "exists",
              "type": "bool"
            }
          ],
          "indexed": false,
          "name": "listing",
          "type": "tuple"
        }
      ],
      "name": "PurchaseOfferMade",
      "type": "event"
    },
    {
      "anonymous": false,
      "inputs": [
        {
          "indexed": true,
          "name": "buyerTradeURL",
          "type": "string"
        },
        {
          "indexed": true,
          "name": "buyerAddress",
          "type": "address"
        },
        {
          "components": [
            {
              "name": "listingId",
              "type": "uint256"
            },
            {
              "name": "ownerInspectLink",
              "type": "string"
            },
            {
              "name": "wear",
              "type": "string"
            },
            {
              "name": "skinName",
              "type": "string"
            },
            {
              "name": "paintSeed",
              "type": "uint256"
            },
            {
              "name": "extraItemData",
              "type": "string"
            },
            {
              "name": "price",
              "type": "uint256"
            },
            {
              "name": "sellerAddress",
              "type": "address"
            },
            {
              "components": [
                {
                  "name": "owner",
                  "type": "address"
                },
                {
                  "name": "creationTimestamp",
                  "type": "uint256"
                },
                {
                  "name": "buyerTradeURL",
                  "type": "string"
                },
                {
                  "name": "exists",
                  "type": "bool"
                }
              ],
              "name": "purchaseOffer",
              "type": "tuple"
            },
            {
              "name": "exists",
              "type": "bool"
            }
          ],
          "indexed": false,
          "name": "listing",
          "type": "tuple"
        },
        {
          "indexed": false,
          "name": "tradeOutcome",
          "type": "uint8"
        }
      ],
      "name": "TradeDone",
      "type": "event"
    },
    {
      "anonymous": false,
      "inputs": [
        {
          "components": [
            {
              "name": "listingId",
              "type": "uint256"
            },
            {
              "name": "ownerInspectLink",
              "type": "string"
            },
            {
              "name": "wear",
              "type": "string"
            },
            {
              "name": "skinName",
              "type": "string"
            },
            {
              "name": "paintSeed",
              "type": "uint256"
            },
            {
              "name": "extraItemData",
              "type": "string"
            },
            {
              "name": "price",
              "type": "uint256"
            },
            {
              "name": "sellerAddress",
              "type": "address"
            },
            {
              "components": [
                {
                  "name": "owner",
                  "type": "address"
                },
                {
                  "name": "creationTimestamp",
                  "type": "uint256"
                },
                {
                  "name": "buyerTradeURL",
                  "type": "string"
                },
                {
                  "name": "exists",
                  "type": "bool"
                }
              ],
              "name": "purchaseOffer",
              "type": "tuple"
            },
            {
              "name": "exists",
              "type": "bool"
            }
          ],
          "indexed": false,
          "name": "listing",
          "type": "tuple"
        }
      ],
      "name": "TradeFulfilmentFail",
      "type": "event"
    },
    {
      "anonymous": false,
      "inputs": [
        {
          "indexed": true,
          "name": "previousOwner",
          "type": "address"
        }
      ],
      "name": "OwnershipRenounced",
      "type": "event"
    },
    {
      "anonymous": false,
      "inputs": [
        {
          "indexed": true,
          "name": "previousOwner",
          "type": "address"
        },
        {
          "indexed": true,
          "name": "newOwner",
          "type": "address"
        }
      ],
      "name": "OwnershipTransferred",
      "type": "event"
    },
    {
      "anonymous": false,
      "inputs": [
        {
          "indexed": true,
          "name": "id",
          "type": "bytes32"
        }
      ],
      "name": "ChainlinkRequested",
      "type": "event"
    },
    {
      "anonymous": false,
      "inputs": [
        {
          "indexed": true,
          "name": "id",
          "type": "bytes32"
        }
      ],
      "name": "ChainlinkFulfilled",
      "type": "event"
    },
    {
      "anonymous": false,
      "inputs": [
        {
          "indexed": true,
          "name": "id",
          "type": "bytes32"
        }
      ],
      "name": "ChainlinkCancelled",
      "type": "event"
    },
    {
      "constant": false,
      "inputs": [
        {
          "name": "_ownerInspectLink",
          "type": "string"
        },
        {
          "name": "_wear",
          "type": "string"
        },
        {
          "name": "_skinName",
          "type": "string"
        },
        {
          "name": "_paintSeed",
          "type": "uint256"
        },
        {
          "name": "_extraItemData",
          "type": "string"
        },
        {
          "name": "_price",
          "type": "uint256"
        },
        {
          "name": "_sellerAddress",
          "type": "address"
        }
      ],
      "name": "createListing",
      "outputs": [
        {
          "name": "listingId",
          "type": "uint256"
        }
      ],
      "payable": false,
      "stateMutability": "nonpayable",
      "type": "function"
    },
    {
      "constant": true,
      "inputs": [
        {
          "name": "_listingId",
          "type": "uint256"
        }
      ],
      "name": "getListing",
      "outputs": [
        {
          "components": [
            {
              "name": "listingId",
              "type": "uint256"
            },
            {
              "name": "ownerInspectLink",
              "type": "string"
            },
            {
              "name": "wear",
              "type": "string"
            },
            {
              "name": "skinName",
              "type": "string"
            },
            {
              "name": "paintSeed",
              "type": "uint256"
            },
            {
              "name": "extraItemData",
              "type": "string"
            },
            {
              "name": "price",
              "type": "uint256"
            },
            {
              "name": "sellerAddress",
              "type": "address"
            },
            {
              "components": [
                {
                  "name": "owner",
                  "type": "address"
                },
                {
                  "name": "creationTimestamp",
                  "type": "uint256"
                },
                {
                  "name": "buyerTradeURL",
                  "type": "string"
                },
                {
                  "name": "exists",
                  "type": "bool"
                }
              ],
              "name": "purchaseOffer",
              "type": "tuple"
            },
            {
              "name": "exists",
              "type": "bool"
            }
          ],
          "name": "listing",
          "type": "tuple"
        }
      ],
      "payable": false,
      "stateMutability": "view",
      "type": "function"
    },
    {
      "constant": true,
      "inputs": [],
      "name": "getListingsCount",
      "outputs": [
        {
          "name": "",
          "type": "uint256"
        }
      ],
      "payable": false,
      "stateMutability": "view",
      "type": "function"
    },
    {
      "constant": false,
      "inputs": [
        {
          "name": "_listingId",
          "type": "uint256"
        }
      ],
      "name": "deleteListing",
      "outputs": [],
      "payable": false,
      "stateMutability": "nonpayable",
      "type": "function"
    },
    {
      "constant": false,
      "inputs": [
        {
          "name": "_listingId",
          "type": "uint256"
        },
        {
          "name": "_buyerTradeURL",
          "type": "string"
        }
      ],
      "name": "createPurchaseOffer",
      "outputs": [],
      "payable": true,
      "stateMutability": "payable",
      "type": "function"
    },
    {
      "constant": false,
      "inputs": [
        {
          "name": "_listingId",
          "type": "uint256"
        }
      ],
      "name": "deletePurchaseOffer",
      "outputs": [],
      "payable": false,
      "stateMutability": "nonpayable",
      "type": "function"
    },
    {
      "constant": false,
      "inputs": [
        {
          "name": "_listingId",
          "type": "uint256"
        },
        {
          "name": "_oracle",
          "type": "address"
        },
        {
          "name": "_jobId",
          "type": "bytes32"
        },
        {
          "name": "_payment",
          "type": "uint256"
        },
        {
          "name": "_buyerInspectLink",
          "type": "string"
        }
      ],
      "name": "createItemTransferConfirmationRequest",
      "outputs": [
        {
          "name": "requestId",
          "type": "bytes32"
        }
      ],
      "payable": false,
      "stateMutability": "nonpayable",
      "type": "function"
    },
    {
      "constant": false,
      "inputs": [
        {
          "name": "_requestId",
          "type": "bytes32"
        },
        {
          "name": "_ownershipStatus",
          "type": "uint256"
        }
      ],
      "name": "fulfillItemTransferConfirmation",
      "outputs": [],
      "payable": false,
      "stateMutability": "nonpayable",
      "type": "function"
    },
    {
      "constant": false,
      "inputs": [
        {
          "name": "_requestId",
          "type": "bytes32"
        },
        {
          "name": "_payment",
          "type": "uint256"
        },
        {
          "name": "_expiration",
          "type": "uint256"
        }
      ],
      "name": "cancelRequest",
      "outputs": [],
      "payable": false,
      "stateMutability": "nonpayable",
      "type": "function"
    }
  ],
  "bytecode": "0x6080604052600160045560006007553480156200001b57600080fd5b506040516020806200579483398101806040526200003d91908101906200021e565b33600660006101000a81548173ffffffffffffffffffffffffffffffffffffffff021916908373ffffffffffffffffffffffffffffffffffffffff160217905550600073ffffffffffffffffffffffffffffffffffffffff168173ffffffffffffffffffffffffffffffffffffffff161415620000d357620000cd620000f5640100000000026401000000009004565b620000ee565b620000ed81620001c4640100000000026401000000009004565b5b506200026a565b620001c273c89bd4e1632d3a43cb03aaad5262cbe4038bc57173ffffffffffffffffffffffffffffffffffffffff166338cc48316040518163ffffffff167c0100000000000000000000000000000000000000000000000000000000028152600401602060405180830381600087803b1580156200017257600080fd5b505af115801562000187573d6000803e3d6000fd5b505050506040513d601f19601f82011682018060405250620001ad91908101906200021e565b620001c4640100000000026401000000009004565b565b80600260006101000a81548173ffffffffffffffffffffffffffffffffffffffff021916908373ffffffffffffffffffffffffffffffffffffffff16021790555050565b60006200021682516200024a565b905092915050565b6000602082840312156200023157600080fd5b6000620002418482850162000208565b91505092915050565b600073ffffffffffffffffffffffffffffffffffffffff82169050919050565b61551a806200027a6000396000f3006080604052600436106100f1576000357c0100000000000000000000000000000000000000000000000000000000900463ffffffff168063107a274a146100f657806333bfcdd81461013357806341d208441461015c5780634af4b4e614610199578063715018a6146101c45780638c64c812146101db5780638da5cb5b1461021857806391ca0b7914610243578063b0c6e3a01461026c578063b4e31a2214610297578063bf486b70146102c2578063c6d9b5f7146102ed578063c8b63c5114610318578063cbaa068f14610341578063d209be1e1461036c578063e6282c6e14610388578063f2fde38b146103b1575b600080fd5b34801561010257600080fd5b5061011d600480360361011891908101906149a1565b6103da565b60405161012a91906152d2565b60405180910390f35b34801561013f57600080fd5b5061015a60048036036101559190810190614854565b610852565b005b34801561016857600080fd5b50610183600480360361017e91908101906148a3565b6108e2565b6040516101909190615324565b60405180910390f35b3480156101a557600080fd5b506101ae610b58565b6040516101bb9190615324565b60405180910390f35b3480156101d057600080fd5b506101d9610b61565b005b3480156101e757600080fd5b5061020260048036036101fd91908101906149ca565b610c66565b60405161020f9190615110565b60405180910390f35b34801561022457600080fd5b5061022d61158c565b60405161023a9190615032565b60405180910390f35b34801561024f57600080fd5b5061026a60048036036102659190810190614818565b6115b2565b005b34801561027857600080fd5b50610281611f6f565b60405161028e9190615324565b60405180910390f35b3480156102a357600080fd5b506102ac611f74565b6040516102b99190615324565b60405180910390f35b3480156102ce57600080fd5b506102d7611f79565b6040516102e49190615170565b60405180910390f35b3480156102f957600080fd5b50610302611fd9565b60405161030f9190615324565b60405180910390f35b34801561032457600080fd5b5061033f600480360361033a91908101906149a1565b611fde565b005b34801561034d57600080fd5b50610356612816565b6040516103639190615324565b60405180910390f35b61038660048036036103819190810190614a59565b612820565b005b34801561039457600080fd5b506103af60048036036103aa91908101906149a1565b61306b565b005b3480156103bd57600080fd5b506103d860048036036103d391908101906147c6565b613786565b005b6103e26144e5565b60086000838152602001908152602001600020610140604051908101604052908160008201548152602001600182018054600181600116156101000203166002900480601f0160208091040260200160405190810160405280929190818152602001828054600181600116156101000203166002900480156104a55780601f1061047a576101008083540402835291602001916104a5565b820191906000526020600020905b81548152906001019060200180831161048857829003601f168201915b50505050508152602001600282018054600181600116156101000203166002900480601f0160208091040260200160405190810160405280929190818152602001828054600181600116156101000203166002900480156105475780601f1061051c57610100808354040283529160200191610547565b820191906000526020600020905b81548152906001019060200180831161052a57829003601f168201915b50505050508152602001600382018054600181600116156101000203166002900480601f0160208091040260200160405190810160405280929190818152602001828054600181600116156101000203166002900480156105e95780601f106105be576101008083540402835291602001916105e9565b820191906000526020600020905b8154815290600101906020018083116105cc57829003601f168201915b5050505050815260200160048201548152602001600582018054600181600116156101000203166002900480601f0160208091040260200160405190810160405280929190818152602001828054600181600116156101000203166002900480156106955780601f1061066a57610100808354040283529160200191610695565b820191906000526020600020905b81548152906001019060200180831161067857829003601f168201915b50505050508152602001600682015481526020016007820160009054906101000a900473ffffffffffffffffffffffffffffffffffffffff1673ffffffffffffffffffffffffffffffffffffffff1673ffffffffffffffffffffffffffffffffffffffff16815260200160088201608060405190810160405290816000820160009054906101000a900473ffffffffffffffffffffffffffffffffffffffff1673ffffffffffffffffffffffffffffffffffffffff1673ffffffffffffffffffffffffffffffffffffffff16815260200160018201548152602001600282018054600181600116156101000203166002900480601f0160208091040260200160405190810160405280929190818152602001828054600181600116156101000203166002900480156108085780601f106107dd57610100808354040283529160200191610808565b820191906000526020600020905b8154815290600101906020018083116107eb57829003601f168201915b505050505081526020016003820160009054906101000a900460ff1615151515815250508152602001600c820160009054906101000a900460ff1615151515815250509050919050565b600660009054906101000a900473ffffffffffffffffffffffffffffffffffffffff1673ffffffffffffffffffffffffffffffffffffffff163373ffffffffffffffffffffffffffffffffffffffff161415156108ae57600080fd5b6108dd83836391ca0b797c010000000000000000000000000000000000000000000000000000000002846137ee565b505050565b60006108ec614557565b6108f46144e5565b60076000815480929190600101919050559250610140604051908101604052808481526020018b81526020018a81526020018981526020018881526020018781526020018681526020018573ffffffffffffffffffffffffffffffffffffffff1681526020018381526020016001151581525090507fe539b388b6d741575d61aa86403070db849788f2c5e5ff1bcccd3b5e675a74cc8160405161099891906152d2565b60405180910390a180600860008581526020019081526020016000206000820151816000015560208201518160010190805190602001906109da929190614598565b5060408201518160020190805190602001906109f7929190614598565b506060820151816003019080519060200190610a14929190614598565b506080820151816004015560a0820151816005019080519060200190610a3b929190614598565b5060c0820151816006015560e08201518160070160006101000a81548173ffffffffffffffffffffffffffffffffffffffff021916908373ffffffffffffffffffffffffffffffffffffffff1602179055506101008201518160080160008201518160000160006101000a81548173ffffffffffffffffffffffffffffffffffffffff021916908373ffffffffffffffffffffffffffffffffffffffff160217905550602082015181600101556040820151816002019080519060200190610b04929190614598565b5060608201518160030160006101000a81548160ff021916908315150217905550505061012082015181600c0160006101000a81548160ff0219169083151502179055509050505050979650505050505050565b6006610e100281565b600660009054906101000a900473ffffffffffffffffffffffffffffffffffffffff1673ffffffffffffffffffffffffffffffffffffffff163373ffffffffffffffffffffffffffffffffffffffff16141515610bbd57600080fd5b600660009054906101000a900473ffffffffffffffffffffffffffffffffffffffff1673ffffffffffffffffffffffffffffffffffffffff167ff8df31144d9c2f0f6b59d69b8b98abd5459d07f2742c4df920b25aae33c6482060405160405180910390a26000600660006101000a81548173ffffffffffffffffffffffffffffffffffffffff021916908373ffffffffffffffffffffffffffffffffffffffff160217905550565b6000610c706144e5565b610c78614618565b6060600660009054906101000a900473ffffffffffffffffffffffffffffffffffffffff1673ffffffffffffffffffffffffffffffffffffffff163373ffffffffffffffffffffffffffffffffffffffff16141515610cd657600080fd5b600860008a8152602001908152602001600020610140604051908101604052908160008201548152602001600182018054600181600116156101000203166002900480601f016020809104026020016040519081016040528092919081815260200182805460018160011615610100020316600290048015610d995780601f10610d6e57610100808354040283529160200191610d99565b820191906000526020600020905b815481529060010190602001808311610d7c57829003601f168201915b50505050508152602001600282018054600181600116156101000203166002900480601f016020809104026020016040519081016040528092919081815260200182805460018160011615610100020316600290048015610e3b5780601f10610e1057610100808354040283529160200191610e3b565b820191906000526020600020905b815481529060010190602001808311610e1e57829003601f168201915b50505050508152602001600382018054600181600116156101000203166002900480601f016020809104026020016040519081016040528092919081815260200182805460018160011615610100020316600290048015610edd5780601f10610eb257610100808354040283529160200191610edd565b820191906000526020600020905b815481529060010190602001808311610ec057829003601f168201915b5050505050815260200160048201548152602001600582018054600181600116156101000203166002900480601f016020809104026020016040519081016040528092919081815260200182805460018160011615610100020316600290048015610f895780601f10610f5e57610100808354040283529160200191610f89565b820191906000526020600020905b815481529060010190602001808311610f6c57829003601f168201915b50505050508152602001600682015481526020016007820160009054906101000a900473ffffffffffffffffffffffffffffffffffffffff1673ffffffffffffffffffffffffffffffffffffffff1673ffffffffffffffffffffffffffffffffffffffff16815260200160088201608060405190810160405290816000820160009054906101000a900473ffffffffffffffffffffffffffffffffffffffff1673ffffffffffffffffffffffffffffffffffffffff1673ffffffffffffffffffffffffffffffffffffffff16815260200160018201548152602001600282018054600181600116156101000203166002900480601f0160208091040260200160405190810160405280929190818152602001828054600181600116156101000203166002900480156110fc5780601f106110d1576101008083540402835291602001916110fc565b820191906000526020600020905b8154815290600101906020018083116110df57829003601f168201915b505050505081526020016003820160009054906101000a900460ff1615151515815250508152602001600c820160009054906101000a900460ff1615151515815250509250600115158361012001511515146040805190810160405280601181526020017f4c697374696e67206e6f7420666f756e640000000000000000000000000000008152509015156111c7576040517f08c379a00000000000000000000000000000000000000000000000000000000081526004016111be9190615170565b60405180910390fd5b506001151583610100015160600151151514151561121a576040517f08c379a0000000000000000000000000000000000000000000000000000000008152600401611211906152b2565b60405180910390fd5b61124887306391ca0b797c010000000000000000000000000000000000000000000000000000000002613931565b91506112f06040805190810160405280600681526020017f6d6574686f640000000000000000000000000000000000000000000000000000815250606060405190810160405280602181526020017f747261646575726c6f776e6572686173696e73706563746c696e6b746172676581526020017f7400000000000000000000000000000000000000000000000000000000000000815250846139629092919063ffffffff16565b61133a6040805190810160405280600b81526020017f696e73706563744c696e6b00000000000000000000000000000000000000000081525086846139629092919063ffffffff16565b61138d6040805190810160405280600881526020017f747261646555524c00000000000000000000000000000000000000000000000081525084610100015160400151846139629092919063ffffffff16565b6113db6040805190810160405280600481526020017f77656172000000000000000000000000000000000000000000000000000000008152508460400151846139629092919063ffffffff16565b6114296040805190810160405280600881526020017f736b696e4e616d650000000000000000000000000000000000000000000000008152508460600151846139629092919063ffffffff16565b61147f6040805190810160405280600981526020017f7061696e7453656564000000000000000000000000000000000000000000000081525061146f8560800151613995565b846139629092919063ffffffff16565b60016040519080825280602002602001820160405280156114b457816020015b606081526020019060019003908161149f5790505b5090506040805190810160405280600c81526020017f636f6e7461696e734974656d00000000000000000000000000000000000000008152508160008151811015156114fc57fe5b906020019060200201819052506115536040805190810160405280600881526020017f636f7079506174680000000000000000000000000000000000000000000000008152508284613aec9092919063ffffffff16565b61155e888388613b6e565b9350886009600086600019166000191681526020019081526020016000208190555050505095945050505050565b600660009054906101000a900473ffffffffffffffffffffffffffffffffffffffff1681565b60006115bc6144e5565b8360056000826000191660001916815260200190815260200160002060009054906101000a900473ffffffffffffffffffffffffffffffffffffffff1673ffffffffffffffffffffffffffffffffffffffff163373ffffffffffffffffffffffffffffffffffffffff16141515611668576040517f08c379a000000000000000000000000000000000000000000000000000000000815260040161165f90615272565b60405180910390fd5b60056000826000191660001916815260200190815260200160002060006101000a81549073ffffffffffffffffffffffffffffffffffffffff021916905580600019167f7cc135e0cebb02c3480ae5d74d377283180a2601f8f644edf7987b009316c63a60405160405180910390a260096000866000191660001916815260200190815260200160002054925060086000848152602001908152602001600020610140604051908101604052908160008201548152602001600182018054600181600116156101000203166002900480601f0160208091040260200160405190810160405280929190818152602001828054600181600116156101000203166002900480156117b85780601f1061178d576101008083540402835291602001916117b8565b820191906000526020600020905b81548152906001019060200180831161179b57829003601f168201915b50505050508152602001600282018054600181600116156101000203166002900480601f01602080910402602001604051908101604052809291908181526020018280546001816001161561010002031660029004801561185a5780601f1061182f5761010080835404028352916020019161185a565b820191906000526020600020905b81548152906001019060200180831161183d57829003601f168201915b50505050508152602001600382018054600181600116156101000203166002900480601f0160208091040260200160405190810160405280929190818152602001828054600181600116156101000203166002900480156118fc5780601f106118d1576101008083540402835291602001916118fc565b820191906000526020600020905b8154815290600101906020018083116118df57829003601f168201915b5050505050815260200160048201548152602001600582018054600181600116156101000203166002900480601f0160208091040260200160405190810160405280929190818152602001828054600181600116156101000203166002900480156119a85780601f1061197d576101008083540402835291602001916119a8565b820191906000526020600020905b81548152906001019060200180831161198b57829003601f168201915b50505050508152602001600682015481526020016007820160009054906101000a900473ffffffffffffffffffffffffffffffffffffffff1673ffffffffffffffffffffffffffffffffffffffff1673ffffffffffffffffffffffffffffffffffffffff16815260200160088201608060405190810160405290816000820160009054906101000a900473ffffffffffffffffffffffffffffffffffffffff1673ffffffffffffffffffffffffffffffffffffffff1673ffffffffffffffffffffffffffffffffffffffff16815260200160018201548152602001600282018054600181600116156101000203166002900480601f016020809104026020016040519081016040528092919081815260200182805460018160011615610100020316600290048015611b1b5780601f10611af057610100808354040283529160200191611b1b565b820191906000526020600020905b815481529060010190602001808311611afe57829003601f168201915b505050505081526020016003820160009054906101000a900460ff1615151515815250508152602001600c820160009054906101000a900460ff1615151515815250509150600115158261012001511515146040805190810160405280601181526020017f4c697374696e67206e6f7420666f756e64000000000000000000000000000000815250901515611be6576040517f08c379a0000000000000000000000000000000000000000000000000000000008152600401611bdd9190615170565b60405180910390fd5b5060011515826101000151606001511515141515611c39576040517f08c379a0000000000000000000000000000000000000000000000000000000008152600401611c3090615232565b60405180910390fd5b6001841415611d8b578160e0015173ffffffffffffffffffffffffffffffffffffffff166108fc8360c001519081150290604051600060405180830381858888f19350505050158015611c90573d6000803e3d6000fd5b508161010001516000015173ffffffffffffffffffffffffffffffffffffffff16826101000151604001516040518082805190602001908083835b602083101515611cf05780518252602082019150602081019050602083039250611ccb565b6001836020036101000a03801982511681845116808217855250505050505090500191505060405180910390207f605be04fcd02ac6746870632461fcbbbd524668fa24cf233eef9cc36d400dfee846000604051611d4f9291906152f4565b60405180910390a3600060086000858152602001908152602001600020600c0160006101000a81548160ff021916908315150217905550611f68565b6002841415611edd578160e0015173ffffffffffffffffffffffffffffffffffffffff166108fc8360c001519081150290604051600060405180830381858888f19350505050158015611de2573d6000803e3d6000fd5b508161010001516000015173ffffffffffffffffffffffffffffffffffffffff16826101000151604001516040518082805190602001908083835b602083101515611e425780518252602082019150602081019050602083039250611e1d565b6001836020036101000a03801982511681845116808217855250505050505090500191505060405180910390207f605be04fcd02ac6746870632461fcbbbd524668fa24cf233eef9cc36d400dfee846001604051611ea19291906152f4565b60405180910390a3600060086000858152602001908152602001600020600c0160006101000a81548160ff021916908315150217905550611f67565b6000841415611f22577f0eeeb64e033b0a06c275c4b633e27f9af17e1cfc06ee48a03cd1f46f4339334882604051611f1591906152d2565b60405180910390a1611f66565b60001515611f65576040517f08c379a0000000000000000000000000000000000000000000000000000000008152600401611f5c906151b2565b60405180910390fd5b5b5b5b5050505050565b600181565b600081565b606060405190810160405280602181526020017f747261646575726c6f776e6572686173696e73706563746c696e6b746172676581526020017f740000000000000000000000000000000000000000000000000000000000000081525081565b600281565b611fe66144e5565b600060086000848152602001908152602001600020610140604051908101604052908160008201548152602001600182018054600181600116156101000203166002900480601f0160208091040260200160405190810160405280929190818152602001828054600181600116156101000203166002900480156120ab5780601f10612080576101008083540402835291602001916120ab565b820191906000526020600020905b81548152906001019060200180831161208e57829003601f168201915b50505050508152602001600282018054600181600116156101000203166002900480601f01602080910402602001604051908101604052809291908181526020018280546001816001161561010002031660029004801561214d5780601f106121225761010080835404028352916020019161214d565b820191906000526020600020905b81548152906001019060200180831161213057829003601f168201915b50505050508152602001600382018054600181600116156101000203166002900480601f0160208091040260200160405190810160405280929190818152602001828054600181600116156101000203166002900480156121ef5780601f106121c4576101008083540402835291602001916121ef565b820191906000526020600020905b8154815290600101906020018083116121d257829003601f168201915b5050505050815260200160048201548152602001600582018054600181600116156101000203166002900480601f01602080910402602001604051908101604052809291908181526020018280546001816001161561010002031660029004801561229b5780601f106122705761010080835404028352916020019161229b565b820191906000526020600020905b81548152906001019060200180831161227e57829003601f168201915b50505050508152602001600682015481526020016007820160009054906101000a900473ffffffffffffffffffffffffffffffffffffffff1673ffffffffffffffffffffffffffffffffffffffff1673ffffffffffffffffffffffffffffffffffffffff16815260200160088201608060405190810160405290816000820160009054906101000a900473ffffffffffffffffffffffffffffffffffffffff1673ffffffffffffffffffffffffffffffffffffffff1673ffffffffffffffffffffffffffffffffffffffff16815260200160018201548152602001600282018054600181600116156101000203166002900480601f01602080910402602001604051908101604052809291908181526020018280546001816001161561010002031660029004801561240e5780601f106123e35761010080835404028352916020019161240e565b820191906000526020600020905b8154815290600101906020018083116123f157829003601f168201915b505050505081526020016003820160009054906101000a900460ff1615151515815250508152602001600c820160009054906101000a900460ff1615151515815250509150600115158261012001511515146040805190810160405280601181526020017f4c697374696e67206e6f7420666f756e640000000000000000000000000000008152509015156124d9576040517f08c379a00000000000000000000000000000000000000000000000000000000081526004016124d09190615170565b60405180910390fd5b506001151582610100015160600151151514151561252c576040517f08c379a000000000000000000000000000000000000000000000000000000000815260040161252390615252565b60405180910390fd5b3373ffffffffffffffffffffffffffffffffffffffff168261010001516000015173ffffffffffffffffffffffffffffffffffffffff161415156125a5576040517f08c379a000000000000000000000000000000000000000000000000000000000815260040161259c90615212565b60405180910390fd5b81610100015160200151420390506006610e1002811115156125fc576040517f08c379a00000000000000000000000000000000000000000000000000000000081526004016125f3906151f2565b60405180910390fd5b8161010001516000015173ffffffffffffffffffffffffffffffffffffffff166108fc8360c001519081150290604051600060405180830381858888f1935050505015801561264f573d6000803e3d6000fd5b506000826101000151606001901515908115158152505081600860008581526020019081526020016000206000820151816000015560208201518160010190805190602001906126a0929190614598565b5060408201518160020190805190602001906126bd929190614598565b5060608201518160030190805190602001906126da929190614598565b506080820151816004015560a0820151816005019080519060200190612701929190614598565b5060c0820151816006015560e08201518160070160006101000a81548173ffffffffffffffffffffffffffffffffffffffff021916908373ffffffffffffffffffffffffffffffffffffffff1602179055506101008201518160080160008201518160000160006101000a81548173ffffffffffffffffffffffffffffffffffffffff021916908373ffffffffffffffffffffffffffffffffffffffff1602179055506020820151816001015560408201518160020190805190602001906127ca929190614598565b5060608201518160030160006101000a81548160ff021916908315150217905550505061012082015181600c0160006101000a81548160ff021916908315150217905550905050505050565b6000600754905090565b6128286144e5565b6000612832614557565b60086000868152602001908152602001600020610140604051908101604052908160008201548152602001600182018054600181600116156101000203166002900480601f0160208091040260200160405190810160405280929190818152602001828054600181600116156101000203166002900480156128f55780601f106128ca576101008083540402835291602001916128f5565b820191906000526020600020905b8154815290600101906020018083116128d857829003601f168201915b50505050508152602001600282018054600181600116156101000203166002900480601f0160208091040260200160405190810160405280929190818152602001828054600181600116156101000203166002900480156129975780601f1061296c57610100808354040283529160200191612997565b820191906000526020600020905b81548152906001019060200180831161297a57829003601f168201915b50505050508152602001600382018054600181600116156101000203166002900480601f016020809104026020016040519081016040528092919081815260200182805460018160011615610100020316600290048015612a395780601f10612a0e57610100808354040283529160200191612a39565b820191906000526020600020905b815481529060010190602001808311612a1c57829003601f168201915b5050505050815260200160048201548152602001600582018054600181600116156101000203166002900480601f016020809104026020016040519081016040528092919081815260200182805460018160011615610100020316600290048015612ae55780601f10612aba57610100808354040283529160200191612ae5565b820191906000526020600020905b815481529060010190602001808311612ac857829003601f168201915b50505050508152602001600682015481526020016007820160009054906101000a900473ffffffffffffffffffffffffffffffffffffffff1673ffffffffffffffffffffffffffffffffffffffff1673ffffffffffffffffffffffffffffffffffffffff16815260200160088201608060405190810160405290816000820160009054906101000a900473ffffffffffffffffffffffffffffffffffffffff1673ffffffffffffffffffffffffffffffffffffffff1673ffffffffffffffffffffffffffffffffffffffff16815260200160018201548152602001600282018054600181600116156101000203166002900480601f016020809104026020016040519081016040528092919081815260200182805460018160011615610100020316600290048015612c585780601f10612c2d57610100808354040283529160200191612c58565b820191906000526020600020905b815481529060010190602001808311612c3b57829003601f168201915b505050505081526020016003820160009054906101000a900460ff1615151515815250508152602001600c820160009054906101000a900460ff1615151515815250509250600115158361012001511515146040805190810160405280601181526020017f4c697374696e67206e6f7420666f756e64000000000000000000000000000000815250901515612d23576040517f08c379a0000000000000000000000000000000000000000000000000000000008152600401612d1a9190615170565b60405180910390fd5b5060001515836101000151606001511515141515612d76576040517f08c379a0000000000000000000000000000000000000000000000000000000008152600401612d6d90615292565b60405180910390fd5b348360c00151141515612dbe576040517f08c379a0000000000000000000000000000000000000000000000000000000008152600401612db5906151d2565b60405180910390fd5b4291506080604051908101604052803373ffffffffffffffffffffffffffffffffffffffff168152602001838152602001858152602001600115158152509050808361010001819052503373ffffffffffffffffffffffffffffffffffffffff16846040518082805190602001908083835b602083101515612e555780518252602082019150602081019050602083039250612e30565b6001836020036101000a03801982511681845116808217855250505050505090500191505060405180910390207f2414a6846fd51791dcac3602f18917f301617892ec0d5de2d6858a64abf7c86c85604051612eb191906152d2565b60405180910390a38260086000878152602001908152602001600020600082015181600001556020820151816001019080519060200190612ef3929190614598565b506040820151816002019080519060200190612f10929190614598565b506060820151816003019080519060200190612f2d929190614598565b506080820151816004015560a0820151816005019080519060200190612f54929190614598565b5060c0820151816006015560e08201518160070160006101000a81548173ffffffffffffffffffffffffffffffffffffffff021916908373ffffffffffffffffffffffffffffffffffffffff1602179055506101008201518160080160008201518160000160006101000a81548173ffffffffffffffffffffffffffffffffffffffff021916908373ffffffffffffffffffffffffffffffffffffffff16021790555060208201518160010155604082015181600201908051906020019061301d929190614598565b5060608201518160030160006101000a81548160ff021916908315150217905550505061012082015181600c0160006101000a81548160ff0219169083151502179055509050505050505050565b6130736144e5565b600660009054906101000a900473ffffffffffffffffffffffffffffffffffffffff1673ffffffffffffffffffffffffffffffffffffffff163373ffffffffffffffffffffffffffffffffffffffff161415156130cf57600080fd5b60086000838152602001908152602001600020610140604051908101604052908160008201548152602001600182018054600181600116156101000203166002900480601f0160208091040260200160405190810160405280929190818152602001828054600181600116156101000203166002900480156131925780601f1061316757610100808354040283529160200191613192565b820191906000526020600020905b81548152906001019060200180831161317557829003601f168201915b50505050508152602001600282018054600181600116156101000203166002900480601f0160208091040260200160405190810160405280929190818152602001828054600181600116156101000203166002900480156132345780601f1061320957610100808354040283529160200191613234565b820191906000526020600020905b81548152906001019060200180831161321757829003601f168201915b50505050508152602001600382018054600181600116156101000203166002900480601f0160208091040260200160405190810160405280929190818152602001828054600181600116156101000203166002900480156132d65780601f106132ab576101008083540402835291602001916132d6565b820191906000526020600020905b8154815290600101906020018083116132b957829003601f168201915b5050505050815260200160048201548152602001600582018054600181600116156101000203166002900480601f0160208091040260200160405190810160405280929190818152602001828054600181600116156101000203166002900480156133825780601f1061335757610100808354040283529160200191613382565b820191906000526020600020905b81548152906001019060200180831161336557829003601f168201915b50505050508152602001600682015481526020016007820160009054906101000a900473ffffffffffffffffffffffffffffffffffffffff1673ffffffffffffffffffffffffffffffffffffffff1673ffffffffffffffffffffffffffffffffffffffff16815260200160088201608060405190810160405290816000820160009054906101000a900473ffffffffffffffffffffffffffffffffffffffff1673ffffffffffffffffffffffffffffffffffffffff1673ffffffffffffffffffffffffffffffffffffffff16815260200160018201548152602001600282018054600181600116156101000203166002900480601f0160208091040260200160405190810160405280929190818152602001828054600181600116156101000203166002900480156134f55780601f106134ca576101008083540402835291602001916134f5565b820191906000526020600020905b8154815290600101906020018083116134d857829003601f168201915b505050505081526020016003820160009054906101000a900460ff1615151515815250508152602001600c820160009054906101000a900460ff1615151515815250509050600115158161012001511515146040805190810160405280601181526020017f4c697374696e67206e6f7420666f756e640000000000000000000000000000008152509015156135c0576040517f08c379a00000000000000000000000000000000000000000000000000000000081526004016135b79190615170565b60405180910390fd5b5080610100015160600151156136ef578061010001516000015173ffffffffffffffffffffffffffffffffffffffff166108fc8260c001519081150290604051600060405180830381858888f19350505050158015613623573d6000803e3d6000fd5b508061010001516000015173ffffffffffffffffffffffffffffffffffffffff16816101000151604001516040518082805190602001908083835b602083101515613683578051825260208201915060208101905060208303925061365e565b6001836020036101000a03801982511681845116808217855250505050505090500191505060405180910390207f605be04fcd02ac6746870632461fcbbbd524668fa24cf233eef9cc36d400dfee8360026040516136e29291906152f4565b60405180910390a3613753565b600073ffffffffffffffffffffffffffffffffffffffff1660405180600001905060405180910390207f605be04fcd02ac6746870632461fcbbbd524668fa24cf233eef9cc36d400dfee83600260405161374a9291906152f4565b60405180910390a35b600060086000848152602001908152602001600020600c0160006101000a81548160ff0219169083151502179055505050565b600660009054906101000a900473ffffffffffffffffffffffffffffffffffffffff1673ffffffffffffffffffffffffffffffffffffffff163373ffffffffffffffffffffffffffffffffffffffff161415156137e257600080fd5b6137eb81613e01565b50565b600060056000866000191660001916815260200190815260200160002060009054906101000a900473ffffffffffffffffffffffffffffffffffffffff16905060056000866000191660001916815260200190815260200160002060006101000a81549073ffffffffffffffffffffffffffffffffffffffff021916905584600019167fe1fe3afa0f7f761ff0a8b89086790efd5140d2907ebd5b7ff6bfcb5e075fd4c560405160405180910390a28073ffffffffffffffffffffffffffffffffffffffff16636ee4d553868686866040518563ffffffff167c01000000000000000000000000000000000000000000000000000000000281526004016138f8949392919061512b565b600060405180830381600087803b15801561391257600080fd5b505af1158015613926573d6000803e3d6000fd5b505050505050505050565b613939614618565b613941614618565b61395885858584613efd909392919063ffffffff16565b9150509392505050565b613979828460800151613fb790919063ffffffff16565b613990818460800151613fb790919063ffffffff16565b505050565b606060008060606000808614156139e3576040805190810160405280600181526020017f30000000000000000000000000000000000000000000000000000000000000008152509450613ae3565b8593505b600084141515613a0d578280600101935050600a84811515613a0557fe5b0493506139e7565b826040519080825280601f01601f191660200182016040528015613a405781602001602082028038833980820191505090505b5091506001830390505b600086141515613adf57600a86811515613a6057fe5b066030017f010000000000000000000000000000000000000000000000000000000000000002828280600190039350815181101515613a9b57fe5b9060200101907effffffffffffffffffffffffffffffffffffffffffffffffffffffffffffff1916908160001a905350600a86811515613ad757fe5b049550613a4a565b8194505b50505050919050565b6000613b05838560800151613fb790919063ffffffff16565b613b128460800151613fdc565b600090505b8151811015613b5b57613b4e8282815181101515613b3157fe5b906020019060200201518560800151613fb790919063ffffffff16565b8080600101915050613b17565b613b688460800151613fea565b50505050565b600030600454604051602001808373ffffffffffffffffffffffffffffffffffffffff1673ffffffffffffffffffffffffffffffffffffffff166c01000000000000000000000000028152601401828152602001925050506040516020818303038152906040526040518082805190602001908083835b602083101515613c0a5780518252602082019150602081019050602083039250613be5565b6001836020036101000a038019825116818451168082178552505050505050905001915050604051809103902090506004548360600181815250508360056000836000191660001916815260200190815260200160002060006101000a81548173ffffffffffffffffffffffffffffffffffffffff021916908373ffffffffffffffffffffffffffffffffffffffff16021790555080600019167fb5e6e01e79f91267dc17b4e6314d5d4d03593d2ceee0fbb452b750bd70ea5af960405160405180910390a2600260009054906101000a900473ffffffffffffffffffffffffffffffffffffffff1673ffffffffffffffffffffffffffffffffffffffff16634000aea08584613d1987613ff8565b6040518463ffffffff167c0100000000000000000000000000000000000000000000000000000000028152600401613d53939291906150d2565b602060405180830381600087803b158015613d6d57600080fd5b505af1158015613d81573d6000803e3d6000fd5b505050506040513d601f19601f82011682018060405250613da591908101906147ef565b1515613de6576040517f08c379a0000000000000000000000000000000000000000000000000000000008152600401613ddd90615192565b60405180910390fd5b60016004600082825401925050819055508090509392505050565b600073ffffffffffffffffffffffffffffffffffffffff168173ffffffffffffffffffffffffffffffffffffffff1614151515613e3d57600080fd5b8073ffffffffffffffffffffffffffffffffffffffff16600660009054906101000a900473ffffffffffffffffffffffffffffffffffffffff1673ffffffffffffffffffffffffffffffffffffffff167f8be0079c531659141344cd1fd0a4f28419497f9722a3daafe3b4186f6b6457e060405160405180910390a380600660006101000a81548173ffffffffffffffffffffffffffffffffffffffff021916908373ffffffffffffffffffffffffffffffffffffffff16021790555050565b613f05614618565b613f1585608001516101006140f6565b50838560000190600019169081600019168152505082856020019073ffffffffffffffffffffffffffffffffffffffff16908173ffffffffffffffffffffffffffffffffffffffff16815250508185604001907bffffffffffffffffffffffffffffffffffffffffffffffffffffffff191690817bffffffffffffffffffffffffffffffffffffffffffffffffffffffff191681525050849050949350505050565b613fc48260038351614150565b613fd781836142ae90919063ffffffff16565b505050565b613fe78160046142d0565b50565b613ff58160076142d0565b50565b6060600360009054906101000a900473ffffffffffffffffffffffffffffffffffffffff1673ffffffffffffffffffffffffffffffffffffffff16634042994690507c0100000000000000000000000000000000000000000000000000000000026000808460000151856020015186604001518760600151600189608001516000015160405160240161409298979695949392919061504d565b604051602081830303815290604052907bffffffffffffffffffffffffffffffffffffffffffffffffffffffff19166020820180517bffffffffffffffffffffffffffffffffffffffffffffffffffffffff83818316178352505050509050919050565b6140fe614686565b600060208381151561410c57fe5b061415156141295760208281151561412057fe5b06602003820191505b81836020018181525050604051808452600081528281016020016040525082905092915050565b6017811115156141825761417c8160058460ff169060020a0260ff1617846142f590919063ffffffff16565b506142a9565b60ff811115156141c9576141ac601860058460ff169060020a0217846142f590919063ffffffff16565b506141c3816001856143159092919063ffffffff16565b506142a8565b61ffff81111515614211576141f4601960058460ff169060020a0217846142f590919063ffffffff16565b5061420b816002856143159092919063ffffffff16565b506142a7565b63ffffffff8111151561425b5761423e601a60058460ff169060020a0217846142f590919063ffffffff16565b50614255816004856143159092919063ffffffff16565b506142a6565b67ffffffffffffffff811115156142a55761428c601b60058460ff169060020a0217846142f590919063ffffffff16565b506142a3816008856143159092919063ffffffff16565b505b5b5b5b5b505050565b6142b6614686565b6142c883846000015151848551614337565b905092915050565b6142f0601f60058360ff169060020a0217836142f590919063ffffffff16565b505050565b6142fd614686565b61430d83846000015151846143f4565b905092915050565b61431d614686565b61432e848560000151518585614444565b90509392505050565b61433f614686565b60008060008551851115151561435457600080fd5b8760200151858801111561437f5761437e8860026143788b602001518b8a016144a5565b026144c1565b5b87518051886020830101945080898801111561439b5788870182525b60208801935050505b6020851015156143c957815183526020830192506020820191506020850394506143a4565b6001856020036101000a03905080198251168184511681811785525050879350505050949350505050565b6143fc614686565b83602001518310151561441b5761441a8460028660200151026144c1565b5b8351805160208583010184815381861415614437576001820183525b5050508390509392505050565b61444c614686565b60008560200151858401111561446c5761446b866002878601026144c1565b5b6001836101000a03905085518386820101858319825116178152815185880111156144975784870182525b505085915050949350505050565b6000818311156144b7578290506144bb565b8190505b92915050565b6060826000015190506144d483836140f6565b506144df83826142ae565b50505050565b6101a06040519081016040528060008152602001606081526020016060815260200160608152602001600081526020016060815260200160008152602001600073ffffffffffffffffffffffffffffffffffffffff1681526020016145486146a0565b81526020016000151581525090565b608060405190810160405280600073ffffffffffffffffffffffffffffffffffffffff16815260200160008152602001606081526020016000151581525090565b828054600181600116156101000203166002900490600052602060002090601f016020900481019282601f106145d957805160ff1916838001178555614607565b82800160010185558215614607579182015b828111156146065782518255916020019190600101906145eb565b5b50905061461491906146e1565b5090565b60c06040519081016040528060008019168152602001600073ffffffffffffffffffffffffffffffffffffffff16815260200160007bffffffffffffffffffffffffffffffffffffffffffffffffffffffff1916815260200160008152602001614680614706565b81525090565b604080519081016040528060608152602001600081525090565b608060405190810160405280600073ffffffffffffffffffffffffffffffffffffffff16815260200160008152602001606081526020016000151581525090565b61470391905b808211156146ff5760008160009055506001016146e7565b5090565b90565b604080519081016040528060608152602001600081525090565b600061472c823561543b565b905092915050565b6000614740825161545b565b905092915050565b60006147548235615467565b905092915050565b600082601f830112151561476f57600080fd5b813561478261477d8261536c565b61533f565b9150808252602083016020830185838301111561479e57600080fd5b6147a983828461548d565b50505092915050565b60006147be8235615471565b905092915050565b6000602082840312156147d857600080fd5b60006147e684828501614720565b91505092915050565b60006020828403121561480157600080fd5b600061480f84828501614734565b91505092915050565b6000806040838503121561482b57600080fd5b600061483985828601614748565b925050602061484a858286016147b2565b9150509250929050565b60008060006060848603121561486957600080fd5b600061487786828701614748565b9350506020614888868287016147b2565b9250506040614899868287016147b2565b9150509250925092565b600080600080600080600060e0888a0312156148be57600080fd5b600088013567ffffffffffffffff8111156148d857600080fd5b6148e48a828b0161475c565b975050602088013567ffffffffffffffff81111561490157600080fd5b61490d8a828b0161475c565b965050604088013567ffffffffffffffff81111561492a57600080fd5b6149368a828b0161475c565b95505060606149478a828b016147b2565b945050608088013567ffffffffffffffff81111561496457600080fd5b6149708a828b0161475c565b93505060a06149818a828b016147b2565b92505060c06149928a828b01614720565b91505092959891949750929550565b6000602082840312156149b357600080fd5b60006149c1848285016147b2565b91505092915050565b600080600080600060a086880312156149e257600080fd5b60006149f0888289016147b2565b9550506020614a0188828901614720565b9450506040614a1288828901614748565b9350506060614a23888289016147b2565b925050608086013567ffffffffffffffff811115614a4057600080fd5b614a4c8882890161475c565b9150509295509295909350565b60008060408385031215614a6c57600080fd5b6000614a7a858286016147b2565b925050602083013567ffffffffffffffff811115614a9757600080fd5b614aa38582860161475c565b9150509250929050565b614ab6816153b9565b82525050565b614ac5816153d9565b82525050565b614ad4816153e5565b82525050565b614ae3816153ef565b82525050565b6000614af4826153a3565b808452614b0881602086016020860161549c565b614b11816154cf565b602085010191505092915050565b6000614b2a82615398565b808452614b3e81602086016020860161549c565b614b47816154cf565b602085010191505092915050565b614b5e8161547b565b82525050565b6000614b6f826153ae565b808452614b8381602086016020860161549c565b614b8c816154cf565b602085010191505092915050565b6000602382527f756e61626c6520746f207472616e73666572416e6443616c6c20746f206f726160208301527f636c6500000000000000000000000000000000000000000000000000000000006040830152606082019050919050565b6000602882527f6f776e6572736869705374617475732068617320616e20756e737570706f727460208301527f65642076616c75650000000000000000000000000000000000000000000000006040830152606082019050919050565b6000601c82527f507269636520616e642076616c756520646f206e6f74206d61746368000000006020830152604082019050919050565b6000603682527f546865206d696e696d756d20626c6f636b2061676520726571756972656d656e60208301527f74206e6f74206d657420666f722064656c6574696f6e000000000000000000006040830152606082019050919050565b6000602c82527f4f6e6c7920746865206f776e65722063616e2064656c6574652074686520707560208301527f726368617365206f6666657200000000000000000000000000000000000000006040830152606082019050919050565b6000601d82527f4c697374696e6720686173206e6f207075726368617365206f666665720000006020830152604082019050919050565b6000601d82527f5075726368617365206f6666657220646f6573206e6f742065786973740000006020830152604082019050919050565b6000602882527f536f75726365206d75737420626520746865206f7261636c65206f662074686560208301527f20726571756573740000000000000000000000000000000000000000000000006040830152606082019050919050565b6000602482527f4c697374696e6720616c7265616479206861732061207075726368617365206f60208301527f66666572000000000000000000000000000000000000000000000000000000006040830152606082019050919050565b6000602a82527f546865206c697374696e6720686173206e6f742079657420726563656976656460208301527f20616e206f666665722e000000000000000000000000000000000000000000006040830152606082019050919050565b600061014083016000830151614ee36000860182615023565b5060208301518482036020860152614efb8282614b64565b91505060408301518482036040860152614f158282614b64565b91505060608301518482036060860152614f2f8282614b64565b9150506080830151614f446080860182615023565b5060a083015184820360a0860152614f5c8282614b64565b91505060c0830151614f7160c0860182615023565b5060e0830151614f8460e0860182614aad565b50610100830151848203610100860152614f9e8282614fc0565b915050610120830151614fb5610120860182614abc565b508091505092915050565b6000608083016000830151614fd86000860182614aad565b506020830151614feb6020860182615023565b50604083015184820360408601526150038282614b64565b91505060608301516150186060860182614abc565b508091505092915050565b61502c81615431565b82525050565b60006020820190506150476000830184614aad565b92915050565b600061010082019050615063600083018b614aad565b615070602083018a615023565b61507d6040830189614acb565b61508a6060830188614aad565b6150976080830187614ada565b6150a460a0830186615023565b6150b160c0830185615023565b81810360e08301526150c38184614b1f565b90509998505050505050505050565b60006060820190506150e76000830186614aad565b6150f46020830185615023565b81810360408301526151068184614ae9565b9050949350505050565b60006020820190506151256000830184614acb565b92915050565b60006080820190506151406000830187614acb565b61514d6020830186615023565b61515a6040830185614ada565b6151676060830184615023565b95945050505050565b6000602082019050818103600083015261518a8184614b64565b905092915050565b600060208201905081810360008301526151ab81614b9a565b9050919050565b600060208201905081810360008301526151cb81614bf7565b9050919050565b600060208201905081810360008301526151eb81614c54565b9050919050565b6000602082019050818103600083015261520b81614c8b565b9050919050565b6000602082019050818103600083015261522b81614ce8565b9050919050565b6000602082019050818103600083015261524b81614d45565b9050919050565b6000602082019050818103600083015261526b81614d7c565b9050919050565b6000602082019050818103600083015261528b81614db3565b9050919050565b600060208201905081810360008301526152ab81614e10565b9050919050565b600060208201905081810360008301526152cb81614e6d565b9050919050565b600060208201905081810360008301526152ec8184614eca565b905092915050565b6000604082019050818103600083015261530e8185614eca565b905061531d6020830184614b55565b9392505050565b60006020820190506153396000830184615023565b92915050565b6000604051905081810181811067ffffffffffffffff8211171561536257600080fd5b8060405250919050565b600067ffffffffffffffff82111561538357600080fd5b601f19601f8301169050602081019050919050565b600081519050919050565b600081519050919050565b600081519050919050565b600073ffffffffffffffffffffffffffffffffffffffff82169050919050565b60008115159050919050565b6000819050919050565b60007fffffffff0000000000000000000000000000000000000000000000000000000082169050919050565b600060038210151561542957fe5b819050919050565b6000819050919050565b600073ffffffffffffffffffffffffffffffffffffffff82169050919050565b60008115159050919050565b6000819050919050565b6000819050919050565b60006154868261541b565b9050919050565b82818337600083830152505050565b60005b838110156154ba57808201518184015260208101905061549f565b838111156154c9576000848401525b50505050565b6000601f19601f83011690509190505600a265627a7a723058200a32dc034303f2ef1e7aa13add389c41b1a9ccbef84a595df17ffdaca93367cb6c6578706572696d656e74616cf50037",
  "source": "pragma solidity ^0.4.24;\npragma experimental ABIEncoderV2;\n\nimport \"chainlink/contracts/ChainlinkClient.sol\";\nimport \"openzeppelin-solidity/contracts/ownership/Ownable.sol\";\n\n\ncontract CSGOSteamTrade is ChainlinkClient, Ownable {\n    uint private constant hour = 60 * 60;\n    uint public constant MINIMUM_PURCHASE_OFFER_AGE = hour * 6;\n    string public constant CHECK_INVENTORY_CONTAINS_ITEM_METHOD = \"tradeurlownerhasinspectlinktarget\";\n\n    uint256 constant public OWNERSHIP_STATUS_FALSE = 0;\n    uint256 constant public OWNERSHIP_STATUS_TRUE = 1;\n    uint256 constant public OWNERSHIP_STATUS_INVENTORY_PRIVATE = 2;\n\n    string constant ERR_LISTING_NOT_FOUND = \"Listing not found\";\n    \n    struct PurchaseOffer {\n        address owner;\n        uint creationTimestamp;\n        string buyerTradeURL;\n        bool exists;\n    }\n\n    struct Listing {\n        uint listingId;\n        string ownerInspectLink;\n        string wear;\n        string skinName;\n        uint paintSeed;\n        string extraItemData;\n        uint price;\n        address sellerAddress;\n        PurchaseOffer purchaseOffer;\n        bool exists;\n    }\n\n    event ListingCreation(\n        Listing listing\n    );\n\n    event PurchaseOfferMade(\n        string indexed buyerTradeURL,\n        address indexed buyerAddress,\n        Listing listing\n    );\n\n    enum TradeOutcome { SUCCESSFULLY_CONFIRMED, UNABLE_TO_CONFIRM_PRIVATE_PROFILE, DELETED_LISTING }\n\n    event TradeDone (\n        string indexed buyerTradeURL,\n        address indexed buyerAddress,\n        Listing listing,\n        TradeOutcome tradeOutcome\n    );\n\n    event TradeFulfilmentFail (\n        Listing listing\n    );\n\n    uint numListings = 0;\n    mapping(uint => Listing) listings;\n\n    mapping(bytes32 => uint) requestIdToListingId;\n    \n    /**\n    * @notice Deploy the contract with a specified address for the LINK\n    * and Oracle contract addresses\n    * @dev Sets the storage for the specified addresses\n    * @param _link The address of the LINK token contract\n    */\n    constructor(address _link) public {\n        if (_link == address(0)) {\n        setPublicChainlinkToken();\n        } else {\n        setChainlinkToken(_link);\n        }\n    }\n    \n    function createListing(string _ownerInspectLink, string memory _wear,\n        string memory _skinName, uint _paintSeed, string memory _extraItemData,\n        uint _price, address _sellerAddress)\n        public\n        returns (uint listingId) {\n        listingId = numListings++;\n        PurchaseOffer memory emptyOffer;\n        Listing memory listing = Listing(listingId, _ownerInspectLink, _wear, _skinName, _paintSeed, _extraItemData,\n            _price, _sellerAddress, emptyOffer, true);\n        emit ListingCreation(listing);\n        listings[listingId] = listing;\n    }\n    \n    function getListing(uint _listingId) public view returns (Listing memory listing) {\n        listing = listings[_listingId];\n    }\n\n    function getListingsCount() public view returns (uint) {\n        return numListings;\n    }\n    \n    function deleteListing(uint _listingId)\n        public\n        onlyOwner {\n        Listing memory listing = listings[_listingId];\n        require(listing.exists == true, ERR_LISTING_NOT_FOUND);\n\n        if (listing.purchaseOffer.exists) {\n            // return funds\n            listing.purchaseOffer.owner.transfer(listing.price);\n            emit TradeDone(listing.purchaseOffer.buyerTradeURL, listing.purchaseOffer.owner, listing, TradeOutcome.DELETED_LISTING);\n        } else {\n            emit TradeDone(\"\", address(0), listing, TradeOutcome.DELETED_LISTING);\n        }\n        \n        listings[_listingId].exists = false;\n    }\n\n    function createPurchaseOffer(uint _listingId, string _buyerTradeURL) public payable {\n        Listing memory listing = listings[_listingId];\n        require(listing.exists == true, ERR_LISTING_NOT_FOUND);\n        require(listing.purchaseOffer.exists == false, \"Listing already has a purchase offer\");\n        require(listing.price == msg.value, \"Price and value do not match\");\n\n        uint currentTimestamp = block.timestamp;\n        PurchaseOffer memory purchaseOffer = PurchaseOffer(msg.sender, currentTimestamp, _buyerTradeURL, true);\n        listing.purchaseOffer = purchaseOffer;\n\n        emit PurchaseOfferMade(_buyerTradeURL, msg.sender, listing);\n        listings[_listingId] = listing;\n    }\n\n    function deletePurchaseOffer(uint _listingId) public {\n        Listing memory listing = listings[_listingId];\n        require(listing.exists == true, ERR_LISTING_NOT_FOUND);\n        require(listing.purchaseOffer.exists == true, \"Purchase offer does not exist\");\n        require(listing.purchaseOffer.owner == msg.sender, \"Only the owner can delete the purchase offer\");\n\n\n        uint secondsSinceOfferCreation = block.timestamp - listing.purchaseOffer.creationTimestamp;\n        require(secondsSinceOfferCreation > MINIMUM_PURCHASE_OFFER_AGE, \"The minimum block age requirement not met for deletion\");\n\n        // send the funds back to the owner of the purchase offer.\n        listing.purchaseOffer.owner.transfer(listing.price);\n\n        listing.purchaseOffer.exists = false;\n        listings[_listingId] = listing;\n    }\n\n    function createItemTransferConfirmationRequest(\n        uint _listingId,\n        address _oracle,\n        bytes32 _jobId,\n        uint256 _payment,\n        string _buyerInspectLink)\n        public\n        onlyOwner\n        returns (bytes32 requestId) {\n\n        Listing memory listing = listings[_listingId];\n        require(listing.exists == true, ERR_LISTING_NOT_FOUND);\n        require(listing.purchaseOffer.exists == true, \"The listing has not yet received an offer.\");\n        \n        Chainlink.Request memory req = buildChainlinkRequest(_jobId,\n            this,\n            this.fulfillItemTransferConfirmation.selector);\n            \n        req.add(\"method\", CHECK_INVENTORY_CONTAINS_ITEM_METHOD);\n        req.add(\"inspectLink\", _buyerInspectLink);\n        req.add(\"tradeURL\", listing.purchaseOffer.buyerTradeURL);\n        req.add(\"wear\", listing.wear);\n        req.add(\"skinName\", listing.skinName);\n        req.add(\"paintSeed\", uint2str(listing.paintSeed));\n        \n        string[] memory path = new string[](1);\n        path[0] = \"containsItem\";\n        req.addStringArray(\"copyPath\", path);\n\n        requestId = sendChainlinkRequestTo(_oracle, req, _payment);\n        requestIdToListingId[requestId] = _listingId;\n    }\n\n    /**\n   * @notice The fulfill method from requests created by this contract\n   * @dev The recordChainlinkFulfillment protects this function from being called\n   * by anyone other than the oracle address that the request was sent to\n   * @param _requestId The ID that was generated for the request\n   * @param _ownershipStatus The answer provided by the oracle\n   */\n    function fulfillItemTransferConfirmation(bytes32 _requestId, uint256 _ownershipStatus)\n        public\n        recordChainlinkFulfillment(_requestId) {\n\n        uint listingId = requestIdToListingId[_requestId];\n        Listing memory listing = listings[listingId];\n        require(listing.exists == true, ERR_LISTING_NOT_FOUND);\n        require(listing.purchaseOffer.exists == true, \"Listing has no purchase offer\");\n\n        if (_ownershipStatus == OWNERSHIP_STATUS_TRUE) {\n            listing.sellerAddress.transfer(listing.price);\n            emit TradeDone(listing.purchaseOffer.buyerTradeURL, listing.purchaseOffer.owner, listing, TradeOutcome.SUCCESSFULLY_CONFIRMED);\n            listings[listingId].exists = false;\n        } else if (_ownershipStatus == OWNERSHIP_STATUS_INVENTORY_PRIVATE) {\n            listing.sellerAddress.transfer(listing.price);\n            emit TradeDone(listing.purchaseOffer.buyerTradeURL, listing.purchaseOffer.owner, listing, TradeOutcome.UNABLE_TO_CONFIRM_PRIVATE_PROFILE);\n            listings[listingId].exists = false;\n        } else if (_ownershipStatus == OWNERSHIP_STATUS_FALSE) {\n            emit TradeFulfilmentFail(listing);\n        } else {\n            require(false, 'ownershipStatus has an unsupported value');\n        }\n    }\n\n    /**\n    * @notice Call this method if no response is received within 5 minutes\n    * @param _requestId The ID that was generated for the request to cancel\n    * @param _payment The payment specified for the request to cancel\n    * the request to cancel\n    * @param _expiration The expiration generated for the request to cancel\n    */\n    function cancelRequest(\n        bytes32 _requestId,\n        uint256 _payment,\n        uint256 _expiration\n    )\n        public\n        onlyOwner {\n        cancelChainlinkRequest(_requestId, _payment, this.fulfillItemTransferConfirmation.selector, _expiration);\n    }\n\n    /**\n     * @notice Converts a uint to a string. Extracted from https://github.com/provable-things/ethereum-api/blob/master/oraclizeAPI_0.5.sol\n     */\n    function uint2str(uint _i) internal pure returns (string memory _uintAsString) {\n        if (_i == 0) {\n            return \"0\";\n        }\n        uint j = _i;\n        uint len;\n        while (j != 0) {\n            len++;\n            j /= 10;\n        }\n        bytes memory bstr = new bytes(len);\n        uint k = len - 1;\n        while (_i != 0) {\n            bstr[k--] = byte(uint8(48 + _i % 10));\n            _i /= 10;\n        }\n        return string(bstr);\n    }\n}",
  "sourcePath": "/Users/dan/moneywork/csgo-steam-eth-trade/csgo-trade-contract/contracts/CSGOSteamTrade.sol",
  "compiler": {
    "name": "solc",
    "version": "0.4.24+commit.e67f0147.Emscripten.clang"
  },
  "schemaVersion": "3.0.16",
  "updatedAt": "2019-12-28T07:46:55.607Z",
  "devdoc": {
    "methods": {
      "cancelRequest(bytes32,uint256,uint256)": {
        "params": {
          "_expiration": "The expiration generated for the request to cancel",
          "_payment": "The payment specified for the request to cancel the request to cancel",
          "_requestId": "The ID that was generated for the request to cancel"
        }
      },
      "fulfillItemTransferConfirmation(bytes32,uint256)": {
        "details": "The recordChainlinkFulfillment protects this function from being called by anyone other than the oracle address that the request was sent to",
        "params": {
          "_ownershipStatus": "The answer provided by the oracle",
          "_requestId": "The ID that was generated for the request"
        }
      },
      "renounceOwnership()": {
        "details": "Allows the current owner to relinquish control of the contract."
      },
      "transferOwnership(address)": {
        "details": "Allows the current owner to transfer control of the contract to a newOwner.",
        "params": {
          "_newOwner": "The address to transfer ownership to."
        }
      }
    }
  },
  "userdoc": {
    "methods": {
      "cancelRequest(bytes32,uint256,uint256)": {
        "notice": "Call this method if no response is received within 5 minutes"
      },
      "fulfillItemTransferConfirmation(bytes32,uint256)": {
        "notice": "The fulfill method from requests created by this contract"
      },
      "renounceOwnership()": {
        "notice": "Renouncing to ownership will leave the contract without an owner. It will not be possible to call the functions with the `onlyOwner` modifier anymore."
      }
    }
  }
}