{
  "contractName": "CSGOSteamTrade",
  "abi": [
    {
      "constant": true,
      "inputs": [],
      "name": "MINIMUM_PURCHASE_OFFER_AGE",
      "outputs": [
        {
          "name": "",
          "type": "uint256"
        }
      ],
      "payable": false,
      "stateMutability": "view",
      "type": "function"
    },
    {
      "constant": true,
      "inputs": [],
      "name": "OWNERSHIP_STATUS_TRUE",
      "outputs": [
        {
          "name": "",
          "type": "uint256"
        }
      ],
      "payable": false,
      "stateMutability": "view",
      "type": "function"
    },
    {
      "constant": true,
      "inputs": [],
      "name": "OWNERSHIP_STATUS_FALSE",
      "outputs": [
        {
          "name": "",
          "type": "uint256"
        }
      ],
      "payable": false,
      "stateMutability": "view",
      "type": "function"
    },
    {
      "constant": true,
      "inputs": [],
      "name": "CHECK_INVENTORY_CONTAINS_ITEM_METHOD",
      "outputs": [
        {
          "name": "",
          "type": "string"
        }
      ],
      "payable": false,
      "stateMutability": "view",
      "type": "function"
    },
    {
      "constant": true,
      "inputs": [],
      "name": "OWNERSHIP_STATUS_INVENTORY_PRIVATE",
      "outputs": [
        {
          "name": "",
          "type": "uint256"
        }
      ],
      "payable": false,
      "stateMutability": "view",
      "type": "function"
    },
    {
      "inputs": [
        {
          "name": "_link",
          "type": "address"
        }
      ],
      "payable": false,
      "stateMutability": "nonpayable",
      "type": "constructor"
    },
    {
      "anonymous": false,
      "inputs": [
        {
          "components": [
            {
              "name": "listingId",
              "type": "uint256"
            },
            {
              "name": "ownerSteamAccountName",
              "type": "string"
            },
            {
              "name": "accountSteamId",
              "type": "uint256"
            },
            {
              "name": "wear",
              "type": "string"
            },
            {
              "name": "skinName",
              "type": "string"
            },
            {
              "name": "paintSeed",
              "type": "uint256"
            },
            {
              "name": "price",
              "type": "uint256"
            },
            {
              "name": "sellerEthereumAdress",
              "type": "address"
            },
            {
              "name": "owner",
              "type": "address"
            },
            {
              "components": [
                {
                  "name": "owner",
                  "type": "address"
                },
                {
                  "name": "creationTimestamp",
                  "type": "uint256"
                },
                {
                  "name": "buyerSteamAccountName",
                  "type": "string"
                },
                {
                  "name": "exists",
                  "type": "bool"
                }
              ],
              "name": "purchaseOffer",
              "type": "tuple"
            },
            {
              "name": "exists",
              "type": "bool"
            },
            {
              "name": "stage",
              "type": "uint8"
            }
          ],
          "indexed": false,
          "name": "listing",
          "type": "tuple"
        }
      ],
      "name": "ListingCreation",
      "type": "event"
    },
    {
      "anonymous": false,
      "inputs": [
        {
          "components": [
            {
              "name": "listingId",
              "type": "uint256"
            },
            {
              "name": "ownerSteamAccountName",
              "type": "string"
            },
            {
              "name": "accountSteamId",
              "type": "uint256"
            },
            {
              "name": "wear",
              "type": "string"
            },
            {
              "name": "skinName",
              "type": "string"
            },
            {
              "name": "paintSeed",
              "type": "uint256"
            },
            {
              "name": "price",
              "type": "uint256"
            },
            {
              "name": "sellerEthereumAdress",
              "type": "address"
            },
            {
              "name": "owner",
              "type": "address"
            },
            {
              "components": [
                {
                  "name": "owner",
                  "type": "address"
                },
                {
                  "name": "creationTimestamp",
                  "type": "uint256"
                },
                {
                  "name": "buyerSteamAccountName",
                  "type": "string"
                },
                {
                  "name": "exists",
                  "type": "bool"
                }
              ],
              "name": "purchaseOffer",
              "type": "tuple"
            },
            {
              "name": "exists",
              "type": "bool"
            },
            {
              "name": "stage",
              "type": "uint8"
            }
          ],
          "indexed": false,
          "name": "listing",
          "type": "tuple"
        },
        {
          "indexed": false,
          "name": "tradeOutcome",
          "type": "uint8"
        }
      ],
      "name": "TradeDone",
      "type": "event"
    },
    {
      "anonymous": false,
      "inputs": [
        {
          "components": [
            {
              "name": "listingId",
              "type": "uint256"
            },
            {
              "name": "ownerSteamAccountName",
              "type": "string"
            },
            {
              "name": "accountSteamId",
              "type": "uint256"
            },
            {
              "name": "wear",
              "type": "string"
            },
            {
              "name": "skinName",
              "type": "string"
            },
            {
              "name": "paintSeed",
              "type": "uint256"
            },
            {
              "name": "price",
              "type": "uint256"
            },
            {
              "name": "sellerEthereumAdress",
              "type": "address"
            },
            {
              "name": "owner",
              "type": "address"
            },
            {
              "components": [
                {
                  "name": "owner",
                  "type": "address"
                },
                {
                  "name": "creationTimestamp",
                  "type": "uint256"
                },
                {
                  "name": "buyerSteamAccountName",
                  "type": "string"
                },
                {
                  "name": "exists",
                  "type": "bool"
                }
              ],
              "name": "purchaseOffer",
              "type": "tuple"
            },
            {
              "name": "exists",
              "type": "bool"
            },
            {
              "name": "stage",
              "type": "uint8"
            }
          ],
          "indexed": false,
          "name": "listing",
          "type": "tuple"
        }
      ],
      "name": "TradeFulfilmentFail",
      "type": "event"
    },
    {
      "anonymous": false,
      "inputs": [
        {
          "indexed": true,
          "name": "id",
          "type": "bytes32"
        }
      ],
      "name": "ChainlinkRequested",
      "type": "event"
    },
    {
      "anonymous": false,
      "inputs": [
        {
          "indexed": true,
          "name": "id",
          "type": "bytes32"
        }
      ],
      "name": "ChainlinkFulfilled",
      "type": "event"
    },
    {
      "anonymous": false,
      "inputs": [
        {
          "indexed": true,
          "name": "id",
          "type": "bytes32"
        }
      ],
      "name": "ChainlinkCancelled",
      "type": "event"
    },
    {
      "constant": false,
      "inputs": [
        {
          "name": "_ownerSteamAccountName",
          "type": "string"
        },
        {
          "name": "_accountSteamId",
          "type": "uint256"
        },
        {
          "name": "_wear",
          "type": "string"
        },
        {
          "name": "_skinName",
          "type": "string"
        },
        {
          "name": "_paintSeed",
          "type": "uint256"
        },
        {
          "name": "_price",
          "type": "uint256"
        },
        {
          "name": "_sellerEthereumAdress",
          "type": "address"
        }
      ],
      "name": "createListing",
      "outputs": [
        {
          "name": "listingId",
          "type": "uint256"
        }
      ],
      "payable": false,
      "stateMutability": "nonpayable",
      "type": "function"
    },
    {
      "constant": true,
      "inputs": [
        {
          "name": "_listingId",
          "type": "uint256"
        }
      ],
      "name": "getListing",
      "outputs": [
        {
          "components": [
            {
              "name": "listingId",
              "type": "uint256"
            },
            {
              "name": "ownerSteamAccountName",
              "type": "string"
            },
            {
              "name": "accountSteamId",
              "type": "uint256"
            },
            {
              "name": "wear",
              "type": "string"
            },
            {
              "name": "skinName",
              "type": "string"
            },
            {
              "name": "paintSeed",
              "type": "uint256"
            },
            {
              "name": "price",
              "type": "uint256"
            },
            {
              "name": "sellerEthereumAdress",
              "type": "address"
            },
            {
              "name": "owner",
              "type": "address"
            },
            {
              "components": [
                {
                  "name": "owner",
                  "type": "address"
                },
                {
                  "name": "creationTimestamp",
                  "type": "uint256"
                },
                {
                  "name": "buyerSteamAccountName",
                  "type": "string"
                },
                {
                  "name": "exists",
                  "type": "bool"
                }
              ],
              "name": "purchaseOffer",
              "type": "tuple"
            },
            {
              "name": "exists",
              "type": "bool"
            },
            {
              "name": "stage",
              "type": "uint8"
            }
          ],
          "name": "listing",
          "type": "tuple"
        }
      ],
      "payable": false,
      "stateMutability": "view",
      "type": "function"
    },
    {
      "constant": true,
      "inputs": [],
      "name": "getListingsCount",
      "outputs": [
        {
          "name": "",
          "type": "uint256"
        }
      ],
      "payable": false,
      "stateMutability": "view",
      "type": "function"
    },
    {
      "constant": false,
      "inputs": [
        {
          "name": "_listingId",
          "type": "uint256"
        }
      ],
      "name": "deleteListing",
      "outputs": [],
      "payable": false,
      "stateMutability": "nonpayable",
      "type": "function"
    },
    {
      "constant": false,
      "inputs": [
        {
          "name": "_listingId",
          "type": "uint256"
        },
        {
          "name": "buyerSteamAccountName",
          "type": "string"
        }
      ],
      "name": "createPurchaseOffer",
      "outputs": [],
      "payable": true,
      "stateMutability": "payable",
      "type": "function"
    },
    {
      "constant": false,
      "inputs": [
        {
          "name": "_listingId",
          "type": "uint256"
        }
      ],
      "name": "deletePurchaseOffer",
      "outputs": [],
      "payable": false,
      "stateMutability": "nonpayable",
      "type": "function"
    },
    {
      "constant": false,
      "inputs": [
        {
          "name": "_listingId",
          "type": "uint256"
        },
        {
          "name": "_oracle",
          "type": "address"
        },
        {
          "name": "_jobId",
          "type": "bytes32"
        },
        {
          "name": "_payment",
          "type": "uint256"
        },
        {
          "name": "_url",
          "type": "string"
        },
        {
          "name": "_path",
          "type": "string"
        }
      ],
      "name": "createItemTransferConfirmationRequest",
      "outputs": [
        {
          "name": "requestId",
          "type": "bytes32"
        }
      ],
      "payable": false,
      "stateMutability": "nonpayable",
      "type": "function"
    },
    {
      "constant": false,
      "inputs": [
        {
          "name": "_requestId",
          "type": "bytes32"
        },
        {
          "name": "_ownershipStatus",
          "type": "uint256"
        }
      ],
      "name": "fulfillItemTransferConfirmation",
      "outputs": [],
      "payable": false,
      "stateMutability": "nonpayable",
      "type": "function"
    }
  ],
  "bytecode": "0x6080604052600160045560006006553480156200001b57600080fd5b506040516020806200587383398101806040526200003d9190810190620001dd565b600073ffffffffffffffffffffffffffffffffffffffff168173ffffffffffffffffffffffffffffffffffffffff16141562000092576200008c620000b4640100000000026401000000009004565b620000ad565b620000ac8162000183640100000000026401000000009004565b5b5062000229565b6200018173c89bd4e1632d3a43cb03aaad5262cbe4038bc57173ffffffffffffffffffffffffffffffffffffffff166338cc48316040518163ffffffff167c0100000000000000000000000000000000000000000000000000000000028152600401602060405180830381600087803b1580156200013157600080fd5b505af115801562000146573d6000803e3d6000fd5b505050506040513d601f19601f820116820180604052506200016c9190810190620001dd565b62000183640100000000026401000000009004565b565b80600260006101000a81548173ffffffffffffffffffffffffffffffffffffffff021916908373ffffffffffffffffffffffffffffffffffffffff16021790555050565b6000620001d5825162000209565b905092915050565b600060208284031215620001f057600080fd5b60006200020084828501620001c7565b91505092915050565b600073ffffffffffffffffffffffffffffffffffffffff82169050919050565b61563a80620002396000396000f3006080604052600436106100c5576000357c0100000000000000000000000000000000000000000000000000000000900463ffffffff168063107a274a146100ca5780634af4b4e61461010757806391ca0b7914610132578063b08fbc431461015b578063b0c6e3a014610198578063b4e31a22146101c3578063bf486b70146101ee578063c6d9b5f714610219578063c8b63c5114610244578063cbaa068f1461026d578063d209be1e14610298578063e6282c6e146102b4578063eb06716b146102dd575b600080fd5b3480156100d657600080fd5b506100f160048036036100ec919081019061468f565b61031a565b6040516100fe91906153ca565b60405180910390f35b34801561011357600080fd5b5061011c61077d565b604051610129919061541c565b60405180910390f35b34801561013e57600080fd5b506101596004803603610154919081019061456d565b610783565b005b34801561016757600080fd5b50610182600480360361017d91908101906146b8565b6111e7565b60405161018f919061514d565b60405180910390f35b3480156101a457600080fd5b506101ad611d47565b6040516101ba919061541c565b60405180910390f35b3480156101cf57600080fd5b506101d8611d4c565b6040516101e5919061541c565b60405180910390f35b3480156101fa57600080fd5b50610203611d51565b6040516102109190615168565b60405180910390f35b34801561022557600080fd5b5061022e611d8a565b60405161023b919061541c565b60405180910390f35b34801561025057600080fd5b5061026b6004803603610266919081019061468f565b611d8f565b005b34801561027957600080fd5b50610282612639565b60405161028f919061541c565b60405180910390f35b6102b260048036036102ad9190810190614771565b612643565b005b3480156102c057600080fd5b506102db60048036036102d6919081019061468f565b612e72565b005b3480156102e957600080fd5b5061030460048036036102ff91908101906145a9565b61342a565b604051610311919061541c565b60405180910390f35b610322614234565b60076000838152602001908152602001600020610180604051908101604052908160008201548152602001600182018054600181600116156101000203166002900480601f0160208091040260200160405190810160405280929190818152602001828054600181600116156101000203166002900480156103e55780601f106103ba576101008083540402835291602001916103e5565b820191906000526020600020905b8154815290600101906020018083116103c857829003601f168201915b5050505050815260200160028201548152602001600382018054600181600116156101000203166002900480601f0160208091040260200160405190810160405280929190818152602001828054600181600116156101000203166002900480156104915780601f1061046657610100808354040283529160200191610491565b820191906000526020600020905b81548152906001019060200180831161047457829003601f168201915b50505050508152602001600482018054600181600116156101000203166002900480601f0160208091040260200160405190810160405280929190818152602001828054600181600116156101000203166002900480156105335780601f1061050857610100808354040283529160200191610533565b820191906000526020600020905b81548152906001019060200180831161051657829003601f168201915b5050505050815260200160058201548152602001600682015481526020016007820160009054906101000a900473ffffffffffffffffffffffffffffffffffffffff1673ffffffffffffffffffffffffffffffffffffffff1673ffffffffffffffffffffffffffffffffffffffff1681526020016008820160009054906101000a900473ffffffffffffffffffffffffffffffffffffffff1673ffffffffffffffffffffffffffffffffffffffff1673ffffffffffffffffffffffffffffffffffffffff16815260200160098201608060405190810160405290816000820160009054906101000a900473ffffffffffffffffffffffffffffffffffffffff1673ffffffffffffffffffffffffffffffffffffffff1673ffffffffffffffffffffffffffffffffffffffff16815260200160018201548152602001600282018054600181600116156101000203166002900480601f0160208091040260200160405190810160405280929190818152602001828054600181600116156101000203166002900480156107065780601f106106db57610100808354040283529160200191610706565b820191906000526020600020905b8154815290600101906020018083116106e957829003601f168201915b505050505081526020016003820160009054906101000a900460ff1615151515815250508152602001600d820160009054906101000a900460ff16151515158152602001600d820160019054906101000a900460ff16600381111561076757fe5b600381111561077257fe5b815250509050919050565b61546081565b600061078d614234565b8360056000826000191660001916815260200190815260200160002060009054906101000a900473ffffffffffffffffffffffffffffffffffffffff1673ffffffffffffffffffffffffffffffffffffffff163373ffffffffffffffffffffffffffffffffffffffff16141515610839576040517f08c379a00000000000000000000000000000000000000000000000000000000081526004016108309061532a565b60405180910390fd5b60056000826000191660001916815260200190815260200160002060006101000a81549073ffffffffffffffffffffffffffffffffffffffff021916905580600019167f7cc135e0cebb02c3480ae5d74d377283180a2601f8f644edf7987b009316c63a60405160405180910390a260086000866000191660001916815260200190815260200160002054925060076000848152602001908152602001600020610180604051908101604052908160008201548152602001600182018054600181600116156101000203166002900480601f0160208091040260200160405190810160405280929190818152602001828054600181600116156101000203166002900480156109895780601f1061095e57610100808354040283529160200191610989565b820191906000526020600020905b81548152906001019060200180831161096c57829003601f168201915b5050505050815260200160028201548152602001600382018054600181600116156101000203166002900480601f016020809104026020016040519081016040528092919081815260200182805460018160011615610100020316600290048015610a355780601f10610a0a57610100808354040283529160200191610a35565b820191906000526020600020905b815481529060010190602001808311610a1857829003601f168201915b50505050508152602001600482018054600181600116156101000203166002900480601f016020809104026020016040519081016040528092919081815260200182805460018160011615610100020316600290048015610ad75780601f10610aac57610100808354040283529160200191610ad7565b820191906000526020600020905b815481529060010190602001808311610aba57829003601f168201915b5050505050815260200160058201548152602001600682015481526020016007820160009054906101000a900473ffffffffffffffffffffffffffffffffffffffff1673ffffffffffffffffffffffffffffffffffffffff1673ffffffffffffffffffffffffffffffffffffffff1681526020016008820160009054906101000a900473ffffffffffffffffffffffffffffffffffffffff1673ffffffffffffffffffffffffffffffffffffffff1673ffffffffffffffffffffffffffffffffffffffff16815260200160098201608060405190810160405290816000820160009054906101000a900473ffffffffffffffffffffffffffffffffffffffff1673ffffffffffffffffffffffffffffffffffffffff1673ffffffffffffffffffffffffffffffffffffffff16815260200160018201548152602001600282018054600181600116156101000203166002900480601f016020809104026020016040519081016040528092919081815260200182805460018160011615610100020316600290048015610caa5780601f10610c7f57610100808354040283529160200191610caa565b820191906000526020600020905b815481529060010190602001808311610c8d57829003601f168201915b505050505081526020016003820160009054906101000a900460ff1615151515815250508152602001600d820160009054906101000a900460ff16151515158152602001600d820160019054906101000a900460ff166003811115610d0b57fe5b6003811115610d1657fe5b815250509150600115158261014001511515141515610d6a576040517f08c379a0000000000000000000000000000000000000000000000000000000008152600401610d61906152ea565b60405180910390fd5b60026003811115610d7757fe5b8261016001516003811115610d8857fe5b141515610dca576040517f08c379a0000000000000000000000000000000000000000000000000000000008152600401610dc19061524a565b60405180910390fd5b60008410158015610ddc575060028411155b1515610e1d576040517f08c379a0000000000000000000000000000000000000000000000000000000008152600401610e149061522a565b60405180910390fd5b6001841415610ed85760038261016001906003811115610e3957fe5b90816003811115610e4657fe5b815250508160e0015173ffffffffffffffffffffffffffffffffffffffff166108fc8360c001519081150290604051600060405180830381858888f19350505050158015610e98573d6000803e3d6000fd5b507f1790f988fa218164f9d55e45e9360bfa51c7c1cde800c09c64542c12909334b6826000604051610ecb9291906153ec565b60405180910390a1610fd6565b6002841415610f935760038261016001906003811115610ef457fe5b90816003811115610f0157fe5b815250508160e0015173ffffffffffffffffffffffffffffffffffffffff166108fc8360c001519081150290604051600060405180830381858888f19350505050158015610f53573d6000803e3d6000fd5b507f1790f988fa218164f9d55e45e9360bfa51c7c1cde800c09c64542c12909334b6826001604051610f869291906153ec565b60405180910390a1610fd5565b6000841415610fd4577f5ac5ffd4c2b6cf2d343ea6ed63375cbbc1f56888ee545565ee0e070704c9a20482604051610fcb91906153ca565b60405180910390a15b5b5b81600760008581526020019081526020016000206000820151816000015560208201518160010190805190602001906110109291906142d5565b506040820151816002015560608201518160030190805190602001906110379291906142d5565b5060808201518160040190805190602001906110549291906142d5565b5060a0820151816005015560c0820151816006015560e08201518160070160006101000a81548173ffffffffffffffffffffffffffffffffffffffff021916908373ffffffffffffffffffffffffffffffffffffffff1602179055506101008201518160080160006101000a81548173ffffffffffffffffffffffffffffffffffffffff021916908373ffffffffffffffffffffffffffffffffffffffff1602179055506101208201518160090160008201518160000160006101000a81548173ffffffffffffffffffffffffffffffffffffffff021916908373ffffffffffffffffffffffffffffffffffffffff16021790555060208201518160010155604082015181600201908051906020019061116f9291906142d5565b5060608201518160030160006101000a81548160ff021916908315150217905550505061014082015181600d0160006101000a81548160ff02191690831515021790555061016082015181600d0160016101000a81548160ff021916908360038111156111d857fe5b02179055509050505050505050565b60006111f1614234565b6111f9614355565b6060600760008b8152602001908152602001600020610180604051908101604052908160008201548152602001600182018054600181600116156101000203166002900480601f0160208091040260200160405190810160405280929190818152602001828054600181600116156101000203166002900480156112be5780601f10611293576101008083540402835291602001916112be565b820191906000526020600020905b8154815290600101906020018083116112a157829003601f168201915b5050505050815260200160028201548152602001600382018054600181600116156101000203166002900480601f01602080910402602001604051908101604052809291908181526020018280546001816001161561010002031660029004801561136a5780601f1061133f5761010080835404028352916020019161136a565b820191906000526020600020905b81548152906001019060200180831161134d57829003601f168201915b50505050508152602001600482018054600181600116156101000203166002900480601f01602080910402602001604051908101604052809291908181526020018280546001816001161561010002031660029004801561140c5780601f106113e15761010080835404028352916020019161140c565b820191906000526020600020905b8154815290600101906020018083116113ef57829003601f168201915b5050505050815260200160058201548152602001600682015481526020016007820160009054906101000a900473ffffffffffffffffffffffffffffffffffffffff1673ffffffffffffffffffffffffffffffffffffffff1673ffffffffffffffffffffffffffffffffffffffff1681526020016008820160009054906101000a900473ffffffffffffffffffffffffffffffffffffffff1673ffffffffffffffffffffffffffffffffffffffff1673ffffffffffffffffffffffffffffffffffffffff16815260200160098201608060405190810160405290816000820160009054906101000a900473ffffffffffffffffffffffffffffffffffffffff1673ffffffffffffffffffffffffffffffffffffffff1673ffffffffffffffffffffffffffffffffffffffff16815260200160018201548152602001600282018054600181600116156101000203166002900480601f0160208091040260200160405190810160405280929190818152602001828054600181600116156101000203166002900480156115df5780601f106115b4576101008083540402835291602001916115df565b820191906000526020600020905b8154815290600101906020018083116115c257829003601f168201915b505050505081526020016003820160009054906101000a900460ff1615151515815250508152602001600d820160009054906101000a900460ff16151515158152602001600d820160019054906101000a900460ff16600381111561164057fe5b600381111561164b57fe5b81525050925060011515836101400151151514151561169f576040517f08c379a00000000000000000000000000000000000000000000000000000000081526004016116969061520a565b60405180910390fd5b600160038111156116ac57fe5b83610160015160038111156116bd57fe5b1415156116ff576040517f08c379a00000000000000000000000000000000000000000000000000000000081526004016116f69061536a565b60405180910390fd5b60011515836101200151606001511515141515611751576040517f08c379a00000000000000000000000000000000000000000000000000000000081526004016117489061518a565b60405180910390fd5b3373ffffffffffffffffffffffffffffffffffffffff1683610100015173ffffffffffffffffffffffffffffffffffffffff161415156117c6576040517f08c379a00000000000000000000000000000000000000000000000000000000081526004016117bd906151aa565b60405180910390fd5b6117f488306391ca0b797c01000000000000000000000000000000000000000000000000000000000261377c565b91506118756040805190810160405280600681526020017f6d6574686f6400000000000000000000000000000000000000000000000000008152506040805190810160405280602081526020017f636865636b696e76656e746f7279636f6e7461696e736373676f776561706f6e815250846137ad9092919063ffffffff16565b6118c36040805190810160405280600b81526020017f6163636f756e744e616d650000000000000000000000000000000000000000008152508460200151846137ad9092919063ffffffff16565b6119196040805190810160405280600781526020017f737465616d49640000000000000000000000000000000000000000000000000081525061190985604001516137e0565b846137ad9092919063ffffffff16565b6119676040805190810160405280600481526020017f77656172000000000000000000000000000000000000000000000000000000008152508460600151846137ad9092919063ffffffff16565b6119b56040805190810160405280600881526020017f736b696e4e616d650000000000000000000000000000000000000000000000008152508460800151846137ad9092919063ffffffff16565b611a0b6040805190810160405280600981526020017f7061696e745365656400000000000000000000000000000000000000000000008152506119fb8560a001516137e0565b846137ad9092919063ffffffff16565b6001604051908082528060200260200182016040528015611a4057816020015b6060815260200190600190039081611a2b5790505b5090506040805190810160405280600c81526020017f636f6e7461696e734974656d0000000000000000000000000000000000000000815250816000815181101515611a8857fe5b90602001906020020181905250611adf6040805190810160405280600881526020017f636f70795061746800000000000000000000000000000000000000000000000081525082846139379092919063ffffffff16565b611aea8983896139b9565b9350896008600086600019166000191681526020019081526020016000208190555060028361016001906003811115611b1f57fe5b90816003811115611b2c57fe5b8152505082600760008c8152602001908152602001600020600082015181600001556020820151816001019080519060200190611b6a9291906142d5565b50604082015181600201556060820151816003019080519060200190611b919291906142d5565b506080820151816004019080519060200190611bae9291906142d5565b5060a0820151816005015560c0820151816006015560e08201518160070160006101000a81548173ffffffffffffffffffffffffffffffffffffffff021916908373ffffffffffffffffffffffffffffffffffffffff1602179055506101008201518160080160006101000a81548173ffffffffffffffffffffffffffffffffffffffff021916908373ffffffffffffffffffffffffffffffffffffffff1602179055506101208201518160090160008201518160000160006101000a81548173ffffffffffffffffffffffffffffffffffffffff021916908373ffffffffffffffffffffffffffffffffffffffff160217905550602082015181600101556040820151816002019080519060200190611cc99291906142d5565b5060608201518160030160006101000a81548160ff021916908315150217905550505061014082015181600d0160006101000a81548160ff02191690831515021790555061016082015181600d0160016101000a81548160ff02191690836003811115611d3257fe5b02179055509050505050509695505050505050565b600181565b600081565b6040805190810160405280602081526020017f636865636b696e76656e746f7279636f6e7461696e736373676f776561706f6e81525081565b600281565b611d97614234565b600060076000848152602001908152602001600020610180604051908101604052908160008201548152602001600182018054600181600116156101000203166002900480601f016020809104026020016040519081016040528092919081815260200182805460018160011615610100020316600290048015611e5c5780601f10611e3157610100808354040283529160200191611e5c565b820191906000526020600020905b815481529060010190602001808311611e3f57829003601f168201915b5050505050815260200160028201548152602001600382018054600181600116156101000203166002900480601f016020809104026020016040519081016040528092919081815260200182805460018160011615610100020316600290048015611f085780601f10611edd57610100808354040283529160200191611f08565b820191906000526020600020905b815481529060010190602001808311611eeb57829003601f168201915b50505050508152602001600482018054600181600116156101000203166002900480601f016020809104026020016040519081016040528092919081815260200182805460018160011615610100020316600290048015611faa5780601f10611f7f57610100808354040283529160200191611faa565b820191906000526020600020905b815481529060010190602001808311611f8d57829003601f168201915b5050505050815260200160058201548152602001600682015481526020016007820160009054906101000a900473ffffffffffffffffffffffffffffffffffffffff1673ffffffffffffffffffffffffffffffffffffffff1673ffffffffffffffffffffffffffffffffffffffff1681526020016008820160009054906101000a900473ffffffffffffffffffffffffffffffffffffffff1673ffffffffffffffffffffffffffffffffffffffff1673ffffffffffffffffffffffffffffffffffffffff16815260200160098201608060405190810160405290816000820160009054906101000a900473ffffffffffffffffffffffffffffffffffffffff1673ffffffffffffffffffffffffffffffffffffffff1673ffffffffffffffffffffffffffffffffffffffff16815260200160018201548152602001600282018054600181600116156101000203166002900480601f01602080910402602001604051908101604052809291908181526020018280546001816001161561010002031660029004801561217d5780601f106121525761010080835404028352916020019161217d565b820191906000526020600020905b81548152906001019060200180831161216057829003601f168201915b505050505081526020016003820160009054906101000a900460ff1615151515815250508152602001600d820160009054906101000a900460ff16151515158152602001600d820160019054906101000a900460ff1660038111156121de57fe5b60038111156121e957fe5b81525050915060011515826101400151151514151561223d576040517f08c379a00000000000000000000000000000000000000000000000000000000081526004016122349061534a565b60405180910390fd5b6001151582610120015160600151151514151561228f576040517f08c379a0000000000000000000000000000000000000000000000000000000008152600401612286906153aa565b60405180910390fd5b3373ffffffffffffffffffffffffffffffffffffffff168261012001516000015173ffffffffffffffffffffffffffffffffffffffff16141515612308576040517f08c379a00000000000000000000000000000000000000000000000000000000081526004016122ff9061526a565b60405180910390fd5b81610120015160200151420390506154608111151561235c576040517f08c379a00000000000000000000000000000000000000000000000000000000081526004016123539061530a565b60405180910390fd5b8161012001516000015173ffffffffffffffffffffffffffffffffffffffff166108fc8360c001519081150290604051600060405180830381858888f193505050501580156123af573d6000803e3d6000fd5b50608060405190810160405280600073ffffffffffffffffffffffffffffffffffffffff1681526020016000815260200160206040519081016040528060008152508152602001600015158152508261012001819052506000826101600190600381111561241957fe5b9081600381111561242657fe5b8152505081600760008581526020019081526020016000206000820151816000015560208201518160010190805190602001906124649291906142d5565b5060408201518160020155606082015181600301908051906020019061248b9291906142d5565b5060808201518160040190805190602001906124a89291906142d5565b5060a0820151816005015560c0820151816006015560e08201518160070160006101000a81548173ffffffffffffffffffffffffffffffffffffffff021916908373ffffffffffffffffffffffffffffffffffffffff1602179055506101008201518160080160006101000a81548173ffffffffffffffffffffffffffffffffffffffff021916908373ffffffffffffffffffffffffffffffffffffffff1602179055506101208201518160090160008201518160000160006101000a81548173ffffffffffffffffffffffffffffffffffffffff021916908373ffffffffffffffffffffffffffffffffffffffff1602179055506020820151816001015560408201518160020190805190602001906125c39291906142d5565b5060608201518160030160006101000a81548160ff021916908315150217905550505061014082015181600d0160006101000a81548160ff02191690831515021790555061016082015181600d0160016101000a81548160ff0219169083600381111561262c57fe5b0217905550905050505050565b6000600654905090565b61264b614234565b60006126556143c3565b60076000868152602001908152602001600020610180604051908101604052908160008201548152602001600182018054600181600116156101000203166002900480601f0160208091040260200160405190810160405280929190818152602001828054600181600116156101000203166002900480156127185780601f106126ed57610100808354040283529160200191612718565b820191906000526020600020905b8154815290600101906020018083116126fb57829003601f168201915b5050505050815260200160028201548152602001600382018054600181600116156101000203166002900480601f0160208091040260200160405190810160405280929190818152602001828054600181600116156101000203166002900480156127c45780601f10612799576101008083540402835291602001916127c4565b820191906000526020600020905b8154815290600101906020018083116127a757829003601f168201915b50505050508152602001600482018054600181600116156101000203166002900480601f0160208091040260200160405190810160405280929190818152602001828054600181600116156101000203166002900480156128665780601f1061283b57610100808354040283529160200191612866565b820191906000526020600020905b81548152906001019060200180831161284957829003601f168201915b5050505050815260200160058201548152602001600682015481526020016007820160009054906101000a900473ffffffffffffffffffffffffffffffffffffffff1673ffffffffffffffffffffffffffffffffffffffff1673ffffffffffffffffffffffffffffffffffffffff1681526020016008820160009054906101000a900473ffffffffffffffffffffffffffffffffffffffff1673ffffffffffffffffffffffffffffffffffffffff1673ffffffffffffffffffffffffffffffffffffffff16815260200160098201608060405190810160405290816000820160009054906101000a900473ffffffffffffffffffffffffffffffffffffffff1673ffffffffffffffffffffffffffffffffffffffff1673ffffffffffffffffffffffffffffffffffffffff16815260200160018201548152602001600282018054600181600116156101000203166002900480601f016020809104026020016040519081016040528092919081815260200182805460018160011615610100020316600290048015612a395780601f10612a0e57610100808354040283529160200191612a39565b820191906000526020600020905b815481529060010190602001808311612a1c57829003601f168201915b505050505081526020016003820160009054906101000a900460ff1615151515815250508152602001600d820160009054906101000a900460ff16151515158152602001600d820160019054906101000a900460ff166003811115612a9a57fe5b6003811115612aa557fe5b815250509250600115158361014001511515141515612af9576040517f08c379a0000000000000000000000000000000000000000000000000000000008152600401612af09061528a565b60405180910390fd5b60006003811115612b0657fe5b8361016001516003811115612b1757fe5b141515612b59576040517f08c379a0000000000000000000000000000000000000000000000000000000008152600401612b50906151ca565b60405180910390fd5b60001515836101200151606001511515141515612bab576040517f08c379a0000000000000000000000000000000000000000000000000000000008152600401612ba2906152aa565b60405180910390fd5b348360c00151141515612bf3576040517f08c379a0000000000000000000000000000000000000000000000000000000008152600401612bea9061538a565b60405180910390fd5b4291506080604051908101604052803373ffffffffffffffffffffffffffffffffffffffff1681526020018381526020018581526020016001151581525090508083610120018190525060018361016001906003811115612c5057fe5b90816003811115612c5d57fe5b815250508260076000878152602001908152602001600020600082015181600001556020820151816001019080519060200190612c9b9291906142d5565b50604082015181600201556060820151816003019080519060200190612cc29291906142d5565b506080820151816004019080519060200190612cdf9291906142d5565b5060a0820151816005015560c0820151816006015560e08201518160070160006101000a81548173ffffffffffffffffffffffffffffffffffffffff021916908373ffffffffffffffffffffffffffffffffffffffff1602179055506101008201518160080160006101000a81548173ffffffffffffffffffffffffffffffffffffffff021916908373ffffffffffffffffffffffffffffffffffffffff1602179055506101208201518160090160008201518160000160006101000a81548173ffffffffffffffffffffffffffffffffffffffff021916908373ffffffffffffffffffffffffffffffffffffffff160217905550602082015181600101556040820151816002019080519060200190612dfa9291906142d5565b5060608201518160030160006101000a81548160ff021916908315150217905550505061014082015181600d0160006101000a81548160ff02191690831515021790555061016082015181600d0160016101000a81548160ff02191690836003811115612e6357fe5b02179055509050505050505050565b612e7a614234565b60076000838152602001908152602001600020610180604051908101604052908160008201548152602001600182018054600181600116156101000203166002900480601f016020809104026020016040519081016040528092919081815260200182805460018160011615610100020316600290048015612f3d5780601f10612f1257610100808354040283529160200191612f3d565b820191906000526020600020905b815481529060010190602001808311612f2057829003601f168201915b5050505050815260200160028201548152602001600382018054600181600116156101000203166002900480601f016020809104026020016040519081016040528092919081815260200182805460018160011615610100020316600290048015612fe95780601f10612fbe57610100808354040283529160200191612fe9565b820191906000526020600020905b815481529060010190602001808311612fcc57829003601f168201915b50505050508152602001600482018054600181600116156101000203166002900480601f01602080910402602001604051908101604052809291908181526020018280546001816001161561010002031660029004801561308b5780601f106130605761010080835404028352916020019161308b565b820191906000526020600020905b81548152906001019060200180831161306e57829003601f168201915b5050505050815260200160058201548152602001600682015481526020016007820160009054906101000a900473ffffffffffffffffffffffffffffffffffffffff1673ffffffffffffffffffffffffffffffffffffffff1673ffffffffffffffffffffffffffffffffffffffff1681526020016008820160009054906101000a900473ffffffffffffffffffffffffffffffffffffffff1673ffffffffffffffffffffffffffffffffffffffff1673ffffffffffffffffffffffffffffffffffffffff16815260200160098201608060405190810160405290816000820160009054906101000a900473ffffffffffffffffffffffffffffffffffffffff1673ffffffffffffffffffffffffffffffffffffffff1673ffffffffffffffffffffffffffffffffffffffff16815260200160018201548152602001600282018054600181600116156101000203166002900480601f01602080910402602001604051908101604052809291908181526020018280546001816001161561010002031660029004801561325e5780601f106132335761010080835404028352916020019161325e565b820191906000526020600020905b81548152906001019060200180831161324157829003601f168201915b505050505081526020016003820160009054906101000a900460ff1615151515815250508152602001600d820160009054906101000a900460ff16151515158152602001600d820160019054906101000a900460ff1660038111156132bf57fe5b60038111156132ca57fe5b81525050905060011515816101400151151514151561331e576040517f08c379a00000000000000000000000000000000000000000000000000000000081526004016133159061528a565b60405180910390fd5b3373ffffffffffffffffffffffffffffffffffffffff1681610100015173ffffffffffffffffffffffffffffffffffffffff16141515613393576040517f08c379a000000000000000000000000000000000000000000000000000000000815260040161338a906152ca565b60405180910390fd5b80610120015160600151156133f7578061012001516000015173ffffffffffffffffffffffffffffffffffffffff166108fc8260c001519081150290604051600060405180830381858888f193505050501580156133f5573d6000803e3d6000fd5b505b600060076000848152602001908152602001600020600d0160006101000a81548160ff0219169083151502179055505050565b60006134346143c3565b61343c614234565b60066000815480929190600101919050559250608060405190810160405280600073ffffffffffffffffffffffffffffffffffffffff1681526020016000815260200160206040519081016040528060008152508152602001600015158152509150610180604051908101604052808481526020018b81526020018a81526020018981526020018881526020018781526020018681526020018573ffffffffffffffffffffffffffffffffffffffff1681526020013373ffffffffffffffffffffffffffffffffffffffff1681526020018381526020016001151581526020016000600381111561352957fe5b81525090507f706cfc83149446a7010e080af1ddc572ce97d7a7fe1a6d5c344c8b991b05c5e28160405161355d91906153ca565b60405180910390a1806007600085815260200190815260200160002060008201518160000155602082015181600101908051906020019061359f9291906142d5565b506040820151816002015560608201518160030190805190602001906135c69291906142d5565b5060808201518160040190805190602001906135e39291906142d5565b5060a0820151816005015560c0820151816006015560e08201518160070160006101000a81548173ffffffffffffffffffffffffffffffffffffffff021916908373ffffffffffffffffffffffffffffffffffffffff1602179055506101008201518160080160006101000a81548173ffffffffffffffffffffffffffffffffffffffff021916908373ffffffffffffffffffffffffffffffffffffffff1602179055506101208201518160090160008201518160000160006101000a81548173ffffffffffffffffffffffffffffffffffffffff021916908373ffffffffffffffffffffffffffffffffffffffff1602179055506020820151816001015560408201518160020190805190602001906136fe9291906142d5565b5060608201518160030160006101000a81548160ff021916908315150217905550505061014082015181600d0160006101000a81548160ff02191690831515021790555061016082015181600d0160016101000a81548160ff0219169083600381111561376757fe5b02179055509050505050979650505050505050565b613784614355565b61378c614355565b6137a385858584613c4c909392919063ffffffff16565b9150509392505050565b6137c4828460800151613d0690919063ffffffff16565b6137db818460800151613d0690919063ffffffff16565b505050565b6060600080606060008086141561382e576040805190810160405280600181526020017f3000000000000000000000000000000000000000000000000000000000000000815250945061392e565b8593505b600084141515613858578280600101935050600a8481151561385057fe5b049350613832565b826040519080825280601f01601f19166020018201604052801561388b5781602001602082028038833980820191505090505b5091506001830390505b60008614151561392a57600a868115156138ab57fe5b066030017f0100000000000000000000000000000000000000000000000000000000000000028282806001900393508151811015156138e657fe5b9060200101907effffffffffffffffffffffffffffffffffffffffffffffffffffffffffffff1916908160001a905350600a8681151561392257fe5b049550613895565b8194505b50505050919050565b6000613950838560800151613d0690919063ffffffff16565b61395d8460800151613d2b565b600090505b81518110156139a657613999828281518110151561397c57fe5b906020019060200201518560800151613d0690919063ffffffff16565b8080600101915050613962565b6139b38460800151613d39565b50505050565b600030600454604051602001808373ffffffffffffffffffffffffffffffffffffffff1673ffffffffffffffffffffffffffffffffffffffff166c01000000000000000000000000028152601401828152602001925050506040516020818303038152906040526040518082805190602001908083835b602083101515613a555780518252602082019150602081019050602083039250613a30565b6001836020036101000a038019825116818451168082178552505050505050905001915050604051809103902090506004548360600181815250508360056000836000191660001916815260200190815260200160002060006101000a81548173ffffffffffffffffffffffffffffffffffffffff021916908373ffffffffffffffffffffffffffffffffffffffff16021790555080600019167fb5e6e01e79f91267dc17b4e6314d5d4d03593d2ceee0fbb452b750bd70ea5af960405160405180910390a2600260009054906101000a900473ffffffffffffffffffffffffffffffffffffffff1673ffffffffffffffffffffffffffffffffffffffff16634000aea08584613b6487613d47565b6040518463ffffffff167c0100000000000000000000000000000000000000000000000000000000028152600401613b9e9392919061510f565b602060405180830381600087803b158015613bb857600080fd5b505af1158015613bcc573d6000803e3d6000fd5b505050506040513d601f19601f82011682018060405250613bf09190810190614544565b1515613c31576040517f08c379a0000000000000000000000000000000000000000000000000000000008152600401613c28906151ea565b60405180910390fd5b60016004600082825401925050819055508090509392505050565b613c54614355565b613c648560800151610100613e45565b50838560000190600019169081600019168152505082856020019073ffffffffffffffffffffffffffffffffffffffff16908173ffffffffffffffffffffffffffffffffffffffff16815250508185604001907bffffffffffffffffffffffffffffffffffffffffffffffffffffffff191690817bffffffffffffffffffffffffffffffffffffffffffffffffffffffff191681525050849050949350505050565b613d138260038351613e9f565b613d268183613ffd90919063ffffffff16565b505050565b613d3681600461401f565b50565b613d4481600761401f565b50565b6060600360009054906101000a900473ffffffffffffffffffffffffffffffffffffffff1673ffffffffffffffffffffffffffffffffffffffff16634042994690507c01000000000000000000000000000000000000000000000000000000000260008084600001518560200151866040015187606001516001896080015160000151604051602401613de198979695949392919061508a565b604051602081830303815290604052907bffffffffffffffffffffffffffffffffffffffffffffffffffffffff19166020820180517bffffffffffffffffffffffffffffffffffffffffffffffffffffffff83818316178352505050509050919050565b613e4d614404565b6000602083811515613e5b57fe5b06141515613e7857602082811515613e6f57fe5b06602003820191505b81836020018181525050604051808452600081528281016020016040525082905092915050565b601781111515613ed157613ecb8160058460ff169060020a0260ff16178461404490919063ffffffff16565b50613ff8565b60ff81111515613f1857613efb601860058460ff169060020a02178461404490919063ffffffff16565b50613f12816001856140649092919063ffffffff16565b50613ff7565b61ffff81111515613f6057613f43601960058460ff169060020a02178461404490919063ffffffff16565b50613f5a816002856140649092919063ffffffff16565b50613ff6565b63ffffffff81111515613faa57613f8d601a60058460ff169060020a02178461404490919063ffffffff16565b50613fa4816004856140649092919063ffffffff16565b50613ff5565b67ffffffffffffffff81111515613ff457613fdb601b60058460ff169060020a02178461404490919063ffffffff16565b50613ff2816008856140649092919063ffffffff16565b505b5b5b5b5b505050565b614005614404565b61401783846000015151848551614086565b905092915050565b61403f601f60058360ff169060020a02178361404490919063ffffffff16565b505050565b61404c614404565b61405c8384600001515184614143565b905092915050565b61406c614404565b61407d848560000151518585614193565b90509392505050565b61408e614404565b6000806000855185111515156140a357600080fd5b876020015185880111156140ce576140cd8860026140c78b602001518b8a016141f4565b02614210565b5b8751805188602083010194508089880111156140ea5788870182525b60208801935050505b60208510151561411857815183526020830192506020820191506020850394506140f3565b6001856020036101000a03905080198251168184511681811785525050879350505050949350505050565b61414b614404565b83602001518310151561416a57614169846002866020015102614210565b5b8351805160208583010184815381861415614186576001820183525b5050508390509392505050565b61419b614404565b6000856020015185840111156141bb576141ba86600287860102614210565b5b6001836101000a03905085518386820101858319825116178152815185880111156141e65784870182525b505085915050949350505050565b6000818311156142065782905061420a565b8190505b92915050565b6060826000015190506142238383613e45565b5061422e8382613ffd565b50505050565b6101e06040519081016040528060008152602001606081526020016000815260200160608152602001606081526020016000815260200160008152602001600073ffffffffffffffffffffffffffffffffffffffff168152602001600073ffffffffffffffffffffffffffffffffffffffff1681526020016142b461441e565b8152602001600015158152602001600060038111156142cf57fe5b81525090565b828054600181600116156101000203166002900490600052602060002090601f016020900481019282601f1061431657805160ff1916838001178555614344565b82800160010185558215614344579182015b82811115614343578251825591602001919060010190614328565b5b509050614351919061445f565b5090565b60c06040519081016040528060008019168152602001600073ffffffffffffffffffffffffffffffffffffffff16815260200160007bffffffffffffffffffffffffffffffffffffffffffffffffffffffff19168152602001600081526020016143bd614484565b81525090565b608060405190810160405280600073ffffffffffffffffffffffffffffffffffffffff16815260200160008152602001606081526020016000151581525090565b604080519081016040528060608152602001600081525090565b608060405190810160405280600073ffffffffffffffffffffffffffffffffffffffff16815260200160008152602001606081526020016000151581525090565b61448191905b8082111561447d576000816000905550600101614465565b5090565b90565b604080519081016040528060608152602001600081525090565b60006144aa8235615549565b905092915050565b60006144be8251615569565b905092915050565b60006144d28235615575565b905092915050565b600082601f83011215156144ed57600080fd5b81356145006144fb82615464565b615437565b9150808252602083016020830185838301111561451c57600080fd5b6145278382846155ad565b50505092915050565b600061453c823561557f565b905092915050565b60006020828403121561455657600080fd5b6000614564848285016144b2565b91505092915050565b6000806040838503121561458057600080fd5b600061458e858286016144c6565b925050602061459f85828601614530565b9150509250929050565b600080600080600080600060e0888a0312156145c457600080fd5b600088013567ffffffffffffffff8111156145de57600080fd5b6145ea8a828b016144da565b97505060206145fb8a828b01614530565b965050604088013567ffffffffffffffff81111561461857600080fd5b6146248a828b016144da565b955050606088013567ffffffffffffffff81111561464157600080fd5b61464d8a828b016144da565b945050608061465e8a828b01614530565b93505060a061466f8a828b01614530565b92505060c06146808a828b0161449e565b91505092959891949750929550565b6000602082840312156146a157600080fd5b60006146af84828501614530565b91505092915050565b60008060008060008060c087890312156146d157600080fd5b60006146df89828a01614530565b96505060206146f089828a0161449e565b955050604061470189828a016144c6565b945050606061471289828a01614530565b935050608087013567ffffffffffffffff81111561472f57600080fd5b61473b89828a016144da565b92505060a087013567ffffffffffffffff81111561475857600080fd5b61476489828a016144da565b9150509295509295509295565b6000806040838503121561478457600080fd5b600061479285828601614530565b925050602083013567ffffffffffffffff8111156147af57600080fd5b6147bb858286016144da565b9150509250929050565b6147ce816154b1565b82525050565b6147dd816154d1565b82525050565b6147ec816154dd565b82525050565b6147fb816154e7565b82525050565b600061480c8261549b565b8084526148208160208601602086016155bc565b614829816155ef565b602085010191505092915050565b600061484282615490565b8084526148568160208601602086016155bc565b61485f816155ef565b602085010191505092915050565b61487681615589565b82525050565b6148858161559b565b82525050565b6000614896826154a6565b8084526148aa8160208601602086016155bc565b6148b3816155ef565b602085010191505092915050565b6000602382527f5468657265206973206e6f207075726368617365206f6666657220707265736560208301527f6e742e00000000000000000000000000000000000000000000000000000000006040830152606082019050919050565b6000602e82527f4f6e6c7920746865206f776e65722063616e20636f6e6669726d20707572636860208301527f6173652066756c66696c6d656e740000000000000000000000000000000000006040830152606082019050919050565b6000601f82527f4c697374696e67206973206e6f74206f70656e20666f72206f66666572732e006020830152604082019050919050565b6000602382527f756e61626c6520746f207472616e73666572416e6443616c6c20746f206f726160208301527f636c6500000000000000000000000000000000000000000000000000000000006040830152606082019050919050565b6000602c82527f5468657265206973206e6f206c697374696e6720746f20636f6e6669726d207460208301527f72616e7366657220666f722e00000000000000000000000000000000000000006040830152606082019050919050565b6000603882527f5f6f776e657273686970537461747573206973206e6f742077697468696e207460208301527f6865206b6e6f776e2072616e6765206f662076616c75657300000000000000006040830152606082019050919050565b6000602d82527f4c697374696e67206973206e6f742070656e64696e67207472616e736665722060208301527f636f6e6669726d6174696f6e2e000000000000000000000000000000000000006040830152606082019050919050565b6000602c82527f4f6e6c7920746865206f776e65722063616e2064656c6574652074686520707560208301527f726368617365206f6666657200000000000000000000000000000000000000006040830152606082019050919050565b6000601782527f4c697374696e6720646f6573206e6f742065786973742e0000000000000000006020830152604082019050919050565b6000602582527f4c697374696e6720616c7265616479206861732061207075726368617365206f60208301527f666665722e0000000000000000000000000000000000000000000000000000006040830152606082019050919050565b6000602682527f4f6e6c7920746865206f776e65722063616e2064656c65746520686973206c6960208301527f7374696e672e00000000000000000000000000000000000000000000000000006040830152606082019050919050565b6000602182527f5468657265206973206e6f206c697374696e672077697468207468617420696460208301527f2e000000000000000000000000000000000000000000000000000000000000006040830152606082019050919050565b6000603782527f546865206d696e696d756d20626c6f636b2061676520726571756972656d656e60208301527f74206e6f74206d657420666f722064656c6574696f6e2e0000000000000000006040830152606082019050919050565b6000602882527f536f75726365206d75737420626520746865206f7261636c65206f662074686560208301527f20726571756573740000000000000000000000000000000000000000000000006040830152606082019050919050565b6000603582527f5468657265206973206e6f206c697374696e6720746f2064656c65746520746860208301527f65207075726368617365206f6666657220666f722e00000000000000000000006040830152606082019050919050565b6000602a82527f546865206c697374696e6720686173206e6f742079657420726563656976656460208301527f20616e206f666665722e000000000000000000000000000000000000000000006040830152606082019050919050565b6000602882527f56616c75652073656e7420646f6573206e6f74206d61746368206c697374696e60208301527f672070726963652e0000000000000000000000000000000000000000000000006040830152606082019050919050565b6000603582527f5468657265206973206e6f207075726368617365206f6666657220746f20646560208301527f6c65746520666f7220746865206c697374696e672e00000000000000000000006040830152606082019050919050565b600061018083016000830151614f18600086018261507b565b5060208301518482036020860152614f30828261488b565b9150506040830151614f45604086018261507b565b5060608301518482036060860152614f5d828261488b565b91505060808301518482036080860152614f77828261488b565b91505060a0830151614f8c60a086018261507b565b5060c0830151614f9f60c086018261507b565b5060e0830151614fb260e08601826147c5565b50610100830151614fc76101008601826147c5565b50610120830151848203610120860152614fe18282615018565b915050610140830151614ff86101408601826147d4565b5061016083015161500d61016086018261486d565b508091505092915050565b600060808301600083015161503060008601826147c5565b506020830151615043602086018261507b565b506040830151848203604086015261505b828261488b565b915050606083015161507060608601826147d4565b508091505092915050565b6150848161553f565b82525050565b6000610100820190506150a0600083018b6147c5565b6150ad602083018a61507b565b6150ba60408301896147e3565b6150c760608301886147c5565b6150d460808301876147f2565b6150e160a083018661507b565b6150ee60c083018561507b565b81810360e08301526151008184614837565b90509998505050505050505050565b600060608201905061512460008301866147c5565b615131602083018561507b565b81810360408301526151438184614801565b9050949350505050565b600060208201905061516260008301846147e3565b92915050565b60006020820190508181036000830152615182818461488b565b905092915050565b600060208201905081810360008301526151a3816148c1565b9050919050565b600060208201905081810360008301526151c38161491e565b9050919050565b600060208201905081810360008301526151e38161497b565b9050919050565b60006020820190508181036000830152615203816149b2565b9050919050565b6000602082019050818103600083015261522381614a0f565b9050919050565b6000602082019050818103600083015261524381614a6c565b9050919050565b6000602082019050818103600083015261526381614ac9565b9050919050565b6000602082019050818103600083015261528381614b26565b9050919050565b600060208201905081810360008301526152a381614b83565b9050919050565b600060208201905081810360008301526152c381614bba565b9050919050565b600060208201905081810360008301526152e381614c17565b9050919050565b6000602082019050818103600083015261530381614c74565b9050919050565b6000602082019050818103600083015261532381614cd1565b9050919050565b6000602082019050818103600083015261534381614d2e565b9050919050565b6000602082019050818103600083015261536381614d8b565b9050919050565b6000602082019050818103600083015261538381614de8565b9050919050565b600060208201905081810360008301526153a381614e45565b9050919050565b600060208201905081810360008301526153c381614ea2565b9050919050565b600060208201905081810360008301526153e48184614eff565b905092915050565b600060408201905081810360008301526154068185614eff565b9050615415602083018461487c565b9392505050565b6000602082019050615431600083018461507b565b92915050565b6000604051905081810181811067ffffffffffffffff8211171561545a57600080fd5b8060405250919050565b600067ffffffffffffffff82111561547b57600080fd5b601f19601f8301169050602081019050919050565b600081519050919050565b600081519050919050565b600081519050919050565b600073ffffffffffffffffffffffffffffffffffffffff82169050919050565b60008115159050919050565b6000819050919050565b60007fffffffff0000000000000000000000000000000000000000000000000000000082169050919050565b600060048210151561552157fe5b819050919050565b600060028210151561553757fe5b819050919050565b6000819050919050565b600073ffffffffffffffffffffffffffffffffffffffff82169050919050565b60008115159050919050565b6000819050919050565b6000819050919050565b600061559482615513565b9050919050565b60006155a682615529565b9050919050565b82818337600083830152505050565b60005b838110156155da5780820151818401526020810190506155bf565b838111156155e9576000848401525b50505050565b6000601f19601f83011690509190505600a265627a7a723058206f8cb353e8f6a8b4e618a646a5c971e54f95486c2cb4d006bbb598ec25cb07716c6578706572696d656e74616cf50037",
  "source": "pragma solidity ^0.4.24;\npragma experimental ABIEncoderV2;\n\nimport \"chainlink/contracts/ChainlinkClient.sol\";\n\n\ncontract CSGOSteamTrade is ChainlinkClient {\n    // 6 hours\n    uint public constant MINIMUM_PURCHASE_OFFER_AGE = 60 * 60 * 6;\n    string public constant CHECK_INVENTORY_CONTAINS_ITEM_METHOD = \"checkinventorycontainscsgoweapon\";\n    uint256 constant private ORACLE_PAYMENT = 1 * LINK;\n\n    uint256 constant public OWNERSHIP_STATUS_FALSE = 0;\n    uint256 constant public OWNERSHIP_STATUS_TRUE = 1;\n    uint256 constant public OWNERSHIP_STATUS_INVENTORY_PRIVATE = 2;\n\n    enum ListingStage {OPEN, RECEIVED_OFFER, PENDING_TRANSFER_CONFIRMATON, DONE }\n    \n    struct PurchaseOffer {\n        address owner;\n        uint creationTimestamp;\n        string buyerSteamAccountName;\n        bool exists;\n    }\n\n    struct Listing {\n        uint listingId;\n        string ownerSteamAccountName;\n        uint accountSteamId;\n        string wear;\n        string skinName;\n        uint paintSeed;\n        uint price;\n        address sellerEthereumAdress;\n        address owner;\n        PurchaseOffer purchaseOffer;\n        bool exists;\n        ListingStage stage;\n    }\n\n    event ListingCreation(\n        Listing listing\n    );\n\n    enum TradeOutcome { SUCCESSFULLY_CONFIRMED, UNABLE_TO_CONFIRM_PRIVATE_PROFILE }\n\n    event TradeDone (\n        Listing listing,\n        TradeOutcome tradeOutcome\n    );\n\n    event TradeFulfilmentFail (\n        Listing listing\n    );\n\n    uint numListings = 0;\n    mapping(uint => Listing) listings;\n\n    mapping(bytes32 => uint) requestIdToListingId;\n    \n    /**\n    * @notice Deploy the contract with a specified address for the LINK\n    * and Oracle contract addresses\n    * @dev Sets the storage for the specified addresses\n    * @param _link The address of the LINK token contract\n    */\n    constructor(address _link) public {\n        if (_link == address(0)) {\n        setPublicChainlinkToken();\n        } else {\n        setChainlinkToken(_link);\n        }\n    }\n    \n    function createListing(string _ownerSteamAccountName, uint _accountSteamId, string memory _wear,\n        string memory _skinName, uint _paintSeed, uint _price, address _sellerEthereumAdress) public returns (uint listingId) {\n        listingId = numListings++;\n        PurchaseOffer memory placeholder = PurchaseOffer(0, 0, '', false);\n        Listing memory listing = Listing(listingId, _ownerSteamAccountName, _accountSteamId, _wear, _skinName, _paintSeed,\n            _price, _sellerEthereumAdress, msg.sender, placeholder, true, ListingStage.OPEN);\n        emit ListingCreation(listing);\n        listings[listingId] = listing;\n    }\n    \n    function getListing(uint _listingId) public view returns (Listing memory listing) {\n        listing = listings[_listingId];\n    }\n\n    function getListingsCount() public view returns (uint) {\n        return numListings;\n    }\n    \n    function deleteListing(uint _listingId) public {\n        Listing memory listing = listings[_listingId];\n        require(listing.exists == true,  \"Listing does not exist.\");\n        require(listing.owner == msg.sender, \"Only the owner can delete his listing.\");\n\n        if (listing.purchaseOffer.exists) {\n            // return funds\n            listing.purchaseOffer.owner.transfer(listing.price);\n        }\n        \n        listings[_listingId].exists = false;\n    }\n\n    function createPurchaseOffer(uint _listingId, string buyerSteamAccountName) public payable {\n        Listing memory listing = listings[_listingId];\n        require(listing.exists == true, \"Listing does not exist.\");\n        require(listing.stage == ListingStage.OPEN, \"Listing is not open for offers.\");\n        require(listing.purchaseOffer.exists == false, \"Listing already has a purchase offer.\");\n        require(listing.price == msg.value, \"Value sent does not match listing price.\");\n\n        uint currentTimestamp = block.timestamp;\n        PurchaseOffer memory purchaseOffer = PurchaseOffer(msg.sender, currentTimestamp, buyerSteamAccountName, true);\n        listing.purchaseOffer = purchaseOffer;\n        listing.stage = ListingStage.RECEIVED_OFFER;\n        listings[_listingId] = listing;\n    }\n\n    function deletePurchaseOffer(uint _listingId) public {\n        Listing memory listing = listings[_listingId];\n        require(listing.exists == true, \"There is no listing to delete the purchase offer for.\");\n        require(listing.purchaseOffer.exists == true, \"There is no purchase offer to delete for the listing.\");\n        require(listing.purchaseOffer.owner == msg.sender, \"Only the owner can delete the purchase offer\");\n\n        uint secondsSinceOfferCreation = block.timestamp - listing.purchaseOffer.creationTimestamp;\n        require(secondsSinceOfferCreation > MINIMUM_PURCHASE_OFFER_AGE, \"The minimum block age requirement not met for deletion.\");\n\n        // send the funds back to the owner of the purchase offer.\n        listing.purchaseOffer.owner.transfer(listing.price);\n\n        listing.purchaseOffer = PurchaseOffer(0, 0, '', false);\n        listing.stage = ListingStage.OPEN;\n        listings[_listingId] = listing;\n    }\n\n    function createItemTransferConfirmationRequest(\n        uint _listingId,\n        address _oracle,\n        bytes32 _jobId,\n        uint256 _payment,\n        string _url,\n        string _path)\n        public\n        returns (bytes32 requestId) {\n\n        Listing memory listing = listings[_listingId];\n        require(listing.exists == true, \"There is no listing to confirm transfer for.\");\n        require(listing.stage == ListingStage.RECEIVED_OFFER, \"The listing has not yet received an offer.\");\n        require(listing.purchaseOffer.exists == true, \"There is no purchase offer present.\");\n        require(listing.owner == msg.sender, \"Only the owner can confirm purchase fulfilment\");\n        \n        Chainlink.Request memory req = buildChainlinkRequest(_jobId,\n            this,\n            this.fulfillItemTransferConfirmation.selector);\n            \n        req.add(\"method\", CHECK_INVENTORY_CONTAINS_ITEM_METHOD);\n        req.add(\"accountName\", listing.ownerSteamAccountName);\n        req.add(\"steamId\", uint2str(listing.accountSteamId));\n        req.add(\"wear\", listing.wear);\n        req.add(\"skinName\", listing.skinName);\n        req.add(\"paintSeed\", uint2str(listing.paintSeed));\n        \n        string[] memory path = new string[](1);\n        path[0] = \"containsItem\";\n        req.addStringArray(\"copyPath\", path);\n\n        requestId = sendChainlinkRequestTo(_oracle, req, _payment);\n        requestIdToListingId[requestId] = _listingId;\n\n        listing.stage = ListingStage.PENDING_TRANSFER_CONFIRMATON;\n        listings[_listingId] = listing;\n    }\n\n    /**\n   * @notice The fulfill method from requests created by this contract\n   * @dev The recordChainlinkFulfillment protects this function from being called\n   * by anyone other than the oracle address that the request was sent to\n   * @param _requestId The ID that was generated for the request\n   * @param _ownershipStatus The answer provided by the oracle\n   */\n    function fulfillItemTransferConfirmation(bytes32 _requestId, uint256 _ownershipStatus)\n        public\n        recordChainlinkFulfillment(_requestId) {\n        uint listingId = requestIdToListingId[_requestId];\n        Listing memory listing = listings[listingId];\n        require(listing.exists == true, \"There is no listing with that id.\");\n        require(listing.stage == ListingStage.PENDING_TRANSFER_CONFIRMATON, \"Listing is not pending transfer confirmation.\");\n        require(_ownershipStatus >= 0 && _ownershipStatus <= 2, \"_ownershipStatus is not within the known range of values\");\n\n        if (_ownershipStatus == OWNERSHIP_STATUS_TRUE) {\n            listing.stage = ListingStage.DONE;\n            listing.sellerEthereumAdress.transfer(listing.price);\n            emit TradeDone(listing, TradeOutcome.SUCCESSFULLY_CONFIRMED);\n        } else if (_ownershipStatus == OWNERSHIP_STATUS_INVENTORY_PRIVATE) {\n            listing.stage = ListingStage.DONE;\n            listing.sellerEthereumAdress.transfer(listing.price);\n            emit TradeDone(listing, TradeOutcome.UNABLE_TO_CONFIRM_PRIVATE_PROFILE);\n        } else if (_ownershipStatus == OWNERSHIP_STATUS_FALSE) {\n            emit TradeFulfilmentFail(listing);\n        }\n        \n        listings[listingId] = listing;\n    }\n\n    /**\n     * @notice Converts a uint to a string. Extracted from https://github.com/provable-things/ethereum-api/blob/master/oraclizeAPI_0.5.sol\n     */\n    function uint2str(uint _i) internal pure returns (string memory _uintAsString) {\n        if (_i == 0) {\n            return \"0\";\n        }\n        uint j = _i;\n        uint len;\n        while (j != 0) {\n            len++;\n            j /= 10;\n        }\n        bytes memory bstr = new bytes(len);\n        uint k = len - 1;\n        while (_i != 0) {\n            bstr[k--] = byte(uint8(48 + _i % 10));\n            _i /= 10;\n        }\n        return string(bstr);\n    }\n}",
  "sourcePath": "/Users/dan/moneywork/csgo-steam-eth-trade/csgo-trade-contract/contracts/CSGOSteamTrade.sol",
  "compiler": {
    "name": "solc",
    "version": "0.4.24+commit.e67f0147.Emscripten.clang"
  },
  "schemaVersion": "3.0.16",
  "updatedAt": "2019-11-21T10:54:00.342Z",
  "devdoc": {
    "methods": {
      "fulfillItemTransferConfirmation(bytes32,uint256)": {
        "details": "The recordChainlinkFulfillment protects this function from being called by anyone other than the oracle address that the request was sent to",
        "params": {
          "_ownershipStatus": "The answer provided by the oracle",
          "_requestId": "The ID that was generated for the request"
        }
      }
    }
  },
  "userdoc": {
    "methods": {
      "fulfillItemTransferConfirmation(bytes32,uint256)": {
        "notice": "The fulfill method from requests created by this contract"
      }
    }
  }
}