{
  "contractName": "CSGOSteamTrade",
  "abi": [
    {
      "constant": true,
      "inputs": [],
      "name": "MINIMUM_PURCHASE_OFFER_AGE",
      "outputs": [
        {
          "name": "",
          "type": "uint256"
        }
      ],
      "payable": false,
      "stateMutability": "view",
      "type": "function"
    },
    {
      "constant": false,
      "inputs": [],
      "name": "renounceOwnership",
      "outputs": [],
      "payable": false,
      "stateMutability": "nonpayable",
      "type": "function"
    },
    {
      "constant": true,
      "inputs": [],
      "name": "owner",
      "outputs": [
        {
          "name": "",
          "type": "address"
        }
      ],
      "payable": false,
      "stateMutability": "view",
      "type": "function"
    },
    {
      "constant": true,
      "inputs": [],
      "name": "OWNERSHIP_STATUS_TRUE",
      "outputs": [
        {
          "name": "",
          "type": "uint256"
        }
      ],
      "payable": false,
      "stateMutability": "view",
      "type": "function"
    },
    {
      "constant": true,
      "inputs": [],
      "name": "OWNERSHIP_STATUS_FALSE",
      "outputs": [
        {
          "name": "",
          "type": "uint256"
        }
      ],
      "payable": false,
      "stateMutability": "view",
      "type": "function"
    },
    {
      "constant": true,
      "inputs": [],
      "name": "CHECK_INVENTORY_CONTAINS_ITEM_METHOD",
      "outputs": [
        {
          "name": "",
          "type": "string"
        }
      ],
      "payable": false,
      "stateMutability": "view",
      "type": "function"
    },
    {
      "constant": true,
      "inputs": [],
      "name": "OWNERSHIP_STATUS_INVENTORY_PRIVATE",
      "outputs": [
        {
          "name": "",
          "type": "uint256"
        }
      ],
      "payable": false,
      "stateMutability": "view",
      "type": "function"
    },
    {
      "constant": false,
      "inputs": [
        {
          "name": "_newOwner",
          "type": "address"
        }
      ],
      "name": "transferOwnership",
      "outputs": [],
      "payable": false,
      "stateMutability": "nonpayable",
      "type": "function"
    },
    {
      "inputs": [
        {
          "name": "_link",
          "type": "address"
        }
      ],
      "payable": false,
      "stateMutability": "nonpayable",
      "type": "constructor"
    },
    {
      "anonymous": false,
      "inputs": [
        {
          "components": [
            {
              "name": "listingId",
              "type": "uint256"
            },
            {
              "name": "ownerInspectLink",
              "type": "string"
            },
            {
              "name": "wear",
              "type": "string"
            },
            {
              "name": "skinName",
              "type": "string"
            },
            {
              "name": "paintSeed",
              "type": "uint256"
            },
            {
              "name": "extraItemData",
              "type": "string"
            },
            {
              "name": "price",
              "type": "uint256"
            },
            {
              "name": "sellerAddress",
              "type": "address"
            },
            {
              "components": [
                {
                  "name": "owner",
                  "type": "address"
                },
                {
                  "name": "creationTimestamp",
                  "type": "uint256"
                },
                {
                  "name": "buyerTradeURL",
                  "type": "string"
                },
                {
                  "name": "exists",
                  "type": "bool"
                }
              ],
              "name": "purchaseOffer",
              "type": "tuple"
            },
            {
              "name": "exists",
              "type": "bool"
            }
          ],
          "indexed": false,
          "name": "listing",
          "type": "tuple"
        }
      ],
      "name": "ListingCreation",
      "type": "event"
    },
    {
      "anonymous": false,
      "inputs": [
        {
          "indexed": true,
          "name": "buyerTradeURL",
          "type": "string"
        },
        {
          "indexed": true,
          "name": "buyerAddress",
          "type": "address"
        },
        {
          "components": [
            {
              "name": "listingId",
              "type": "uint256"
            },
            {
              "name": "ownerInspectLink",
              "type": "string"
            },
            {
              "name": "wear",
              "type": "string"
            },
            {
              "name": "skinName",
              "type": "string"
            },
            {
              "name": "paintSeed",
              "type": "uint256"
            },
            {
              "name": "extraItemData",
              "type": "string"
            },
            {
              "name": "price",
              "type": "uint256"
            },
            {
              "name": "sellerAddress",
              "type": "address"
            },
            {
              "components": [
                {
                  "name": "owner",
                  "type": "address"
                },
                {
                  "name": "creationTimestamp",
                  "type": "uint256"
                },
                {
                  "name": "buyerTradeURL",
                  "type": "string"
                },
                {
                  "name": "exists",
                  "type": "bool"
                }
              ],
              "name": "purchaseOffer",
              "type": "tuple"
            },
            {
              "name": "exists",
              "type": "bool"
            }
          ],
          "indexed": false,
          "name": "listing",
          "type": "tuple"
        }
      ],
      "name": "PurchaseOfferMade",
      "type": "event"
    },
    {
      "anonymous": false,
      "inputs": [
        {
          "indexed": true,
          "name": "buyerTradeURL",
          "type": "string"
        },
        {
          "indexed": true,
          "name": "buyerAddress",
          "type": "address"
        },
        {
          "components": [
            {
              "name": "listingId",
              "type": "uint256"
            },
            {
              "name": "ownerInspectLink",
              "type": "string"
            },
            {
              "name": "wear",
              "type": "string"
            },
            {
              "name": "skinName",
              "type": "string"
            },
            {
              "name": "paintSeed",
              "type": "uint256"
            },
            {
              "name": "extraItemData",
              "type": "string"
            },
            {
              "name": "price",
              "type": "uint256"
            },
            {
              "name": "sellerAddress",
              "type": "address"
            },
            {
              "components": [
                {
                  "name": "owner",
                  "type": "address"
                },
                {
                  "name": "creationTimestamp",
                  "type": "uint256"
                },
                {
                  "name": "buyerTradeURL",
                  "type": "string"
                },
                {
                  "name": "exists",
                  "type": "bool"
                }
              ],
              "name": "purchaseOffer",
              "type": "tuple"
            },
            {
              "name": "exists",
              "type": "bool"
            }
          ],
          "indexed": false,
          "name": "listing",
          "type": "tuple"
        },
        {
          "indexed": false,
          "name": "tradeOutcome",
          "type": "uint8"
        }
      ],
      "name": "TradeDone",
      "type": "event"
    },
    {
      "anonymous": false,
      "inputs": [
        {
          "components": [
            {
              "name": "listingId",
              "type": "uint256"
            },
            {
              "name": "ownerInspectLink",
              "type": "string"
            },
            {
              "name": "wear",
              "type": "string"
            },
            {
              "name": "skinName",
              "type": "string"
            },
            {
              "name": "paintSeed",
              "type": "uint256"
            },
            {
              "name": "extraItemData",
              "type": "string"
            },
            {
              "name": "price",
              "type": "uint256"
            },
            {
              "name": "sellerAddress",
              "type": "address"
            },
            {
              "components": [
                {
                  "name": "owner",
                  "type": "address"
                },
                {
                  "name": "creationTimestamp",
                  "type": "uint256"
                },
                {
                  "name": "buyerTradeURL",
                  "type": "string"
                },
                {
                  "name": "exists",
                  "type": "bool"
                }
              ],
              "name": "purchaseOffer",
              "type": "tuple"
            },
            {
              "name": "exists",
              "type": "bool"
            }
          ],
          "indexed": false,
          "name": "listing",
          "type": "tuple"
        }
      ],
      "name": "TradeFulfilmentFail",
      "type": "event"
    },
    {
      "anonymous": false,
      "inputs": [
        {
          "indexed": true,
          "name": "previousOwner",
          "type": "address"
        }
      ],
      "name": "OwnershipRenounced",
      "type": "event"
    },
    {
      "anonymous": false,
      "inputs": [
        {
          "indexed": true,
          "name": "previousOwner",
          "type": "address"
        },
        {
          "indexed": true,
          "name": "newOwner",
          "type": "address"
        }
      ],
      "name": "OwnershipTransferred",
      "type": "event"
    },
    {
      "anonymous": false,
      "inputs": [
        {
          "indexed": true,
          "name": "id",
          "type": "bytes32"
        }
      ],
      "name": "ChainlinkRequested",
      "type": "event"
    },
    {
      "anonymous": false,
      "inputs": [
        {
          "indexed": true,
          "name": "id",
          "type": "bytes32"
        }
      ],
      "name": "ChainlinkFulfilled",
      "type": "event"
    },
    {
      "anonymous": false,
      "inputs": [
        {
          "indexed": true,
          "name": "id",
          "type": "bytes32"
        }
      ],
      "name": "ChainlinkCancelled",
      "type": "event"
    },
    {
      "constant": false,
      "inputs": [
        {
          "name": "_ownerInspectLink",
          "type": "string"
        },
        {
          "name": "_wear",
          "type": "string"
        },
        {
          "name": "_skinName",
          "type": "string"
        },
        {
          "name": "_paintSeed",
          "type": "uint256"
        },
        {
          "name": "_extraItemData",
          "type": "string"
        },
        {
          "name": "_price",
          "type": "uint256"
        },
        {
          "name": "_sellerAddress",
          "type": "address"
        }
      ],
      "name": "createListing",
      "outputs": [
        {
          "name": "listingId",
          "type": "uint256"
        }
      ],
      "payable": false,
      "stateMutability": "nonpayable",
      "type": "function"
    },
    {
      "constant": true,
      "inputs": [
        {
          "name": "_listingId",
          "type": "uint256"
        }
      ],
      "name": "getListing",
      "outputs": [
        {
          "components": [
            {
              "name": "listingId",
              "type": "uint256"
            },
            {
              "name": "ownerInspectLink",
              "type": "string"
            },
            {
              "name": "wear",
              "type": "string"
            },
            {
              "name": "skinName",
              "type": "string"
            },
            {
              "name": "paintSeed",
              "type": "uint256"
            },
            {
              "name": "extraItemData",
              "type": "string"
            },
            {
              "name": "price",
              "type": "uint256"
            },
            {
              "name": "sellerAddress",
              "type": "address"
            },
            {
              "components": [
                {
                  "name": "owner",
                  "type": "address"
                },
                {
                  "name": "creationTimestamp",
                  "type": "uint256"
                },
                {
                  "name": "buyerTradeURL",
                  "type": "string"
                },
                {
                  "name": "exists",
                  "type": "bool"
                }
              ],
              "name": "purchaseOffer",
              "type": "tuple"
            },
            {
              "name": "exists",
              "type": "bool"
            }
          ],
          "name": "listing",
          "type": "tuple"
        }
      ],
      "payable": false,
      "stateMutability": "view",
      "type": "function"
    },
    {
      "constant": true,
      "inputs": [],
      "name": "getListingsCount",
      "outputs": [
        {
          "name": "",
          "type": "uint256"
        }
      ],
      "payable": false,
      "stateMutability": "view",
      "type": "function"
    },
    {
      "constant": false,
      "inputs": [
        {
          "name": "_listingId",
          "type": "uint256"
        }
      ],
      "name": "deleteListing",
      "outputs": [],
      "payable": false,
      "stateMutability": "nonpayable",
      "type": "function"
    },
    {
      "constant": false,
      "inputs": [
        {
          "name": "_listingId",
          "type": "uint256"
        },
        {
          "name": "_buyerTradeURL",
          "type": "string"
        }
      ],
      "name": "createPurchaseOffer",
      "outputs": [],
      "payable": true,
      "stateMutability": "payable",
      "type": "function"
    },
    {
      "constant": false,
      "inputs": [
        {
          "name": "_listingId",
          "type": "uint256"
        }
      ],
      "name": "deletePurchaseOffer",
      "outputs": [],
      "payable": false,
      "stateMutability": "nonpayable",
      "type": "function"
    },
    {
      "constant": false,
      "inputs": [
        {
          "name": "_listingId",
          "type": "uint256"
        },
        {
          "name": "_oracle",
          "type": "address"
        },
        {
          "name": "_jobId",
          "type": "bytes32"
        },
        {
          "name": "_payment",
          "type": "uint256"
        },
        {
          "name": "_buyerInspectLink",
          "type": "string"
        }
      ],
      "name": "createItemTransferConfirmationRequest",
      "outputs": [
        {
          "name": "requestId",
          "type": "bytes32"
        }
      ],
      "payable": false,
      "stateMutability": "nonpayable",
      "type": "function"
    },
    {
      "constant": false,
      "inputs": [
        {
          "name": "_requestId",
          "type": "bytes32"
        },
        {
          "name": "_ownershipStatus",
          "type": "uint256"
        }
      ],
      "name": "fulfillItemTransferConfirmation",
      "outputs": [],
      "payable": false,
      "stateMutability": "nonpayable",
      "type": "function"
    },
    {
      "constant": false,
      "inputs": [
        {
          "name": "_requestId",
          "type": "bytes32"
        },
        {
          "name": "_payment",
          "type": "uint256"
        },
        {
          "name": "_expiration",
          "type": "uint256"
        }
      ],
      "name": "cancelRequest",
      "outputs": [],
      "payable": false,
      "stateMutability": "nonpayable",
      "type": "function"
    }
  ],
  "bytecode": "0x6080604052600160045560006007553480156200001b57600080fd5b506040516020806200581083398101806040526200003d91908101906200021e565b33600660006101000a81548173ffffffffffffffffffffffffffffffffffffffff021916908373ffffffffffffffffffffffffffffffffffffffff160217905550600073ffffffffffffffffffffffffffffffffffffffff168173ffffffffffffffffffffffffffffffffffffffff161415620000d357620000cd620000f5640100000000026401000000009004565b620000ee565b620000ed81620001c4640100000000026401000000009004565b5b506200026a565b620001c273c89bd4e1632d3a43cb03aaad5262cbe4038bc57173ffffffffffffffffffffffffffffffffffffffff166338cc48316040518163ffffffff167c0100000000000000000000000000000000000000000000000000000000028152600401602060405180830381600087803b1580156200017257600080fd5b505af115801562000187573d6000803e3d6000fd5b505050506040513d601f19601f82011682018060405250620001ad91908101906200021e565b620001c4640100000000026401000000009004565b565b80600260006101000a81548173ffffffffffffffffffffffffffffffffffffffff021916908373ffffffffffffffffffffffffffffffffffffffff16021790555050565b60006200021682516200024a565b905092915050565b6000602082840312156200023157600080fd5b6000620002418482850162000208565b91505092915050565b600073ffffffffffffffffffffffffffffffffffffffff82169050919050565b615596806200027a6000396000f3006080604052600436106100f1576000357c0100000000000000000000000000000000000000000000000000000000900463ffffffff168063107a274a146100f657806333bfcdd81461013357806341d208441461015c5780634af4b4e614610199578063715018a6146101c45780638c64c812146101db5780638da5cb5b1461021857806391ca0b7914610243578063b0c6e3a01461026c578063b4e31a2214610297578063bf486b70146102c2578063c6d9b5f7146102ed578063c8b63c5114610318578063cbaa068f14610341578063d209be1e1461036c578063e6282c6e14610388578063f2fde38b146103b1575b600080fd5b34801561010257600080fd5b5061011d60048036036101189190810190614a1d565b6103da565b60405161012a919061534e565b60405180910390f35b34801561013f57600080fd5b5061015a600480360361015591908101906148d0565b610852565b005b34801561016857600080fd5b50610183600480360361017e919081019061491f565b6108e2565b60405161019091906153a0565b60405180910390f35b3480156101a557600080fd5b506101ae610b58565b6040516101bb91906153a0565b60405180910390f35b3480156101d057600080fd5b506101d9610b61565b005b3480156101e757600080fd5b5061020260048036036101fd9190810190614a46565b610c66565b60405161020f919061518c565b60405180910390f35b34801561022457600080fd5b5061022d61158c565b60405161023a91906150ae565b60405180910390f35b34801561024f57600080fd5b5061026a60048036036102659190810190614894565b6115b2565b005b34801561027857600080fd5b50610281611fad565b60405161028e91906153a0565b60405180910390f35b3480156102a357600080fd5b506102ac611fd1565b6040516102b991906153a0565b60405180910390f35b3480156102ce57600080fd5b506102d7611fd6565b6040516102e491906151ec565b60405180910390f35b3480156102f957600080fd5b50610302612036565b60405161030f91906153a0565b60405180910390f35b34801561032457600080fd5b5061033f600480360361033a9190810190614a1d565b61205a565b005b34801561034d57600080fd5b50610356612892565b60405161036391906153a0565b60405180910390f35b61038660048036036103819190810190614ad5565b61289c565b005b34801561039457600080fd5b506103af60048036036103aa9190810190614a1d565b6130e7565b005b3480156103bd57600080fd5b506103d860048036036103d39190810190614842565b613802565b005b6103e2614561565b60086000838152602001908152602001600020610140604051908101604052908160008201548152602001600182018054600181600116156101000203166002900480601f0160208091040260200160405190810160405280929190818152602001828054600181600116156101000203166002900480156104a55780601f1061047a576101008083540402835291602001916104a5565b820191906000526020600020905b81548152906001019060200180831161048857829003601f168201915b50505050508152602001600282018054600181600116156101000203166002900480601f0160208091040260200160405190810160405280929190818152602001828054600181600116156101000203166002900480156105475780601f1061051c57610100808354040283529160200191610547565b820191906000526020600020905b81548152906001019060200180831161052a57829003601f168201915b50505050508152602001600382018054600181600116156101000203166002900480601f0160208091040260200160405190810160405280929190818152602001828054600181600116156101000203166002900480156105e95780601f106105be576101008083540402835291602001916105e9565b820191906000526020600020905b8154815290600101906020018083116105cc57829003601f168201915b5050505050815260200160048201548152602001600582018054600181600116156101000203166002900480601f0160208091040260200160405190810160405280929190818152602001828054600181600116156101000203166002900480156106955780601f1061066a57610100808354040283529160200191610695565b820191906000526020600020905b81548152906001019060200180831161067857829003601f168201915b50505050508152602001600682015481526020016007820160009054906101000a900473ffffffffffffffffffffffffffffffffffffffff1673ffffffffffffffffffffffffffffffffffffffff1673ffffffffffffffffffffffffffffffffffffffff16815260200160088201608060405190810160405290816000820160009054906101000a900473ffffffffffffffffffffffffffffffffffffffff1673ffffffffffffffffffffffffffffffffffffffff1673ffffffffffffffffffffffffffffffffffffffff16815260200160018201548152602001600282018054600181600116156101000203166002900480601f0160208091040260200160405190810160405280929190818152602001828054600181600116156101000203166002900480156108085780601f106107dd57610100808354040283529160200191610808565b820191906000526020600020905b8154815290600101906020018083116107eb57829003601f168201915b505050505081526020016003820160009054906101000a900460ff1615151515815250508152602001600c820160009054906101000a900460ff1615151515815250509050919050565b600660009054906101000a900473ffffffffffffffffffffffffffffffffffffffff1673ffffffffffffffffffffffffffffffffffffffff163373ffffffffffffffffffffffffffffffffffffffff161415156108ae57600080fd5b6108dd83836391ca0b797c0100000000000000000000000000000000000000000000000000000000028461386a565b505050565b60006108ec6145d3565b6108f4614561565b60076000815480929190600101919050559250610140604051908101604052808481526020018b81526020018a81526020018981526020018881526020018781526020018681526020018573ffffffffffffffffffffffffffffffffffffffff1681526020018381526020016001151581525090507fe539b388b6d741575d61aa86403070db849788f2c5e5ff1bcccd3b5e675a74cc81604051610998919061534e565b60405180910390a180600860008581526020019081526020016000206000820151816000015560208201518160010190805190602001906109da929190614614565b5060408201518160020190805190602001906109f7929190614614565b506060820151816003019080519060200190610a14929190614614565b506080820151816004015560a0820151816005019080519060200190610a3b929190614614565b5060c0820151816006015560e08201518160070160006101000a81548173ffffffffffffffffffffffffffffffffffffffff021916908373ffffffffffffffffffffffffffffffffffffffff1602179055506101008201518160080160008201518160000160006101000a81548173ffffffffffffffffffffffffffffffffffffffff021916908373ffffffffffffffffffffffffffffffffffffffff160217905550602082015181600101556040820151816002019080519060200190610b04929190614614565b5060608201518160030160006101000a81548160ff021916908315150217905550505061012082015181600c0160006101000a81548160ff0219169083151502179055509050505050979650505050505050565b6006610e100281565b600660009054906101000a900473ffffffffffffffffffffffffffffffffffffffff1673ffffffffffffffffffffffffffffffffffffffff163373ffffffffffffffffffffffffffffffffffffffff16141515610bbd57600080fd5b600660009054906101000a900473ffffffffffffffffffffffffffffffffffffffff1673ffffffffffffffffffffffffffffffffffffffff167ff8df31144d9c2f0f6b59d69b8b98abd5459d07f2742c4df920b25aae33c6482060405160405180910390a26000600660006101000a81548173ffffffffffffffffffffffffffffffffffffffff021916908373ffffffffffffffffffffffffffffffffffffffff160217905550565b6000610c70614561565b610c78614694565b6060600660009054906101000a900473ffffffffffffffffffffffffffffffffffffffff1673ffffffffffffffffffffffffffffffffffffffff163373ffffffffffffffffffffffffffffffffffffffff16141515610cd657600080fd5b600860008a8152602001908152602001600020610140604051908101604052908160008201548152602001600182018054600181600116156101000203166002900480601f016020809104026020016040519081016040528092919081815260200182805460018160011615610100020316600290048015610d995780601f10610d6e57610100808354040283529160200191610d99565b820191906000526020600020905b815481529060010190602001808311610d7c57829003601f168201915b50505050508152602001600282018054600181600116156101000203166002900480601f016020809104026020016040519081016040528092919081815260200182805460018160011615610100020316600290048015610e3b5780601f10610e1057610100808354040283529160200191610e3b565b820191906000526020600020905b815481529060010190602001808311610e1e57829003601f168201915b50505050508152602001600382018054600181600116156101000203166002900480601f016020809104026020016040519081016040528092919081815260200182805460018160011615610100020316600290048015610edd5780601f10610eb257610100808354040283529160200191610edd565b820191906000526020600020905b815481529060010190602001808311610ec057829003601f168201915b5050505050815260200160048201548152602001600582018054600181600116156101000203166002900480601f016020809104026020016040519081016040528092919081815260200182805460018160011615610100020316600290048015610f895780601f10610f5e57610100808354040283529160200191610f89565b820191906000526020600020905b815481529060010190602001808311610f6c57829003601f168201915b50505050508152602001600682015481526020016007820160009054906101000a900473ffffffffffffffffffffffffffffffffffffffff1673ffffffffffffffffffffffffffffffffffffffff1673ffffffffffffffffffffffffffffffffffffffff16815260200160088201608060405190810160405290816000820160009054906101000a900473ffffffffffffffffffffffffffffffffffffffff1673ffffffffffffffffffffffffffffffffffffffff1673ffffffffffffffffffffffffffffffffffffffff16815260200160018201548152602001600282018054600181600116156101000203166002900480601f0160208091040260200160405190810160405280929190818152602001828054600181600116156101000203166002900480156110fc5780601f106110d1576101008083540402835291602001916110fc565b820191906000526020600020905b8154815290600101906020018083116110df57829003601f168201915b505050505081526020016003820160009054906101000a900460ff1615151515815250508152602001600c820160009054906101000a900460ff1615151515815250509250600115158361012001511515146040805190810160405280601181526020017f4c697374696e67206e6f7420666f756e640000000000000000000000000000008152509015156111c7576040517f08c379a00000000000000000000000000000000000000000000000000000000081526004016111be91906151ec565b60405180910390fd5b506001151583610100015160600151151514151561121a576040517f08c379a00000000000000000000000000000000000000000000000000000000081526004016112119061532e565b60405180910390fd5b61124887306391ca0b797c0100000000000000000000000000000000000000000000000000000000026139ad565b91506112f06040805190810160405280600681526020017f6d6574686f640000000000000000000000000000000000000000000000000000815250606060405190810160405280602181526020017f747261646575726c6f776e6572686173696e73706563746c696e6b746172676581526020017f7400000000000000000000000000000000000000000000000000000000000000815250846139de9092919063ffffffff16565b61133a6040805190810160405280600b81526020017f696e73706563744c696e6b00000000000000000000000000000000000000000081525086846139de9092919063ffffffff16565b61138d6040805190810160405280600881526020017f747261646555524c00000000000000000000000000000000000000000000000081525084610100015160400151846139de9092919063ffffffff16565b6113db6040805190810160405280600481526020017f77656172000000000000000000000000000000000000000000000000000000008152508460400151846139de9092919063ffffffff16565b6114296040805190810160405280600881526020017f736b696e4e616d650000000000000000000000000000000000000000000000008152508460600151846139de9092919063ffffffff16565b61147f6040805190810160405280600981526020017f7061696e7453656564000000000000000000000000000000000000000000000081525061146f8560800151613a11565b846139de9092919063ffffffff16565b60016040519080825280602002602001820160405280156114b457816020015b606081526020019060019003908161149f5790505b5090506040805190810160405280600c81526020017f636f6e7461696e734974656d00000000000000000000000000000000000000008152508160008151811015156114fc57fe5b906020019060200201819052506115536040805190810160405280600881526020017f636f7079506174680000000000000000000000000000000000000000000000008152508284613b689092919063ffffffff16565b61155e888388613bea565b9350886009600086600019166000191681526020019081526020016000208190555050505095945050505050565b600660009054906101000a900473ffffffffffffffffffffffffffffffffffffffff1681565b60006115bc614561565b8360056000826000191660001916815260200190815260200160002060009054906101000a900473ffffffffffffffffffffffffffffffffffffffff1673ffffffffffffffffffffffffffffffffffffffff163373ffffffffffffffffffffffffffffffffffffffff16141515611668576040517f08c379a000000000000000000000000000000000000000000000000000000000815260040161165f906152ee565b60405180910390fd5b60056000826000191660001916815260200190815260200160002060006101000a81549073ffffffffffffffffffffffffffffffffffffffff021916905580600019167f7cc135e0cebb02c3480ae5d74d377283180a2601f8f644edf7987b009316c63a60405160405180910390a260096000866000191660001916815260200190815260200160002054925060086000848152602001908152602001600020610140604051908101604052908160008201548152602001600182018054600181600116156101000203166002900480601f0160208091040260200160405190810160405280929190818152602001828054600181600116156101000203166002900480156117b85780601f1061178d576101008083540402835291602001916117b8565b820191906000526020600020905b81548152906001019060200180831161179b57829003601f168201915b50505050508152602001600282018054600181600116156101000203166002900480601f01602080910402602001604051908101604052809291908181526020018280546001816001161561010002031660029004801561185a5780601f1061182f5761010080835404028352916020019161185a565b820191906000526020600020905b81548152906001019060200180831161183d57829003601f168201915b50505050508152602001600382018054600181600116156101000203166002900480601f0160208091040260200160405190810160405280929190818152602001828054600181600116156101000203166002900480156118fc5780601f106118d1576101008083540402835291602001916118fc565b820191906000526020600020905b8154815290600101906020018083116118df57829003601f168201915b5050505050815260200160048201548152602001600582018054600181600116156101000203166002900480601f0160208091040260200160405190810160405280929190818152602001828054600181600116156101000203166002900480156119a85780601f1061197d576101008083540402835291602001916119a8565b820191906000526020600020905b81548152906001019060200180831161198b57829003601f168201915b50505050508152602001600682015481526020016007820160009054906101000a900473ffffffffffffffffffffffffffffffffffffffff1673ffffffffffffffffffffffffffffffffffffffff1673ffffffffffffffffffffffffffffffffffffffff16815260200160088201608060405190810160405290816000820160009054906101000a900473ffffffffffffffffffffffffffffffffffffffff1673ffffffffffffffffffffffffffffffffffffffff1673ffffffffffffffffffffffffffffffffffffffff16815260200160018201548152602001600282018054600181600116156101000203166002900480601f016020809104026020016040519081016040528092919081815260200182805460018160011615610100020316600290048015611b1b5780601f10611af057610100808354040283529160200191611b1b565b820191906000526020600020905b815481529060010190602001808311611afe57829003601f168201915b505050505081526020016003820160009054906101000a900460ff1615151515815250508152602001600c820160009054906101000a900460ff1615151515815250509150600115158261012001511515146040805190810160405280601181526020017f4c697374696e67206e6f7420666f756e64000000000000000000000000000000815250901515611be6576040517f08c379a0000000000000000000000000000000000000000000000000000000008152600401611bdd91906151ec565b60405180910390fd5b5060011515826101000151606001511515141515611c39576040517f08c379a0000000000000000000000000000000000000000000000000000000008152600401611c30906152ae565b60405180910390fd5b7f0100000000000000000000000000000000000000000000000000000000000000841415611daa578160e0015173ffffffffffffffffffffffffffffffffffffffff166108fc8360c001519081150290604051600060405180830381858888f19350505050158015611caf573d6000803e3d6000fd5b508161010001516000015173ffffffffffffffffffffffffffffffffffffffff16826101000151604001516040518082805190602001908083835b602083101515611d0f5780518252602082019150602081019050602083039250611cea565b6001836020036101000a03801982511681845116808217855250505050505090500191505060405180910390207f605be04fcd02ac6746870632461fcbbbd524668fa24cf233eef9cc36d400dfee846000604051611d6e929190615370565b60405180910390a3600060086000858152602001908152602001600020600c0160006101000a81548160ff021916908315150217905550611fa6565b7f0200000000000000000000000000000000000000000000000000000000000000841415611f1b578160e0015173ffffffffffffffffffffffffffffffffffffffff166108fc8360c001519081150290604051600060405180830381858888f19350505050158015611e20573d6000803e3d6000fd5b508161010001516000015173ffffffffffffffffffffffffffffffffffffffff16826101000151604001516040518082805190602001908083835b602083101515611e805780518252602082019150602081019050602083039250611e5b565b6001836020036101000a03801982511681845116808217855250505050505090500191505060405180910390207f605be04fcd02ac6746870632461fcbbbd524668fa24cf233eef9cc36d400dfee846001604051611edf929190615370565b60405180910390a3600060086000858152602001908152602001600020600c0160006101000a81548160ff021916908315150217905550611fa5565b6000841415611f60577f0eeeb64e033b0a06c275c4b633e27f9af17e1cfc06ee48a03cd1f46f4339334882604051611f53919061534e565b60405180910390a1611fa4565b60001515611fa3576040517f08c379a0000000000000000000000000000000000000000000000000000000008152600401611f9a9061522e565b60405180910390fd5b5b5b5b5050505050565b7f010000000000000000000000000000000000000000000000000000000000000081565b600081565b606060405190810160405280602181526020017f747261646575726c6f776e6572686173696e73706563746c696e6b746172676581526020017f740000000000000000000000000000000000000000000000000000000000000081525081565b7f020000000000000000000000000000000000000000000000000000000000000081565b612062614561565b600060086000848152602001908152602001600020610140604051908101604052908160008201548152602001600182018054600181600116156101000203166002900480601f0160208091040260200160405190810160405280929190818152602001828054600181600116156101000203166002900480156121275780601f106120fc57610100808354040283529160200191612127565b820191906000526020600020905b81548152906001019060200180831161210a57829003601f168201915b50505050508152602001600282018054600181600116156101000203166002900480601f0160208091040260200160405190810160405280929190818152602001828054600181600116156101000203166002900480156121c95780601f1061219e576101008083540402835291602001916121c9565b820191906000526020600020905b8154815290600101906020018083116121ac57829003601f168201915b50505050508152602001600382018054600181600116156101000203166002900480601f01602080910402602001604051908101604052809291908181526020018280546001816001161561010002031660029004801561226b5780601f106122405761010080835404028352916020019161226b565b820191906000526020600020905b81548152906001019060200180831161224e57829003601f168201915b5050505050815260200160048201548152602001600582018054600181600116156101000203166002900480601f0160208091040260200160405190810160405280929190818152602001828054600181600116156101000203166002900480156123175780601f106122ec57610100808354040283529160200191612317565b820191906000526020600020905b8154815290600101906020018083116122fa57829003601f168201915b50505050508152602001600682015481526020016007820160009054906101000a900473ffffffffffffffffffffffffffffffffffffffff1673ffffffffffffffffffffffffffffffffffffffff1673ffffffffffffffffffffffffffffffffffffffff16815260200160088201608060405190810160405290816000820160009054906101000a900473ffffffffffffffffffffffffffffffffffffffff1673ffffffffffffffffffffffffffffffffffffffff1673ffffffffffffffffffffffffffffffffffffffff16815260200160018201548152602001600282018054600181600116156101000203166002900480601f01602080910402602001604051908101604052809291908181526020018280546001816001161561010002031660029004801561248a5780601f1061245f5761010080835404028352916020019161248a565b820191906000526020600020905b81548152906001019060200180831161246d57829003601f168201915b505050505081526020016003820160009054906101000a900460ff1615151515815250508152602001600c820160009054906101000a900460ff1615151515815250509150600115158261012001511515146040805190810160405280601181526020017f4c697374696e67206e6f7420666f756e64000000000000000000000000000000815250901515612555576040517f08c379a000000000000000000000000000000000000000000000000000000000815260040161254c91906151ec565b60405180910390fd5b50600115158261010001516060015115151415156125a8576040517f08c379a000000000000000000000000000000000000000000000000000000000815260040161259f906152ce565b60405180910390fd5b3373ffffffffffffffffffffffffffffffffffffffff168261010001516000015173ffffffffffffffffffffffffffffffffffffffff16141515612621576040517f08c379a00000000000000000000000000000000000000000000000000000000081526004016126189061528e565b60405180910390fd5b81610100015160200151420390506006610e100281111515612678576040517f08c379a000000000000000000000000000000000000000000000000000000000815260040161266f9061526e565b60405180910390fd5b8161010001516000015173ffffffffffffffffffffffffffffffffffffffff166108fc8360c001519081150290604051600060405180830381858888f193505050501580156126cb573d6000803e3d6000fd5b5060008261010001516060019015159081151581525050816008600085815260200190815260200160002060008201518160000155602082015181600101908051906020019061271c929190614614565b506040820151816002019080519060200190612739929190614614565b506060820151816003019080519060200190612756929190614614565b506080820151816004015560a082015181600501908051906020019061277d929190614614565b5060c0820151816006015560e08201518160070160006101000a81548173ffffffffffffffffffffffffffffffffffffffff021916908373ffffffffffffffffffffffffffffffffffffffff1602179055506101008201518160080160008201518160000160006101000a81548173ffffffffffffffffffffffffffffffffffffffff021916908373ffffffffffffffffffffffffffffffffffffffff160217905550602082015181600101556040820151816002019080519060200190612846929190614614565b5060608201518160030160006101000a81548160ff021916908315150217905550505061012082015181600c0160006101000a81548160ff021916908315150217905550905050505050565b6000600754905090565b6128a4614561565b60006128ae6145d3565b60086000868152602001908152602001600020610140604051908101604052908160008201548152602001600182018054600181600116156101000203166002900480601f0160208091040260200160405190810160405280929190818152602001828054600181600116156101000203166002900480156129715780601f1061294657610100808354040283529160200191612971565b820191906000526020600020905b81548152906001019060200180831161295457829003601f168201915b50505050508152602001600282018054600181600116156101000203166002900480601f016020809104026020016040519081016040528092919081815260200182805460018160011615610100020316600290048015612a135780601f106129e857610100808354040283529160200191612a13565b820191906000526020600020905b8154815290600101906020018083116129f657829003601f168201915b50505050508152602001600382018054600181600116156101000203166002900480601f016020809104026020016040519081016040528092919081815260200182805460018160011615610100020316600290048015612ab55780601f10612a8a57610100808354040283529160200191612ab5565b820191906000526020600020905b815481529060010190602001808311612a9857829003601f168201915b5050505050815260200160048201548152602001600582018054600181600116156101000203166002900480601f016020809104026020016040519081016040528092919081815260200182805460018160011615610100020316600290048015612b615780601f10612b3657610100808354040283529160200191612b61565b820191906000526020600020905b815481529060010190602001808311612b4457829003601f168201915b50505050508152602001600682015481526020016007820160009054906101000a900473ffffffffffffffffffffffffffffffffffffffff1673ffffffffffffffffffffffffffffffffffffffff1673ffffffffffffffffffffffffffffffffffffffff16815260200160088201608060405190810160405290816000820160009054906101000a900473ffffffffffffffffffffffffffffffffffffffff1673ffffffffffffffffffffffffffffffffffffffff1673ffffffffffffffffffffffffffffffffffffffff16815260200160018201548152602001600282018054600181600116156101000203166002900480601f016020809104026020016040519081016040528092919081815260200182805460018160011615610100020316600290048015612cd45780601f10612ca957610100808354040283529160200191612cd4565b820191906000526020600020905b815481529060010190602001808311612cb757829003601f168201915b505050505081526020016003820160009054906101000a900460ff1615151515815250508152602001600c820160009054906101000a900460ff1615151515815250509250600115158361012001511515146040805190810160405280601181526020017f4c697374696e67206e6f7420666f756e64000000000000000000000000000000815250901515612d9f576040517f08c379a0000000000000000000000000000000000000000000000000000000008152600401612d9691906151ec565b60405180910390fd5b5060001515836101000151606001511515141515612df2576040517f08c379a0000000000000000000000000000000000000000000000000000000008152600401612de99061530e565b60405180910390fd5b348360c00151141515612e3a576040517f08c379a0000000000000000000000000000000000000000000000000000000008152600401612e319061524e565b60405180910390fd5b4291506080604051908101604052803373ffffffffffffffffffffffffffffffffffffffff168152602001838152602001858152602001600115158152509050808361010001819052503373ffffffffffffffffffffffffffffffffffffffff16846040518082805190602001908083835b602083101515612ed15780518252602082019150602081019050602083039250612eac565b6001836020036101000a03801982511681845116808217855250505050505090500191505060405180910390207f2414a6846fd51791dcac3602f18917f301617892ec0d5de2d6858a64abf7c86c85604051612f2d919061534e565b60405180910390a38260086000878152602001908152602001600020600082015181600001556020820151816001019080519060200190612f6f929190614614565b506040820151816002019080519060200190612f8c929190614614565b506060820151816003019080519060200190612fa9929190614614565b506080820151816004015560a0820151816005019080519060200190612fd0929190614614565b5060c0820151816006015560e08201518160070160006101000a81548173ffffffffffffffffffffffffffffffffffffffff021916908373ffffffffffffffffffffffffffffffffffffffff1602179055506101008201518160080160008201518160000160006101000a81548173ffffffffffffffffffffffffffffffffffffffff021916908373ffffffffffffffffffffffffffffffffffffffff160217905550602082015181600101556040820151816002019080519060200190613099929190614614565b5060608201518160030160006101000a81548160ff021916908315150217905550505061012082015181600c0160006101000a81548160ff0219169083151502179055509050505050505050565b6130ef614561565b600660009054906101000a900473ffffffffffffffffffffffffffffffffffffffff1673ffffffffffffffffffffffffffffffffffffffff163373ffffffffffffffffffffffffffffffffffffffff1614151561314b57600080fd5b60086000838152602001908152602001600020610140604051908101604052908160008201548152602001600182018054600181600116156101000203166002900480601f01602080910402602001604051908101604052809291908181526020018280546001816001161561010002031660029004801561320e5780601f106131e35761010080835404028352916020019161320e565b820191906000526020600020905b8154815290600101906020018083116131f157829003601f168201915b50505050508152602001600282018054600181600116156101000203166002900480601f0160208091040260200160405190810160405280929190818152602001828054600181600116156101000203166002900480156132b05780601f10613285576101008083540402835291602001916132b0565b820191906000526020600020905b81548152906001019060200180831161329357829003601f168201915b50505050508152602001600382018054600181600116156101000203166002900480601f0160208091040260200160405190810160405280929190818152602001828054600181600116156101000203166002900480156133525780601f1061332757610100808354040283529160200191613352565b820191906000526020600020905b81548152906001019060200180831161333557829003601f168201915b5050505050815260200160048201548152602001600582018054600181600116156101000203166002900480601f0160208091040260200160405190810160405280929190818152602001828054600181600116156101000203166002900480156133fe5780601f106133d3576101008083540402835291602001916133fe565b820191906000526020600020905b8154815290600101906020018083116133e157829003601f168201915b50505050508152602001600682015481526020016007820160009054906101000a900473ffffffffffffffffffffffffffffffffffffffff1673ffffffffffffffffffffffffffffffffffffffff1673ffffffffffffffffffffffffffffffffffffffff16815260200160088201608060405190810160405290816000820160009054906101000a900473ffffffffffffffffffffffffffffffffffffffff1673ffffffffffffffffffffffffffffffffffffffff1673ffffffffffffffffffffffffffffffffffffffff16815260200160018201548152602001600282018054600181600116156101000203166002900480601f0160208091040260200160405190810160405280929190818152602001828054600181600116156101000203166002900480156135715780601f1061354657610100808354040283529160200191613571565b820191906000526020600020905b81548152906001019060200180831161355457829003601f168201915b505050505081526020016003820160009054906101000a900460ff1615151515815250508152602001600c820160009054906101000a900460ff1615151515815250509050600115158161012001511515146040805190810160405280601181526020017f4c697374696e67206e6f7420666f756e6400000000000000000000000000000081525090151561363c576040517f08c379a000000000000000000000000000000000000000000000000000000000815260040161363391906151ec565b60405180910390fd5b50806101000151606001511561376b578061010001516000015173ffffffffffffffffffffffffffffffffffffffff166108fc8260c001519081150290604051600060405180830381858888f1935050505015801561369f573d6000803e3d6000fd5b508061010001516000015173ffffffffffffffffffffffffffffffffffffffff16816101000151604001516040518082805190602001908083835b6020831015156136ff57805182526020820191506020810190506020830392506136da565b6001836020036101000a03801982511681845116808217855250505050505090500191505060405180910390207f605be04fcd02ac6746870632461fcbbbd524668fa24cf233eef9cc36d400dfee83600260405161375e929190615370565b60405180910390a36137cf565b600073ffffffffffffffffffffffffffffffffffffffff1660405180600001905060405180910390207f605be04fcd02ac6746870632461fcbbbd524668fa24cf233eef9cc36d400dfee8360026040516137c6929190615370565b60405180910390a35b600060086000848152602001908152602001600020600c0160006101000a81548160ff0219169083151502179055505050565b600660009054906101000a900473ffffffffffffffffffffffffffffffffffffffff1673ffffffffffffffffffffffffffffffffffffffff163373ffffffffffffffffffffffffffffffffffffffff1614151561385e57600080fd5b61386781613e7d565b50565b600060056000866000191660001916815260200190815260200160002060009054906101000a900473ffffffffffffffffffffffffffffffffffffffff16905060056000866000191660001916815260200190815260200160002060006101000a81549073ffffffffffffffffffffffffffffffffffffffff021916905584600019167fe1fe3afa0f7f761ff0a8b89086790efd5140d2907ebd5b7ff6bfcb5e075fd4c560405160405180910390a28073ffffffffffffffffffffffffffffffffffffffff16636ee4d553868686866040518563ffffffff167c010000000000000000000000000000000000000000000000000000000002815260040161397494939291906151a7565b600060405180830381600087803b15801561398e57600080fd5b505af11580156139a2573d6000803e3d6000fd5b505050505050505050565b6139b5614694565b6139bd614694565b6139d485858584613f79909392919063ffffffff16565b9150509392505050565b6139f582846080015161403390919063ffffffff16565b613a0c81846080015161403390919063ffffffff16565b505050565b60606000806060600080861415613a5f576040805190810160405280600181526020017f30000000000000000000000000000000000000000000000000000000000000008152509450613b5f565b8593505b600084141515613a89578280600101935050600a84811515613a8157fe5b049350613a63565b826040519080825280601f01601f191660200182016040528015613abc5781602001602082028038833980820191505090505b5091506001830390505b600086141515613b5b57600a86811515613adc57fe5b066030017f010000000000000000000000000000000000000000000000000000000000000002828280600190039350815181101515613b1757fe5b9060200101907effffffffffffffffffffffffffffffffffffffffffffffffffffffffffffff1916908160001a905350600a86811515613b5357fe5b049550613ac6565b8194505b50505050919050565b6000613b8183856080015161403390919063ffffffff16565b613b8e8460800151614058565b600090505b8151811015613bd757613bca8282815181101515613bad57fe5b90602001906020020151856080015161403390919063ffffffff16565b8080600101915050613b93565b613be48460800151614066565b50505050565b600030600454604051602001808373ffffffffffffffffffffffffffffffffffffffff1673ffffffffffffffffffffffffffffffffffffffff166c01000000000000000000000000028152601401828152602001925050506040516020818303038152906040526040518082805190602001908083835b602083101515613c865780518252602082019150602081019050602083039250613c61565b6001836020036101000a038019825116818451168082178552505050505050905001915050604051809103902090506004548360600181815250508360056000836000191660001916815260200190815260200160002060006101000a81548173ffffffffffffffffffffffffffffffffffffffff021916908373ffffffffffffffffffffffffffffffffffffffff16021790555080600019167fb5e6e01e79f91267dc17b4e6314d5d4d03593d2ceee0fbb452b750bd70ea5af960405160405180910390a2600260009054906101000a900473ffffffffffffffffffffffffffffffffffffffff1673ffffffffffffffffffffffffffffffffffffffff16634000aea08584613d9587614074565b6040518463ffffffff167c0100000000000000000000000000000000000000000000000000000000028152600401613dcf9392919061514e565b602060405180830381600087803b158015613de957600080fd5b505af1158015613dfd573d6000803e3d6000fd5b505050506040513d601f19601f82011682018060405250613e21919081019061486b565b1515613e62576040517f08c379a0000000000000000000000000000000000000000000000000000000008152600401613e599061520e565b60405180910390fd5b60016004600082825401925050819055508090509392505050565b600073ffffffffffffffffffffffffffffffffffffffff168173ffffffffffffffffffffffffffffffffffffffff1614151515613eb957600080fd5b8073ffffffffffffffffffffffffffffffffffffffff16600660009054906101000a900473ffffffffffffffffffffffffffffffffffffffff1673ffffffffffffffffffffffffffffffffffffffff167f8be0079c531659141344cd1fd0a4f28419497f9722a3daafe3b4186f6b6457e060405160405180910390a380600660006101000a81548173ffffffffffffffffffffffffffffffffffffffff021916908373ffffffffffffffffffffffffffffffffffffffff16021790555050565b613f81614694565b613f918560800151610100614172565b50838560000190600019169081600019168152505082856020019073ffffffffffffffffffffffffffffffffffffffff16908173ffffffffffffffffffffffffffffffffffffffff16815250508185604001907bffffffffffffffffffffffffffffffffffffffffffffffffffffffff191690817bffffffffffffffffffffffffffffffffffffffffffffffffffffffff191681525050849050949350505050565b61404082600383516141cc565b614053818361432a90919063ffffffff16565b505050565b61406381600461434c565b50565b61407181600761434c565b50565b6060600360009054906101000a900473ffffffffffffffffffffffffffffffffffffffff1673ffffffffffffffffffffffffffffffffffffffff16634042994690507c0100000000000000000000000000000000000000000000000000000000026000808460000151856020015186604001518760600151600189608001516000015160405160240161410e9897969594939291906150c9565b604051602081830303815290604052907bffffffffffffffffffffffffffffffffffffffffffffffffffffffff19166020820180517bffffffffffffffffffffffffffffffffffffffffffffffffffffffff83818316178352505050509050919050565b61417a614702565b600060208381151561418857fe5b061415156141a55760208281151561419c57fe5b06602003820191505b81836020018181525050604051808452600081528281016020016040525082905092915050565b6017811115156141fe576141f88160058460ff169060020a0260ff16178461437190919063ffffffff16565b50614325565b60ff8111151561424557614228601860058460ff169060020a02178461437190919063ffffffff16565b5061423f816001856143919092919063ffffffff16565b50614324565b61ffff8111151561428d57614270601960058460ff169060020a02178461437190919063ffffffff16565b50614287816002856143919092919063ffffffff16565b50614323565b63ffffffff811115156142d7576142ba601a60058460ff169060020a02178461437190919063ffffffff16565b506142d1816004856143919092919063ffffffff16565b50614322565b67ffffffffffffffff8111151561432157614308601b60058460ff169060020a02178461437190919063ffffffff16565b5061431f816008856143919092919063ffffffff16565b505b5b5b5b5b505050565b614332614702565b614344838460000151518485516143b3565b905092915050565b61436c601f60058360ff169060020a02178361437190919063ffffffff16565b505050565b614379614702565b6143898384600001515184614470565b905092915050565b614399614702565b6143aa8485600001515185856144c0565b90509392505050565b6143bb614702565b6000806000855185111515156143d057600080fd5b876020015185880111156143fb576143fa8860026143f48b602001518b8a01614521565b0261453d565b5b8751805188602083010194508089880111156144175788870182525b60208801935050505b6020851015156144455781518352602083019250602082019150602085039450614420565b6001856020036101000a03905080198251168184511681811785525050879350505050949350505050565b614478614702565b8360200151831015156144975761449684600286602001510261453d565b5b83518051602085830101848153818614156144b3576001820183525b5050508390509392505050565b6144c8614702565b6000856020015185840111156144e8576144e78660028786010261453d565b5b6001836101000a03905085518386820101858319825116178152815185880111156145135784870182525b505085915050949350505050565b60008183111561453357829050614537565b8190505b92915050565b6060826000015190506145508383614172565b5061455b838261432a565b50505050565b6101a06040519081016040528060008152602001606081526020016060815260200160608152602001600081526020016060815260200160008152602001600073ffffffffffffffffffffffffffffffffffffffff1681526020016145c461471c565b81526020016000151581525090565b608060405190810160405280600073ffffffffffffffffffffffffffffffffffffffff16815260200160008152602001606081526020016000151581525090565b828054600181600116156101000203166002900490600052602060002090601f016020900481019282601f1061465557805160ff1916838001178555614683565b82800160010185558215614683579182015b82811115614682578251825591602001919060010190614667565b5b509050614690919061475d565b5090565b60c06040519081016040528060008019168152602001600073ffffffffffffffffffffffffffffffffffffffff16815260200160007bffffffffffffffffffffffffffffffffffffffffffffffffffffffff19168152602001600081526020016146fc614782565b81525090565b604080519081016040528060608152602001600081525090565b608060405190810160405280600073ffffffffffffffffffffffffffffffffffffffff16815260200160008152602001606081526020016000151581525090565b61477f91905b8082111561477b576000816000905550600101614763565b5090565b90565b604080519081016040528060608152602001600081525090565b60006147a882356154b7565b905092915050565b60006147bc82516154d7565b905092915050565b60006147d082356154e3565b905092915050565b600082601f83011215156147eb57600080fd5b81356147fe6147f9826153e8565b6153bb565b9150808252602083016020830185838301111561481a57600080fd5b614825838284615509565b50505092915050565b600061483a82356154ed565b905092915050565b60006020828403121561485457600080fd5b60006148628482850161479c565b91505092915050565b60006020828403121561487d57600080fd5b600061488b848285016147b0565b91505092915050565b600080604083850312156148a757600080fd5b60006148b5858286016147c4565b92505060206148c68582860161482e565b9150509250929050565b6000806000606084860312156148e557600080fd5b60006148f3868287016147c4565b93505060206149048682870161482e565b92505060406149158682870161482e565b9150509250925092565b600080600080600080600060e0888a03121561493a57600080fd5b600088013567ffffffffffffffff81111561495457600080fd5b6149608a828b016147d8565b975050602088013567ffffffffffffffff81111561497d57600080fd5b6149898a828b016147d8565b965050604088013567ffffffffffffffff8111156149a657600080fd5b6149b28a828b016147d8565b95505060606149c38a828b0161482e565b945050608088013567ffffffffffffffff8111156149e057600080fd5b6149ec8a828b016147d8565b93505060a06149fd8a828b0161482e565b92505060c0614a0e8a828b0161479c565b91505092959891949750929550565b600060208284031215614a2f57600080fd5b6000614a3d8482850161482e565b91505092915050565b600080600080600060a08688031215614a5e57600080fd5b6000614a6c8882890161482e565b9550506020614a7d8882890161479c565b9450506040614a8e888289016147c4565b9350506060614a9f8882890161482e565b925050608086013567ffffffffffffffff811115614abc57600080fd5b614ac8888289016147d8565b9150509295509295909350565b60008060408385031215614ae857600080fd5b6000614af68582860161482e565b925050602083013567ffffffffffffffff811115614b1357600080fd5b614b1f858286016147d8565b9150509250929050565b614b3281615435565b82525050565b614b4181615455565b82525050565b614b5081615461565b82525050565b614b5f8161546b565b82525050565b6000614b708261541f565b808452614b84816020860160208601615518565b614b8d8161554b565b602085010191505092915050565b6000614ba682615414565b808452614bba816020860160208601615518565b614bc38161554b565b602085010191505092915050565b614bda816154f7565b82525050565b6000614beb8261542a565b808452614bff816020860160208601615518565b614c088161554b565b602085010191505092915050565b6000602382527f756e61626c6520746f207472616e73666572416e6443616c6c20746f206f726160208301527f636c6500000000000000000000000000000000000000000000000000000000006040830152606082019050919050565b6000602882527f6f776e6572736869705374617475732068617320616e20756e737570706f727460208301527f65642076616c75650000000000000000000000000000000000000000000000006040830152606082019050919050565b6000601c82527f507269636520616e642076616c756520646f206e6f74206d61746368000000006020830152604082019050919050565b6000603682527f546865206d696e696d756d20626c6f636b2061676520726571756972656d656e60208301527f74206e6f74206d657420666f722064656c6574696f6e000000000000000000006040830152606082019050919050565b6000602c82527f4f6e6c7920746865206f776e65722063616e2064656c6574652074686520707560208301527f726368617365206f6666657200000000000000000000000000000000000000006040830152606082019050919050565b6000601d82527f4c697374696e6720686173206e6f207075726368617365206f666665720000006020830152604082019050919050565b6000601d82527f5075726368617365206f6666657220646f6573206e6f742065786973740000006020830152604082019050919050565b6000602882527f536f75726365206d75737420626520746865206f7261636c65206f662074686560208301527f20726571756573740000000000000000000000000000000000000000000000006040830152606082019050919050565b6000602482527f4c697374696e6720616c7265616479206861732061207075726368617365206f60208301527f66666572000000000000000000000000000000000000000000000000000000006040830152606082019050919050565b6000602a82527f546865206c697374696e6720686173206e6f742079657420726563656976656460208301527f20616e206f666665722e000000000000000000000000000000000000000000006040830152606082019050919050565b600061014083016000830151614f5f600086018261509f565b5060208301518482036020860152614f778282614be0565b91505060408301518482036040860152614f918282614be0565b91505060608301518482036060860152614fab8282614be0565b9150506080830151614fc0608086018261509f565b5060a083015184820360a0860152614fd88282614be0565b91505060c0830151614fed60c086018261509f565b5060e083015161500060e0860182614b29565b5061010083015184820361010086015261501a828261503c565b915050610120830151615031610120860182614b38565b508091505092915050565b60006080830160008301516150546000860182614b29565b506020830151615067602086018261509f565b506040830151848203604086015261507f8282614be0565b91505060608301516150946060860182614b38565b508091505092915050565b6150a8816154ad565b82525050565b60006020820190506150c36000830184614b29565b92915050565b6000610100820190506150df600083018b614b29565b6150ec602083018a61509f565b6150f96040830189614b47565b6151066060830188614b29565b6151136080830187614b56565b61512060a083018661509f565b61512d60c083018561509f565b81810360e083015261513f8184614b9b565b90509998505050505050505050565b60006060820190506151636000830186614b29565b615170602083018561509f565b81810360408301526151828184614b65565b9050949350505050565b60006020820190506151a16000830184614b47565b92915050565b60006080820190506151bc6000830187614b47565b6151c9602083018661509f565b6151d66040830185614b56565b6151e3606083018461509f565b95945050505050565b600060208201905081810360008301526152068184614be0565b905092915050565b6000602082019050818103600083015261522781614c16565b9050919050565b6000602082019050818103600083015261524781614c73565b9050919050565b6000602082019050818103600083015261526781614cd0565b9050919050565b6000602082019050818103600083015261528781614d07565b9050919050565b600060208201905081810360008301526152a781614d64565b9050919050565b600060208201905081810360008301526152c781614dc1565b9050919050565b600060208201905081810360008301526152e781614df8565b9050919050565b6000602082019050818103600083015261530781614e2f565b9050919050565b6000602082019050818103600083015261532781614e8c565b9050919050565b6000602082019050818103600083015261534781614ee9565b9050919050565b600060208201905081810360008301526153688184614f46565b905092915050565b6000604082019050818103600083015261538a8185614f46565b90506153996020830184614bd1565b9392505050565b60006020820190506153b5600083018461509f565b92915050565b6000604051905081810181811067ffffffffffffffff821117156153de57600080fd5b8060405250919050565b600067ffffffffffffffff8211156153ff57600080fd5b601f19601f8301169050602081019050919050565b600081519050919050565b600081519050919050565b600081519050919050565b600073ffffffffffffffffffffffffffffffffffffffff82169050919050565b60008115159050919050565b6000819050919050565b60007fffffffff0000000000000000000000000000000000000000000000000000000082169050919050565b60006003821015156154a557fe5b819050919050565b6000819050919050565b600073ffffffffffffffffffffffffffffffffffffffff82169050919050565b60008115159050919050565b6000819050919050565b6000819050919050565b600061550282615497565b9050919050565b82818337600083830152505050565b60005b8381101561553657808201518184015260208101905061551b565b83811115615545576000848401525b50505050565b6000601f19601f83011690509190505600a265627a7a72305820fab3888fb49f1471be17fe4f4c99611956753fc58d3f6c633597279356f505c46c6578706572696d656e74616cf50037",
  "source": "pragma solidity ^0.4.24;\npragma experimental ABIEncoderV2;\n\nimport \"chainlink/contracts/ChainlinkClient.sol\";\nimport \"openzeppelin-solidity/contracts/ownership/Ownable.sol\";\n\n\ncontract CSGOSteamTrade is ChainlinkClient, Ownable {\n    uint private constant hour = 60 * 60;\n    uint public constant MINIMUM_PURCHASE_OFFER_AGE = hour * 6;\n    string public constant CHECK_INVENTORY_CONTAINS_ITEM_METHOD = \"tradeurlownerhasinspectlinktarget\";\n\n    uint256 constant public OWNERSHIP_STATUS_FALSE = 0x0;\n    uint256 constant public OWNERSHIP_STATUS_TRUE = 0x100000000000000000000000000000000000000000000000000000000000000;\n    uint256 constant public OWNERSHIP_STATUS_INVENTORY_PRIVATE = 0x200000000000000000000000000000000000000000000000000000000000000;\n\n    string constant ERR_LISTING_NOT_FOUND = \"Listing not found\";\n    \n    struct PurchaseOffer {\n        address owner;\n        uint creationTimestamp;\n        string buyerTradeURL;\n        bool exists;\n    }\n\n    struct Listing {\n        uint listingId;\n        string ownerInspectLink;\n        string wear;\n        string skinName;\n        uint paintSeed;\n        string extraItemData;\n        uint price;\n        address sellerAddress;\n        PurchaseOffer purchaseOffer;\n        bool exists;\n    }\n\n    event ListingCreation(\n        Listing listing\n    );\n\n    event PurchaseOfferMade(\n        string indexed buyerTradeURL,\n        address indexed buyerAddress,\n        Listing listing\n    );\n\n    enum TradeOutcome { SUCCESSFULLY_CONFIRMED, UNABLE_TO_CONFIRM_PRIVATE_PROFILE, DELETED_LISTING }\n\n    event TradeDone (\n        string indexed buyerTradeURL,\n        address indexed buyerAddress,\n        Listing listing,\n        TradeOutcome tradeOutcome\n    );\n\n    event TradeFulfilmentFail (\n        Listing listing\n    );\n\n    uint numListings = 0;\n    mapping(uint => Listing) listings;\n\n    mapping(bytes32 => uint) requestIdToListingId;\n    \n    /**\n    * @notice Deploy the contract with a specified address for the LINK\n    * and Oracle contract addresses\n    * @dev Sets the storage for the specified addresses\n    * @param _link The address of the LINK token contract\n    */\n    constructor(address _link) public {\n        if (_link == address(0)) {\n        setPublicChainlinkToken();\n        } else {\n        setChainlinkToken(_link);\n        }\n    }\n    \n    function createListing(string _ownerInspectLink, string memory _wear,\n        string memory _skinName, uint _paintSeed, string memory _extraItemData,\n        uint _price, address _sellerAddress)\n        public\n        returns (uint listingId) {\n        listingId = numListings++;\n        PurchaseOffer memory emptyOffer;\n        Listing memory listing = Listing(listingId, _ownerInspectLink, _wear, _skinName, _paintSeed, _extraItemData,\n            _price, _sellerAddress, emptyOffer, true);\n        emit ListingCreation(listing);\n        listings[listingId] = listing;\n    }\n    \n    function getListing(uint _listingId) public view returns (Listing memory listing) {\n        listing = listings[_listingId];\n    }\n\n    function getListingsCount() public view returns (uint) {\n        return numListings;\n    }\n    \n    function deleteListing(uint _listingId)\n        public\n        onlyOwner {\n        Listing memory listing = listings[_listingId];\n        require(listing.exists == true, ERR_LISTING_NOT_FOUND);\n\n        if (listing.purchaseOffer.exists) {\n            // return funds\n            listing.purchaseOffer.owner.transfer(listing.price);\n            emit TradeDone(listing.purchaseOffer.buyerTradeURL, listing.purchaseOffer.owner, listing, TradeOutcome.DELETED_LISTING);\n        } else {\n            emit TradeDone(\"\", address(0), listing, TradeOutcome.DELETED_LISTING);\n        }\n        \n        listings[_listingId].exists = false;\n    }\n\n    function createPurchaseOffer(uint _listingId, string _buyerTradeURL) public payable {\n        Listing memory listing = listings[_listingId];\n        require(listing.exists == true, ERR_LISTING_NOT_FOUND);\n        require(listing.purchaseOffer.exists == false, \"Listing already has a purchase offer\");\n        require(listing.price == msg.value, \"Price and value do not match\");\n\n        uint currentTimestamp = block.timestamp;\n        PurchaseOffer memory purchaseOffer = PurchaseOffer(msg.sender, currentTimestamp, _buyerTradeURL, true);\n        listing.purchaseOffer = purchaseOffer;\n\n        emit PurchaseOfferMade(_buyerTradeURL, msg.sender, listing);\n        listings[_listingId] = listing;\n    }\n\n    function deletePurchaseOffer(uint _listingId) public {\n        Listing memory listing = listings[_listingId];\n        require(listing.exists == true, ERR_LISTING_NOT_FOUND);\n        require(listing.purchaseOffer.exists == true, \"Purchase offer does not exist\");\n        require(listing.purchaseOffer.owner == msg.sender, \"Only the owner can delete the purchase offer\");\n\n\n        uint secondsSinceOfferCreation = block.timestamp - listing.purchaseOffer.creationTimestamp;\n        require(secondsSinceOfferCreation > MINIMUM_PURCHASE_OFFER_AGE, \"The minimum block age requirement not met for deletion\");\n\n        // send the funds back to the owner of the purchase offer.\n        listing.purchaseOffer.owner.transfer(listing.price);\n\n        listing.purchaseOffer.exists = false;\n        listings[_listingId] = listing;\n    }\n\n    function createItemTransferConfirmationRequest(\n        uint _listingId,\n        address _oracle,\n        bytes32 _jobId,\n        uint256 _payment,\n        string _buyerInspectLink)\n        public\n        onlyOwner\n        returns (bytes32 requestId) {\n\n        Listing memory listing = listings[_listingId];\n        require(listing.exists == true, ERR_LISTING_NOT_FOUND);\n        require(listing.purchaseOffer.exists == true, \"The listing has not yet received an offer.\");\n        \n        Chainlink.Request memory req = buildChainlinkRequest(_jobId,\n            this,\n            this.fulfillItemTransferConfirmation.selector);\n            \n        req.add(\"method\", CHECK_INVENTORY_CONTAINS_ITEM_METHOD);\n        req.add(\"inspectLink\", _buyerInspectLink);\n        req.add(\"tradeURL\", listing.purchaseOffer.buyerTradeURL);\n        req.add(\"wear\", listing.wear);\n        req.add(\"skinName\", listing.skinName);\n        req.add(\"paintSeed\", uint2str(listing.paintSeed));\n        \n        string[] memory path = new string[](1);\n        path[0] = \"containsItem\";\n        req.addStringArray(\"copyPath\", path);\n\n        requestId = sendChainlinkRequestTo(_oracle, req, _payment);\n        requestIdToListingId[requestId] = _listingId;\n    }\n\n    /**\n   * @notice The fulfill method from requests created by this contract\n   * @dev The recordChainlinkFulfillment protects this function from being called\n   * by anyone other than the oracle address that the request was sent to\n   * @param _requestId The ID that was generated for the request\n   * @param _ownershipStatus The answer provided by the oracle\n   */\n    function fulfillItemTransferConfirmation(bytes32 _requestId, uint256 _ownershipStatus)\n        public\n        recordChainlinkFulfillment(_requestId) {\n\n        uint listingId = requestIdToListingId[_requestId];\n        Listing memory listing = listings[listingId];\n        require(listing.exists == true, ERR_LISTING_NOT_FOUND);\n        require(listing.purchaseOffer.exists == true, \"Listing has no purchase offer\");\n\n        if (_ownershipStatus == OWNERSHIP_STATUS_TRUE) {\n            listing.sellerAddress.transfer(listing.price);\n            emit TradeDone(listing.purchaseOffer.buyerTradeURL, listing.purchaseOffer.owner, listing, TradeOutcome.SUCCESSFULLY_CONFIRMED);\n            listings[listingId].exists = false;\n        } else if (_ownershipStatus == OWNERSHIP_STATUS_INVENTORY_PRIVATE) {\n            listing.sellerAddress.transfer(listing.price);\n            emit TradeDone(listing.purchaseOffer.buyerTradeURL, listing.purchaseOffer.owner, listing, TradeOutcome.UNABLE_TO_CONFIRM_PRIVATE_PROFILE);\n            listings[listingId].exists = false;\n        } else if (_ownershipStatus == OWNERSHIP_STATUS_FALSE) {\n            emit TradeFulfilmentFail(listing);\n        } else {\n            require(false, 'ownershipStatus has an unsupported value');\n        }\n    }\n\n    /**\n    * @notice Call this method if no response is received within 5 minutes\n    * @param _requestId The ID that was generated for the request to cancel\n    * @param _payment The payment specified for the request to cancel\n    * the request to cancel\n    * @param _expiration The expiration generated for the request to cancel\n    */\n    function cancelRequest(\n        bytes32 _requestId,\n        uint256 _payment,\n        uint256 _expiration\n    )\n        public\n        onlyOwner {\n        cancelChainlinkRequest(_requestId, _payment, this.fulfillItemTransferConfirmation.selector, _expiration);\n    }\n\n    /**\n     * @notice Converts a uint to a string. Extracted from https://github.com/provable-things/ethereum-api/blob/master/oraclizeAPI_0.5.sol\n     */\n    function uint2str(uint _i) internal pure returns (string memory _uintAsString) {\n        if (_i == 0) {\n            return \"0\";\n        }\n        uint j = _i;\n        uint len;\n        while (j != 0) {\n            len++;\n            j /= 10;\n        }\n        bytes memory bstr = new bytes(len);\n        uint k = len - 1;\n        while (_i != 0) {\n            bstr[k--] = byte(uint8(48 + _i % 10));\n            _i /= 10;\n        }\n        return string(bstr);\n    }\n}",
  "sourcePath": "/Users/dan/moneywork/csgo-steam-eth-trade/csgo-trade-contract/contracts/CSGOSteamTrade.sol",
  "compiler": {
    "name": "solc",
    "version": "0.4.24+commit.e67f0147.Emscripten.clang"
  },
  "schemaVersion": "3.0.16",
  "updatedAt": "2019-12-25T11:44:24.108Z",
  "devdoc": {
    "methods": {
      "cancelRequest(bytes32,uint256,uint256)": {
        "params": {
          "_expiration": "The expiration generated for the request to cancel",
          "_payment": "The payment specified for the request to cancel the request to cancel",
          "_requestId": "The ID that was generated for the request to cancel"
        }
      },
      "fulfillItemTransferConfirmation(bytes32,uint256)": {
        "details": "The recordChainlinkFulfillment protects this function from being called by anyone other than the oracle address that the request was sent to",
        "params": {
          "_ownershipStatus": "The answer provided by the oracle",
          "_requestId": "The ID that was generated for the request"
        }
      },
      "renounceOwnership()": {
        "details": "Allows the current owner to relinquish control of the contract."
      },
      "transferOwnership(address)": {
        "details": "Allows the current owner to transfer control of the contract to a newOwner.",
        "params": {
          "_newOwner": "The address to transfer ownership to."
        }
      }
    }
  },
  "userdoc": {
    "methods": {
      "cancelRequest(bytes32,uint256,uint256)": {
        "notice": "Call this method if no response is received within 5 minutes"
      },
      "fulfillItemTransferConfirmation(bytes32,uint256)": {
        "notice": "The fulfill method from requests created by this contract"
      },
      "renounceOwnership()": {
        "notice": "Renouncing to ownership will leave the contract without an owner. It will not be possible to call the functions with the `onlyOwner` modifier anymore."
      }
    }
  }
}