{
  "contractName": "CSGOSteamTrade",
  "abi": [
    {
      "constant": true,
      "inputs": [],
      "name": "MINIMUM_PURCHASE_OFFER_AGE",
      "outputs": [
        {
          "name": "",
          "type": "uint256"
        }
      ],
      "payable": false,
      "stateMutability": "view",
      "type": "function"
    },
    {
      "constant": true,
      "inputs": [],
      "name": "OWNERSHIP_STATUS_TRUE",
      "outputs": [
        {
          "name": "",
          "type": "uint256"
        }
      ],
      "payable": false,
      "stateMutability": "view",
      "type": "function"
    },
    {
      "constant": true,
      "inputs": [],
      "name": "OWNERSHIP_STATUS_FALSE",
      "outputs": [
        {
          "name": "",
          "type": "uint256"
        }
      ],
      "payable": false,
      "stateMutability": "view",
      "type": "function"
    },
    {
      "constant": true,
      "inputs": [],
      "name": "CHECK_INVENTORY_CONTAINS_ITEM_METHOD",
      "outputs": [
        {
          "name": "",
          "type": "string"
        }
      ],
      "payable": false,
      "stateMutability": "view",
      "type": "function"
    },
    {
      "constant": true,
      "inputs": [],
      "name": "OWNERSHIP_STATUS_INVENTORY_PRIVATE",
      "outputs": [
        {
          "name": "",
          "type": "uint256"
        }
      ],
      "payable": false,
      "stateMutability": "view",
      "type": "function"
    },
    {
      "inputs": [
        {
          "name": "_link",
          "type": "address"
        }
      ],
      "payable": false,
      "stateMutability": "nonpayable",
      "type": "constructor"
    },
    {
      "anonymous": false,
      "inputs": [
        {
          "components": [
            {
              "name": "listingId",
              "type": "uint256"
            },
            {
              "name": "ownerInspectLink",
              "type": "string"
            },
            {
              "name": "wear",
              "type": "string"
            },
            {
              "name": "skinName",
              "type": "string"
            },
            {
              "name": "paintSeed",
              "type": "uint256"
            },
            {
              "name": "extraItemData",
              "type": "string"
            },
            {
              "name": "price",
              "type": "uint256"
            },
            {
              "name": "sellerEthereumAdress",
              "type": "address"
            },
            {
              "name": "owner",
              "type": "address"
            },
            {
              "components": [
                {
                  "name": "owner",
                  "type": "address"
                },
                {
                  "name": "creationTimestamp",
                  "type": "uint256"
                },
                {
                  "name": "buyerTradeURL",
                  "type": "string"
                },
                {
                  "name": "exists",
                  "type": "bool"
                }
              ],
              "name": "purchaseOffer",
              "type": "tuple"
            },
            {
              "name": "exists",
              "type": "bool"
            },
            {
              "name": "stage",
              "type": "uint8"
            }
          ],
          "indexed": false,
          "name": "listing",
          "type": "tuple"
        }
      ],
      "name": "ListingCreation",
      "type": "event"
    },
    {
      "anonymous": false,
      "inputs": [
        {
          "indexed": true,
          "name": "_buyerTradeURL",
          "type": "string"
        },
        {
          "indexed": true,
          "name": "buyerEthereumAddress",
          "type": "address"
        },
        {
          "components": [
            {
              "name": "listingId",
              "type": "uint256"
            },
            {
              "name": "ownerInspectLink",
              "type": "string"
            },
            {
              "name": "wear",
              "type": "string"
            },
            {
              "name": "skinName",
              "type": "string"
            },
            {
              "name": "paintSeed",
              "type": "uint256"
            },
            {
              "name": "extraItemData",
              "type": "string"
            },
            {
              "name": "price",
              "type": "uint256"
            },
            {
              "name": "sellerEthereumAdress",
              "type": "address"
            },
            {
              "name": "owner",
              "type": "address"
            },
            {
              "components": [
                {
                  "name": "owner",
                  "type": "address"
                },
                {
                  "name": "creationTimestamp",
                  "type": "uint256"
                },
                {
                  "name": "buyerTradeURL",
                  "type": "string"
                },
                {
                  "name": "exists",
                  "type": "bool"
                }
              ],
              "name": "purchaseOffer",
              "type": "tuple"
            },
            {
              "name": "exists",
              "type": "bool"
            },
            {
              "name": "stage",
              "type": "uint8"
            }
          ],
          "indexed": false,
          "name": "listing",
          "type": "tuple"
        }
      ],
      "name": "PurchaseOfferMade",
      "type": "event"
    },
    {
      "anonymous": false,
      "inputs": [
        {
          "components": [
            {
              "name": "listingId",
              "type": "uint256"
            },
            {
              "name": "ownerInspectLink",
              "type": "string"
            },
            {
              "name": "wear",
              "type": "string"
            },
            {
              "name": "skinName",
              "type": "string"
            },
            {
              "name": "paintSeed",
              "type": "uint256"
            },
            {
              "name": "extraItemData",
              "type": "string"
            },
            {
              "name": "price",
              "type": "uint256"
            },
            {
              "name": "sellerEthereumAdress",
              "type": "address"
            },
            {
              "name": "owner",
              "type": "address"
            },
            {
              "components": [
                {
                  "name": "owner",
                  "type": "address"
                },
                {
                  "name": "creationTimestamp",
                  "type": "uint256"
                },
                {
                  "name": "buyerTradeURL",
                  "type": "string"
                },
                {
                  "name": "exists",
                  "type": "bool"
                }
              ],
              "name": "purchaseOffer",
              "type": "tuple"
            },
            {
              "name": "exists",
              "type": "bool"
            },
            {
              "name": "stage",
              "type": "uint8"
            }
          ],
          "indexed": false,
          "name": "listing",
          "type": "tuple"
        },
        {
          "indexed": false,
          "name": "tradeOutcome",
          "type": "uint8"
        }
      ],
      "name": "TradeDone",
      "type": "event"
    },
    {
      "anonymous": false,
      "inputs": [
        {
          "components": [
            {
              "name": "listingId",
              "type": "uint256"
            },
            {
              "name": "ownerInspectLink",
              "type": "string"
            },
            {
              "name": "wear",
              "type": "string"
            },
            {
              "name": "skinName",
              "type": "string"
            },
            {
              "name": "paintSeed",
              "type": "uint256"
            },
            {
              "name": "extraItemData",
              "type": "string"
            },
            {
              "name": "price",
              "type": "uint256"
            },
            {
              "name": "sellerEthereumAdress",
              "type": "address"
            },
            {
              "name": "owner",
              "type": "address"
            },
            {
              "components": [
                {
                  "name": "owner",
                  "type": "address"
                },
                {
                  "name": "creationTimestamp",
                  "type": "uint256"
                },
                {
                  "name": "buyerTradeURL",
                  "type": "string"
                },
                {
                  "name": "exists",
                  "type": "bool"
                }
              ],
              "name": "purchaseOffer",
              "type": "tuple"
            },
            {
              "name": "exists",
              "type": "bool"
            },
            {
              "name": "stage",
              "type": "uint8"
            }
          ],
          "indexed": false,
          "name": "listing",
          "type": "tuple"
        }
      ],
      "name": "TradeFulfilmentFail",
      "type": "event"
    },
    {
      "anonymous": false,
      "inputs": [
        {
          "indexed": true,
          "name": "id",
          "type": "bytes32"
        }
      ],
      "name": "ChainlinkRequested",
      "type": "event"
    },
    {
      "anonymous": false,
      "inputs": [
        {
          "indexed": true,
          "name": "id",
          "type": "bytes32"
        }
      ],
      "name": "ChainlinkFulfilled",
      "type": "event"
    },
    {
      "anonymous": false,
      "inputs": [
        {
          "indexed": true,
          "name": "id",
          "type": "bytes32"
        }
      ],
      "name": "ChainlinkCancelled",
      "type": "event"
    },
    {
      "constant": false,
      "inputs": [
        {
          "name": "_ownerInspectLink",
          "type": "string"
        },
        {
          "name": "_wear",
          "type": "string"
        },
        {
          "name": "_skinName",
          "type": "string"
        },
        {
          "name": "_paintSeed",
          "type": "uint256"
        },
        {
          "name": "_extraItemData",
          "type": "string"
        },
        {
          "name": "_price",
          "type": "uint256"
        },
        {
          "name": "_sellerEthereumAdress",
          "type": "address"
        }
      ],
      "name": "createListing",
      "outputs": [
        {
          "name": "listingId",
          "type": "uint256"
        }
      ],
      "payable": false,
      "stateMutability": "nonpayable",
      "type": "function"
    },
    {
      "constant": true,
      "inputs": [
        {
          "name": "_listingId",
          "type": "uint256"
        }
      ],
      "name": "getListing",
      "outputs": [
        {
          "components": [
            {
              "name": "listingId",
              "type": "uint256"
            },
            {
              "name": "ownerInspectLink",
              "type": "string"
            },
            {
              "name": "wear",
              "type": "string"
            },
            {
              "name": "skinName",
              "type": "string"
            },
            {
              "name": "paintSeed",
              "type": "uint256"
            },
            {
              "name": "extraItemData",
              "type": "string"
            },
            {
              "name": "price",
              "type": "uint256"
            },
            {
              "name": "sellerEthereumAdress",
              "type": "address"
            },
            {
              "name": "owner",
              "type": "address"
            },
            {
              "components": [
                {
                  "name": "owner",
                  "type": "address"
                },
                {
                  "name": "creationTimestamp",
                  "type": "uint256"
                },
                {
                  "name": "buyerTradeURL",
                  "type": "string"
                },
                {
                  "name": "exists",
                  "type": "bool"
                }
              ],
              "name": "purchaseOffer",
              "type": "tuple"
            },
            {
              "name": "exists",
              "type": "bool"
            },
            {
              "name": "stage",
              "type": "uint8"
            }
          ],
          "name": "listing",
          "type": "tuple"
        }
      ],
      "payable": false,
      "stateMutability": "view",
      "type": "function"
    },
    {
      "constant": true,
      "inputs": [],
      "name": "getListingsCount",
      "outputs": [
        {
          "name": "",
          "type": "uint256"
        }
      ],
      "payable": false,
      "stateMutability": "view",
      "type": "function"
    },
    {
      "constant": false,
      "inputs": [
        {
          "name": "_listingId",
          "type": "uint256"
        }
      ],
      "name": "deleteListing",
      "outputs": [],
      "payable": false,
      "stateMutability": "nonpayable",
      "type": "function"
    },
    {
      "constant": false,
      "inputs": [
        {
          "name": "_listingId",
          "type": "uint256"
        },
        {
          "name": "_buyerTradeURL",
          "type": "string"
        }
      ],
      "name": "createPurchaseOffer",
      "outputs": [],
      "payable": true,
      "stateMutability": "payable",
      "type": "function"
    },
    {
      "constant": false,
      "inputs": [
        {
          "name": "_listingId",
          "type": "uint256"
        }
      ],
      "name": "deletePurchaseOffer",
      "outputs": [],
      "payable": false,
      "stateMutability": "nonpayable",
      "type": "function"
    },
    {
      "constant": false,
      "inputs": [
        {
          "name": "_listingId",
          "type": "uint256"
        },
        {
          "name": "_oracle",
          "type": "address"
        },
        {
          "name": "_jobId",
          "type": "bytes32"
        },
        {
          "name": "_payment",
          "type": "uint256"
        },
        {
          "name": "_url",
          "type": "string"
        },
        {
          "name": "_path",
          "type": "string"
        },
        {
          "name": "_buyerInspectLink",
          "type": "string"
        }
      ],
      "name": "createItemTransferConfirmationRequest",
      "outputs": [
        {
          "name": "requestId",
          "type": "bytes32"
        }
      ],
      "payable": false,
      "stateMutability": "nonpayable",
      "type": "function"
    },
    {
      "constant": false,
      "inputs": [
        {
          "name": "_requestId",
          "type": "bytes32"
        },
        {
          "name": "_ownershipStatus",
          "type": "uint256"
        }
      ],
      "name": "fulfillItemTransferConfirmation",
      "outputs": [],
      "payable": false,
      "stateMutability": "nonpayable",
      "type": "function"
    }
  ],
  "bytecode": "0x6080604052600160045560006006553480156200001b57600080fd5b5060405160208062005da783398101806040526200003d9190810190620001dd565b600073ffffffffffffffffffffffffffffffffffffffff168173ffffffffffffffffffffffffffffffffffffffff16141562000092576200008c620000b4640100000000026401000000009004565b620000ad565b620000ac8162000183640100000000026401000000009004565b5b5062000229565b6200018173c89bd4e1632d3a43cb03aaad5262cbe4038bc57173ffffffffffffffffffffffffffffffffffffffff166338cc48316040518163ffffffff167c0100000000000000000000000000000000000000000000000000000000028152600401602060405180830381600087803b1580156200013157600080fd5b505af115801562000146573d6000803e3d6000fd5b505050506040513d601f19601f820116820180604052506200016c9190810190620001dd565b62000183640100000000026401000000009004565b565b80600260006101000a81548173ffffffffffffffffffffffffffffffffffffffff021916908373ffffffffffffffffffffffffffffffffffffffff16021790555050565b6000620001d5825162000209565b905092915050565b600060208284031215620001f057600080fd5b60006200020084828501620001c7565b91505092915050565b600073ffffffffffffffffffffffffffffffffffffffff82169050919050565b615b6e80620002396000396000f3006080604052600436106100c5576000357c0100000000000000000000000000000000000000000000000000000000900463ffffffff168063107a274a146100ca57806341d20844146101075780634af4b4e61461014457806391ca0b791461016f578063b0c6e3a014610198578063b4e31a22146101c3578063b73aaabb146101ee578063bf486b701461022b578063c6d9b5f714610256578063c8b63c5114610281578063cbaa068f146102aa578063d209be1e146102d5578063e6282c6e146102f1575b600080fd5b3480156100d657600080fd5b506100f160048036036100ec9190810190614b8f565b61031a565b6040516100fe91906158fe565b60405180910390f35b34801561011357600080fd5b5061012e60048036036101299190810190614a91565b610815565b60405161013b9190615950565b60405180910390f35b34801561015057600080fd5b50610159610b7a565b6040516101669190615950565b60405180910390f35b34801561017b57600080fd5b5061019660048036036101919190810190614a55565b610b80565b005b3480156101a457600080fd5b506101ad61168f565b6040516101ba9190615950565b60405180910390f35b3480156101cf57600080fd5b506101d8611694565b6040516101e59190615950565b60405180910390f35b3480156101fa57600080fd5b5061021560048036036102109190810190614bb8565b611699565b6040516102229190615681565b60405180910390f35b34801561023757600080fd5b506102406122c5565b60405161024d919061569c565b60405180910390f35b34801561026257600080fd5b5061026b612325565b6040516102789190615950565b60405180910390f35b34801561028d57600080fd5b506102a860048036036102a39190810190614b8f565b61232a565b005b3480156102b657600080fd5b506102bf612c7f565b6040516102cc9190615950565b60405180910390f35b6102ef60048036036102ea9190810190614c9e565b612c89565b005b3480156102fd57600080fd5b5061031860048036036103139190810190614b8f565b613614565b005b61032261471c565b60076000838152602001908152602001600020610180604051908101604052908160008201548152602001600182018054600181600116156101000203166002900480601f0160208091040260200160405190810160405280929190818152602001828054600181600116156101000203166002900480156103e55780601f106103ba576101008083540402835291602001916103e5565b820191906000526020600020905b8154815290600101906020018083116103c857829003601f168201915b50505050508152602001600282018054600181600116156101000203166002900480601f0160208091040260200160405190810160405280929190818152602001828054600181600116156101000203166002900480156104875780601f1061045c57610100808354040283529160200191610487565b820191906000526020600020905b81548152906001019060200180831161046a57829003601f168201915b50505050508152602001600382018054600181600116156101000203166002900480601f0160208091040260200160405190810160405280929190818152602001828054600181600116156101000203166002900480156105295780601f106104fe57610100808354040283529160200191610529565b820191906000526020600020905b81548152906001019060200180831161050c57829003601f168201915b5050505050815260200160048201548152602001600582018054600181600116156101000203166002900480601f0160208091040260200160405190810160405280929190818152602001828054600181600116156101000203166002900480156105d55780601f106105aa576101008083540402835291602001916105d5565b820191906000526020600020905b8154815290600101906020018083116105b857829003601f168201915b50505050508152602001600682015481526020016007820160009054906101000a900473ffffffffffffffffffffffffffffffffffffffff1673ffffffffffffffffffffffffffffffffffffffff1673ffffffffffffffffffffffffffffffffffffffff1681526020016008820160009054906101000a900473ffffffffffffffffffffffffffffffffffffffff1673ffffffffffffffffffffffffffffffffffffffff1673ffffffffffffffffffffffffffffffffffffffff16815260200160098201608060405190810160405290816000820160009054906101000a900473ffffffffffffffffffffffffffffffffffffffff1673ffffffffffffffffffffffffffffffffffffffff1673ffffffffffffffffffffffffffffffffffffffff16815260200160018201548152602001600282018054600181600116156101000203166002900480601f01602080910402602001604051908101604052809291908181526020018280546001816001161561010002031660029004801561079e5780601f106107735761010080835404028352916020019161079e565b820191906000526020600020905b81548152906001019060200180831161078157829003601f168201915b505050505081526020016003820160009054906101000a900460ff1615151515815250508152602001600d820160009054906101000a900460ff16151515158152602001600d820160019054906101000a900460ff1660038111156107ff57fe5b600381111561080a57fe5b815250509050919050565b600061081f6147bd565b61082761471c565b60066000815480929190600101919050559250608060405190810160405280600073ffffffffffffffffffffffffffffffffffffffff1681526020016000815260200160206040519081016040528060008152508152602001600015158152509150610180604051908101604052808481526020018b81526020018a81526020018981526020018881526020018781526020018681526020018573ffffffffffffffffffffffffffffffffffffffff1681526020013373ffffffffffffffffffffffffffffffffffffffff1681526020018381526020016001151581526020016000600381111561091457fe5b81525090507f981707b1846639676f9904f678d62aed622106028dafb2b613e3c73ab1182a5f8160405161094891906158fe565b60405180910390a1806007600085815260200190815260200160002060008201518160000155602082015181600101908051906020019061098a9291906147fe565b5060408201518160020190805190602001906109a79291906147fe565b5060608201518160030190805190602001906109c49291906147fe565b506080820151816004015560a08201518160050190805190602001906109eb9291906147fe565b5060c0820151816006015560e08201518160070160006101000a81548173ffffffffffffffffffffffffffffffffffffffff021916908373ffffffffffffffffffffffffffffffffffffffff1602179055506101008201518160080160006101000a81548173ffffffffffffffffffffffffffffffffffffffff021916908373ffffffffffffffffffffffffffffffffffffffff1602179055506101208201518160090160008201518160000160006101000a81548173ffffffffffffffffffffffffffffffffffffffff021916908373ffffffffffffffffffffffffffffffffffffffff160217905550602082015181600101556040820151816002019080519060200190610afc9291906147fe565b5060608201518160030160006101000a81548160ff021916908315150217905550505061014082015181600d0160006101000a81548160ff02191690831515021790555061016082015181600d0160016101000a81548160ff02191690836003811115610b6557fe5b02179055509050505050979650505050505050565b61546081565b6000610b8a61471c565b8360056000826000191660001916815260200190815260200160002060009054906101000a900473ffffffffffffffffffffffffffffffffffffffff1673ffffffffffffffffffffffffffffffffffffffff163373ffffffffffffffffffffffffffffffffffffffff16141515610c36576040517f08c379a0000000000000000000000000000000000000000000000000000000008152600401610c2d9061585e565b60405180910390fd5b60056000826000191660001916815260200190815260200160002060006101000a81549073ffffffffffffffffffffffffffffffffffffffff021916905580600019167f7cc135e0cebb02c3480ae5d74d377283180a2601f8f644edf7987b009316c63a60405160405180910390a260086000866000191660001916815260200190815260200160002054925060076000848152602001908152602001600020610180604051908101604052908160008201548152602001600182018054600181600116156101000203166002900480601f016020809104026020016040519081016040528092919081815260200182805460018160011615610100020316600290048015610d865780601f10610d5b57610100808354040283529160200191610d86565b820191906000526020600020905b815481529060010190602001808311610d6957829003601f168201915b50505050508152602001600282018054600181600116156101000203166002900480601f016020809104026020016040519081016040528092919081815260200182805460018160011615610100020316600290048015610e285780601f10610dfd57610100808354040283529160200191610e28565b820191906000526020600020905b815481529060010190602001808311610e0b57829003601f168201915b50505050508152602001600382018054600181600116156101000203166002900480601f016020809104026020016040519081016040528092919081815260200182805460018160011615610100020316600290048015610eca5780601f10610e9f57610100808354040283529160200191610eca565b820191906000526020600020905b815481529060010190602001808311610ead57829003601f168201915b5050505050815260200160048201548152602001600582018054600181600116156101000203166002900480601f016020809104026020016040519081016040528092919081815260200182805460018160011615610100020316600290048015610f765780601f10610f4b57610100808354040283529160200191610f76565b820191906000526020600020905b815481529060010190602001808311610f5957829003601f168201915b50505050508152602001600682015481526020016007820160009054906101000a900473ffffffffffffffffffffffffffffffffffffffff1673ffffffffffffffffffffffffffffffffffffffff1673ffffffffffffffffffffffffffffffffffffffff1681526020016008820160009054906101000a900473ffffffffffffffffffffffffffffffffffffffff1673ffffffffffffffffffffffffffffffffffffffff1673ffffffffffffffffffffffffffffffffffffffff16815260200160098201608060405190810160405290816000820160009054906101000a900473ffffffffffffffffffffffffffffffffffffffff1673ffffffffffffffffffffffffffffffffffffffff1673ffffffffffffffffffffffffffffffffffffffff16815260200160018201548152602001600282018054600181600116156101000203166002900480601f01602080910402602001604051908101604052809291908181526020018280546001816001161561010002031660029004801561113f5780601f106111145761010080835404028352916020019161113f565b820191906000526020600020905b81548152906001019060200180831161112257829003601f168201915b505050505081526020016003820160009054906101000a900460ff1615151515815250508152602001600d820160009054906101000a900460ff16151515158152602001600d820160019054906101000a900460ff1660038111156111a057fe5b60038111156111ab57fe5b8152505091506001151582610140015115151415156111ff576040517f08c379a00000000000000000000000000000000000000000000000000000000081526004016111f69061581e565b60405180910390fd5b6002600381111561120c57fe5b826101600151600381111561121d57fe5b14151561125f576040517f08c379a00000000000000000000000000000000000000000000000000000000081526004016112569061577e565b60405180910390fd5b60008410158015611271575060028411155b15156112b2576040517f08c379a00000000000000000000000000000000000000000000000000000000081526004016112a99061575e565b60405180910390fd5b600184141561136d57600382610160019060038111156112ce57fe5b908160038111156112db57fe5b815250508160e0015173ffffffffffffffffffffffffffffffffffffffff166108fc8360c001519081150290604051600060405180830381858888f1935050505015801561132d573d6000803e3d6000fd5b507fb89f0a2c20a752aa61629eb581c95bb7c2fac747e50ce2fc291a904ae1c8c2c0826000604051611360929190615920565b60405180910390a161146b565b6002841415611428576003826101600190600381111561138957fe5b9081600381111561139657fe5b815250508160e0015173ffffffffffffffffffffffffffffffffffffffff166108fc8360c001519081150290604051600060405180830381858888f193505050501580156113e8573d6000803e3d6000fd5b507fb89f0a2c20a752aa61629eb581c95bb7c2fac747e50ce2fc291a904ae1c8c2c082600160405161141b929190615920565b60405180910390a161146a565b6000841415611469577f4a7cfce8e6a6fadfade2a50fda72f874db86ffc1ceb3bb5eb681318d66efb9cc8260405161146091906158fe565b60405180910390a15b5b5b81600760008581526020019081526020016000206000820151816000015560208201518160010190805190602001906114a59291906147fe565b5060408201518160020190805190602001906114c29291906147fe565b5060608201518160030190805190602001906114df9291906147fe565b506080820151816004015560a08201518160050190805190602001906115069291906147fe565b5060c0820151816006015560e08201518160070160006101000a81548173ffffffffffffffffffffffffffffffffffffffff021916908373ffffffffffffffffffffffffffffffffffffffff1602179055506101008201518160080160006101000a81548173ffffffffffffffffffffffffffffffffffffffff021916908373ffffffffffffffffffffffffffffffffffffffff1602179055506101208201518160090160008201518160000160006101000a81548173ffffffffffffffffffffffffffffffffffffffff021916908373ffffffffffffffffffffffffffffffffffffffff1602179055506020820151816001015560408201518160020190805190602001906116179291906147fe565b5060608201518160030160006101000a81548160ff021916908315150217905550505061014082015181600d0160006101000a81548160ff02191690831515021790555061016082015181600d0160016101000a81548160ff0219169083600381111561168057fe5b02179055509050505050505050565b600181565b600081565b60006116a361471c565b6116ab61487e565b6060600760008c8152602001908152602001600020610180604051908101604052908160008201548152602001600182018054600181600116156101000203166002900480601f0160208091040260200160405190810160405280929190818152602001828054600181600116156101000203166002900480156117705780601f1061174557610100808354040283529160200191611770565b820191906000526020600020905b81548152906001019060200180831161175357829003601f168201915b50505050508152602001600282018054600181600116156101000203166002900480601f0160208091040260200160405190810160405280929190818152602001828054600181600116156101000203166002900480156118125780601f106117e757610100808354040283529160200191611812565b820191906000526020600020905b8154815290600101906020018083116117f557829003601f168201915b50505050508152602001600382018054600181600116156101000203166002900480601f0160208091040260200160405190810160405280929190818152602001828054600181600116156101000203166002900480156118b45780601f10611889576101008083540402835291602001916118b4565b820191906000526020600020905b81548152906001019060200180831161189757829003601f168201915b5050505050815260200160048201548152602001600582018054600181600116156101000203166002900480601f0160208091040260200160405190810160405280929190818152602001828054600181600116156101000203166002900480156119605780601f1061193557610100808354040283529160200191611960565b820191906000526020600020905b81548152906001019060200180831161194357829003601f168201915b50505050508152602001600682015481526020016007820160009054906101000a900473ffffffffffffffffffffffffffffffffffffffff1673ffffffffffffffffffffffffffffffffffffffff1673ffffffffffffffffffffffffffffffffffffffff1681526020016008820160009054906101000a900473ffffffffffffffffffffffffffffffffffffffff1673ffffffffffffffffffffffffffffffffffffffff1673ffffffffffffffffffffffffffffffffffffffff16815260200160098201608060405190810160405290816000820160009054906101000a900473ffffffffffffffffffffffffffffffffffffffff1673ffffffffffffffffffffffffffffffffffffffff1673ffffffffffffffffffffffffffffffffffffffff16815260200160018201548152602001600282018054600181600116156101000203166002900480601f016020809104026020016040519081016040528092919081815260200182805460018160011615610100020316600290048015611b295780601f10611afe57610100808354040283529160200191611b29565b820191906000526020600020905b815481529060010190602001808311611b0c57829003601f168201915b505050505081526020016003820160009054906101000a900460ff1615151515815250508152602001600d820160009054906101000a900460ff16151515158152602001600d820160019054906101000a900460ff166003811115611b8a57fe5b6003811115611b9557fe5b815250509250600115158361014001511515141515611be9576040517f08c379a0000000000000000000000000000000000000000000000000000000008152600401611be09061573e565b60405180910390fd5b60016003811115611bf657fe5b8361016001516003811115611c0757fe5b141515611c49576040517f08c379a0000000000000000000000000000000000000000000000000000000008152600401611c409061589e565b60405180910390fd5b60011515836101200151606001511515141515611c9b576040517f08c379a0000000000000000000000000000000000000000000000000000000008152600401611c92906156be565b60405180910390fd5b3373ffffffffffffffffffffffffffffffffffffffff1683610100015173ffffffffffffffffffffffffffffffffffffffff16141515611d10576040517f08c379a0000000000000000000000000000000000000000000000000000000008152600401611d07906156de565b60405180910390fd5b611d3e89306391ca0b797c010000000000000000000000000000000000000000000000000000000002613c64565b9150611de66040805190810160405280600681526020017f6d6574686f640000000000000000000000000000000000000000000000000000815250606060405190810160405280602281526020017f74726164656c696e6b6f776e6572686173696e73706563746c696e6b7461726781526020017f657400000000000000000000000000000000000000000000000000000000000081525084613c959092919063ffffffff16565b611e306040805190810160405280600b81526020017f696e73706563744c696e6b0000000000000000000000000000000000000000008152508684613c959092919063ffffffff16565b611e836040805190810160405280600881526020017f747261646555524c0000000000000000000000000000000000000000000000008152508461012001516040015184613c959092919063ffffffff16565b611ed16040805190810160405280600481526020017f7765617200000000000000000000000000000000000000000000000000000000815250846040015184613c959092919063ffffffff16565b611f1f6040805190810160405280600881526020017f736b696e4e616d65000000000000000000000000000000000000000000000000815250846060015184613c959092919063ffffffff16565b611f756040805190810160405280600981526020017f7061696e74536565640000000000000000000000000000000000000000000000815250611f658560800151613cc8565b84613c959092919063ffffffff16565b6001604051908082528060200260200182016040528015611faa57816020015b6060815260200190600190039081611f955790505b5090506040805190810160405280600c81526020017f636f6e7461696e734974656d0000000000000000000000000000000000000000815250816000815181101515611ff257fe5b906020019060200201819052506120496040805190810160405280600881526020017f636f7079506174680000000000000000000000000000000000000000000000008152508284613e1f9092919063ffffffff16565b6120548a838a613ea1565b93508a600860008660001916600019168152602001908152602001600020819055506002836101600190600381111561208957fe5b9081600381111561209657fe5b8152505082600760008d81526020019081526020016000206000820151816000015560208201518160010190805190602001906120d49291906147fe565b5060408201518160020190805190602001906120f19291906147fe565b50606082015181600301908051906020019061210e9291906147fe565b506080820151816004015560a08201518160050190805190602001906121359291906147fe565b5060c0820151816006015560e08201518160070160006101000a81548173ffffffffffffffffffffffffffffffffffffffff021916908373ffffffffffffffffffffffffffffffffffffffff1602179055506101008201518160080160006101000a81548173ffffffffffffffffffffffffffffffffffffffff021916908373ffffffffffffffffffffffffffffffffffffffff1602179055506101208201518160090160008201518160000160006101000a81548173ffffffffffffffffffffffffffffffffffffffff021916908373ffffffffffffffffffffffffffffffffffffffff1602179055506020820151816001015560408201518160020190805190602001906122469291906147fe565b5060608201518160030160006101000a81548160ff021916908315150217905550505061014082015181600d0160006101000a81548160ff02191690831515021790555061016082015181600d0160016101000a81548160ff021916908360038111156122af57fe5b0217905550905050505050979650505050505050565b606060405190810160405280602281526020017f74726164656c696e6b6f776e6572686173696e73706563746c696e6b7461726781526020017f657400000000000000000000000000000000000000000000000000000000000081525081565b600281565b61233261471c565b600060076000848152602001908152602001600020610180604051908101604052908160008201548152602001600182018054600181600116156101000203166002900480601f0160208091040260200160405190810160405280929190818152602001828054600181600116156101000203166002900480156123f75780601f106123cc576101008083540402835291602001916123f7565b820191906000526020600020905b8154815290600101906020018083116123da57829003601f168201915b50505050508152602001600282018054600181600116156101000203166002900480601f0160208091040260200160405190810160405280929190818152602001828054600181600116156101000203166002900480156124995780601f1061246e57610100808354040283529160200191612499565b820191906000526020600020905b81548152906001019060200180831161247c57829003601f168201915b50505050508152602001600382018054600181600116156101000203166002900480601f01602080910402602001604051908101604052809291908181526020018280546001816001161561010002031660029004801561253b5780601f106125105761010080835404028352916020019161253b565b820191906000526020600020905b81548152906001019060200180831161251e57829003601f168201915b5050505050815260200160048201548152602001600582018054600181600116156101000203166002900480601f0160208091040260200160405190810160405280929190818152602001828054600181600116156101000203166002900480156125e75780601f106125bc576101008083540402835291602001916125e7565b820191906000526020600020905b8154815290600101906020018083116125ca57829003601f168201915b50505050508152602001600682015481526020016007820160009054906101000a900473ffffffffffffffffffffffffffffffffffffffff1673ffffffffffffffffffffffffffffffffffffffff1673ffffffffffffffffffffffffffffffffffffffff1681526020016008820160009054906101000a900473ffffffffffffffffffffffffffffffffffffffff1673ffffffffffffffffffffffffffffffffffffffff1673ffffffffffffffffffffffffffffffffffffffff16815260200160098201608060405190810160405290816000820160009054906101000a900473ffffffffffffffffffffffffffffffffffffffff1673ffffffffffffffffffffffffffffffffffffffff1673ffffffffffffffffffffffffffffffffffffffff16815260200160018201548152602001600282018054600181600116156101000203166002900480601f0160208091040260200160405190810160405280929190818152602001828054600181600116156101000203166002900480156127b05780601f10612785576101008083540402835291602001916127b0565b820191906000526020600020905b81548152906001019060200180831161279357829003601f168201915b505050505081526020016003820160009054906101000a900460ff1615151515815250508152602001600d820160009054906101000a900460ff16151515158152602001600d820160019054906101000a900460ff16600381111561281157fe5b600381111561281c57fe5b815250509150600115158261014001511515141515612870576040517f08c379a00000000000000000000000000000000000000000000000000000000081526004016128679061587e565b60405180910390fd5b600115158261012001516060015115151415156128c2576040517f08c379a00000000000000000000000000000000000000000000000000000000081526004016128b9906158de565b60405180910390fd5b3373ffffffffffffffffffffffffffffffffffffffff168261012001516000015173ffffffffffffffffffffffffffffffffffffffff1614151561293b576040517f08c379a00000000000000000000000000000000000000000000000000000000081526004016129329061579e565b60405180910390fd5b81610120015160200151420390506154608111151561298f576040517f08c379a00000000000000000000000000000000000000000000000000000000081526004016129869061583e565b60405180910390fd5b8161012001516000015173ffffffffffffffffffffffffffffffffffffffff166108fc8360c001519081150290604051600060405180830381858888f193505050501580156129e2573d6000803e3d6000fd5b50608060405190810160405280600073ffffffffffffffffffffffffffffffffffffffff16815260200160008152602001602060405190810160405280600081525081526020016000151581525082610120018190525060008261016001906003811115612a4c57fe5b90816003811115612a5957fe5b815250508160076000858152602001908152602001600020600082015181600001556020820151816001019080519060200190612a979291906147fe565b506040820151816002019080519060200190612ab49291906147fe565b506060820151816003019080519060200190612ad19291906147fe565b506080820151816004015560a0820151816005019080519060200190612af89291906147fe565b5060c0820151816006015560e08201518160070160006101000a81548173ffffffffffffffffffffffffffffffffffffffff021916908373ffffffffffffffffffffffffffffffffffffffff1602179055506101008201518160080160006101000a81548173ffffffffffffffffffffffffffffffffffffffff021916908373ffffffffffffffffffffffffffffffffffffffff1602179055506101208201518160090160008201518160000160006101000a81548173ffffffffffffffffffffffffffffffffffffffff021916908373ffffffffffffffffffffffffffffffffffffffff160217905550602082015181600101556040820151816002019080519060200190612c099291906147fe565b5060608201518160030160006101000a81548160ff021916908315150217905550505061014082015181600d0160006101000a81548160ff02191690831515021790555061016082015181600d0160016101000a81548160ff02191690836003811115612c7257fe5b0217905550905050505050565b6000600654905090565b612c9161471c565b6000612c9b6147bd565b60076000868152602001908152602001600020610180604051908101604052908160008201548152602001600182018054600181600116156101000203166002900480601f016020809104026020016040519081016040528092919081815260200182805460018160011615610100020316600290048015612d5e5780601f10612d3357610100808354040283529160200191612d5e565b820191906000526020600020905b815481529060010190602001808311612d4157829003601f168201915b50505050508152602001600282018054600181600116156101000203166002900480601f016020809104026020016040519081016040528092919081815260200182805460018160011615610100020316600290048015612e005780601f10612dd557610100808354040283529160200191612e00565b820191906000526020600020905b815481529060010190602001808311612de357829003601f168201915b50505050508152602001600382018054600181600116156101000203166002900480601f016020809104026020016040519081016040528092919081815260200182805460018160011615610100020316600290048015612ea25780601f10612e7757610100808354040283529160200191612ea2565b820191906000526020600020905b815481529060010190602001808311612e8557829003601f168201915b5050505050815260200160048201548152602001600582018054600181600116156101000203166002900480601f016020809104026020016040519081016040528092919081815260200182805460018160011615610100020316600290048015612f4e5780601f10612f2357610100808354040283529160200191612f4e565b820191906000526020600020905b815481529060010190602001808311612f3157829003601f168201915b50505050508152602001600682015481526020016007820160009054906101000a900473ffffffffffffffffffffffffffffffffffffffff1673ffffffffffffffffffffffffffffffffffffffff1673ffffffffffffffffffffffffffffffffffffffff1681526020016008820160009054906101000a900473ffffffffffffffffffffffffffffffffffffffff1673ffffffffffffffffffffffffffffffffffffffff1673ffffffffffffffffffffffffffffffffffffffff16815260200160098201608060405190810160405290816000820160009054906101000a900473ffffffffffffffffffffffffffffffffffffffff1673ffffffffffffffffffffffffffffffffffffffff1673ffffffffffffffffffffffffffffffffffffffff16815260200160018201548152602001600282018054600181600116156101000203166002900480601f0160208091040260200160405190810160405280929190818152602001828054600181600116156101000203166002900480156131175780601f106130ec57610100808354040283529160200191613117565b820191906000526020600020905b8154815290600101906020018083116130fa57829003601f168201915b505050505081526020016003820160009054906101000a900460ff1615151515815250508152602001600d820160009054906101000a900460ff16151515158152602001600d820160019054906101000a900460ff16600381111561317857fe5b600381111561318357fe5b8152505092506001151583610140015115151415156131d7576040517f08c379a00000000000000000000000000000000000000000000000000000000081526004016131ce906157be565b60405180910390fd5b600060038111156131e457fe5b83610160015160038111156131f557fe5b141515613237576040517f08c379a000000000000000000000000000000000000000000000000000000000815260040161322e906156fe565b60405180910390fd5b60001515836101200151606001511515141515613289576040517f08c379a0000000000000000000000000000000000000000000000000000000008152600401613280906157de565b60405180910390fd5b348360c001511415156132d1576040517f08c379a00000000000000000000000000000000000000000000000000000000081526004016132c8906158be565b60405180910390fd5b4291506080604051908101604052803373ffffffffffffffffffffffffffffffffffffffff168152602001838152602001858152602001600115158152509050808361012001819052506001836101600190600381111561332e57fe5b9081600381111561333b57fe5b815250503373ffffffffffffffffffffffffffffffffffffffff16846040518082805190602001908083835b60208310151561338c5780518252602082019150602081019050602083039250613367565b6001836020036101000a03801982511681845116808217855250505050505090500191505060405180910390207f6e74f74612e22391228c1f6380e85edd24a1ef9f73028c5a503ba040f5c9093f856040516133e891906158fe565b60405180910390a3826007600087815260200190815260200160002060008201518160000155602082015181600101908051906020019061342a9291906147fe565b5060408201518160020190805190602001906134479291906147fe565b5060608201518160030190805190602001906134649291906147fe565b506080820151816004015560a082015181600501908051906020019061348b9291906147fe565b5060c0820151816006015560e08201518160070160006101000a81548173ffffffffffffffffffffffffffffffffffffffff021916908373ffffffffffffffffffffffffffffffffffffffff1602179055506101008201518160080160006101000a81548173ffffffffffffffffffffffffffffffffffffffff021916908373ffffffffffffffffffffffffffffffffffffffff1602179055506101208201518160090160008201518160000160006101000a81548173ffffffffffffffffffffffffffffffffffffffff021916908373ffffffffffffffffffffffffffffffffffffffff16021790555060208201518160010155604082015181600201908051906020019061359c9291906147fe565b5060608201518160030160006101000a81548160ff021916908315150217905550505061014082015181600d0160006101000a81548160ff02191690831515021790555061016082015181600d0160016101000a81548160ff0219169083600381111561360557fe5b02179055509050505050505050565b61361c61471c565b60076000838152602001908152602001600020610180604051908101604052908160008201548152602001600182018054600181600116156101000203166002900480601f0160208091040260200160405190810160405280929190818152602001828054600181600116156101000203166002900480156136df5780601f106136b4576101008083540402835291602001916136df565b820191906000526020600020905b8154815290600101906020018083116136c257829003601f168201915b50505050508152602001600282018054600181600116156101000203166002900480601f0160208091040260200160405190810160405280929190818152602001828054600181600116156101000203166002900480156137815780601f1061375657610100808354040283529160200191613781565b820191906000526020600020905b81548152906001019060200180831161376457829003601f168201915b50505050508152602001600382018054600181600116156101000203166002900480601f0160208091040260200160405190810160405280929190818152602001828054600181600116156101000203166002900480156138235780601f106137f857610100808354040283529160200191613823565b820191906000526020600020905b81548152906001019060200180831161380657829003601f168201915b5050505050815260200160048201548152602001600582018054600181600116156101000203166002900480601f0160208091040260200160405190810160405280929190818152602001828054600181600116156101000203166002900480156138cf5780601f106138a4576101008083540402835291602001916138cf565b820191906000526020600020905b8154815290600101906020018083116138b257829003601f168201915b50505050508152602001600682015481526020016007820160009054906101000a900473ffffffffffffffffffffffffffffffffffffffff1673ffffffffffffffffffffffffffffffffffffffff1673ffffffffffffffffffffffffffffffffffffffff1681526020016008820160009054906101000a900473ffffffffffffffffffffffffffffffffffffffff1673ffffffffffffffffffffffffffffffffffffffff1673ffffffffffffffffffffffffffffffffffffffff16815260200160098201608060405190810160405290816000820160009054906101000a900473ffffffffffffffffffffffffffffffffffffffff1673ffffffffffffffffffffffffffffffffffffffff1673ffffffffffffffffffffffffffffffffffffffff16815260200160018201548152602001600282018054600181600116156101000203166002900480601f016020809104026020016040519081016040528092919081815260200182805460018160011615610100020316600290048015613a985780601f10613a6d57610100808354040283529160200191613a98565b820191906000526020600020905b815481529060010190602001808311613a7b57829003601f168201915b505050505081526020016003820160009054906101000a900460ff1615151515815250508152602001600d820160009054906101000a900460ff16151515158152602001600d820160019054906101000a900460ff166003811115613af957fe5b6003811115613b0457fe5b815250509050600115158161014001511515141515613b58576040517f08c379a0000000000000000000000000000000000000000000000000000000008152600401613b4f906157be565b60405180910390fd5b3373ffffffffffffffffffffffffffffffffffffffff1681610100015173ffffffffffffffffffffffffffffffffffffffff16141515613bcd576040517f08c379a0000000000000000000000000000000000000000000000000000000008152600401613bc4906157fe565b60405180910390fd5b8061012001516060015115613c31578061012001516000015173ffffffffffffffffffffffffffffffffffffffff166108fc8260c001519081150290604051600060405180830381858888f19350505050158015613c2f573d6000803e3d6000fd5b505b600060076000848152602001908152602001600020600d0160006101000a81548160ff0219169083151502179055505050565b613c6c61487e565b613c7461487e565b613c8b85858584614134909392919063ffffffff16565b9150509392505050565b613cac8284608001516141ee90919063ffffffff16565b613cc38184608001516141ee90919063ffffffff16565b505050565b60606000806060600080861415613d16576040805190810160405280600181526020017f30000000000000000000000000000000000000000000000000000000000000008152509450613e16565b8593505b600084141515613d40578280600101935050600a84811515613d3857fe5b049350613d1a565b826040519080825280601f01601f191660200182016040528015613d735781602001602082028038833980820191505090505b5091506001830390505b600086141515613e1257600a86811515613d9357fe5b066030017f010000000000000000000000000000000000000000000000000000000000000002828280600190039350815181101515613dce57fe5b9060200101907effffffffffffffffffffffffffffffffffffffffffffffffffffffffffffff1916908160001a905350600a86811515613e0a57fe5b049550613d7d565b8194505b50505050919050565b6000613e388385608001516141ee90919063ffffffff16565b613e458460800151614213565b600090505b8151811015613e8e57613e818282815181101515613e6457fe5b9060200190602002015185608001516141ee90919063ffffffff16565b8080600101915050613e4a565b613e9b8460800151614221565b50505050565b600030600454604051602001808373ffffffffffffffffffffffffffffffffffffffff1673ffffffffffffffffffffffffffffffffffffffff166c01000000000000000000000000028152601401828152602001925050506040516020818303038152906040526040518082805190602001908083835b602083101515613f3d5780518252602082019150602081019050602083039250613f18565b6001836020036101000a038019825116818451168082178552505050505050905001915050604051809103902090506004548360600181815250508360056000836000191660001916815260200190815260200160002060006101000a81548173ffffffffffffffffffffffffffffffffffffffff021916908373ffffffffffffffffffffffffffffffffffffffff16021790555080600019167fb5e6e01e79f91267dc17b4e6314d5d4d03593d2ceee0fbb452b750bd70ea5af960405160405180910390a2600260009054906101000a900473ffffffffffffffffffffffffffffffffffffffff1673ffffffffffffffffffffffffffffffffffffffff16634000aea0858461404c8761422f565b6040518463ffffffff167c010000000000000000000000000000000000000000000000000000000002815260040161408693929190615643565b602060405180830381600087803b1580156140a057600080fd5b505af11580156140b4573d6000803e3d6000fd5b505050506040513d601f19601f820116820180604052506140d89190810190614a2c565b1515614119576040517f08c379a00000000000000000000000000000000000000000000000000000000081526004016141109061571e565b60405180910390fd5b60016004600082825401925050819055508090509392505050565b61413c61487e565b61414c856080015161010061432d565b50838560000190600019169081600019168152505082856020019073ffffffffffffffffffffffffffffffffffffffff16908173ffffffffffffffffffffffffffffffffffffffff16815250508185604001907bffffffffffffffffffffffffffffffffffffffffffffffffffffffff191690817bffffffffffffffffffffffffffffffffffffffffffffffffffffffff191681525050849050949350505050565b6141fb8260038351614387565b61420e81836144e590919063ffffffff16565b505050565b61421e816004614507565b50565b61422c816007614507565b50565b6060600360009054906101000a900473ffffffffffffffffffffffffffffffffffffffff1673ffffffffffffffffffffffffffffffffffffffff16634042994690507c010000000000000000000000000000000000000000000000000000000002600080846000015185602001518660400151876060015160018960800151600001516040516024016142c99897969594939291906155be565b604051602081830303815290604052907bffffffffffffffffffffffffffffffffffffffffffffffffffffffff19166020820180517bffffffffffffffffffffffffffffffffffffffffffffffffffffffff83818316178352505050509050919050565b6143356148ec565b600060208381151561434357fe5b061415156143605760208281151561435757fe5b06602003820191505b81836020018181525050604051808452600081528281016020016040525082905092915050565b6017811115156143b9576143b38160058460ff169060020a0260ff16178461452c90919063ffffffff16565b506144e0565b60ff81111515614400576143e3601860058460ff169060020a02178461452c90919063ffffffff16565b506143fa8160018561454c9092919063ffffffff16565b506144df565b61ffff811115156144485761442b601960058460ff169060020a02178461452c90919063ffffffff16565b506144428160028561454c9092919063ffffffff16565b506144de565b63ffffffff8111151561449257614475601a60058460ff169060020a02178461452c90919063ffffffff16565b5061448c8160048561454c9092919063ffffffff16565b506144dd565b67ffffffffffffffff811115156144dc576144c3601b60058460ff169060020a02178461452c90919063ffffffff16565b506144da8160088561454c9092919063ffffffff16565b505b5b5b5b5b505050565b6144ed6148ec565b6144ff8384600001515184855161456e565b905092915050565b614527601f60058360ff169060020a02178361452c90919063ffffffff16565b505050565b6145346148ec565b614544838460000151518461462b565b905092915050565b6145546148ec565b61456584856000015151858561467b565b90509392505050565b6145766148ec565b60008060008551851115151561458b57600080fd5b876020015185880111156145b6576145b58860026145af8b602001518b8a016146dc565b026146f8565b5b8751805188602083010194508089880111156145d25788870182525b60208801935050505b60208510151561460057815183526020830192506020820191506020850394506145db565b6001856020036101000a03905080198251168184511681811785525050879350505050949350505050565b6146336148ec565b836020015183101515614652576146518460028660200151026146f8565b5b835180516020858301018481538186141561466e576001820183525b5050508390509392505050565b6146836148ec565b6000856020015185840111156146a3576146a2866002878601026146f8565b5b6001836101000a03905085518386820101858319825116178152815185880111156146ce5784870182525b505085915050949350505050565b6000818311156146ee578290506146f2565b8190505b92915050565b60608260000151905061470b838361432d565b5061471683826144e5565b50505050565b6101e06040519081016040528060008152602001606081526020016060815260200160608152602001600081526020016060815260200160008152602001600073ffffffffffffffffffffffffffffffffffffffff168152602001600073ffffffffffffffffffffffffffffffffffffffff16815260200161479c614906565b8152602001600015158152602001600060038111156147b757fe5b81525090565b608060405190810160405280600073ffffffffffffffffffffffffffffffffffffffff16815260200160008152602001606081526020016000151581525090565b828054600181600116156101000203166002900490600052602060002090601f016020900481019282601f1061483f57805160ff191683800117855561486d565b8280016001018555821561486d579182015b8281111561486c578251825591602001919060010190614851565b5b50905061487a9190614947565b5090565b60c06040519081016040528060008019168152602001600073ffffffffffffffffffffffffffffffffffffffff16815260200160007bffffffffffffffffffffffffffffffffffffffffffffffffffffffff19168152602001600081526020016148e661496c565b81525090565b604080519081016040528060608152602001600081525090565b608060405190810160405280600073ffffffffffffffffffffffffffffffffffffffff16815260200160008152602001606081526020016000151581525090565b61496991905b8082111561496557600081600090555060010161494d565b5090565b90565b604080519081016040528060608152602001600081525090565b60006149928235615a7d565b905092915050565b60006149a68251615a9d565b905092915050565b60006149ba8235615aa9565b905092915050565b600082601f83011215156149d557600080fd5b81356149e86149e382615998565b61596b565b91508082526020830160208301858383011115614a0457600080fd5b614a0f838284615ae1565b50505092915050565b6000614a248235615ab3565b905092915050565b600060208284031215614a3e57600080fd5b6000614a4c8482850161499a565b91505092915050565b60008060408385031215614a6857600080fd5b6000614a76858286016149ae565b9250506020614a8785828601614a18565b9150509250929050565b600080600080600080600060e0888a031215614aac57600080fd5b600088013567ffffffffffffffff811115614ac657600080fd5b614ad28a828b016149c2565b975050602088013567ffffffffffffffff811115614aef57600080fd5b614afb8a828b016149c2565b965050604088013567ffffffffffffffff811115614b1857600080fd5b614b248a828b016149c2565b9550506060614b358a828b01614a18565b945050608088013567ffffffffffffffff811115614b5257600080fd5b614b5e8a828b016149c2565b93505060a0614b6f8a828b01614a18565b92505060c0614b808a828b01614986565b91505092959891949750929550565b600060208284031215614ba157600080fd5b6000614baf84828501614a18565b91505092915050565b600080600080600080600060e0888a031215614bd357600080fd5b6000614be18a828b01614a18565b9750506020614bf28a828b01614986565b9650506040614c038a828b016149ae565b9550506060614c148a828b01614a18565b945050608088013567ffffffffffffffff811115614c3157600080fd5b614c3d8a828b016149c2565b93505060a088013567ffffffffffffffff811115614c5a57600080fd5b614c668a828b016149c2565b92505060c088013567ffffffffffffffff811115614c8357600080fd5b614c8f8a828b016149c2565b91505092959891949750929550565b60008060408385031215614cb157600080fd5b6000614cbf85828601614a18565b925050602083013567ffffffffffffffff811115614cdc57600080fd5b614ce8858286016149c2565b9150509250929050565b614cfb816159e5565b82525050565b614d0a81615a05565b82525050565b614d1981615a11565b82525050565b614d2881615a1b565b82525050565b6000614d39826159cf565b808452614d4d816020860160208601615af0565b614d5681615b23565b602085010191505092915050565b6000614d6f826159c4565b808452614d83816020860160208601615af0565b614d8c81615b23565b602085010191505092915050565b614da381615abd565b82525050565b614db281615acf565b82525050565b6000614dc3826159da565b808452614dd7816020860160208601615af0565b614de081615b23565b602085010191505092915050565b6000602382527f5468657265206973206e6f207075726368617365206f6666657220707265736560208301527f6e742e00000000000000000000000000000000000000000000000000000000006040830152606082019050919050565b6000602e82527f4f6e6c7920746865206f776e65722063616e20636f6e6669726d20707572636860208301527f6173652066756c66696c6d656e740000000000000000000000000000000000006040830152606082019050919050565b6000601f82527f4c697374696e67206973206e6f74206f70656e20666f72206f66666572732e006020830152604082019050919050565b6000602382527f756e61626c6520746f207472616e73666572416e6443616c6c20746f206f726160208301527f636c6500000000000000000000000000000000000000000000000000000000006040830152606082019050919050565b6000602c82527f5468657265206973206e6f206c697374696e6720746f20636f6e6669726d207460208301527f72616e7366657220666f722e00000000000000000000000000000000000000006040830152606082019050919050565b6000603882527f5f6f776e657273686970537461747573206973206e6f742077697468696e207460208301527f6865206b6e6f776e2072616e6765206f662076616c75657300000000000000006040830152606082019050919050565b6000602d82527f4c697374696e67206973206e6f742070656e64696e67207472616e736665722060208301527f636f6e6669726d6174696f6e2e000000000000000000000000000000000000006040830152606082019050919050565b6000602c82527f4f6e6c7920746865206f776e65722063616e2064656c6574652074686520707560208301527f726368617365206f6666657200000000000000000000000000000000000000006040830152606082019050919050565b6000601782527f4c697374696e6720646f6573206e6f742065786973742e0000000000000000006020830152604082019050919050565b6000602582527f4c697374696e6720616c7265616479206861732061207075726368617365206f60208301527f666665722e0000000000000000000000000000000000000000000000000000006040830152606082019050919050565b6000602682527f4f6e6c7920746865206f776e65722063616e2064656c65746520686973206c6960208301527f7374696e672e00000000000000000000000000000000000000000000000000006040830152606082019050919050565b6000602182527f5468657265206973206e6f206c697374696e672077697468207468617420696460208301527f2e000000000000000000000000000000000000000000000000000000000000006040830152606082019050919050565b6000603782527f546865206d696e696d756d20626c6f636b2061676520726571756972656d656e60208301527f74206e6f74206d657420666f722064656c6574696f6e2e0000000000000000006040830152606082019050919050565b6000602882527f536f75726365206d75737420626520746865206f7261636c65206f662074686560208301527f20726571756573740000000000000000000000000000000000000000000000006040830152606082019050919050565b6000603582527f5468657265206973206e6f206c697374696e6720746f2064656c65746520746860208301527f65207075726368617365206f6666657220666f722e00000000000000000000006040830152606082019050919050565b6000602a82527f546865206c697374696e6720686173206e6f742079657420726563656976656460208301527f20616e206f666665722e000000000000000000000000000000000000000000006040830152606082019050919050565b6000602882527f56616c75652073656e7420646f6573206e6f74206d61746368206c697374696e60208301527f672070726963652e0000000000000000000000000000000000000000000000006040830152606082019050919050565b6000603582527f5468657265206973206e6f207075726368617365206f6666657220746f20646560208301527f6c65746520666f7220746865206c697374696e672e00000000000000000000006040830152606082019050919050565b60006101808301600083015161544560008601826155af565b506020830151848203602086015261545d8282614db8565b915050604083015184820360408601526154778282614db8565b915050606083015184820360608601526154918282614db8565b91505060808301516154a660808601826155af565b5060a083015184820360a08601526154be8282614db8565b91505060c08301516154d360c08601826155af565b5060e08301516154e660e0860182614cf2565b506101008301516154fb610100860182614cf2565b50610120830151848203610120860152615515828261554c565b91505061014083015161552c610140860182614d01565b50610160830151615541610160860182614d9a565b508091505092915050565b60006080830160008301516155646000860182614cf2565b50602083015161557760208601826155af565b506040830151848203604086015261558f8282614db8565b91505060608301516155a46060860182614d01565b508091505092915050565b6155b881615a73565b82525050565b6000610100820190506155d4600083018b614cf2565b6155e1602083018a6155af565b6155ee6040830189614d10565b6155fb6060830188614cf2565b6156086080830187614d1f565b61561560a08301866155af565b61562260c08301856155af565b81810360e08301526156348184614d64565b90509998505050505050505050565b60006060820190506156586000830186614cf2565b61566560208301856155af565b81810360408301526156778184614d2e565b9050949350505050565b60006020820190506156966000830184614d10565b92915050565b600060208201905081810360008301526156b68184614db8565b905092915050565b600060208201905081810360008301526156d781614dee565b9050919050565b600060208201905081810360008301526156f781614e4b565b9050919050565b6000602082019050818103600083015261571781614ea8565b9050919050565b6000602082019050818103600083015261573781614edf565b9050919050565b6000602082019050818103600083015261575781614f3c565b9050919050565b6000602082019050818103600083015261577781614f99565b9050919050565b6000602082019050818103600083015261579781614ff6565b9050919050565b600060208201905081810360008301526157b781615053565b9050919050565b600060208201905081810360008301526157d7816150b0565b9050919050565b600060208201905081810360008301526157f7816150e7565b9050919050565b6000602082019050818103600083015261581781615144565b9050919050565b60006020820190508181036000830152615837816151a1565b9050919050565b60006020820190508181036000830152615857816151fe565b9050919050565b600060208201905081810360008301526158778161525b565b9050919050565b60006020820190508181036000830152615897816152b8565b9050919050565b600060208201905081810360008301526158b781615315565b9050919050565b600060208201905081810360008301526158d781615372565b9050919050565b600060208201905081810360008301526158f7816153cf565b9050919050565b60006020820190508181036000830152615918818461542c565b905092915050565b6000604082019050818103600083015261593a818561542c565b90506159496020830184614da9565b9392505050565b600060208201905061596560008301846155af565b92915050565b6000604051905081810181811067ffffffffffffffff8211171561598e57600080fd5b8060405250919050565b600067ffffffffffffffff8211156159af57600080fd5b601f19601f8301169050602081019050919050565b600081519050919050565b600081519050919050565b600081519050919050565b600073ffffffffffffffffffffffffffffffffffffffff82169050919050565b60008115159050919050565b6000819050919050565b60007fffffffff0000000000000000000000000000000000000000000000000000000082169050919050565b6000600482101515615a5557fe5b819050919050565b6000600282101515615a6b57fe5b819050919050565b6000819050919050565b600073ffffffffffffffffffffffffffffffffffffffff82169050919050565b60008115159050919050565b6000819050919050565b6000819050919050565b6000615ac882615a47565b9050919050565b6000615ada82615a5d565b9050919050565b82818337600083830152505050565b60005b83811015615b0e578082015181840152602081019050615af3565b83811115615b1d576000848401525b50505050565b6000601f19601f83011690509190505600a265627a7a72305820440b5925cf2dd5a3cd5277ced02858ab81dca96fa3d0133cec616189223581d26c6578706572696d656e74616cf50037",
  "source": "pragma solidity ^0.4.24;\npragma experimental ABIEncoderV2;\n\nimport \"chainlink/contracts/ChainlinkClient.sol\";\n\n\ncontract CSGOSteamTrade is ChainlinkClient {\n    // 6 hours\n    uint public constant MINIMUM_PURCHASE_OFFER_AGE = 60 * 60 * 6;\n    string public constant CHECK_INVENTORY_CONTAINS_ITEM_METHOD = \"tradelinkownerhasinspectlinktarget\";\n    uint256 constant private ORACLE_PAYMENT = 1 * LINK;\n\n    uint256 constant public OWNERSHIP_STATUS_FALSE = 0;\n    uint256 constant public OWNERSHIP_STATUS_TRUE = 1;\n    uint256 constant public OWNERSHIP_STATUS_INVENTORY_PRIVATE = 2;\n\n    enum ListingStage {OPEN, RECEIVED_OFFER, PENDING_TRANSFER_CONFIRMATON, DONE }\n    \n    struct PurchaseOffer {\n        address owner;\n        uint creationTimestamp;\n        string buyerTradeURL;\n        bool exists;\n    }\n\n    struct Listing {\n        uint listingId;\n        string ownerInspectLink;\n        string wear;\n        string skinName;\n        uint paintSeed;\n        string extraItemData;\n        uint price;\n        address sellerEthereumAdress;\n        address owner;\n        PurchaseOffer purchaseOffer;\n        bool exists;\n        ListingStage stage;\n    }\n\n    event ListingCreation(\n        Listing listing\n    );\n\n    event PurchaseOfferMade(\n        string indexed _buyerTradeURL,\n        address indexed buyerEthereumAddress,\n        Listing listing\n    );\n\n    enum TradeOutcome { SUCCESSFULLY_CONFIRMED, UNABLE_TO_CONFIRM_PRIVATE_PROFILE }\n\n    event TradeDone (\n        Listing listing,\n        TradeOutcome tradeOutcome\n    );\n\n    event TradeFulfilmentFail (\n        Listing listing\n    );\n\n    uint numListings = 0;\n    mapping(uint => Listing) listings;\n\n    mapping(bytes32 => uint) requestIdToListingId;\n    \n    /**\n    * @notice Deploy the contract with a specified address for the LINK\n    * and Oracle contract addresses\n    * @dev Sets the storage for the specified addresses\n    * @param _link The address of the LINK token contract\n    */\n    constructor(address _link) public {\n        if (_link == address(0)) {\n        setPublicChainlinkToken();\n        } else {\n        setChainlinkToken(_link);\n        }\n    }\n    \n    function createListing(string _ownerInspectLink, string memory _wear,\n        string memory _skinName, uint _paintSeed, string memory _extraItemData,\n        uint _price, address _sellerEthereumAdress) public returns (uint listingId) {\n        listingId = numListings++;\n        PurchaseOffer memory placeholder = PurchaseOffer(0, 0, '', false);\n        Listing memory listing = Listing(listingId, _ownerInspectLink, _wear, _skinName, _paintSeed, _extraItemData,\n            _price, _sellerEthereumAdress, msg.sender, placeholder, true, ListingStage.OPEN);\n        emit ListingCreation(listing);\n        listings[listingId] = listing;\n    }\n    \n    function getListing(uint _listingId) public view returns (Listing memory listing) {\n        listing = listings[_listingId];\n    }\n\n    function getListingsCount() public view returns (uint) {\n        return numListings;\n    }\n    \n    function deleteListing(uint _listingId) public {\n        Listing memory listing = listings[_listingId];\n        require(listing.exists == true,  \"Listing does not exist.\");\n        require(listing.owner == msg.sender, \"Only the owner can delete his listing.\");\n\n        if (listing.purchaseOffer.exists) {\n            // return funds\n            listing.purchaseOffer.owner.transfer(listing.price);\n        }\n        \n        listings[_listingId].exists = false;\n    }\n\n    function createPurchaseOffer(uint _listingId, string _buyerTradeURL) public payable {\n        Listing memory listing = listings[_listingId];\n        require(listing.exists == true, \"Listing does not exist.\");\n        require(listing.stage == ListingStage.OPEN, \"Listing is not open for offers.\");\n        require(listing.purchaseOffer.exists == false, \"Listing already has a purchase offer.\");\n        require(listing.price == msg.value, \"Value sent does not match listing price.\");\n\n        uint currentTimestamp = block.timestamp;\n        PurchaseOffer memory purchaseOffer = PurchaseOffer(msg.sender, currentTimestamp, _buyerTradeURL, true);\n        listing.purchaseOffer = purchaseOffer;\n        listing.stage = ListingStage.RECEIVED_OFFER;\n\n        emit PurchaseOfferMade(_buyerTradeURL, msg.sender, listing);\n        listings[_listingId] = listing;\n    }\n\n    function deletePurchaseOffer(uint _listingId) public {\n        Listing memory listing = listings[_listingId];\n        require(listing.exists == true, \"There is no listing to delete the purchase offer for.\");\n        require(listing.purchaseOffer.exists == true, \"There is no purchase offer to delete for the listing.\");\n        require(listing.purchaseOffer.owner == msg.sender, \"Only the owner can delete the purchase offer\");\n\n        uint secondsSinceOfferCreation = block.timestamp - listing.purchaseOffer.creationTimestamp;\n        require(secondsSinceOfferCreation > MINIMUM_PURCHASE_OFFER_AGE, \"The minimum block age requirement not met for deletion.\");\n\n        // send the funds back to the owner of the purchase offer.\n        listing.purchaseOffer.owner.transfer(listing.price);\n\n        listing.purchaseOffer = PurchaseOffer(0, 0, '', false);\n        listing.stage = ListingStage.OPEN;\n        listings[_listingId] = listing;\n    }\n\n    function createItemTransferConfirmationRequest(\n        uint _listingId,\n        address _oracle,\n        bytes32 _jobId,\n        uint256 _payment,\n        string _url,\n        string _path,\n        string _buyerInspectLink)\n        public\n        returns (bytes32 requestId) {\n\n        Listing memory listing = listings[_listingId];\n        require(listing.exists == true, \"There is no listing to confirm transfer for.\");\n        require(listing.stage == ListingStage.RECEIVED_OFFER, \"The listing has not yet received an offer.\");\n        require(listing.purchaseOffer.exists == true, \"There is no purchase offer present.\");\n        require(listing.owner == msg.sender, \"Only the owner can confirm purchase fulfilment\");\n        \n        Chainlink.Request memory req = buildChainlinkRequest(_jobId,\n            this,\n            this.fulfillItemTransferConfirmation.selector);\n            \n        req.add(\"method\", CHECK_INVENTORY_CONTAINS_ITEM_METHOD);\n        req.add(\"inspectLink\", _buyerInspectLink);\n        req.add(\"tradeURL\", listing.purchaseOffer.buyerTradeURL);\n        req.add(\"wear\", listing.wear);\n        req.add(\"skinName\", listing.skinName);\n        req.add(\"paintSeed\", uint2str(listing.paintSeed));\n        \n        string[] memory path = new string[](1);\n        path[0] = \"containsItem\";\n        req.addStringArray(\"copyPath\", path);\n\n        requestId = sendChainlinkRequestTo(_oracle, req, _payment);\n        requestIdToListingId[requestId] = _listingId;\n\n        listing.stage = ListingStage.PENDING_TRANSFER_CONFIRMATON;\n        listings[_listingId] = listing;\n    }\n\n    /**\n   * @notice The fulfill method from requests created by this contract\n   * @dev The recordChainlinkFulfillment protects this function from being called\n   * by anyone other than the oracle address that the request was sent to\n   * @param _requestId The ID that was generated for the request\n   * @param _ownershipStatus The answer provided by the oracle\n   */\n    function fulfillItemTransferConfirmation(bytes32 _requestId, uint256 _ownershipStatus)\n        public\n        recordChainlinkFulfillment(_requestId) {\n        uint listingId = requestIdToListingId[_requestId];\n        Listing memory listing = listings[listingId];\n        require(listing.exists == true, \"There is no listing with that id.\");\n        require(listing.stage == ListingStage.PENDING_TRANSFER_CONFIRMATON, \"Listing is not pending transfer confirmation.\");\n        require(_ownershipStatus >= 0 && _ownershipStatus <= 2, \"_ownershipStatus is not within the known range of values\");\n\n        if (_ownershipStatus == OWNERSHIP_STATUS_TRUE) {\n            listing.stage = ListingStage.DONE;\n            listing.sellerEthereumAdress.transfer(listing.price);\n            emit TradeDone(listing, TradeOutcome.SUCCESSFULLY_CONFIRMED);\n        } else if (_ownershipStatus == OWNERSHIP_STATUS_INVENTORY_PRIVATE) {\n            listing.stage = ListingStage.DONE;\n            listing.sellerEthereumAdress.transfer(listing.price);\n            emit TradeDone(listing, TradeOutcome.UNABLE_TO_CONFIRM_PRIVATE_PROFILE);\n        } else if (_ownershipStatus == OWNERSHIP_STATUS_FALSE) {\n            emit TradeFulfilmentFail(listing);\n        }\n        \n        listings[listingId] = listing;\n    }\n\n    /**\n     * @notice Converts a uint to a string. Extracted from https://github.com/provable-things/ethereum-api/blob/master/oraclizeAPI_0.5.sol\n     */\n    function uint2str(uint _i) internal pure returns (string memory _uintAsString) {\n        if (_i == 0) {\n            return \"0\";\n        }\n        uint j = _i;\n        uint len;\n        while (j != 0) {\n            len++;\n            j /= 10;\n        }\n        bytes memory bstr = new bytes(len);\n        uint k = len - 1;\n        while (_i != 0) {\n            bstr[k--] = byte(uint8(48 + _i % 10));\n            _i /= 10;\n        }\n        return string(bstr);\n    }\n}",
  "sourcePath": "/Users/dan/moneywork/csgo-steam-eth-trade/csgo-trade-contract/contracts/CSGOSteamTrade.sol",
  "compiler": {
    "name": "solc",
    "version": "0.4.24+commit.e67f0147.Emscripten.clang"
  },
  "schemaVersion": "3.0.16",
  "updatedAt": "2019-12-14T01:16:31.758Z",
  "devdoc": {
    "methods": {
      "fulfillItemTransferConfirmation(bytes32,uint256)": {
        "details": "The recordChainlinkFulfillment protects this function from being called by anyone other than the oracle address that the request was sent to",
        "params": {
          "_ownershipStatus": "The answer provided by the oracle",
          "_requestId": "The ID that was generated for the request"
        }
      }
    }
  },
  "userdoc": {
    "methods": {
      "fulfillItemTransferConfirmation(bytes32,uint256)": {
        "notice": "The fulfill method from requests created by this contract"
      }
    }
  }
}