{
  "contractName": "CSGOSteamTrade",
  "abi": [
    {
      "constant": true,
      "inputs": [],
      "name": "MINIMUM_PURCHASE_OFFER_AGE",
      "outputs": [
        {
          "name": "",
          "type": "uint256"
        }
      ],
      "payable": false,
      "stateMutability": "view",
      "type": "function"
    },
    {
      "constant": true,
      "inputs": [],
      "name": "OWNERSHIP_STATUS_TRUE",
      "outputs": [
        {
          "name": "",
          "type": "uint256"
        }
      ],
      "payable": false,
      "stateMutability": "view",
      "type": "function"
    },
    {
      "constant": true,
      "inputs": [],
      "name": "OWNERSHIP_STATUS_FALSE",
      "outputs": [
        {
          "name": "",
          "type": "uint256"
        }
      ],
      "payable": false,
      "stateMutability": "view",
      "type": "function"
    },
    {
      "constant": true,
      "inputs": [],
      "name": "CHECK_INVENTORY_CONTAINS_ITEM_METHOD",
      "outputs": [
        {
          "name": "",
          "type": "string"
        }
      ],
      "payable": false,
      "stateMutability": "view",
      "type": "function"
    },
    {
      "constant": true,
      "inputs": [],
      "name": "OWNERSHIP_STATUS_INVENTORY_PRIVATE",
      "outputs": [
        {
          "name": "",
          "type": "uint256"
        }
      ],
      "payable": false,
      "stateMutability": "view",
      "type": "function"
    },
    {
      "inputs": [
        {
          "name": "_link",
          "type": "address"
        }
      ],
      "payable": false,
      "stateMutability": "nonpayable",
      "type": "constructor"
    },
    {
      "anonymous": false,
      "inputs": [
        {
          "components": [
            {
              "name": "listingId",
              "type": "uint256"
            },
            {
              "name": "ownerInspectLink",
              "type": "string"
            },
            {
              "name": "wear",
              "type": "string"
            },
            {
              "name": "skinName",
              "type": "string"
            },
            {
              "name": "paintSeed",
              "type": "uint256"
            },
            {
              "name": "price",
              "type": "uint256"
            },
            {
              "name": "sellerEthereumAdress",
              "type": "address"
            },
            {
              "name": "owner",
              "type": "address"
            },
            {
              "components": [
                {
                  "name": "owner",
                  "type": "address"
                },
                {
                  "name": "creationTimestamp",
                  "type": "uint256"
                },
                {
                  "name": "buyerTradeURL",
                  "type": "string"
                },
                {
                  "name": "exists",
                  "type": "bool"
                }
              ],
              "name": "purchaseOffer",
              "type": "tuple"
            },
            {
              "name": "exists",
              "type": "bool"
            },
            {
              "name": "stage",
              "type": "uint8"
            }
          ],
          "indexed": false,
          "name": "listing",
          "type": "tuple"
        }
      ],
      "name": "ListingCreation",
      "type": "event"
    },
    {
      "anonymous": false,
      "inputs": [
        {
          "indexed": true,
          "name": "_buyerTradeURL",
          "type": "string"
        },
        {
          "indexed": true,
          "name": "buyerEthereumAddress",
          "type": "address"
        },
        {
          "components": [
            {
              "name": "listingId",
              "type": "uint256"
            },
            {
              "name": "ownerInspectLink",
              "type": "string"
            },
            {
              "name": "wear",
              "type": "string"
            },
            {
              "name": "skinName",
              "type": "string"
            },
            {
              "name": "paintSeed",
              "type": "uint256"
            },
            {
              "name": "price",
              "type": "uint256"
            },
            {
              "name": "sellerEthereumAdress",
              "type": "address"
            },
            {
              "name": "owner",
              "type": "address"
            },
            {
              "components": [
                {
                  "name": "owner",
                  "type": "address"
                },
                {
                  "name": "creationTimestamp",
                  "type": "uint256"
                },
                {
                  "name": "buyerTradeURL",
                  "type": "string"
                },
                {
                  "name": "exists",
                  "type": "bool"
                }
              ],
              "name": "purchaseOffer",
              "type": "tuple"
            },
            {
              "name": "exists",
              "type": "bool"
            },
            {
              "name": "stage",
              "type": "uint8"
            }
          ],
          "indexed": false,
          "name": "listing",
          "type": "tuple"
        }
      ],
      "name": "PurchaseOfferMade",
      "type": "event"
    },
    {
      "anonymous": false,
      "inputs": [
        {
          "components": [
            {
              "name": "listingId",
              "type": "uint256"
            },
            {
              "name": "ownerInspectLink",
              "type": "string"
            },
            {
              "name": "wear",
              "type": "string"
            },
            {
              "name": "skinName",
              "type": "string"
            },
            {
              "name": "paintSeed",
              "type": "uint256"
            },
            {
              "name": "price",
              "type": "uint256"
            },
            {
              "name": "sellerEthereumAdress",
              "type": "address"
            },
            {
              "name": "owner",
              "type": "address"
            },
            {
              "components": [
                {
                  "name": "owner",
                  "type": "address"
                },
                {
                  "name": "creationTimestamp",
                  "type": "uint256"
                },
                {
                  "name": "buyerTradeURL",
                  "type": "string"
                },
                {
                  "name": "exists",
                  "type": "bool"
                }
              ],
              "name": "purchaseOffer",
              "type": "tuple"
            },
            {
              "name": "exists",
              "type": "bool"
            },
            {
              "name": "stage",
              "type": "uint8"
            }
          ],
          "indexed": false,
          "name": "listing",
          "type": "tuple"
        },
        {
          "indexed": false,
          "name": "tradeOutcome",
          "type": "uint8"
        }
      ],
      "name": "TradeDone",
      "type": "event"
    },
    {
      "anonymous": false,
      "inputs": [
        {
          "components": [
            {
              "name": "listingId",
              "type": "uint256"
            },
            {
              "name": "ownerInspectLink",
              "type": "string"
            },
            {
              "name": "wear",
              "type": "string"
            },
            {
              "name": "skinName",
              "type": "string"
            },
            {
              "name": "paintSeed",
              "type": "uint256"
            },
            {
              "name": "price",
              "type": "uint256"
            },
            {
              "name": "sellerEthereumAdress",
              "type": "address"
            },
            {
              "name": "owner",
              "type": "address"
            },
            {
              "components": [
                {
                  "name": "owner",
                  "type": "address"
                },
                {
                  "name": "creationTimestamp",
                  "type": "uint256"
                },
                {
                  "name": "buyerTradeURL",
                  "type": "string"
                },
                {
                  "name": "exists",
                  "type": "bool"
                }
              ],
              "name": "purchaseOffer",
              "type": "tuple"
            },
            {
              "name": "exists",
              "type": "bool"
            },
            {
              "name": "stage",
              "type": "uint8"
            }
          ],
          "indexed": false,
          "name": "listing",
          "type": "tuple"
        }
      ],
      "name": "TradeFulfilmentFail",
      "type": "event"
    },
    {
      "anonymous": false,
      "inputs": [
        {
          "indexed": true,
          "name": "id",
          "type": "bytes32"
        }
      ],
      "name": "ChainlinkRequested",
      "type": "event"
    },
    {
      "anonymous": false,
      "inputs": [
        {
          "indexed": true,
          "name": "id",
          "type": "bytes32"
        }
      ],
      "name": "ChainlinkFulfilled",
      "type": "event"
    },
    {
      "anonymous": false,
      "inputs": [
        {
          "indexed": true,
          "name": "id",
          "type": "bytes32"
        }
      ],
      "name": "ChainlinkCancelled",
      "type": "event"
    },
    {
      "constant": false,
      "inputs": [
        {
          "name": "_ownerInspectLink",
          "type": "string"
        },
        {
          "name": "_wear",
          "type": "string"
        },
        {
          "name": "_skinName",
          "type": "string"
        },
        {
          "name": "_paintSeed",
          "type": "uint256"
        },
        {
          "name": "_price",
          "type": "uint256"
        },
        {
          "name": "_sellerEthereumAdress",
          "type": "address"
        }
      ],
      "name": "createListing",
      "outputs": [
        {
          "name": "listingId",
          "type": "uint256"
        }
      ],
      "payable": false,
      "stateMutability": "nonpayable",
      "type": "function"
    },
    {
      "constant": true,
      "inputs": [
        {
          "name": "_listingId",
          "type": "uint256"
        }
      ],
      "name": "getListing",
      "outputs": [
        {
          "components": [
            {
              "name": "listingId",
              "type": "uint256"
            },
            {
              "name": "ownerInspectLink",
              "type": "string"
            },
            {
              "name": "wear",
              "type": "string"
            },
            {
              "name": "skinName",
              "type": "string"
            },
            {
              "name": "paintSeed",
              "type": "uint256"
            },
            {
              "name": "price",
              "type": "uint256"
            },
            {
              "name": "sellerEthereumAdress",
              "type": "address"
            },
            {
              "name": "owner",
              "type": "address"
            },
            {
              "components": [
                {
                  "name": "owner",
                  "type": "address"
                },
                {
                  "name": "creationTimestamp",
                  "type": "uint256"
                },
                {
                  "name": "buyerTradeURL",
                  "type": "string"
                },
                {
                  "name": "exists",
                  "type": "bool"
                }
              ],
              "name": "purchaseOffer",
              "type": "tuple"
            },
            {
              "name": "exists",
              "type": "bool"
            },
            {
              "name": "stage",
              "type": "uint8"
            }
          ],
          "name": "listing",
          "type": "tuple"
        }
      ],
      "payable": false,
      "stateMutability": "view",
      "type": "function"
    },
    {
      "constant": true,
      "inputs": [],
      "name": "getListingsCount",
      "outputs": [
        {
          "name": "",
          "type": "uint256"
        }
      ],
      "payable": false,
      "stateMutability": "view",
      "type": "function"
    },
    {
      "constant": false,
      "inputs": [
        {
          "name": "_listingId",
          "type": "uint256"
        }
      ],
      "name": "deleteListing",
      "outputs": [],
      "payable": false,
      "stateMutability": "nonpayable",
      "type": "function"
    },
    {
      "constant": false,
      "inputs": [
        {
          "name": "_listingId",
          "type": "uint256"
        },
        {
          "name": "_buyerTradeURL",
          "type": "string"
        }
      ],
      "name": "createPurchaseOffer",
      "outputs": [],
      "payable": true,
      "stateMutability": "payable",
      "type": "function"
    },
    {
      "constant": false,
      "inputs": [
        {
          "name": "_listingId",
          "type": "uint256"
        }
      ],
      "name": "deletePurchaseOffer",
      "outputs": [],
      "payable": false,
      "stateMutability": "nonpayable",
      "type": "function"
    },
    {
      "constant": false,
      "inputs": [
        {
          "name": "_listingId",
          "type": "uint256"
        },
        {
          "name": "_oracle",
          "type": "address"
        },
        {
          "name": "_jobId",
          "type": "bytes32"
        },
        {
          "name": "_payment",
          "type": "uint256"
        },
        {
          "name": "_url",
          "type": "string"
        },
        {
          "name": "_path",
          "type": "string"
        },
        {
          "name": "_buyerInspectLink",
          "type": "string"
        }
      ],
      "name": "createItemTransferConfirmationRequest",
      "outputs": [
        {
          "name": "requestId",
          "type": "bytes32"
        }
      ],
      "payable": false,
      "stateMutability": "nonpayable",
      "type": "function"
    },
    {
      "constant": false,
      "inputs": [
        {
          "name": "_requestId",
          "type": "bytes32"
        },
        {
          "name": "_ownershipStatus",
          "type": "uint256"
        }
      ],
      "name": "fulfillItemTransferConfirmation",
      "outputs": [],
      "payable": false,
      "stateMutability": "nonpayable",
      "type": "function"
    }
  ],
  "bytecode": "0x6080604052600160045560006006553480156200001b57600080fd5b50604051602080620058ec83398101806040526200003d9190810190620001dd565b600073ffffffffffffffffffffffffffffffffffffffff168173ffffffffffffffffffffffffffffffffffffffff16141562000092576200008c620000b4640100000000026401000000009004565b620000ad565b620000ac8162000183640100000000026401000000009004565b5b5062000229565b6200018173c89bd4e1632d3a43cb03aaad5262cbe4038bc57173ffffffffffffffffffffffffffffffffffffffff166338cc48316040518163ffffffff167c0100000000000000000000000000000000000000000000000000000000028152600401602060405180830381600087803b1580156200013157600080fd5b505af115801562000146573d6000803e3d6000fd5b505050506040513d601f19601f820116820180604052506200016c9190810190620001dd565b62000183640100000000026401000000009004565b565b80600260006101000a81548173ffffffffffffffffffffffffffffffffffffffff021916908373ffffffffffffffffffffffffffffffffffffffff16021790555050565b6000620001d5825162000209565b905092915050565b600060208284031215620001f057600080fd5b60006200020084828501620001c7565b91505092915050565b600073ffffffffffffffffffffffffffffffffffffffff82169050919050565b6156b380620002396000396000f3006080604052600436106100c5576000357c0100000000000000000000000000000000000000000000000000000000900463ffffffff168063107a274a146100ca5780634af4b4e61461010757806391ca0b791461013257806396bced9a1461015b578063b0c6e3a014610198578063b4e31a22146101c3578063b73aaabb146101ee578063bf486b701461022b578063c6d9b5f714610256578063c8b63c5114610281578063cbaa068f146102aa578063d209be1e146102d5578063e6282c6e146102f1575b600080fd5b3480156100d657600080fd5b506100f160048036036100ec91908101906146f0565b61031a565b6040516100fe9190615443565b60405180910390f35b34801561011357600080fd5b5061011c610773565b6040516101299190615495565b60405180910390f35b34801561013e57600080fd5b50610159600480360361015491908101906145e3565b610779565b005b34801561016757600080fd5b50610182600480360361017d919081019061461f565b6111c8565b60405161018f9190615495565b60405180910390f35b3480156101a457600080fd5b506101ad611508565b6040516101ba9190615495565b60405180910390f35b3480156101cf57600080fd5b506101d861150d565b6040516101e59190615495565b60405180910390f35b3480156101fa57600080fd5b5061021560048036036102109190810190614719565b611512565b60405161022291906151c6565b60405180910390f35b34801561023757600080fd5b5061024061207d565b60405161024d91906151e1565b60405180910390f35b34801561026257600080fd5b5061026b6120dd565b6040516102789190615495565b60405180910390f35b34801561028d57600080fd5b506102a860048036036102a391908101906146f0565b6120e2565b005b3480156102b657600080fd5b506102bf612977565b6040516102cc9190615495565b60405180910390f35b6102ef60048036036102ea91908101906147ff565b612981565b005b3480156102fd57600080fd5b50610318600480360361031391908101906146f0565b61324c565b005b6103226142b1565b60076000838152602001908152602001600020610160604051908101604052908160008201548152602001600182018054600181600116156101000203166002900480601f0160208091040260200160405190810160405280929190818152602001828054600181600116156101000203166002900480156103e55780601f106103ba576101008083540402835291602001916103e5565b820191906000526020600020905b8154815290600101906020018083116103c857829003601f168201915b50505050508152602001600282018054600181600116156101000203166002900480601f0160208091040260200160405190810160405280929190818152602001828054600181600116156101000203166002900480156104875780601f1061045c57610100808354040283529160200191610487565b820191906000526020600020905b81548152906001019060200180831161046a57829003601f168201915b50505050508152602001600382018054600181600116156101000203166002900480601f0160208091040260200160405190810160405280929190818152602001828054600181600116156101000203166002900480156105295780601f106104fe57610100808354040283529160200191610529565b820191906000526020600020905b81548152906001019060200180831161050c57829003601f168201915b5050505050815260200160048201548152602001600582015481526020016006820160009054906101000a900473ffffffffffffffffffffffffffffffffffffffff1673ffffffffffffffffffffffffffffffffffffffff1673ffffffffffffffffffffffffffffffffffffffff1681526020016007820160009054906101000a900473ffffffffffffffffffffffffffffffffffffffff1673ffffffffffffffffffffffffffffffffffffffff1673ffffffffffffffffffffffffffffffffffffffff16815260200160088201608060405190810160405290816000820160009054906101000a900473ffffffffffffffffffffffffffffffffffffffff1673ffffffffffffffffffffffffffffffffffffffff1673ffffffffffffffffffffffffffffffffffffffff16815260200160018201548152602001600282018054600181600116156101000203166002900480601f0160208091040260200160405190810160405280929190818152602001828054600181600116156101000203166002900480156106fc5780601f106106d1576101008083540402835291602001916106fc565b820191906000526020600020905b8154815290600101906020018083116106df57829003601f168201915b505050505081526020016003820160009054906101000a900460ff1615151515815250508152602001600c820160009054906101000a900460ff16151515158152602001600c820160019054906101000a900460ff16600381111561075d57fe5b600381111561076857fe5b815250509050919050565b61546081565b60006107836142b1565b8360056000826000191660001916815260200190815260200160002060009054906101000a900473ffffffffffffffffffffffffffffffffffffffff1673ffffffffffffffffffffffffffffffffffffffff163373ffffffffffffffffffffffffffffffffffffffff1614151561082f576040517f08c379a0000000000000000000000000000000000000000000000000000000008152600401610826906153a3565b60405180910390fd5b60056000826000191660001916815260200190815260200160002060006101000a81549073ffffffffffffffffffffffffffffffffffffffff021916905580600019167f7cc135e0cebb02c3480ae5d74d377283180a2601f8f644edf7987b009316c63a60405160405180910390a260086000866000191660001916815260200190815260200160002054925060076000848152602001908152602001600020610160604051908101604052908160008201548152602001600182018054600181600116156101000203166002900480601f01602080910402602001604051908101604052809291908181526020018280546001816001161561010002031660029004801561097f5780601f106109545761010080835404028352916020019161097f565b820191906000526020600020905b81548152906001019060200180831161096257829003601f168201915b50505050508152602001600282018054600181600116156101000203166002900480601f016020809104026020016040519081016040528092919081815260200182805460018160011615610100020316600290048015610a215780601f106109f657610100808354040283529160200191610a21565b820191906000526020600020905b815481529060010190602001808311610a0457829003601f168201915b50505050508152602001600382018054600181600116156101000203166002900480601f016020809104026020016040519081016040528092919081815260200182805460018160011615610100020316600290048015610ac35780601f10610a9857610100808354040283529160200191610ac3565b820191906000526020600020905b815481529060010190602001808311610aa657829003601f168201915b5050505050815260200160048201548152602001600582015481526020016006820160009054906101000a900473ffffffffffffffffffffffffffffffffffffffff1673ffffffffffffffffffffffffffffffffffffffff1673ffffffffffffffffffffffffffffffffffffffff1681526020016007820160009054906101000a900473ffffffffffffffffffffffffffffffffffffffff1673ffffffffffffffffffffffffffffffffffffffff1673ffffffffffffffffffffffffffffffffffffffff16815260200160088201608060405190810160405290816000820160009054906101000a900473ffffffffffffffffffffffffffffffffffffffff1673ffffffffffffffffffffffffffffffffffffffff1673ffffffffffffffffffffffffffffffffffffffff16815260200160018201548152602001600282018054600181600116156101000203166002900480601f016020809104026020016040519081016040528092919081815260200182805460018160011615610100020316600290048015610c965780601f10610c6b57610100808354040283529160200191610c96565b820191906000526020600020905b815481529060010190602001808311610c7957829003601f168201915b505050505081526020016003820160009054906101000a900460ff1615151515815250508152602001600c820160009054906101000a900460ff16151515158152602001600c820160019054906101000a900460ff166003811115610cf757fe5b6003811115610d0257fe5b815250509150600115158261012001511515141515610d56576040517f08c379a0000000000000000000000000000000000000000000000000000000008152600401610d4d90615363565b60405180910390fd5b60026003811115610d6357fe5b8261014001516003811115610d7457fe5b141515610db6576040517f08c379a0000000000000000000000000000000000000000000000000000000008152600401610dad906152c3565b60405180910390fd5b60008410158015610dc8575060028411155b1515610e09576040517f08c379a0000000000000000000000000000000000000000000000000000000008152600401610e00906152a3565b60405180910390fd5b6001841415610ec45760038261014001906003811115610e2557fe5b90816003811115610e3257fe5b815250508160c0015173ffffffffffffffffffffffffffffffffffffffff166108fc8360a001519081150290604051600060405180830381858888f19350505050158015610e84573d6000803e3d6000fd5b507f71e39d23e38d935c3c0cc831567ae3a7c2a6017f832249a314642cb32c870522826000604051610eb7929190615465565b60405180910390a1610fc2565b6002841415610f7f5760038261014001906003811115610ee057fe5b90816003811115610eed57fe5b815250508160c0015173ffffffffffffffffffffffffffffffffffffffff166108fc8360a001519081150290604051600060405180830381858888f19350505050158015610f3f573d6000803e3d6000fd5b507f71e39d23e38d935c3c0cc831567ae3a7c2a6017f832249a314642cb32c870522826001604051610f72929190615465565b60405180910390a1610fc1565b6000841415610fc0577f64783123ddd1d89eadafe1f7297f2ade7d2a1fd1bae63bead83d834f333ef7a582604051610fb79190615443565b60405180910390a15b5b5b8160076000858152602001908152602001600020600082015181600001556020820151816001019080519060200190610ffc92919061434b565b50604082015181600201908051906020019061101992919061434b565b50606082015181600301908051906020019061103692919061434b565b506080820151816004015560a0820151816005015560c08201518160060160006101000a81548173ffffffffffffffffffffffffffffffffffffffff021916908373ffffffffffffffffffffffffffffffffffffffff16021790555060e08201518160070160006101000a81548173ffffffffffffffffffffffffffffffffffffffff021916908373ffffffffffffffffffffffffffffffffffffffff1602179055506101008201518160080160008201518160000160006101000a81548173ffffffffffffffffffffffffffffffffffffffff021916908373ffffffffffffffffffffffffffffffffffffffff16021790555060208201518160010155604082015181600201908051906020019061115092919061434b565b5060608201518160030160006101000a81548160ff021916908315150217905550505061012082015181600c0160006101000a81548160ff02191690831515021790555061014082015181600c0160016101000a81548160ff021916908360038111156111b957fe5b02179055509050505050505050565b60006111d26143cb565b6111da6142b1565b60066000815480929190600101919050559250608060405190810160405280600073ffffffffffffffffffffffffffffffffffffffff1681526020016000815260200160206040519081016040528060008152508152602001600015158152509150610160604051908101604052808481526020018a81526020018981526020018881526020018781526020018681526020018573ffffffffffffffffffffffffffffffffffffffff1681526020013373ffffffffffffffffffffffffffffffffffffffff168152602001838152602001600115158152602001600060038111156112c157fe5b81525090507f4c4681891b51ad0e76d581631ebff945b6079b33a0dbc0d6fdc475b08c8c947d816040516112f59190615443565b60405180910390a1806007600085815260200190815260200160002060008201518160000155602082015181600101908051906020019061133792919061434b565b50604082015181600201908051906020019061135492919061434b565b50606082015181600301908051906020019061137192919061434b565b506080820151816004015560a0820151816005015560c08201518160060160006101000a81548173ffffffffffffffffffffffffffffffffffffffff021916908373ffffffffffffffffffffffffffffffffffffffff16021790555060e08201518160070160006101000a81548173ffffffffffffffffffffffffffffffffffffffff021916908373ffffffffffffffffffffffffffffffffffffffff1602179055506101008201518160080160008201518160000160006101000a81548173ffffffffffffffffffffffffffffffffffffffff021916908373ffffffffffffffffffffffffffffffffffffffff16021790555060208201518160010155604082015181600201908051906020019061148b92919061434b565b5060608201518160030160006101000a81548160ff021916908315150217905550505061012082015181600c0160006101000a81548160ff02191690831515021790555061014082015181600c0160016101000a81548160ff021916908360038111156114f457fe5b021790555090505050509695505050505050565b600181565b600081565b600061151c6142b1565b61152461440c565b6060600760008c8152602001908152602001600020610160604051908101604052908160008201548152602001600182018054600181600116156101000203166002900480601f0160208091040260200160405190810160405280929190818152602001828054600181600116156101000203166002900480156115e95780601f106115be576101008083540402835291602001916115e9565b820191906000526020600020905b8154815290600101906020018083116115cc57829003601f168201915b50505050508152602001600282018054600181600116156101000203166002900480601f01602080910402602001604051908101604052809291908181526020018280546001816001161561010002031660029004801561168b5780601f106116605761010080835404028352916020019161168b565b820191906000526020600020905b81548152906001019060200180831161166e57829003601f168201915b50505050508152602001600382018054600181600116156101000203166002900480601f01602080910402602001604051908101604052809291908181526020018280546001816001161561010002031660029004801561172d5780601f106117025761010080835404028352916020019161172d565b820191906000526020600020905b81548152906001019060200180831161171057829003601f168201915b5050505050815260200160048201548152602001600582015481526020016006820160009054906101000a900473ffffffffffffffffffffffffffffffffffffffff1673ffffffffffffffffffffffffffffffffffffffff1673ffffffffffffffffffffffffffffffffffffffff1681526020016007820160009054906101000a900473ffffffffffffffffffffffffffffffffffffffff1673ffffffffffffffffffffffffffffffffffffffff1673ffffffffffffffffffffffffffffffffffffffff16815260200160088201608060405190810160405290816000820160009054906101000a900473ffffffffffffffffffffffffffffffffffffffff1673ffffffffffffffffffffffffffffffffffffffff1673ffffffffffffffffffffffffffffffffffffffff16815260200160018201548152602001600282018054600181600116156101000203166002900480601f0160208091040260200160405190810160405280929190818152602001828054600181600116156101000203166002900480156119005780601f106118d557610100808354040283529160200191611900565b820191906000526020600020905b8154815290600101906020018083116118e357829003601f168201915b505050505081526020016003820160009054906101000a900460ff1615151515815250508152602001600c820160009054906101000a900460ff16151515158152602001600c820160019054906101000a900460ff16600381111561196157fe5b600381111561196c57fe5b8152505092506001151583610120015115151415156119c0576040517f08c379a00000000000000000000000000000000000000000000000000000000081526004016119b790615283565b60405180910390fd5b600160038111156119cd57fe5b83610140015160038111156119de57fe5b141515611a20576040517f08c379a0000000000000000000000000000000000000000000000000000000008152600401611a17906153e3565b60405180910390fd5b60011515836101000151606001511515141515611a72576040517f08c379a0000000000000000000000000000000000000000000000000000000008152600401611a6990615203565b60405180910390fd5b3373ffffffffffffffffffffffffffffffffffffffff168360e0015173ffffffffffffffffffffffffffffffffffffffff16141515611ae6576040517f08c379a0000000000000000000000000000000000000000000000000000000008152600401611add90615223565b60405180910390fd5b611b1489306391ca0b797c0100000000000000000000000000000000000000000000000000000000026137f9565b9150611bbc6040805190810160405280600681526020017f6d6574686f640000000000000000000000000000000000000000000000000000815250606060405190810160405280602281526020017f74726164656c696e6b6f776e6572686173696e73706563746c696e6b7461726781526020017f65740000000000000000000000000000000000000000000000000000000000008152508461382a9092919063ffffffff16565b611c066040805190810160405280600b81526020017f696e73706563744c696e6b000000000000000000000000000000000000000000815250868461382a9092919063ffffffff16565b611c596040805190810160405280600881526020017f747261646555524c000000000000000000000000000000000000000000000000815250846101000151604001518461382a9092919063ffffffff16565b611ca76040805190810160405280600481526020017f776561720000000000000000000000000000000000000000000000000000000081525084604001518461382a9092919063ffffffff16565b611cf56040805190810160405280600881526020017f736b696e4e616d6500000000000000000000000000000000000000000000000081525084606001518461382a9092919063ffffffff16565b611d4b6040805190810160405280600981526020017f7061696e74536565640000000000000000000000000000000000000000000000815250611d3b856080015161385d565b8461382a9092919063ffffffff16565b6001604051908082528060200260200182016040528015611d8057816020015b6060815260200190600190039081611d6b5790505b5090506040805190810160405280600c81526020017f636f6e7461696e734974656d0000000000000000000000000000000000000000815250816000815181101515611dc857fe5b90602001906020020181905250611e1f6040805190810160405280600881526020017f636f70795061746800000000000000000000000000000000000000000000000081525082846139b49092919063ffffffff16565b611e2a8a838a613a36565b93508a6008600086600019166000191681526020019081526020016000208190555060028361014001906003811115611e5f57fe5b90816003811115611e6c57fe5b8152505082600760008d8152602001908152602001600020600082015181600001556020820151816001019080519060200190611eaa92919061434b565b506040820151816002019080519060200190611ec792919061434b565b506060820151816003019080519060200190611ee492919061434b565b506080820151816004015560a0820151816005015560c08201518160060160006101000a81548173ffffffffffffffffffffffffffffffffffffffff021916908373ffffffffffffffffffffffffffffffffffffffff16021790555060e08201518160070160006101000a81548173ffffffffffffffffffffffffffffffffffffffff021916908373ffffffffffffffffffffffffffffffffffffffff1602179055506101008201518160080160008201518160000160006101000a81548173ffffffffffffffffffffffffffffffffffffffff021916908373ffffffffffffffffffffffffffffffffffffffff160217905550602082015181600101556040820151816002019080519060200190611ffe92919061434b565b5060608201518160030160006101000a81548160ff021916908315150217905550505061012082015181600c0160006101000a81548160ff02191690831515021790555061014082015181600c0160016101000a81548160ff0219169083600381111561206757fe5b0217905550905050505050979650505050505050565b606060405190810160405280602281526020017f74726164656c696e6b6f776e6572686173696e73706563746c696e6b7461726781526020017f657400000000000000000000000000000000000000000000000000000000000081525081565b600281565b6120ea6142b1565b600060076000848152602001908152602001600020610160604051908101604052908160008201548152602001600182018054600181600116156101000203166002900480601f0160208091040260200160405190810160405280929190818152602001828054600181600116156101000203166002900480156121af5780601f10612184576101008083540402835291602001916121af565b820191906000526020600020905b81548152906001019060200180831161219257829003601f168201915b50505050508152602001600282018054600181600116156101000203166002900480601f0160208091040260200160405190810160405280929190818152602001828054600181600116156101000203166002900480156122515780601f1061222657610100808354040283529160200191612251565b820191906000526020600020905b81548152906001019060200180831161223457829003601f168201915b50505050508152602001600382018054600181600116156101000203166002900480601f0160208091040260200160405190810160405280929190818152602001828054600181600116156101000203166002900480156122f35780601f106122c8576101008083540402835291602001916122f3565b820191906000526020600020905b8154815290600101906020018083116122d657829003601f168201915b5050505050815260200160048201548152602001600582015481526020016006820160009054906101000a900473ffffffffffffffffffffffffffffffffffffffff1673ffffffffffffffffffffffffffffffffffffffff1673ffffffffffffffffffffffffffffffffffffffff1681526020016007820160009054906101000a900473ffffffffffffffffffffffffffffffffffffffff1673ffffffffffffffffffffffffffffffffffffffff1673ffffffffffffffffffffffffffffffffffffffff16815260200160088201608060405190810160405290816000820160009054906101000a900473ffffffffffffffffffffffffffffffffffffffff1673ffffffffffffffffffffffffffffffffffffffff1673ffffffffffffffffffffffffffffffffffffffff16815260200160018201548152602001600282018054600181600116156101000203166002900480601f0160208091040260200160405190810160405280929190818152602001828054600181600116156101000203166002900480156124c65780601f1061249b576101008083540402835291602001916124c6565b820191906000526020600020905b8154815290600101906020018083116124a957829003601f168201915b505050505081526020016003820160009054906101000a900460ff1615151515815250508152602001600c820160009054906101000a900460ff16151515158152602001600c820160019054906101000a900460ff16600381111561252757fe5b600381111561253257fe5b815250509150600115158261012001511515141515612586576040517f08c379a000000000000000000000000000000000000000000000000000000000815260040161257d906153c3565b60405180910390fd5b600115158261010001516060015115151415156125d8576040517f08c379a00000000000000000000000000000000000000000000000000000000081526004016125cf90615423565b60405180910390fd5b3373ffffffffffffffffffffffffffffffffffffffff168261010001516000015173ffffffffffffffffffffffffffffffffffffffff16141515612651576040517f08c379a0000000000000000000000000000000000000000000000000000000008152600401612648906152e3565b60405180910390fd5b8161010001516020015142039050615460811115156126a5576040517f08c379a000000000000000000000000000000000000000000000000000000000815260040161269c90615383565b60405180910390fd5b8161010001516000015173ffffffffffffffffffffffffffffffffffffffff166108fc8360a001519081150290604051600060405180830381858888f193505050501580156126f8573d6000803e3d6000fd5b50608060405190810160405280600073ffffffffffffffffffffffffffffffffffffffff1681526020016000815260200160206040519081016040528060008152508152602001600015158152508261010001819052506000826101400190600381111561276257fe5b9081600381111561276f57fe5b8152505081600760008581526020019081526020016000206000820151816000015560208201518160010190805190602001906127ad92919061434b565b5060408201518160020190805190602001906127ca92919061434b565b5060608201518160030190805190602001906127e792919061434b565b506080820151816004015560a0820151816005015560c08201518160060160006101000a81548173ffffffffffffffffffffffffffffffffffffffff021916908373ffffffffffffffffffffffffffffffffffffffff16021790555060e08201518160070160006101000a81548173ffffffffffffffffffffffffffffffffffffffff021916908373ffffffffffffffffffffffffffffffffffffffff1602179055506101008201518160080160008201518160000160006101000a81548173ffffffffffffffffffffffffffffffffffffffff021916908373ffffffffffffffffffffffffffffffffffffffff16021790555060208201518160010155604082015181600201908051906020019061290192919061434b565b5060608201518160030160006101000a81548160ff021916908315150217905550505061012082015181600c0160006101000a81548160ff02191690831515021790555061014082015181600c0160016101000a81548160ff0219169083600381111561296a57fe5b0217905550905050505050565b6000600654905090565b6129896142b1565b60006129936143cb565b60076000868152602001908152602001600020610160604051908101604052908160008201548152602001600182018054600181600116156101000203166002900480601f016020809104026020016040519081016040528092919081815260200182805460018160011615610100020316600290048015612a565780601f10612a2b57610100808354040283529160200191612a56565b820191906000526020600020905b815481529060010190602001808311612a3957829003601f168201915b50505050508152602001600282018054600181600116156101000203166002900480601f016020809104026020016040519081016040528092919081815260200182805460018160011615610100020316600290048015612af85780601f10612acd57610100808354040283529160200191612af8565b820191906000526020600020905b815481529060010190602001808311612adb57829003601f168201915b50505050508152602001600382018054600181600116156101000203166002900480601f016020809104026020016040519081016040528092919081815260200182805460018160011615610100020316600290048015612b9a5780601f10612b6f57610100808354040283529160200191612b9a565b820191906000526020600020905b815481529060010190602001808311612b7d57829003601f168201915b5050505050815260200160048201548152602001600582015481526020016006820160009054906101000a900473ffffffffffffffffffffffffffffffffffffffff1673ffffffffffffffffffffffffffffffffffffffff1673ffffffffffffffffffffffffffffffffffffffff1681526020016007820160009054906101000a900473ffffffffffffffffffffffffffffffffffffffff1673ffffffffffffffffffffffffffffffffffffffff1673ffffffffffffffffffffffffffffffffffffffff16815260200160088201608060405190810160405290816000820160009054906101000a900473ffffffffffffffffffffffffffffffffffffffff1673ffffffffffffffffffffffffffffffffffffffff1673ffffffffffffffffffffffffffffffffffffffff16815260200160018201548152602001600282018054600181600116156101000203166002900480601f016020809104026020016040519081016040528092919081815260200182805460018160011615610100020316600290048015612d6d5780601f10612d4257610100808354040283529160200191612d6d565b820191906000526020600020905b815481529060010190602001808311612d5057829003601f168201915b505050505081526020016003820160009054906101000a900460ff1615151515815250508152602001600c820160009054906101000a900460ff16151515158152602001600c820160019054906101000a900460ff166003811115612dce57fe5b6003811115612dd957fe5b815250509250600115158361012001511515141515612e2d576040517f08c379a0000000000000000000000000000000000000000000000000000000008152600401612e2490615303565b60405180910390fd5b60006003811115612e3a57fe5b8361014001516003811115612e4b57fe5b141515612e8d576040517f08c379a0000000000000000000000000000000000000000000000000000000008152600401612e8490615243565b60405180910390fd5b60001515836101000151606001511515141515612edf576040517f08c379a0000000000000000000000000000000000000000000000000000000008152600401612ed690615323565b60405180910390fd5b348360a00151141515612f27576040517f08c379a0000000000000000000000000000000000000000000000000000000008152600401612f1e90615403565b60405180910390fd5b4291506080604051908101604052803373ffffffffffffffffffffffffffffffffffffffff1681526020018381526020018581526020016001151581525090508083610100018190525060018361014001906003811115612f8457fe5b90816003811115612f9157fe5b815250503373ffffffffffffffffffffffffffffffffffffffff16846040518082805190602001908083835b602083101515612fe25780518252602082019150602081019050602083039250612fbd565b6001836020036101000a03801982511681845116808217855250505050505090500191505060405180910390207f823485d39f685deda7c40c6d21eb8ff24afec32be85cc48f424f1359f7d8e76d8560405161303e9190615443565b60405180910390a3826007600087815260200190815260200160002060008201518160000155602082015181600101908051906020019061308092919061434b565b50604082015181600201908051906020019061309d92919061434b565b5060608201518160030190805190602001906130ba92919061434b565b506080820151816004015560a0820151816005015560c08201518160060160006101000a81548173ffffffffffffffffffffffffffffffffffffffff021916908373ffffffffffffffffffffffffffffffffffffffff16021790555060e08201518160070160006101000a81548173ffffffffffffffffffffffffffffffffffffffff021916908373ffffffffffffffffffffffffffffffffffffffff1602179055506101008201518160080160008201518160000160006101000a81548173ffffffffffffffffffffffffffffffffffffffff021916908373ffffffffffffffffffffffffffffffffffffffff1602179055506020820151816001015560408201518160020190805190602001906131d492919061434b565b5060608201518160030160006101000a81548160ff021916908315150217905550505061012082015181600c0160006101000a81548160ff02191690831515021790555061014082015181600c0160016101000a81548160ff0219169083600381111561323d57fe5b02179055509050505050505050565b6132546142b1565b60076000838152602001908152602001600020610160604051908101604052908160008201548152602001600182018054600181600116156101000203166002900480601f0160208091040260200160405190810160405280929190818152602001828054600181600116156101000203166002900480156133175780601f106132ec57610100808354040283529160200191613317565b820191906000526020600020905b8154815290600101906020018083116132fa57829003601f168201915b50505050508152602001600282018054600181600116156101000203166002900480601f0160208091040260200160405190810160405280929190818152602001828054600181600116156101000203166002900480156133b95780601f1061338e576101008083540402835291602001916133b9565b820191906000526020600020905b81548152906001019060200180831161339c57829003601f168201915b50505050508152602001600382018054600181600116156101000203166002900480601f01602080910402602001604051908101604052809291908181526020018280546001816001161561010002031660029004801561345b5780601f106134305761010080835404028352916020019161345b565b820191906000526020600020905b81548152906001019060200180831161343e57829003601f168201915b5050505050815260200160048201548152602001600582015481526020016006820160009054906101000a900473ffffffffffffffffffffffffffffffffffffffff1673ffffffffffffffffffffffffffffffffffffffff1673ffffffffffffffffffffffffffffffffffffffff1681526020016007820160009054906101000a900473ffffffffffffffffffffffffffffffffffffffff1673ffffffffffffffffffffffffffffffffffffffff1673ffffffffffffffffffffffffffffffffffffffff16815260200160088201608060405190810160405290816000820160009054906101000a900473ffffffffffffffffffffffffffffffffffffffff1673ffffffffffffffffffffffffffffffffffffffff1673ffffffffffffffffffffffffffffffffffffffff16815260200160018201548152602001600282018054600181600116156101000203166002900480601f01602080910402602001604051908101604052809291908181526020018280546001816001161561010002031660029004801561362e5780601f106136035761010080835404028352916020019161362e565b820191906000526020600020905b81548152906001019060200180831161361157829003601f168201915b505050505081526020016003820160009054906101000a900460ff1615151515815250508152602001600c820160009054906101000a900460ff16151515158152602001600c820160019054906101000a900460ff16600381111561368f57fe5b600381111561369a57fe5b8152505090506001151581610120015115151415156136ee576040517f08c379a00000000000000000000000000000000000000000000000000000000081526004016136e590615303565b60405180910390fd5b3373ffffffffffffffffffffffffffffffffffffffff168160e0015173ffffffffffffffffffffffffffffffffffffffff16141515613762576040517f08c379a000000000000000000000000000000000000000000000000000000000815260040161375990615343565b60405180910390fd5b80610100015160600151156137c6578061010001516000015173ffffffffffffffffffffffffffffffffffffffff166108fc8260a001519081150290604051600060405180830381858888f193505050501580156137c4573d6000803e3d6000fd5b505b600060076000848152602001908152602001600020600c0160006101000a81548160ff0219169083151502179055505050565b61380161440c565b61380961440c565b61382085858584613cc9909392919063ffffffff16565b9150509392505050565b613841828460800151613d8390919063ffffffff16565b613858818460800151613d8390919063ffffffff16565b505050565b606060008060606000808614156138ab576040805190810160405280600181526020017f300000000000000000000000000000000000000000000000000000000000000081525094506139ab565b8593505b6000841415156138d5578280600101935050600a848115156138cd57fe5b0493506138af565b826040519080825280601f01601f1916602001820160405280156139085781602001602082028038833980820191505090505b5091506001830390505b6000861415156139a757600a8681151561392857fe5b066030017f01000000000000000000000000000000000000000000000000000000000000000282828060019003935081518110151561396357fe5b9060200101907effffffffffffffffffffffffffffffffffffffffffffffffffffffffffffff1916908160001a905350600a8681151561399f57fe5b049550613912565b8194505b50505050919050565b60006139cd838560800151613d8390919063ffffffff16565b6139da8460800151613da8565b600090505b8151811015613a2357613a1682828151811015156139f957fe5b906020019060200201518560800151613d8390919063ffffffff16565b80806001019150506139df565b613a308460800151613db6565b50505050565b600030600454604051602001808373ffffffffffffffffffffffffffffffffffffffff1673ffffffffffffffffffffffffffffffffffffffff166c01000000000000000000000000028152601401828152602001925050506040516020818303038152906040526040518082805190602001908083835b602083101515613ad25780518252602082019150602081019050602083039250613aad565b6001836020036101000a038019825116818451168082178552505050505050905001915050604051809103902090506004548360600181815250508360056000836000191660001916815260200190815260200160002060006101000a81548173ffffffffffffffffffffffffffffffffffffffff021916908373ffffffffffffffffffffffffffffffffffffffff16021790555080600019167fb5e6e01e79f91267dc17b4e6314d5d4d03593d2ceee0fbb452b750bd70ea5af960405160405180910390a2600260009054906101000a900473ffffffffffffffffffffffffffffffffffffffff1673ffffffffffffffffffffffffffffffffffffffff16634000aea08584613be187613dc4565b6040518463ffffffff167c0100000000000000000000000000000000000000000000000000000000028152600401613c1b93929190615188565b602060405180830381600087803b158015613c3557600080fd5b505af1158015613c49573d6000803e3d6000fd5b505050506040513d601f19601f82011682018060405250613c6d91908101906145ba565b1515613cae576040517f08c379a0000000000000000000000000000000000000000000000000000000008152600401613ca590615263565b60405180910390fd5b60016004600082825401925050819055508090509392505050565b613cd161440c565b613ce18560800151610100613ec2565b50838560000190600019169081600019168152505082856020019073ffffffffffffffffffffffffffffffffffffffff16908173ffffffffffffffffffffffffffffffffffffffff16815250508185604001907bffffffffffffffffffffffffffffffffffffffffffffffffffffffff191690817bffffffffffffffffffffffffffffffffffffffffffffffffffffffff191681525050849050949350505050565b613d908260038351613f1c565b613da3818361407a90919063ffffffff16565b505050565b613db381600461409c565b50565b613dc181600761409c565b50565b6060600360009054906101000a900473ffffffffffffffffffffffffffffffffffffffff1673ffffffffffffffffffffffffffffffffffffffff16634042994690507c01000000000000000000000000000000000000000000000000000000000260008084600001518560200151866040015187606001516001896080015160000151604051602401613e5e989796959493929190615103565b604051602081830303815290604052907bffffffffffffffffffffffffffffffffffffffffffffffffffffffff19166020820180517bffffffffffffffffffffffffffffffffffffffffffffffffffffffff83818316178352505050509050919050565b613eca61447a565b6000602083811515613ed857fe5b06141515613ef557602082811515613eec57fe5b06602003820191505b81836020018181525050604051808452600081528281016020016040525082905092915050565b601781111515613f4e57613f488160058460ff169060020a0260ff1617846140c190919063ffffffff16565b50614075565b60ff81111515613f9557613f78601860058460ff169060020a0217846140c190919063ffffffff16565b50613f8f816001856140e19092919063ffffffff16565b50614074565b61ffff81111515613fdd57613fc0601960058460ff169060020a0217846140c190919063ffffffff16565b50613fd7816002856140e19092919063ffffffff16565b50614073565b63ffffffff811115156140275761400a601a60058460ff169060020a0217846140c190919063ffffffff16565b50614021816004856140e19092919063ffffffff16565b50614072565b67ffffffffffffffff8111151561407157614058601b60058460ff169060020a0217846140c190919063ffffffff16565b5061406f816008856140e19092919063ffffffff16565b505b5b5b5b5b505050565b61408261447a565b61409483846000015151848551614103565b905092915050565b6140bc601f60058360ff169060020a0217836140c190919063ffffffff16565b505050565b6140c961447a565b6140d983846000015151846141c0565b905092915050565b6140e961447a565b6140fa848560000151518585614210565b90509392505050565b61410b61447a565b60008060008551851115151561412057600080fd5b8760200151858801111561414b5761414a8860026141448b602001518b8a01614271565b0261428d565b5b8751805188602083010194508089880111156141675788870182525b60208801935050505b6020851015156141955781518352602083019250602082019150602085039450614170565b6001856020036101000a03905080198251168184511681811785525050879350505050949350505050565b6141c861447a565b8360200151831015156141e7576141e684600286602001510261428d565b5b8351805160208583010184815381861415614203576001820183525b5050508390509392505050565b61421861447a565b600085602001518584011115614238576142378660028786010261428d565b5b6001836101000a03905085518386820101858319825116178152815185880111156142635784870182525b505085915050949350505050565b60008183111561428357829050614287565b8190505b92915050565b6060826000015190506142a08383613ec2565b506142ab838261407a565b50505050565b6101c060405190810160405280600081526020016060815260200160608152602001606081526020016000815260200160008152602001600073ffffffffffffffffffffffffffffffffffffffff168152602001600073ffffffffffffffffffffffffffffffffffffffff16815260200161432a614494565b81526020016000151581526020016000600381111561434557fe5b81525090565b828054600181600116156101000203166002900490600052602060002090601f016020900481019282601f1061438c57805160ff19168380011785556143ba565b828001600101855582156143ba579182015b828111156143b957825182559160200191906001019061439e565b5b5090506143c791906144d5565b5090565b608060405190810160405280600073ffffffffffffffffffffffffffffffffffffffff16815260200160008152602001606081526020016000151581525090565b60c06040519081016040528060008019168152602001600073ffffffffffffffffffffffffffffffffffffffff16815260200160007bffffffffffffffffffffffffffffffffffffffffffffffffffffffff19168152602001600081526020016144746144fa565b81525090565b604080519081016040528060608152602001600081525090565b608060405190810160405280600073ffffffffffffffffffffffffffffffffffffffff16815260200160008152602001606081526020016000151581525090565b6144f791905b808211156144f35760008160009055506001016144db565b5090565b90565b604080519081016040528060608152602001600081525090565b600061452082356155c2565b905092915050565b600061453482516155e2565b905092915050565b600061454882356155ee565b905092915050565b600082601f830112151561456357600080fd5b8135614576614571826154dd565b6154b0565b9150808252602083016020830185838301111561459257600080fd5b61459d838284615626565b50505092915050565b60006145b282356155f8565b905092915050565b6000602082840312156145cc57600080fd5b60006145da84828501614528565b91505092915050565b600080604083850312156145f657600080fd5b60006146048582860161453c565b9250506020614615858286016145a6565b9150509250929050565b60008060008060008060c0878903121561463857600080fd5b600087013567ffffffffffffffff81111561465257600080fd5b61465e89828a01614550565b965050602087013567ffffffffffffffff81111561467b57600080fd5b61468789828a01614550565b955050604087013567ffffffffffffffff8111156146a457600080fd5b6146b089828a01614550565b94505060606146c189828a016145a6565b93505060806146d289828a016145a6565b92505060a06146e389828a01614514565b9150509295509295509295565b60006020828403121561470257600080fd5b6000614710848285016145a6565b91505092915050565b600080600080600080600060e0888a03121561473457600080fd5b60006147428a828b016145a6565b97505060206147538a828b01614514565b96505060406147648a828b0161453c565b95505060606147758a828b016145a6565b945050608088013567ffffffffffffffff81111561479257600080fd5b61479e8a828b01614550565b93505060a088013567ffffffffffffffff8111156147bb57600080fd5b6147c78a828b01614550565b92505060c088013567ffffffffffffffff8111156147e457600080fd5b6147f08a828b01614550565b91505092959891949750929550565b6000806040838503121561481257600080fd5b6000614820858286016145a6565b925050602083013567ffffffffffffffff81111561483d57600080fd5b61484985828601614550565b9150509250929050565b61485c8161552a565b82525050565b61486b8161554a565b82525050565b61487a81615556565b82525050565b61488981615560565b82525050565b600061489a82615514565b8084526148ae816020860160208601615635565b6148b781615668565b602085010191505092915050565b60006148d082615509565b8084526148e4816020860160208601615635565b6148ed81615668565b602085010191505092915050565b61490481615602565b82525050565b61491381615614565b82525050565b60006149248261551f565b808452614938816020860160208601615635565b61494181615668565b602085010191505092915050565b6000602382527f5468657265206973206e6f207075726368617365206f6666657220707265736560208301527f6e742e00000000000000000000000000000000000000000000000000000000006040830152606082019050919050565b6000602e82527f4f6e6c7920746865206f776e65722063616e20636f6e6669726d20707572636860208301527f6173652066756c66696c6d656e740000000000000000000000000000000000006040830152606082019050919050565b6000601f82527f4c697374696e67206973206e6f74206f70656e20666f72206f66666572732e006020830152604082019050919050565b6000602382527f756e61626c6520746f207472616e73666572416e6443616c6c20746f206f726160208301527f636c6500000000000000000000000000000000000000000000000000000000006040830152606082019050919050565b6000602c82527f5468657265206973206e6f206c697374696e6720746f20636f6e6669726d207460208301527f72616e7366657220666f722e00000000000000000000000000000000000000006040830152606082019050919050565b6000603882527f5f6f776e657273686970537461747573206973206e6f742077697468696e207460208301527f6865206b6e6f776e2072616e6765206f662076616c75657300000000000000006040830152606082019050919050565b6000602d82527f4c697374696e67206973206e6f742070656e64696e67207472616e736665722060208301527f636f6e6669726d6174696f6e2e000000000000000000000000000000000000006040830152606082019050919050565b6000602c82527f4f6e6c7920746865206f776e65722063616e2064656c6574652074686520707560208301527f726368617365206f6666657200000000000000000000000000000000000000006040830152606082019050919050565b6000601782527f4c697374696e6720646f6573206e6f742065786973742e0000000000000000006020830152604082019050919050565b6000602582527f4c697374696e6720616c7265616479206861732061207075726368617365206f60208301527f666665722e0000000000000000000000000000000000000000000000000000006040830152606082019050919050565b6000602682527f4f6e6c7920746865206f776e65722063616e2064656c65746520686973206c6960208301527f7374696e672e00000000000000000000000000000000000000000000000000006040830152606082019050919050565b6000602182527f5468657265206973206e6f206c697374696e672077697468207468617420696460208301527f2e000000000000000000000000000000000000000000000000000000000000006040830152606082019050919050565b6000603782527f546865206d696e696d756d20626c6f636b2061676520726571756972656d656e60208301527f74206e6f74206d657420666f722064656c6574696f6e2e0000000000000000006040830152606082019050919050565b6000602882527f536f75726365206d75737420626520746865206f7261636c65206f662074686560208301527f20726571756573740000000000000000000000000000000000000000000000006040830152606082019050919050565b6000603582527f5468657265206973206e6f206c697374696e6720746f2064656c65746520746860208301527f65207075726368617365206f6666657220666f722e00000000000000000000006040830152606082019050919050565b6000602a82527f546865206c697374696e6720686173206e6f742079657420726563656976656460208301527f20616e206f666665722e000000000000000000000000000000000000000000006040830152606082019050919050565b6000602882527f56616c75652073656e7420646f6573206e6f74206d61746368206c697374696e60208301527f672070726963652e0000000000000000000000000000000000000000000000006040830152606082019050919050565b6000603582527f5468657265206973206e6f207075726368617365206f6666657220746f20646560208301527f6c65746520666f7220746865206c697374696e672e00000000000000000000006040830152606082019050919050565b600061016083016000830151614fa660008601826150f4565b5060208301518482036020860152614fbe8282614919565b91505060408301518482036040860152614fd88282614919565b91505060608301518482036060860152614ff28282614919565b915050608083015161500760808601826150f4565b5060a083015161501a60a08601826150f4565b5060c083015161502d60c0860182614853565b5060e083015161504060e0860182614853565b5061010083015184820361010086015261505a8282615091565b915050610120830151615071610120860182614862565b506101408301516150866101408601826148fb565b508091505092915050565b60006080830160008301516150a96000860182614853565b5060208301516150bc60208601826150f4565b50604083015184820360408601526150d48282614919565b91505060608301516150e96060860182614862565b508091505092915050565b6150fd816155b8565b82525050565b600061010082019050615119600083018b614853565b615126602083018a6150f4565b6151336040830189614871565b6151406060830188614853565b61514d6080830187614880565b61515a60a08301866150f4565b61516760c08301856150f4565b81810360e083015261517981846148c5565b90509998505050505050505050565b600060608201905061519d6000830186614853565b6151aa60208301856150f4565b81810360408301526151bc818461488f565b9050949350505050565b60006020820190506151db6000830184614871565b92915050565b600060208201905081810360008301526151fb8184614919565b905092915050565b6000602082019050818103600083015261521c8161494f565b9050919050565b6000602082019050818103600083015261523c816149ac565b9050919050565b6000602082019050818103600083015261525c81614a09565b9050919050565b6000602082019050818103600083015261527c81614a40565b9050919050565b6000602082019050818103600083015261529c81614a9d565b9050919050565b600060208201905081810360008301526152bc81614afa565b9050919050565b600060208201905081810360008301526152dc81614b57565b9050919050565b600060208201905081810360008301526152fc81614bb4565b9050919050565b6000602082019050818103600083015261531c81614c11565b9050919050565b6000602082019050818103600083015261533c81614c48565b9050919050565b6000602082019050818103600083015261535c81614ca5565b9050919050565b6000602082019050818103600083015261537c81614d02565b9050919050565b6000602082019050818103600083015261539c81614d5f565b9050919050565b600060208201905081810360008301526153bc81614dbc565b9050919050565b600060208201905081810360008301526153dc81614e19565b9050919050565b600060208201905081810360008301526153fc81614e76565b9050919050565b6000602082019050818103600083015261541c81614ed3565b9050919050565b6000602082019050818103600083015261543c81614f30565b9050919050565b6000602082019050818103600083015261545d8184614f8d565b905092915050565b6000604082019050818103600083015261547f8185614f8d565b905061548e602083018461490a565b9392505050565b60006020820190506154aa60008301846150f4565b92915050565b6000604051905081810181811067ffffffffffffffff821117156154d357600080fd5b8060405250919050565b600067ffffffffffffffff8211156154f457600080fd5b601f19601f8301169050602081019050919050565b600081519050919050565b600081519050919050565b600081519050919050565b600073ffffffffffffffffffffffffffffffffffffffff82169050919050565b60008115159050919050565b6000819050919050565b60007fffffffff0000000000000000000000000000000000000000000000000000000082169050919050565b600060048210151561559a57fe5b819050919050565b60006002821015156155b057fe5b819050919050565b6000819050919050565b600073ffffffffffffffffffffffffffffffffffffffff82169050919050565b60008115159050919050565b6000819050919050565b6000819050919050565b600061560d8261558c565b9050919050565b600061561f826155a2565b9050919050565b82818337600083830152505050565b60005b83811015615653578082015181840152602081019050615638565b83811115615662576000848401525b50505050565b6000601f19601f83011690509190505600a265627a7a72305820a493e4dfa46cab2be574b118e2d6aab049a195dc7954fe8695c80fecc5de6a446c6578706572696d656e74616cf50037",
  "source": "pragma solidity ^0.4.24;\npragma experimental ABIEncoderV2;\n\nimport \"chainlink/contracts/ChainlinkClient.sol\";\n\n\ncontract CSGOSteamTrade is ChainlinkClient {\n    // 6 hours\n    uint public constant MINIMUM_PURCHASE_OFFER_AGE = 60 * 60 * 6;\n    string public constant CHECK_INVENTORY_CONTAINS_ITEM_METHOD = \"tradelinkownerhasinspectlinktarget\";\n    uint256 constant private ORACLE_PAYMENT = 1 * LINK;\n\n    uint256 constant public OWNERSHIP_STATUS_FALSE = 0;\n    uint256 constant public OWNERSHIP_STATUS_TRUE = 1;\n    uint256 constant public OWNERSHIP_STATUS_INVENTORY_PRIVATE = 2;\n\n    enum ListingStage {OPEN, RECEIVED_OFFER, PENDING_TRANSFER_CONFIRMATON, DONE }\n    \n    struct PurchaseOffer {\n        address owner;\n        uint creationTimestamp;\n        string buyerTradeURL;\n        bool exists;\n    }\n\n    struct Listing {\n        uint listingId;\n        string ownerInspectLink;\n        string wear;\n        string skinName;\n        uint paintSeed;\n        uint price;\n        address sellerEthereumAdress;\n        address owner;\n        PurchaseOffer purchaseOffer;\n        bool exists;\n        ListingStage stage;\n    }\n\n    event ListingCreation(\n        Listing listing\n    );\n\n    event PurchaseOfferMade(\n        string indexed _buyerTradeURL,\n        address indexed buyerEthereumAddress,\n        Listing listing\n    );\n\n    enum TradeOutcome { SUCCESSFULLY_CONFIRMED, UNABLE_TO_CONFIRM_PRIVATE_PROFILE }\n\n    event TradeDone (\n        Listing listing,\n        TradeOutcome tradeOutcome\n    );\n\n    event TradeFulfilmentFail (\n        Listing listing\n    );\n\n    uint numListings = 0;\n    mapping(uint => Listing) listings;\n\n    mapping(bytes32 => uint) requestIdToListingId;\n    \n    /**\n    * @notice Deploy the contract with a specified address for the LINK\n    * and Oracle contract addresses\n    * @dev Sets the storage for the specified addresses\n    * @param _link The address of the LINK token contract\n    */\n    constructor(address _link) public {\n        if (_link == address(0)) {\n        setPublicChainlinkToken();\n        } else {\n        setChainlinkToken(_link);\n        }\n    }\n    \n    function createListing(string _ownerInspectLink, string memory _wear,\n        string memory _skinName, uint _paintSeed, uint _price, address _sellerEthereumAdress) public returns (uint listingId) {\n        listingId = numListings++;\n        PurchaseOffer memory placeholder = PurchaseOffer(0, 0, '', false);\n        Listing memory listing = Listing(listingId, _ownerInspectLink, _wear, _skinName, _paintSeed,\n            _price, _sellerEthereumAdress, msg.sender, placeholder, true, ListingStage.OPEN);\n        emit ListingCreation(listing);\n        listings[listingId] = listing;\n    }\n    \n    function getListing(uint _listingId) public view returns (Listing memory listing) {\n        listing = listings[_listingId];\n    }\n\n    function getListingsCount() public view returns (uint) {\n        return numListings;\n    }\n    \n    function deleteListing(uint _listingId) public {\n        Listing memory listing = listings[_listingId];\n        require(listing.exists == true,  \"Listing does not exist.\");\n        require(listing.owner == msg.sender, \"Only the owner can delete his listing.\");\n\n        if (listing.purchaseOffer.exists) {\n            // return funds\n            listing.purchaseOffer.owner.transfer(listing.price);\n        }\n        \n        listings[_listingId].exists = false;\n    }\n\n    function createPurchaseOffer(uint _listingId, string _buyerTradeURL) public payable {\n        Listing memory listing = listings[_listingId];\n        require(listing.exists == true, \"Listing does not exist.\");\n        require(listing.stage == ListingStage.OPEN, \"Listing is not open for offers.\");\n        require(listing.purchaseOffer.exists == false, \"Listing already has a purchase offer.\");\n        require(listing.price == msg.value, \"Value sent does not match listing price.\");\n\n        uint currentTimestamp = block.timestamp;\n        PurchaseOffer memory purchaseOffer = PurchaseOffer(msg.sender, currentTimestamp, _buyerTradeURL, true);\n        listing.purchaseOffer = purchaseOffer;\n        listing.stage = ListingStage.RECEIVED_OFFER;\n\n        emit PurchaseOfferMade(_buyerTradeURL, msg.sender, listing);\n        listings[_listingId] = listing;\n    }\n\n    function deletePurchaseOffer(uint _listingId) public {\n        Listing memory listing = listings[_listingId];\n        require(listing.exists == true, \"There is no listing to delete the purchase offer for.\");\n        require(listing.purchaseOffer.exists == true, \"There is no purchase offer to delete for the listing.\");\n        require(listing.purchaseOffer.owner == msg.sender, \"Only the owner can delete the purchase offer\");\n\n        uint secondsSinceOfferCreation = block.timestamp - listing.purchaseOffer.creationTimestamp;\n        require(secondsSinceOfferCreation > MINIMUM_PURCHASE_OFFER_AGE, \"The minimum block age requirement not met for deletion.\");\n\n        // send the funds back to the owner of the purchase offer.\n        listing.purchaseOffer.owner.transfer(listing.price);\n\n        listing.purchaseOffer = PurchaseOffer(0, 0, '', false);\n        listing.stage = ListingStage.OPEN;\n        listings[_listingId] = listing;\n    }\n\n    function createItemTransferConfirmationRequest(\n        uint _listingId,\n        address _oracle,\n        bytes32 _jobId,\n        uint256 _payment,\n        string _url,\n        string _path,\n        string _buyerInspectLink)\n        public\n        returns (bytes32 requestId) {\n\n        Listing memory listing = listings[_listingId];\n        require(listing.exists == true, \"There is no listing to confirm transfer for.\");\n        require(listing.stage == ListingStage.RECEIVED_OFFER, \"The listing has not yet received an offer.\");\n        require(listing.purchaseOffer.exists == true, \"There is no purchase offer present.\");\n        require(listing.owner == msg.sender, \"Only the owner can confirm purchase fulfilment\");\n        \n        Chainlink.Request memory req = buildChainlinkRequest(_jobId,\n            this,\n            this.fulfillItemTransferConfirmation.selector);\n            \n        req.add(\"method\", CHECK_INVENTORY_CONTAINS_ITEM_METHOD);\n        req.add(\"inspectLink\", _buyerInspectLink);\n        req.add(\"tradeURL\", listing.purchaseOffer.buyerTradeURL);\n        req.add(\"wear\", listing.wear);\n        req.add(\"skinName\", listing.skinName);\n        req.add(\"paintSeed\", uint2str(listing.paintSeed));\n        \n        string[] memory path = new string[](1);\n        path[0] = \"containsItem\";\n        req.addStringArray(\"copyPath\", path);\n\n        requestId = sendChainlinkRequestTo(_oracle, req, _payment);\n        requestIdToListingId[requestId] = _listingId;\n\n        listing.stage = ListingStage.PENDING_TRANSFER_CONFIRMATON;\n        listings[_listingId] = listing;\n    }\n\n    /**\n   * @notice The fulfill method from requests created by this contract\n   * @dev The recordChainlinkFulfillment protects this function from being called\n   * by anyone other than the oracle address that the request was sent to\n   * @param _requestId The ID that was generated for the request\n   * @param _ownershipStatus The answer provided by the oracle\n   */\n    function fulfillItemTransferConfirmation(bytes32 _requestId, uint256 _ownershipStatus)\n        public\n        recordChainlinkFulfillment(_requestId) {\n        uint listingId = requestIdToListingId[_requestId];\n        Listing memory listing = listings[listingId];\n        require(listing.exists == true, \"There is no listing with that id.\");\n        require(listing.stage == ListingStage.PENDING_TRANSFER_CONFIRMATON, \"Listing is not pending transfer confirmation.\");\n        require(_ownershipStatus >= 0 && _ownershipStatus <= 2, \"_ownershipStatus is not within the known range of values\");\n\n        if (_ownershipStatus == OWNERSHIP_STATUS_TRUE) {\n            listing.stage = ListingStage.DONE;\n            listing.sellerEthereumAdress.transfer(listing.price);\n            emit TradeDone(listing, TradeOutcome.SUCCESSFULLY_CONFIRMED);\n        } else if (_ownershipStatus == OWNERSHIP_STATUS_INVENTORY_PRIVATE) {\n            listing.stage = ListingStage.DONE;\n            listing.sellerEthereumAdress.transfer(listing.price);\n            emit TradeDone(listing, TradeOutcome.UNABLE_TO_CONFIRM_PRIVATE_PROFILE);\n        } else if (_ownershipStatus == OWNERSHIP_STATUS_FALSE) {\n            emit TradeFulfilmentFail(listing);\n        }\n        \n        listings[listingId] = listing;\n    }\n\n    /**\n     * @notice Converts a uint to a string. Extracted from https://github.com/provable-things/ethereum-api/blob/master/oraclizeAPI_0.5.sol\n     */\n    function uint2str(uint _i) internal pure returns (string memory _uintAsString) {\n        if (_i == 0) {\n            return \"0\";\n        }\n        uint j = _i;\n        uint len;\n        while (j != 0) {\n            len++;\n            j /= 10;\n        }\n        bytes memory bstr = new bytes(len);\n        uint k = len - 1;\n        while (_i != 0) {\n            bstr[k--] = byte(uint8(48 + _i % 10));\n            _i /= 10;\n        }\n        return string(bstr);\n    }\n}",
  "sourcePath": "/Users/dan/moneywork/csgo-steam-eth-trade/csgo-trade-contract/contracts/CSGOSteamTrade.sol",
  "compiler": {
    "name": "solc",
    "version": "0.4.24+commit.e67f0147.Emscripten.clang"
  },
  "schemaVersion": "3.0.16",
  "updatedAt": "2019-12-08T10:30:59.281Z",
  "devdoc": {
    "methods": {
      "fulfillItemTransferConfirmation(bytes32,uint256)": {
        "details": "The recordChainlinkFulfillment protects this function from being called by anyone other than the oracle address that the request was sent to",
        "params": {
          "_ownershipStatus": "The answer provided by the oracle",
          "_requestId": "The ID that was generated for the request"
        }
      }
    }
  },
  "userdoc": {
    "methods": {
      "fulfillItemTransferConfirmation(bytes32,uint256)": {
        "notice": "The fulfill method from requests created by this contract"
      }
    }
  }
}