{
  "contractName": "CSGOSteamTrade",
  "abi": [
    {
      "constant": true,
      "inputs": [],
      "name": "MINIMUM_PURCHASE_OFFER_AGE",
      "outputs": [
        {
          "name": "",
          "type": "uint256"
        }
      ],
      "payable": false,
      "stateMutability": "view",
      "type": "function"
    },
    {
      "constant": true,
      "inputs": [],
      "name": "OWNERSHIP_STATUS_TRUE",
      "outputs": [
        {
          "name": "",
          "type": "uint256"
        }
      ],
      "payable": false,
      "stateMutability": "view",
      "type": "function"
    },
    {
      "constant": true,
      "inputs": [],
      "name": "OWNERSHIP_STATUS_FALSE",
      "outputs": [
        {
          "name": "",
          "type": "uint256"
        }
      ],
      "payable": false,
      "stateMutability": "view",
      "type": "function"
    },
    {
      "constant": true,
      "inputs": [],
      "name": "CHECK_INVENTORY_CONTAINS_ITEM_METHOD",
      "outputs": [
        {
          "name": "",
          "type": "string"
        }
      ],
      "payable": false,
      "stateMutability": "view",
      "type": "function"
    },
    {
      "constant": true,
      "inputs": [],
      "name": "OWNERSHIP_STATUS_INVENTORY_PRIVATE",
      "outputs": [
        {
          "name": "",
          "type": "uint256"
        }
      ],
      "payable": false,
      "stateMutability": "view",
      "type": "function"
    },
    {
      "inputs": [
        {
          "name": "_link",
          "type": "address"
        }
      ],
      "payable": false,
      "stateMutability": "nonpayable",
      "type": "constructor"
    },
    {
      "anonymous": false,
      "inputs": [
        {
          "components": [
            {
              "name": "listingId",
              "type": "uint256"
            },
            {
              "name": "ownerSteamAccountName",
              "type": "string"
            },
            {
              "name": "accountSteamId",
              "type": "uint256"
            },
            {
              "name": "wear",
              "type": "string"
            },
            {
              "name": "skinName",
              "type": "string"
            },
            {
              "name": "paintSeed",
              "type": "uint256"
            },
            {
              "name": "price",
              "type": "uint256"
            },
            {
              "name": "sellerEthereumAdress",
              "type": "address"
            },
            {
              "name": "owner",
              "type": "address"
            },
            {
              "components": [
                {
                  "name": "owner",
                  "type": "address"
                },
                {
                  "name": "creationTimestamp",
                  "type": "uint256"
                },
                {
                  "name": "buyerSteamAccountName",
                  "type": "string"
                },
                {
                  "name": "buyerAccountSteamId",
                  "type": "uint256"
                },
                {
                  "name": "exists",
                  "type": "bool"
                }
              ],
              "name": "purchaseOffer",
              "type": "tuple"
            },
            {
              "name": "exists",
              "type": "bool"
            },
            {
              "name": "stage",
              "type": "uint8"
            }
          ],
          "indexed": false,
          "name": "listing",
          "type": "tuple"
        }
      ],
      "name": "ListingCreation",
      "type": "event"
    },
    {
      "anonymous": false,
      "inputs": [
        {
          "indexed": true,
          "name": "buyerAccountSteamId",
          "type": "uint256"
        },
        {
          "indexed": true,
          "name": "buyerEthereumAddress",
          "type": "address"
        },
        {
          "components": [
            {
              "name": "listingId",
              "type": "uint256"
            },
            {
              "name": "ownerSteamAccountName",
              "type": "string"
            },
            {
              "name": "accountSteamId",
              "type": "uint256"
            },
            {
              "name": "wear",
              "type": "string"
            },
            {
              "name": "skinName",
              "type": "string"
            },
            {
              "name": "paintSeed",
              "type": "uint256"
            },
            {
              "name": "price",
              "type": "uint256"
            },
            {
              "name": "sellerEthereumAdress",
              "type": "address"
            },
            {
              "name": "owner",
              "type": "address"
            },
            {
              "components": [
                {
                  "name": "owner",
                  "type": "address"
                },
                {
                  "name": "creationTimestamp",
                  "type": "uint256"
                },
                {
                  "name": "buyerSteamAccountName",
                  "type": "string"
                },
                {
                  "name": "buyerAccountSteamId",
                  "type": "uint256"
                },
                {
                  "name": "exists",
                  "type": "bool"
                }
              ],
              "name": "purchaseOffer",
              "type": "tuple"
            },
            {
              "name": "exists",
              "type": "bool"
            },
            {
              "name": "stage",
              "type": "uint8"
            }
          ],
          "indexed": false,
          "name": "listing",
          "type": "tuple"
        }
      ],
      "name": "PurchaseOfferMade",
      "type": "event"
    },
    {
      "anonymous": false,
      "inputs": [
        {
          "components": [
            {
              "name": "listingId",
              "type": "uint256"
            },
            {
              "name": "ownerSteamAccountName",
              "type": "string"
            },
            {
              "name": "accountSteamId",
              "type": "uint256"
            },
            {
              "name": "wear",
              "type": "string"
            },
            {
              "name": "skinName",
              "type": "string"
            },
            {
              "name": "paintSeed",
              "type": "uint256"
            },
            {
              "name": "price",
              "type": "uint256"
            },
            {
              "name": "sellerEthereumAdress",
              "type": "address"
            },
            {
              "name": "owner",
              "type": "address"
            },
            {
              "components": [
                {
                  "name": "owner",
                  "type": "address"
                },
                {
                  "name": "creationTimestamp",
                  "type": "uint256"
                },
                {
                  "name": "buyerSteamAccountName",
                  "type": "string"
                },
                {
                  "name": "buyerAccountSteamId",
                  "type": "uint256"
                },
                {
                  "name": "exists",
                  "type": "bool"
                }
              ],
              "name": "purchaseOffer",
              "type": "tuple"
            },
            {
              "name": "exists",
              "type": "bool"
            },
            {
              "name": "stage",
              "type": "uint8"
            }
          ],
          "indexed": false,
          "name": "listing",
          "type": "tuple"
        },
        {
          "indexed": false,
          "name": "tradeOutcome",
          "type": "uint8"
        }
      ],
      "name": "TradeDone",
      "type": "event"
    },
    {
      "anonymous": false,
      "inputs": [
        {
          "components": [
            {
              "name": "listingId",
              "type": "uint256"
            },
            {
              "name": "ownerSteamAccountName",
              "type": "string"
            },
            {
              "name": "accountSteamId",
              "type": "uint256"
            },
            {
              "name": "wear",
              "type": "string"
            },
            {
              "name": "skinName",
              "type": "string"
            },
            {
              "name": "paintSeed",
              "type": "uint256"
            },
            {
              "name": "price",
              "type": "uint256"
            },
            {
              "name": "sellerEthereumAdress",
              "type": "address"
            },
            {
              "name": "owner",
              "type": "address"
            },
            {
              "components": [
                {
                  "name": "owner",
                  "type": "address"
                },
                {
                  "name": "creationTimestamp",
                  "type": "uint256"
                },
                {
                  "name": "buyerSteamAccountName",
                  "type": "string"
                },
                {
                  "name": "buyerAccountSteamId",
                  "type": "uint256"
                },
                {
                  "name": "exists",
                  "type": "bool"
                }
              ],
              "name": "purchaseOffer",
              "type": "tuple"
            },
            {
              "name": "exists",
              "type": "bool"
            },
            {
              "name": "stage",
              "type": "uint8"
            }
          ],
          "indexed": false,
          "name": "listing",
          "type": "tuple"
        }
      ],
      "name": "TradeFulfilmentFail",
      "type": "event"
    },
    {
      "anonymous": false,
      "inputs": [
        {
          "indexed": true,
          "name": "id",
          "type": "bytes32"
        }
      ],
      "name": "ChainlinkRequested",
      "type": "event"
    },
    {
      "anonymous": false,
      "inputs": [
        {
          "indexed": true,
          "name": "id",
          "type": "bytes32"
        }
      ],
      "name": "ChainlinkFulfilled",
      "type": "event"
    },
    {
      "anonymous": false,
      "inputs": [
        {
          "indexed": true,
          "name": "id",
          "type": "bytes32"
        }
      ],
      "name": "ChainlinkCancelled",
      "type": "event"
    },
    {
      "constant": false,
      "inputs": [
        {
          "name": "_ownerSteamAccountName",
          "type": "string"
        },
        {
          "name": "_accountSteamId",
          "type": "uint256"
        },
        {
          "name": "_wear",
          "type": "string"
        },
        {
          "name": "_skinName",
          "type": "string"
        },
        {
          "name": "_paintSeed",
          "type": "uint256"
        },
        {
          "name": "_price",
          "type": "uint256"
        },
        {
          "name": "_sellerEthereumAdress",
          "type": "address"
        }
      ],
      "name": "createListing",
      "outputs": [
        {
          "name": "listingId",
          "type": "uint256"
        }
      ],
      "payable": false,
      "stateMutability": "nonpayable",
      "type": "function"
    },
    {
      "constant": true,
      "inputs": [
        {
          "name": "_listingId",
          "type": "uint256"
        }
      ],
      "name": "getListing",
      "outputs": [
        {
          "components": [
            {
              "name": "listingId",
              "type": "uint256"
            },
            {
              "name": "ownerSteamAccountName",
              "type": "string"
            },
            {
              "name": "accountSteamId",
              "type": "uint256"
            },
            {
              "name": "wear",
              "type": "string"
            },
            {
              "name": "skinName",
              "type": "string"
            },
            {
              "name": "paintSeed",
              "type": "uint256"
            },
            {
              "name": "price",
              "type": "uint256"
            },
            {
              "name": "sellerEthereumAdress",
              "type": "address"
            },
            {
              "name": "owner",
              "type": "address"
            },
            {
              "components": [
                {
                  "name": "owner",
                  "type": "address"
                },
                {
                  "name": "creationTimestamp",
                  "type": "uint256"
                },
                {
                  "name": "buyerSteamAccountName",
                  "type": "string"
                },
                {
                  "name": "buyerAccountSteamId",
                  "type": "uint256"
                },
                {
                  "name": "exists",
                  "type": "bool"
                }
              ],
              "name": "purchaseOffer",
              "type": "tuple"
            },
            {
              "name": "exists",
              "type": "bool"
            },
            {
              "name": "stage",
              "type": "uint8"
            }
          ],
          "name": "listing",
          "type": "tuple"
        }
      ],
      "payable": false,
      "stateMutability": "view",
      "type": "function"
    },
    {
      "constant": true,
      "inputs": [],
      "name": "getListingsCount",
      "outputs": [
        {
          "name": "",
          "type": "uint256"
        }
      ],
      "payable": false,
      "stateMutability": "view",
      "type": "function"
    },
    {
      "constant": false,
      "inputs": [
        {
          "name": "_listingId",
          "type": "uint256"
        }
      ],
      "name": "deleteListing",
      "outputs": [],
      "payable": false,
      "stateMutability": "nonpayable",
      "type": "function"
    },
    {
      "constant": false,
      "inputs": [
        {
          "name": "_listingId",
          "type": "uint256"
        },
        {
          "name": "_buyerSteamAccountName",
          "type": "string"
        },
        {
          "name": "_buyerAccountSteamId",
          "type": "uint256"
        }
      ],
      "name": "createPurchaseOffer",
      "outputs": [],
      "payable": true,
      "stateMutability": "payable",
      "type": "function"
    },
    {
      "constant": false,
      "inputs": [
        {
          "name": "_listingId",
          "type": "uint256"
        }
      ],
      "name": "deletePurchaseOffer",
      "outputs": [],
      "payable": false,
      "stateMutability": "nonpayable",
      "type": "function"
    },
    {
      "constant": false,
      "inputs": [
        {
          "name": "_listingId",
          "type": "uint256"
        },
        {
          "name": "_oracle",
          "type": "address"
        },
        {
          "name": "_jobId",
          "type": "bytes32"
        },
        {
          "name": "_payment",
          "type": "uint256"
        },
        {
          "name": "_url",
          "type": "string"
        },
        {
          "name": "_path",
          "type": "string"
        }
      ],
      "name": "createItemTransferConfirmationRequest",
      "outputs": [
        {
          "name": "requestId",
          "type": "bytes32"
        }
      ],
      "payable": false,
      "stateMutability": "nonpayable",
      "type": "function"
    },
    {
      "constant": false,
      "inputs": [
        {
          "name": "_requestId",
          "type": "bytes32"
        },
        {
          "name": "_ownershipStatus",
          "type": "uint256"
        }
      ],
      "name": "fulfillItemTransferConfirmation",
      "outputs": [],
      "payable": false,
      "stateMutability": "nonpayable",
      "type": "function"
    }
  ],
  "bytecode": "0x6080604052600160045560006006553480156200001b57600080fd5b50604051602080620059c783398101806040526200003d9190810190620001dd565b600073ffffffffffffffffffffffffffffffffffffffff168173ffffffffffffffffffffffffffffffffffffffff16141562000092576200008c620000b4640100000000026401000000009004565b620000ad565b620000ac8162000183640100000000026401000000009004565b5b5062000229565b6200018173c89bd4e1632d3a43cb03aaad5262cbe4038bc57173ffffffffffffffffffffffffffffffffffffffff166338cc48316040518163ffffffff167c0100000000000000000000000000000000000000000000000000000000028152600401602060405180830381600087803b1580156200013157600080fd5b505af115801562000146573d6000803e3d6000fd5b505050506040513d601f19601f820116820180604052506200016c9190810190620001dd565b62000183640100000000026401000000009004565b565b80600260006101000a81548173ffffffffffffffffffffffffffffffffffffffff021916908373ffffffffffffffffffffffffffffffffffffffff16021790555050565b6000620001d5825162000209565b905092915050565b600060208284031215620001f057600080fd5b60006200020084828501620001c7565b91505092915050565b600073ffffffffffffffffffffffffffffffffffffffff82169050919050565b61578e80620002396000396000f3006080604052600436106100c5576000357c0100000000000000000000000000000000000000000000000000000000900463ffffffff168063107a274a146100ca5780634af4b4e61461010757806391ca0b7914610132578063b08fbc431461015b578063b0c6e3a014610198578063b4e31a22146101c3578063bf486b70146101ee578063c6d9b5f714610219578063c8b63c5114610244578063cbaa068f1461026d578063e6282c6e14610298578063eb06716b146102c1578063f7b8fe33146102fe575b600080fd5b3480156100d657600080fd5b506100f160048036036100ec91908101906147bd565b61031a565b6040516100fe919061551e565b60405180910390f35b34801561011357600080fd5b5061011c610787565b6040516101299190615570565b60405180910390f35b34801561013e57600080fd5b506101596004803603610154919081019061469b565b61078d565b005b34801561016757600080fd5b50610182600480360361017d91908101906147e6565b611205565b60405161018f91906152a1565b60405180910390f35b3480156101a457600080fd5b506101ad611da0565b6040516101ba9190615570565b60405180910390f35b3480156101cf57600080fd5b506101d8611da5565b6040516101e59190615570565b60405180910390f35b3480156101fa57600080fd5b50610203611daa565b60405161021091906152bc565b60405180910390f35b34801561022557600080fd5b5061022e611e0a565b60405161023b9190615570565b60405180910390f35b34801561025057600080fd5b5061026b600480360361026691908101906147bd565b611e0f565b005b34801561027957600080fd5b506102826126d4565b60405161028f9190615570565b60405180910390f35b3480156102a457600080fd5b506102bf60048036036102ba91908101906147bd565b6126de565b005b3480156102cd57600080fd5b506102e860048036036102e391908101906146d7565b612ca0565b6040516102f59190615570565b60405180910390f35b6103186004803603610313919081019061489f565b613003565b005b610322614354565b60076000838152602001908152602001600020610180604051908101604052908160008201548152602001600182018054600181600116156101000203166002900480601f0160208091040260200160405190810160405280929190818152602001828054600181600116156101000203166002900480156103e55780601f106103ba576101008083540402835291602001916103e5565b820191906000526020600020905b8154815290600101906020018083116103c857829003601f168201915b5050505050815260200160028201548152602001600382018054600181600116156101000203166002900480601f0160208091040260200160405190810160405280929190818152602001828054600181600116156101000203166002900480156104915780601f1061046657610100808354040283529160200191610491565b820191906000526020600020905b81548152906001019060200180831161047457829003601f168201915b50505050508152602001600482018054600181600116156101000203166002900480601f0160208091040260200160405190810160405280929190818152602001828054600181600116156101000203166002900480156105335780601f1061050857610100808354040283529160200191610533565b820191906000526020600020905b81548152906001019060200180831161051657829003601f168201915b5050505050815260200160058201548152602001600682015481526020016007820160009054906101000a900473ffffffffffffffffffffffffffffffffffffffff1673ffffffffffffffffffffffffffffffffffffffff1673ffffffffffffffffffffffffffffffffffffffff1681526020016008820160009054906101000a900473ffffffffffffffffffffffffffffffffffffffff1673ffffffffffffffffffffffffffffffffffffffff1673ffffffffffffffffffffffffffffffffffffffff1681526020016009820160a060405190810160405290816000820160009054906101000a900473ffffffffffffffffffffffffffffffffffffffff1673ffffffffffffffffffffffffffffffffffffffff1673ffffffffffffffffffffffffffffffffffffffff16815260200160018201548152602001600282018054600181600116156101000203166002900480601f0160208091040260200160405190810160405280929190818152602001828054600181600116156101000203166002900480156107065780601f106106db57610100808354040283529160200191610706565b820191906000526020600020905b8154815290600101906020018083116106e957829003601f168201915b50505050508152602001600382015481526020016004820160009054906101000a900460ff1615151515815250508152602001600e820160009054906101000a900460ff16151515158152602001600e820160019054906101000a900460ff16600381111561077157fe5b600381111561077c57fe5b815250509050919050565b61546081565b6000610797614354565b8360056000826000191660001916815260200190815260200160002060009054906101000a900473ffffffffffffffffffffffffffffffffffffffff1673ffffffffffffffffffffffffffffffffffffffff163373ffffffffffffffffffffffffffffffffffffffff16141515610843576040517f08c379a000000000000000000000000000000000000000000000000000000000815260040161083a9061547e565b60405180910390fd5b60056000826000191660001916815260200190815260200160002060006101000a81549073ffffffffffffffffffffffffffffffffffffffff021916905580600019167f7cc135e0cebb02c3480ae5d74d377283180a2601f8f644edf7987b009316c63a60405160405180910390a260086000866000191660001916815260200190815260200160002054925060076000848152602001908152602001600020610180604051908101604052908160008201548152602001600182018054600181600116156101000203166002900480601f0160208091040260200160405190810160405280929190818152602001828054600181600116156101000203166002900480156109935780601f1061096857610100808354040283529160200191610993565b820191906000526020600020905b81548152906001019060200180831161097657829003601f168201915b5050505050815260200160028201548152602001600382018054600181600116156101000203166002900480601f016020809104026020016040519081016040528092919081815260200182805460018160011615610100020316600290048015610a3f5780601f10610a1457610100808354040283529160200191610a3f565b820191906000526020600020905b815481529060010190602001808311610a2257829003601f168201915b50505050508152602001600482018054600181600116156101000203166002900480601f016020809104026020016040519081016040528092919081815260200182805460018160011615610100020316600290048015610ae15780601f10610ab657610100808354040283529160200191610ae1565b820191906000526020600020905b815481529060010190602001808311610ac457829003601f168201915b5050505050815260200160058201548152602001600682015481526020016007820160009054906101000a900473ffffffffffffffffffffffffffffffffffffffff1673ffffffffffffffffffffffffffffffffffffffff1673ffffffffffffffffffffffffffffffffffffffff1681526020016008820160009054906101000a900473ffffffffffffffffffffffffffffffffffffffff1673ffffffffffffffffffffffffffffffffffffffff1673ffffffffffffffffffffffffffffffffffffffff1681526020016009820160a060405190810160405290816000820160009054906101000a900473ffffffffffffffffffffffffffffffffffffffff1673ffffffffffffffffffffffffffffffffffffffff1673ffffffffffffffffffffffffffffffffffffffff16815260200160018201548152602001600282018054600181600116156101000203166002900480601f016020809104026020016040519081016040528092919081815260200182805460018160011615610100020316600290048015610cb45780601f10610c8957610100808354040283529160200191610cb4565b820191906000526020600020905b815481529060010190602001808311610c9757829003601f168201915b50505050508152602001600382015481526020016004820160009054906101000a900460ff1615151515815250508152602001600e820160009054906101000a900460ff16151515158152602001600e820160019054906101000a900460ff166003811115610d1f57fe5b6003811115610d2a57fe5b815250509150600115158261014001511515141515610d7e576040517f08c379a0000000000000000000000000000000000000000000000000000000008152600401610d759061543e565b60405180910390fd5b60026003811115610d8b57fe5b8261016001516003811115610d9c57fe5b141515610dde576040517f08c379a0000000000000000000000000000000000000000000000000000000008152600401610dd59061539e565b60405180910390fd5b60008410158015610df0575060028411155b1515610e31576040517f08c379a0000000000000000000000000000000000000000000000000000000008152600401610e289061537e565b60405180910390fd5b6001841415610eec5760038261016001906003811115610e4d57fe5b90816003811115610e5a57fe5b815250508160e0015173ffffffffffffffffffffffffffffffffffffffff166108fc8360c001519081150290604051600060405180830381858888f19350505050158015610eac573d6000803e3d6000fd5b507fcbf6021eb5f38014f5cfc888c35b1fc467110109cf46e2ac8507c91784bcd63d826000604051610edf929190615540565b60405180910390a1610fea565b6002841415610fa75760038261016001906003811115610f0857fe5b90816003811115610f1557fe5b815250508160e0015173ffffffffffffffffffffffffffffffffffffffff166108fc8360c001519081150290604051600060405180830381858888f19350505050158015610f67573d6000803e3d6000fd5b507fcbf6021eb5f38014f5cfc888c35b1fc467110109cf46e2ac8507c91784bcd63d826001604051610f9a929190615540565b60405180910390a1610fe9565b6000841415610fe8577f49d58897ca81b65ce195c1bae8692cb98be42f8caa8d4bf7bcbe42c39622449582604051610fdf919061551e565b60405180910390a15b5b5b81600760008581526020019081526020016000206000820151816000015560208201518160010190805190602001906110249291906143f5565b5060408201518160020155606082015181600301908051906020019061104b9291906143f5565b5060808201518160040190805190602001906110689291906143f5565b5060a0820151816005015560c0820151816006015560e08201518160070160006101000a81548173ffffffffffffffffffffffffffffffffffffffff021916908373ffffffffffffffffffffffffffffffffffffffff1602179055506101008201518160080160006101000a81548173ffffffffffffffffffffffffffffffffffffffff021916908373ffffffffffffffffffffffffffffffffffffffff1602179055506101208201518160090160008201518160000160006101000a81548173ffffffffffffffffffffffffffffffffffffffff021916908373ffffffffffffffffffffffffffffffffffffffff1602179055506020820151816001015560408201518160020190805190602001906111839291906143f5565b506060820151816003015560808201518160040160006101000a81548160ff021916908315150217905550505061014082015181600e0160006101000a81548160ff02191690831515021790555061016082015181600e0160016101000a81548160ff021916908360038111156111f657fe5b02179055509050505050505050565b600061120f614354565b611217614475565b6060600760008b8152602001908152602001600020610180604051908101604052908160008201548152602001600182018054600181600116156101000203166002900480601f0160208091040260200160405190810160405280929190818152602001828054600181600116156101000203166002900480156112dc5780601f106112b1576101008083540402835291602001916112dc565b820191906000526020600020905b8154815290600101906020018083116112bf57829003601f168201915b5050505050815260200160028201548152602001600382018054600181600116156101000203166002900480601f0160208091040260200160405190810160405280929190818152602001828054600181600116156101000203166002900480156113885780601f1061135d57610100808354040283529160200191611388565b820191906000526020600020905b81548152906001019060200180831161136b57829003601f168201915b50505050508152602001600482018054600181600116156101000203166002900480601f01602080910402602001604051908101604052809291908181526020018280546001816001161561010002031660029004801561142a5780601f106113ff5761010080835404028352916020019161142a565b820191906000526020600020905b81548152906001019060200180831161140d57829003601f168201915b5050505050815260200160058201548152602001600682015481526020016007820160009054906101000a900473ffffffffffffffffffffffffffffffffffffffff1673ffffffffffffffffffffffffffffffffffffffff1673ffffffffffffffffffffffffffffffffffffffff1681526020016008820160009054906101000a900473ffffffffffffffffffffffffffffffffffffffff1673ffffffffffffffffffffffffffffffffffffffff1673ffffffffffffffffffffffffffffffffffffffff1681526020016009820160a060405190810160405290816000820160009054906101000a900473ffffffffffffffffffffffffffffffffffffffff1673ffffffffffffffffffffffffffffffffffffffff1673ffffffffffffffffffffffffffffffffffffffff16815260200160018201548152602001600282018054600181600116156101000203166002900480601f0160208091040260200160405190810160405280929190818152602001828054600181600116156101000203166002900480156115fd5780601f106115d2576101008083540402835291602001916115fd565b820191906000526020600020905b8154815290600101906020018083116115e057829003601f168201915b50505050508152602001600382015481526020016004820160009054906101000a900460ff1615151515815250508152602001600e820160009054906101000a900460ff16151515158152602001600e820160019054906101000a900460ff16600381111561166857fe5b600381111561167357fe5b8152505092506001151583610140015115151415156116c7576040517f08c379a00000000000000000000000000000000000000000000000000000000081526004016116be9061535e565b60405180910390fd5b600160038111156116d457fe5b83610160015160038111156116e557fe5b141515611727576040517f08c379a000000000000000000000000000000000000000000000000000000000815260040161171e906154be565b60405180910390fd5b60011515836101200151608001511515141515611779576040517f08c379a0000000000000000000000000000000000000000000000000000000008152600401611770906152de565b60405180910390fd5b3373ffffffffffffffffffffffffffffffffffffffff1683610100015173ffffffffffffffffffffffffffffffffffffffff161415156117ee576040517f08c379a00000000000000000000000000000000000000000000000000000000081526004016117e5906152fe565b60405180910390fd5b61181c88306391ca0b797c01000000000000000000000000000000000000000000000000000000000261389c565b91506118c46040805190810160405280600681526020017f6d6574686f640000000000000000000000000000000000000000000000000000815250606060405190810160405280602281526020017f74726164656c696e6b6f776e6572686173696e73706563746c696e6b7461726781526020017f6574000000000000000000000000000000000000000000000000000000000000815250846138cd9092919063ffffffff16565b6119126040805190810160405280600b81526020017f6163636f756e744e616d650000000000000000000000000000000000000000008152508460200151846138cd9092919063ffffffff16565b6119686040805190810160405280600781526020017f737465616d4964000000000000000000000000000000000000000000000000008152506119588560400151613900565b846138cd9092919063ffffffff16565b6119b66040805190810160405280600481526020017f77656172000000000000000000000000000000000000000000000000000000008152508460600151846138cd9092919063ffffffff16565b611a046040805190810160405280600881526020017f736b696e4e616d650000000000000000000000000000000000000000000000008152508460800151846138cd9092919063ffffffff16565b611a5a6040805190810160405280600981526020017f7061696e74536565640000000000000000000000000000000000000000000000815250611a4a8560a00151613900565b846138cd9092919063ffffffff16565b6001604051908082528060200260200182016040528015611a8f57816020015b6060815260200190600190039081611a7a5790505b5090506040805190810160405280600c81526020017f636f6e7461696e734974656d0000000000000000000000000000000000000000815250816000815181101515611ad757fe5b90602001906020020181905250611b2e6040805190810160405280600881526020017f636f7079506174680000000000000000000000000000000000000000000000008152508284613a579092919063ffffffff16565b611b39898389613ad9565b9350896008600086600019166000191681526020019081526020016000208190555060028361016001906003811115611b6e57fe5b90816003811115611b7b57fe5b8152505082600760008c8152602001908152602001600020600082015181600001556020820151816001019080519060200190611bb99291906143f5565b50604082015181600201556060820151816003019080519060200190611be09291906143f5565b506080820151816004019080519060200190611bfd9291906143f5565b5060a0820151816005015560c0820151816006015560e08201518160070160006101000a81548173ffffffffffffffffffffffffffffffffffffffff021916908373ffffffffffffffffffffffffffffffffffffffff1602179055506101008201518160080160006101000a81548173ffffffffffffffffffffffffffffffffffffffff021916908373ffffffffffffffffffffffffffffffffffffffff1602179055506101208201518160090160008201518160000160006101000a81548173ffffffffffffffffffffffffffffffffffffffff021916908373ffffffffffffffffffffffffffffffffffffffff160217905550602082015181600101556040820151816002019080519060200190611d189291906143f5565b506060820151816003015560808201518160040160006101000a81548160ff021916908315150217905550505061014082015181600e0160006101000a81548160ff02191690831515021790555061016082015181600e0160016101000a81548160ff02191690836003811115611d8b57fe5b02179055509050505050509695505050505050565b600181565b600081565b606060405190810160405280602281526020017f74726164656c696e6b6f776e6572686173696e73706563746c696e6b7461726781526020017f657400000000000000000000000000000000000000000000000000000000000081525081565b600281565b611e17614354565b600060076000848152602001908152602001600020610180604051908101604052908160008201548152602001600182018054600181600116156101000203166002900480601f016020809104026020016040519081016040528092919081815260200182805460018160011615610100020316600290048015611edc5780601f10611eb157610100808354040283529160200191611edc565b820191906000526020600020905b815481529060010190602001808311611ebf57829003601f168201915b5050505050815260200160028201548152602001600382018054600181600116156101000203166002900480601f016020809104026020016040519081016040528092919081815260200182805460018160011615610100020316600290048015611f885780601f10611f5d57610100808354040283529160200191611f88565b820191906000526020600020905b815481529060010190602001808311611f6b57829003601f168201915b50505050508152602001600482018054600181600116156101000203166002900480601f01602080910402602001604051908101604052809291908181526020018280546001816001161561010002031660029004801561202a5780601f10611fff5761010080835404028352916020019161202a565b820191906000526020600020905b81548152906001019060200180831161200d57829003601f168201915b5050505050815260200160058201548152602001600682015481526020016007820160009054906101000a900473ffffffffffffffffffffffffffffffffffffffff1673ffffffffffffffffffffffffffffffffffffffff1673ffffffffffffffffffffffffffffffffffffffff1681526020016008820160009054906101000a900473ffffffffffffffffffffffffffffffffffffffff1673ffffffffffffffffffffffffffffffffffffffff1673ffffffffffffffffffffffffffffffffffffffff1681526020016009820160a060405190810160405290816000820160009054906101000a900473ffffffffffffffffffffffffffffffffffffffff1673ffffffffffffffffffffffffffffffffffffffff1673ffffffffffffffffffffffffffffffffffffffff16815260200160018201548152602001600282018054600181600116156101000203166002900480601f0160208091040260200160405190810160405280929190818152602001828054600181600116156101000203166002900480156121fd5780601f106121d2576101008083540402835291602001916121fd565b820191906000526020600020905b8154815290600101906020018083116121e057829003601f168201915b50505050508152602001600382015481526020016004820160009054906101000a900460ff1615151515815250508152602001600e820160009054906101000a900460ff16151515158152602001600e820160019054906101000a900460ff16600381111561226857fe5b600381111561227357fe5b8152505091506001151582610140015115151415156122c7576040517f08c379a00000000000000000000000000000000000000000000000000000000081526004016122be9061549e565b60405180910390fd5b60011515826101200151608001511515141515612319576040517f08c379a0000000000000000000000000000000000000000000000000000000008152600401612310906154fe565b60405180910390fd5b3373ffffffffffffffffffffffffffffffffffffffff168261012001516000015173ffffffffffffffffffffffffffffffffffffffff16141515612392576040517f08c379a0000000000000000000000000000000000000000000000000000000008152600401612389906153be565b60405180910390fd5b8161012001516020015142039050615460811115156123e6576040517f08c379a00000000000000000000000000000000000000000000000000000000081526004016123dd9061545e565b60405180910390fd5b8161012001516000015173ffffffffffffffffffffffffffffffffffffffff166108fc8360c001519081150290604051600060405180830381858888f19350505050158015612439573d6000803e3d6000fd5b5060a060405190810160405280600073ffffffffffffffffffffffffffffffffffffffff16815260200160008152602001602060405190810160405280600081525081526020016000815260200160001515815250826101200181905250600082610160019060038111156124aa57fe5b908160038111156124b757fe5b8152505081600760008581526020019081526020016000206000820151816000015560208201518160010190805190602001906124f59291906143f5565b5060408201518160020155606082015181600301908051906020019061251c9291906143f5565b5060808201518160040190805190602001906125399291906143f5565b5060a0820151816005015560c0820151816006015560e08201518160070160006101000a81548173ffffffffffffffffffffffffffffffffffffffff021916908373ffffffffffffffffffffffffffffffffffffffff1602179055506101008201518160080160006101000a81548173ffffffffffffffffffffffffffffffffffffffff021916908373ffffffffffffffffffffffffffffffffffffffff1602179055506101208201518160090160008201518160000160006101000a81548173ffffffffffffffffffffffffffffffffffffffff021916908373ffffffffffffffffffffffffffffffffffffffff1602179055506020820151816001015560408201518160020190805190602001906126549291906143f5565b506060820151816003015560808201518160040160006101000a81548160ff021916908315150217905550505061014082015181600e0160006101000a81548160ff02191690831515021790555061016082015181600e0160016101000a81548160ff021916908360038111156126c757fe5b0217905550905050505050565b6000600654905090565b6126e6614354565b60076000838152602001908152602001600020610180604051908101604052908160008201548152602001600182018054600181600116156101000203166002900480601f0160208091040260200160405190810160405280929190818152602001828054600181600116156101000203166002900480156127a95780601f1061277e576101008083540402835291602001916127a9565b820191906000526020600020905b81548152906001019060200180831161278c57829003601f168201915b5050505050815260200160028201548152602001600382018054600181600116156101000203166002900480601f0160208091040260200160405190810160405280929190818152602001828054600181600116156101000203166002900480156128555780601f1061282a57610100808354040283529160200191612855565b820191906000526020600020905b81548152906001019060200180831161283857829003601f168201915b50505050508152602001600482018054600181600116156101000203166002900480601f0160208091040260200160405190810160405280929190818152602001828054600181600116156101000203166002900480156128f75780601f106128cc576101008083540402835291602001916128f7565b820191906000526020600020905b8154815290600101906020018083116128da57829003601f168201915b5050505050815260200160058201548152602001600682015481526020016007820160009054906101000a900473ffffffffffffffffffffffffffffffffffffffff1673ffffffffffffffffffffffffffffffffffffffff1673ffffffffffffffffffffffffffffffffffffffff1681526020016008820160009054906101000a900473ffffffffffffffffffffffffffffffffffffffff1673ffffffffffffffffffffffffffffffffffffffff1673ffffffffffffffffffffffffffffffffffffffff1681526020016009820160a060405190810160405290816000820160009054906101000a900473ffffffffffffffffffffffffffffffffffffffff1673ffffffffffffffffffffffffffffffffffffffff1673ffffffffffffffffffffffffffffffffffffffff16815260200160018201548152602001600282018054600181600116156101000203166002900480601f016020809104026020016040519081016040528092919081815260200182805460018160011615610100020316600290048015612aca5780601f10612a9f57610100808354040283529160200191612aca565b820191906000526020600020905b815481529060010190602001808311612aad57829003601f168201915b50505050508152602001600382015481526020016004820160009054906101000a900460ff1615151515815250508152602001600e820160009054906101000a900460ff16151515158152602001600e820160019054906101000a900460ff166003811115612b3557fe5b6003811115612b4057fe5b815250509050600115158161014001511515141515612b94576040517f08c379a0000000000000000000000000000000000000000000000000000000008152600401612b8b906153de565b60405180910390fd5b3373ffffffffffffffffffffffffffffffffffffffff1681610100015173ffffffffffffffffffffffffffffffffffffffff16141515612c09576040517f08c379a0000000000000000000000000000000000000000000000000000000008152600401612c009061541e565b60405180910390fd5b8061012001516080015115612c6d578061012001516000015173ffffffffffffffffffffffffffffffffffffffff166108fc8260c001519081150290604051600060405180830381858888f19350505050158015612c6b573d6000803e3d6000fd5b505b600060076000848152602001908152602001600020600e0160006101000a81548160ff0219169083151502179055505050565b6000612caa6144e3565b612cb2614354565b6006600081548092919060010191905055925060a060405190810160405280600073ffffffffffffffffffffffffffffffffffffffff168152602001600081526020016020604051908101604052806000815250815260200160008152602001600015158152509150610180604051908101604052808481526020018b81526020018a81526020018981526020018881526020018781526020018681526020018573ffffffffffffffffffffffffffffffffffffffff1681526020013373ffffffffffffffffffffffffffffffffffffffff16815260200183815260200160011515815260200160006003811115612da657fe5b81525090507f245a10a35d05df5fb39ec7ef270a5409c1a7c8b148aff25fc928579b7046f68b81604051612dda919061551e565b60405180910390a18060076000858152602001908152602001600020600082015181600001556020820151816001019080519060200190612e1c9291906143f5565b50604082015181600201556060820151816003019080519060200190612e439291906143f5565b506080820151816004019080519060200190612e609291906143f5565b5060a0820151816005015560c0820151816006015560e08201518160070160006101000a81548173ffffffffffffffffffffffffffffffffffffffff021916908373ffffffffffffffffffffffffffffffffffffffff1602179055506101008201518160080160006101000a81548173ffffffffffffffffffffffffffffffffffffffff021916908373ffffffffffffffffffffffffffffffffffffffff1602179055506101208201518160090160008201518160000160006101000a81548173ffffffffffffffffffffffffffffffffffffffff021916908373ffffffffffffffffffffffffffffffffffffffff160217905550602082015181600101556040820151816002019080519060200190612f7b9291906143f5565b506060820151816003015560808201518160040160006101000a81548160ff021916908315150217905550505061014082015181600e0160006101000a81548160ff02191690831515021790555061016082015181600e0160016101000a81548160ff02191690836003811115612fee57fe5b02179055509050505050979650505050505050565b61300b614354565b60006130156144e3565b60076000878152602001908152602001600020610180604051908101604052908160008201548152602001600182018054600181600116156101000203166002900480601f0160208091040260200160405190810160405280929190818152602001828054600181600116156101000203166002900480156130d85780601f106130ad576101008083540402835291602001916130d8565b820191906000526020600020905b8154815290600101906020018083116130bb57829003601f168201915b5050505050815260200160028201548152602001600382018054600181600116156101000203166002900480601f0160208091040260200160405190810160405280929190818152602001828054600181600116156101000203166002900480156131845780601f1061315957610100808354040283529160200191613184565b820191906000526020600020905b81548152906001019060200180831161316757829003601f168201915b50505050508152602001600482018054600181600116156101000203166002900480601f0160208091040260200160405190810160405280929190818152602001828054600181600116156101000203166002900480156132265780601f106131fb57610100808354040283529160200191613226565b820191906000526020600020905b81548152906001019060200180831161320957829003601f168201915b5050505050815260200160058201548152602001600682015481526020016007820160009054906101000a900473ffffffffffffffffffffffffffffffffffffffff1673ffffffffffffffffffffffffffffffffffffffff1673ffffffffffffffffffffffffffffffffffffffff1681526020016008820160009054906101000a900473ffffffffffffffffffffffffffffffffffffffff1673ffffffffffffffffffffffffffffffffffffffff1673ffffffffffffffffffffffffffffffffffffffff1681526020016009820160a060405190810160405290816000820160009054906101000a900473ffffffffffffffffffffffffffffffffffffffff1673ffffffffffffffffffffffffffffffffffffffff1673ffffffffffffffffffffffffffffffffffffffff16815260200160018201548152602001600282018054600181600116156101000203166002900480601f0160208091040260200160405190810160405280929190818152602001828054600181600116156101000203166002900480156133f95780601f106133ce576101008083540402835291602001916133f9565b820191906000526020600020905b8154815290600101906020018083116133dc57829003601f168201915b50505050508152602001600382015481526020016004820160009054906101000a900460ff1615151515815250508152602001600e820160009054906101000a900460ff16151515158152602001600e820160019054906101000a900460ff16600381111561346457fe5b600381111561346f57fe5b8152505092506001151583610140015115151415156134c3576040517f08c379a00000000000000000000000000000000000000000000000000000000081526004016134ba906153de565b60405180910390fd5b600060038111156134d057fe5b83610160015160038111156134e157fe5b141515613523576040517f08c379a000000000000000000000000000000000000000000000000000000000815260040161351a9061531e565b60405180910390fd5b60001515836101200151608001511515141515613575576040517f08c379a000000000000000000000000000000000000000000000000000000000815260040161356c906153fe565b60405180910390fd5b348360c001511415156135bd576040517f08c379a00000000000000000000000000000000000000000000000000000000081526004016135b4906154de565b60405180910390fd5b42915060a0604051908101604052803373ffffffffffffffffffffffffffffffffffffffff168152602001838152602001868152602001858152602001600115158152509050808361012001819052506001836101600190600381111561362057fe5b9081600381111561362d57fe5b815250503373ffffffffffffffffffffffffffffffffffffffff16847f3b7d5abf104b3c32b8df109e8920024adba354e22706ad133e866fae1df6537585604051613678919061551e565b60405180910390a382600760008881526020019081526020016000206000820151816000015560208201518160010190805190602001906136ba9291906143f5565b506040820151816002015560608201518160030190805190602001906136e19291906143f5565b5060808201518160040190805190602001906136fe9291906143f5565b5060a0820151816005015560c0820151816006015560e08201518160070160006101000a81548173ffffffffffffffffffffffffffffffffffffffff021916908373ffffffffffffffffffffffffffffffffffffffff1602179055506101008201518160080160006101000a81548173ffffffffffffffffffffffffffffffffffffffff021916908373ffffffffffffffffffffffffffffffffffffffff1602179055506101208201518160090160008201518160000160006101000a81548173ffffffffffffffffffffffffffffffffffffffff021916908373ffffffffffffffffffffffffffffffffffffffff1602179055506020820151816001015560408201518160020190805190602001906138199291906143f5565b506060820151816003015560808201518160040160006101000a81548160ff021916908315150217905550505061014082015181600e0160006101000a81548160ff02191690831515021790555061016082015181600e0160016101000a81548160ff0219169083600381111561388c57fe5b0217905550905050505050505050565b6138a4614475565b6138ac614475565b6138c385858584613d6c909392919063ffffffff16565b9150509392505050565b6138e4828460800151613e2690919063ffffffff16565b6138fb818460800151613e2690919063ffffffff16565b505050565b6060600080606060008086141561394e576040805190810160405280600181526020017f30000000000000000000000000000000000000000000000000000000000000008152509450613a4e565b8593505b600084141515613978578280600101935050600a8481151561397057fe5b049350613952565b826040519080825280601f01601f1916602001820160405280156139ab5781602001602082028038833980820191505090505b5091506001830390505b600086141515613a4a57600a868115156139cb57fe5b066030017f010000000000000000000000000000000000000000000000000000000000000002828280600190039350815181101515613a0657fe5b9060200101907effffffffffffffffffffffffffffffffffffffffffffffffffffffffffffff1916908160001a905350600a86811515613a4257fe5b0495506139b5565b8194505b50505050919050565b6000613a70838560800151613e2690919063ffffffff16565b613a7d8460800151613e4b565b600090505b8151811015613ac657613ab98282815181101515613a9c57fe5b906020019060200201518560800151613e2690919063ffffffff16565b8080600101915050613a82565b613ad38460800151613e59565b50505050565b600030600454604051602001808373ffffffffffffffffffffffffffffffffffffffff1673ffffffffffffffffffffffffffffffffffffffff166c01000000000000000000000000028152601401828152602001925050506040516020818303038152906040526040518082805190602001908083835b602083101515613b755780518252602082019150602081019050602083039250613b50565b6001836020036101000a038019825116818451168082178552505050505050905001915050604051809103902090506004548360600181815250508360056000836000191660001916815260200190815260200160002060006101000a81548173ffffffffffffffffffffffffffffffffffffffff021916908373ffffffffffffffffffffffffffffffffffffffff16021790555080600019167fb5e6e01e79f91267dc17b4e6314d5d4d03593d2ceee0fbb452b750bd70ea5af960405160405180910390a2600260009054906101000a900473ffffffffffffffffffffffffffffffffffffffff1673ffffffffffffffffffffffffffffffffffffffff16634000aea08584613c8487613e67565b6040518463ffffffff167c0100000000000000000000000000000000000000000000000000000000028152600401613cbe93929190615263565b602060405180830381600087803b158015613cd857600080fd5b505af1158015613cec573d6000803e3d6000fd5b505050506040513d601f19601f82011682018060405250613d109190810190614672565b1515613d51576040517f08c379a0000000000000000000000000000000000000000000000000000000008152600401613d489061533e565b60405180910390fd5b60016004600082825401925050819055508090509392505050565b613d74614475565b613d848560800151610100613f65565b50838560000190600019169081600019168152505082856020019073ffffffffffffffffffffffffffffffffffffffff16908173ffffffffffffffffffffffffffffffffffffffff16815250508185604001907bffffffffffffffffffffffffffffffffffffffffffffffffffffffff191690817bffffffffffffffffffffffffffffffffffffffffffffffffffffffff191681525050849050949350505050565b613e338260038351613fbf565b613e46818361411d90919063ffffffff16565b505050565b613e5681600461413f565b50565b613e6481600761413f565b50565b6060600360009054906101000a900473ffffffffffffffffffffffffffffffffffffffff1673ffffffffffffffffffffffffffffffffffffffff16634042994690507c01000000000000000000000000000000000000000000000000000000000260008084600001518560200151866040015187606001516001896080015160000151604051602401613f019897969594939291906151de565b604051602081830303815290604052907bffffffffffffffffffffffffffffffffffffffffffffffffffffffff19166020820180517bffffffffffffffffffffffffffffffffffffffffffffffffffffffff83818316178352505050509050919050565b613f6d61452b565b6000602083811515613f7b57fe5b06141515613f9857602082811515613f8f57fe5b06602003820191505b81836020018181525050604051808452600081528281016020016040525082905092915050565b601781111515613ff157613feb8160058460ff169060020a0260ff16178461416490919063ffffffff16565b50614118565b60ff811115156140385761401b601860058460ff169060020a02178461416490919063ffffffff16565b50614032816001856141849092919063ffffffff16565b50614117565b61ffff8111151561408057614063601960058460ff169060020a02178461416490919063ffffffff16565b5061407a816002856141849092919063ffffffff16565b50614116565b63ffffffff811115156140ca576140ad601a60058460ff169060020a02178461416490919063ffffffff16565b506140c4816004856141849092919063ffffffff16565b50614115565b67ffffffffffffffff81111515614114576140fb601b60058460ff169060020a02178461416490919063ffffffff16565b50614112816008856141849092919063ffffffff16565b505b5b5b5b5b505050565b61412561452b565b614137838460000151518485516141a6565b905092915050565b61415f601f60058360ff169060020a02178361416490919063ffffffff16565b505050565b61416c61452b565b61417c8384600001515184614263565b905092915050565b61418c61452b565b61419d8485600001515185856142b3565b90509392505050565b6141ae61452b565b6000806000855185111515156141c357600080fd5b876020015185880111156141ee576141ed8860026141e78b602001518b8a01614314565b02614330565b5b87518051886020830101945080898801111561420a5788870182525b60208801935050505b6020851015156142385781518352602083019250602082019150602085039450614213565b6001856020036101000a03905080198251168184511681811785525050879350505050949350505050565b61426b61452b565b83602001518310151561428a57614289846002866020015102614330565b5b83518051602085830101848153818614156142a6576001820183525b5050508390509392505050565b6142bb61452b565b6000856020015185840111156142db576142da86600287860102614330565b5b6001836101000a03905085518386820101858319825116178152815185880111156143065784870182525b505085915050949350505050565b6000818311156143265782905061432a565b8190505b92915050565b6060826000015190506143438383613f65565b5061434e838261411d565b50505050565b6102006040519081016040528060008152602001606081526020016000815260200160608152602001606081526020016000815260200160008152602001600073ffffffffffffffffffffffffffffffffffffffff168152602001600073ffffffffffffffffffffffffffffffffffffffff1681526020016143d4614545565b8152602001600015158152602001600060038111156143ef57fe5b81525090565b828054600181600116156101000203166002900490600052602060002090601f016020900481019282601f1061443657805160ff1916838001178555614464565b82800160010185558215614464579182015b82811115614463578251825591602001919060010190614448565b5b509050614471919061458d565b5090565b60c06040519081016040528060008019168152602001600073ffffffffffffffffffffffffffffffffffffffff16815260200160007bffffffffffffffffffffffffffffffffffffffffffffffffffffffff19168152602001600081526020016144dd6145b2565b81525090565b60a060405190810160405280600073ffffffffffffffffffffffffffffffffffffffff1681526020016000815260200160608152602001600081526020016000151581525090565b604080519081016040528060608152602001600081525090565b60a060405190810160405280600073ffffffffffffffffffffffffffffffffffffffff1681526020016000815260200160608152602001600081526020016000151581525090565b6145af91905b808211156145ab576000816000905550600101614593565b5090565b90565b604080519081016040528060608152602001600081525090565b60006145d8823561569d565b905092915050565b60006145ec82516156bd565b905092915050565b600061460082356156c9565b905092915050565b600082601f830112151561461b57600080fd5b813561462e614629826155b8565b61558b565b9150808252602083016020830185838301111561464a57600080fd5b614655838284615701565b50505092915050565b600061466a82356156d3565b905092915050565b60006020828403121561468457600080fd5b6000614692848285016145e0565b91505092915050565b600080604083850312156146ae57600080fd5b60006146bc858286016145f4565b92505060206146cd8582860161465e565b9150509250929050565b600080600080600080600060e0888a0312156146f257600080fd5b600088013567ffffffffffffffff81111561470c57600080fd5b6147188a828b01614608565b97505060206147298a828b0161465e565b965050604088013567ffffffffffffffff81111561474657600080fd5b6147528a828b01614608565b955050606088013567ffffffffffffffff81111561476f57600080fd5b61477b8a828b01614608565b945050608061478c8a828b0161465e565b93505060a061479d8a828b0161465e565b92505060c06147ae8a828b016145cc565b91505092959891949750929550565b6000602082840312156147cf57600080fd5b60006147dd8482850161465e565b91505092915050565b60008060008060008060c087890312156147ff57600080fd5b600061480d89828a0161465e565b965050602061481e89828a016145cc565b955050604061482f89828a016145f4565b945050606061484089828a0161465e565b935050608087013567ffffffffffffffff81111561485d57600080fd5b61486989828a01614608565b92505060a087013567ffffffffffffffff81111561488657600080fd5b61489289828a01614608565b9150509295509295509295565b6000806000606084860312156148b457600080fd5b60006148c28682870161465e565b935050602084013567ffffffffffffffff8111156148df57600080fd5b6148eb86828701614608565b92505060406148fc8682870161465e565b9150509250925092565b61490f81615605565b82525050565b61491e81615625565b82525050565b61492d81615631565b82525050565b61493c8161563b565b82525050565b600061494d826155ef565b808452614961816020860160208601615710565b61496a81615743565b602085010191505092915050565b6000614983826155e4565b808452614997816020860160208601615710565b6149a081615743565b602085010191505092915050565b6149b7816156dd565b82525050565b6149c6816156ef565b82525050565b60006149d7826155fa565b8084526149eb816020860160208601615710565b6149f481615743565b602085010191505092915050565b6000602382527f5468657265206973206e6f207075726368617365206f6666657220707265736560208301527f6e742e00000000000000000000000000000000000000000000000000000000006040830152606082019050919050565b6000602e82527f4f6e6c7920746865206f776e65722063616e20636f6e6669726d20707572636860208301527f6173652066756c66696c6d656e740000000000000000000000000000000000006040830152606082019050919050565b6000601f82527f4c697374696e67206973206e6f74206f70656e20666f72206f66666572732e006020830152604082019050919050565b6000602382527f756e61626c6520746f207472616e73666572416e6443616c6c20746f206f726160208301527f636c6500000000000000000000000000000000000000000000000000000000006040830152606082019050919050565b6000602c82527f5468657265206973206e6f206c697374696e6720746f20636f6e6669726d207460208301527f72616e7366657220666f722e00000000000000000000000000000000000000006040830152606082019050919050565b6000603882527f5f6f776e657273686970537461747573206973206e6f742077697468696e207460208301527f6865206b6e6f776e2072616e6765206f662076616c75657300000000000000006040830152606082019050919050565b6000602d82527f4c697374696e67206973206e6f742070656e64696e67207472616e736665722060208301527f636f6e6669726d6174696f6e2e000000000000000000000000000000000000006040830152606082019050919050565b6000602c82527f4f6e6c7920746865206f776e65722063616e2064656c6574652074686520707560208301527f726368617365206f6666657200000000000000000000000000000000000000006040830152606082019050919050565b6000601782527f4c697374696e6720646f6573206e6f742065786973742e0000000000000000006020830152604082019050919050565b6000602582527f4c697374696e6720616c7265616479206861732061207075726368617365206f60208301527f666665722e0000000000000000000000000000000000000000000000000000006040830152606082019050919050565b6000602682527f4f6e6c7920746865206f776e65722063616e2064656c65746520686973206c6960208301527f7374696e672e00000000000000000000000000000000000000000000000000006040830152606082019050919050565b6000602182527f5468657265206973206e6f206c697374696e672077697468207468617420696460208301527f2e000000000000000000000000000000000000000000000000000000000000006040830152606082019050919050565b6000603782527f546865206d696e696d756d20626c6f636b2061676520726571756972656d656e60208301527f74206e6f74206d657420666f722064656c6574696f6e2e0000000000000000006040830152606082019050919050565b6000602882527f536f75726365206d75737420626520746865206f7261636c65206f662074686560208301527f20726571756573740000000000000000000000000000000000000000000000006040830152606082019050919050565b6000603582527f5468657265206973206e6f206c697374696e6720746f2064656c65746520746860208301527f65207075726368617365206f6666657220666f722e00000000000000000000006040830152606082019050919050565b6000602a82527f546865206c697374696e6720686173206e6f742079657420726563656976656460208301527f20616e206f666665722e000000000000000000000000000000000000000000006040830152606082019050919050565b6000602882527f56616c75652073656e7420646f6573206e6f74206d61746368206c697374696e60208301527f672070726963652e0000000000000000000000000000000000000000000000006040830152606082019050919050565b6000603582527f5468657265206973206e6f207075726368617365206f6666657220746f20646560208301527f6c65746520666f7220746865206c697374696e672e00000000000000000000006040830152606082019050919050565b60006101808301600083015161505960008601826151cf565b506020830151848203602086015261507182826149cc565b915050604083015161508660408601826151cf565b506060830151848203606086015261509e82826149cc565b915050608083015184820360808601526150b882826149cc565b91505060a08301516150cd60a08601826151cf565b5060c08301516150e060c08601826151cf565b5060e08301516150f360e0860182614906565b50610100830151615108610100860182614906565b506101208301518482036101208601526151228282615159565b915050610140830151615139610140860182614915565b5061016083015161514e6101608601826149ae565b508091505092915050565b600060a0830160008301516151716000860182614906565b50602083015161518460208601826151cf565b506040830151848203604086015261519c82826149cc565b91505060608301516151b160608601826151cf565b5060808301516151c46080860182614915565b508091505092915050565b6151d881615693565b82525050565b6000610100820190506151f4600083018b614906565b615201602083018a6151cf565b61520e6040830189614924565b61521b6060830188614906565b6152286080830187614933565b61523560a08301866151cf565b61524260c08301856151cf565b81810360e08301526152548184614978565b90509998505050505050505050565b60006060820190506152786000830186614906565b61528560208301856151cf565b81810360408301526152978184614942565b9050949350505050565b60006020820190506152b66000830184614924565b92915050565b600060208201905081810360008301526152d681846149cc565b905092915050565b600060208201905081810360008301526152f781614a02565b9050919050565b6000602082019050818103600083015261531781614a5f565b9050919050565b6000602082019050818103600083015261533781614abc565b9050919050565b6000602082019050818103600083015261535781614af3565b9050919050565b6000602082019050818103600083015261537781614b50565b9050919050565b6000602082019050818103600083015261539781614bad565b9050919050565b600060208201905081810360008301526153b781614c0a565b9050919050565b600060208201905081810360008301526153d781614c67565b9050919050565b600060208201905081810360008301526153f781614cc4565b9050919050565b6000602082019050818103600083015261541781614cfb565b9050919050565b6000602082019050818103600083015261543781614d58565b9050919050565b6000602082019050818103600083015261545781614db5565b9050919050565b6000602082019050818103600083015261547781614e12565b9050919050565b6000602082019050818103600083015261549781614e6f565b9050919050565b600060208201905081810360008301526154b781614ecc565b9050919050565b600060208201905081810360008301526154d781614f29565b9050919050565b600060208201905081810360008301526154f781614f86565b9050919050565b6000602082019050818103600083015261551781614fe3565b9050919050565b600060208201905081810360008301526155388184615040565b905092915050565b6000604082019050818103600083015261555a8185615040565b905061556960208301846149bd565b9392505050565b600060208201905061558560008301846151cf565b92915050565b6000604051905081810181811067ffffffffffffffff821117156155ae57600080fd5b8060405250919050565b600067ffffffffffffffff8211156155cf57600080fd5b601f19601f8301169050602081019050919050565b600081519050919050565b600081519050919050565b600081519050919050565b600073ffffffffffffffffffffffffffffffffffffffff82169050919050565b60008115159050919050565b6000819050919050565b60007fffffffff0000000000000000000000000000000000000000000000000000000082169050919050565b600060048210151561567557fe5b819050919050565b600060028210151561568b57fe5b819050919050565b6000819050919050565b600073ffffffffffffffffffffffffffffffffffffffff82169050919050565b60008115159050919050565b6000819050919050565b6000819050919050565b60006156e882615667565b9050919050565b60006156fa8261567d565b9050919050565b82818337600083830152505050565b60005b8381101561572e578082015181840152602081019050615713565b8381111561573d576000848401525b50505050565b6000601f19601f83011690509190505600a265627a7a72305820a835ce8ae5f42186e6dc77e84c56cd5e3d6cf6c08f2d4612f94189e860b8854c6c6578706572696d656e74616cf50037",
  "source": "pragma solidity ^0.4.24;\npragma experimental ABIEncoderV2;\n\nimport \"chainlink/contracts/ChainlinkClient.sol\";\n\n\ncontract CSGOSteamTrade is ChainlinkClient {\n    // 6 hours\n    uint public constant MINIMUM_PURCHASE_OFFER_AGE = 60 * 60 * 6;\n    string public constant CHECK_INVENTORY_CONTAINS_ITEM_METHOD = \"tradelinkownerhasinspectlinktarget\";\n    uint256 constant private ORACLE_PAYMENT = 1 * LINK;\n\n    uint256 constant public OWNERSHIP_STATUS_FALSE = 0;\n    uint256 constant public OWNERSHIP_STATUS_TRUE = 1;\n    uint256 constant public OWNERSHIP_STATUS_INVENTORY_PRIVATE = 2;\n\n    enum ListingStage {OPEN, RECEIVED_OFFER, PENDING_TRANSFER_CONFIRMATON, DONE }\n    \n    struct PurchaseOffer {\n        address owner;\n        uint creationTimestamp;\n        string buyerSteamAccountName;\n        uint buyerAccountSteamId;\n        bool exists;\n    }\n\n    struct Listing {\n        uint listingId;\n        string ownerSteamAccountName;\n        uint accountSteamId;\n        string wear;\n        string skinName;\n        uint paintSeed;\n        uint price;\n        address sellerEthereumAdress;\n        address owner;\n        PurchaseOffer purchaseOffer;\n        bool exists;\n        ListingStage stage;\n    }\n\n    event ListingCreation(\n        Listing listing\n    );\n\n    event PurchaseOfferMade(\n        uint indexed buyerAccountSteamId,\n        address indexed buyerEthereumAddress,\n        Listing listing\n    );\n\n    enum TradeOutcome { SUCCESSFULLY_CONFIRMED, UNABLE_TO_CONFIRM_PRIVATE_PROFILE }\n\n    event TradeDone (\n        Listing listing,\n        TradeOutcome tradeOutcome\n    );\n\n    event TradeFulfilmentFail (\n        Listing listing\n    );\n\n    uint numListings = 0;\n    mapping(uint => Listing) listings;\n\n    mapping(bytes32 => uint) requestIdToListingId;\n    \n    /**\n    * @notice Deploy the contract with a specified address for the LINK\n    * and Oracle contract addresses\n    * @dev Sets the storage for the specified addresses\n    * @param _link The address of the LINK token contract\n    */\n    constructor(address _link) public {\n        if (_link == address(0)) {\n        setPublicChainlinkToken();\n        } else {\n        setChainlinkToken(_link);\n        }\n    }\n    \n    function createListing(string _ownerSteamAccountName, uint _accountSteamId, string memory _wear,\n        string memory _skinName, uint _paintSeed, uint _price, address _sellerEthereumAdress) public returns (uint listingId) {\n        listingId = numListings++;\n        PurchaseOffer memory placeholder = PurchaseOffer(0, 0, '', 0, false);\n        Listing memory listing = Listing(listingId, _ownerSteamAccountName, _accountSteamId, _wear, _skinName, _paintSeed,\n            _price, _sellerEthereumAdress, msg.sender, placeholder, true, ListingStage.OPEN);\n        emit ListingCreation(listing);\n        listings[listingId] = listing;\n    }\n    \n    function getListing(uint _listingId) public view returns (Listing memory listing) {\n        listing = listings[_listingId];\n    }\n\n    function getListingsCount() public view returns (uint) {\n        return numListings;\n    }\n    \n    function deleteListing(uint _listingId) public {\n        Listing memory listing = listings[_listingId];\n        require(listing.exists == true,  \"Listing does not exist.\");\n        require(listing.owner == msg.sender, \"Only the owner can delete his listing.\");\n\n        if (listing.purchaseOffer.exists) {\n            // return funds\n            listing.purchaseOffer.owner.transfer(listing.price);\n        }\n        \n        listings[_listingId].exists = false;\n    }\n\n    function createPurchaseOffer(uint _listingId, string _buyerSteamAccountName, uint _buyerAccountSteamId) public payable {\n        Listing memory listing = listings[_listingId];\n        require(listing.exists == true, \"Listing does not exist.\");\n        require(listing.stage == ListingStage.OPEN, \"Listing is not open for offers.\");\n        require(listing.purchaseOffer.exists == false, \"Listing already has a purchase offer.\");\n        require(listing.price == msg.value, \"Value sent does not match listing price.\");\n\n        uint currentTimestamp = block.timestamp;\n        PurchaseOffer memory purchaseOffer = PurchaseOffer(msg.sender, currentTimestamp, _buyerSteamAccountName, _buyerAccountSteamId, true);\n        listing.purchaseOffer = purchaseOffer;\n        listing.stage = ListingStage.RECEIVED_OFFER;\n\n        emit PurchaseOfferMade(_buyerAccountSteamId, msg.sender, listing);\n        listings[_listingId] = listing;\n    }\n\n    function deletePurchaseOffer(uint _listingId) public {\n        Listing memory listing = listings[_listingId];\n        require(listing.exists == true, \"There is no listing to delete the purchase offer for.\");\n        require(listing.purchaseOffer.exists == true, \"There is no purchase offer to delete for the listing.\");\n        require(listing.purchaseOffer.owner == msg.sender, \"Only the owner can delete the purchase offer\");\n\n        uint secondsSinceOfferCreation = block.timestamp - listing.purchaseOffer.creationTimestamp;\n        require(secondsSinceOfferCreation > MINIMUM_PURCHASE_OFFER_AGE, \"The minimum block age requirement not met for deletion.\");\n\n        // send the funds back to the owner of the purchase offer.\n        listing.purchaseOffer.owner.transfer(listing.price);\n\n        listing.purchaseOffer = PurchaseOffer(0, 0, '', 0, false);\n        listing.stage = ListingStage.OPEN;\n        listings[_listingId] = listing;\n    }\n\n    function createItemTransferConfirmationRequest(\n        uint _listingId,\n        address _oracle,\n        bytes32 _jobId,\n        uint256 _payment,\n        string _url,\n        string _path)\n        public\n        returns (bytes32 requestId) {\n\n        Listing memory listing = listings[_listingId];\n        require(listing.exists == true, \"There is no listing to confirm transfer for.\");\n        require(listing.stage == ListingStage.RECEIVED_OFFER, \"The listing has not yet received an offer.\");\n        require(listing.purchaseOffer.exists == true, \"There is no purchase offer present.\");\n        require(listing.owner == msg.sender, \"Only the owner can confirm purchase fulfilment\");\n        \n        Chainlink.Request memory req = buildChainlinkRequest(_jobId,\n            this,\n            this.fulfillItemTransferConfirmation.selector);\n            \n        req.add(\"method\", CHECK_INVENTORY_CONTAINS_ITEM_METHOD);\n        req.add(\"accountName\", listing.ownerSteamAccountName);\n        req.add(\"steamId\", uint2str(listing.accountSteamId));\n        req.add(\"wear\", listing.wear);\n        req.add(\"skinName\", listing.skinName);\n        req.add(\"paintSeed\", uint2str(listing.paintSeed));\n        \n        string[] memory path = new string[](1);\n        path[0] = \"containsItem\";\n        req.addStringArray(\"copyPath\", path);\n\n        requestId = sendChainlinkRequestTo(_oracle, req, _payment);\n        requestIdToListingId[requestId] = _listingId;\n\n        listing.stage = ListingStage.PENDING_TRANSFER_CONFIRMATON;\n        listings[_listingId] = listing;\n    }\n\n    /**\n   * @notice The fulfill method from requests created by this contract\n   * @dev The recordChainlinkFulfillment protects this function from being called\n   * by anyone other than the oracle address that the request was sent to\n   * @param _requestId The ID that was generated for the request\n   * @param _ownershipStatus The answer provided by the oracle\n   */\n    function fulfillItemTransferConfirmation(bytes32 _requestId, uint256 _ownershipStatus)\n        public\n        recordChainlinkFulfillment(_requestId) {\n        uint listingId = requestIdToListingId[_requestId];\n        Listing memory listing = listings[listingId];\n        require(listing.exists == true, \"There is no listing with that id.\");\n        require(listing.stage == ListingStage.PENDING_TRANSFER_CONFIRMATON, \"Listing is not pending transfer confirmation.\");\n        require(_ownershipStatus >= 0 && _ownershipStatus <= 2, \"_ownershipStatus is not within the known range of values\");\n\n        if (_ownershipStatus == OWNERSHIP_STATUS_TRUE) {\n            listing.stage = ListingStage.DONE;\n            listing.sellerEthereumAdress.transfer(listing.price);\n            emit TradeDone(listing, TradeOutcome.SUCCESSFULLY_CONFIRMED);\n        } else if (_ownershipStatus == OWNERSHIP_STATUS_INVENTORY_PRIVATE) {\n            listing.stage = ListingStage.DONE;\n            listing.sellerEthereumAdress.transfer(listing.price);\n            emit TradeDone(listing, TradeOutcome.UNABLE_TO_CONFIRM_PRIVATE_PROFILE);\n        } else if (_ownershipStatus == OWNERSHIP_STATUS_FALSE) {\n            emit TradeFulfilmentFail(listing);\n        }\n        \n        listings[listingId] = listing;\n    }\n\n    /**\n     * @notice Converts a uint to a string. Extracted from https://github.com/provable-things/ethereum-api/blob/master/oraclizeAPI_0.5.sol\n     */\n    function uint2str(uint _i) internal pure returns (string memory _uintAsString) {\n        if (_i == 0) {\n            return \"0\";\n        }\n        uint j = _i;\n        uint len;\n        while (j != 0) {\n            len++;\n            j /= 10;\n        }\n        bytes memory bstr = new bytes(len);\n        uint k = len - 1;\n        while (_i != 0) {\n            bstr[k--] = byte(uint8(48 + _i % 10));\n            _i /= 10;\n        }\n        return string(bstr);\n    }\n}",
  "sourcePath": "/Users/dan/moneywork/csgo-steam-eth-trade/csgo-trade-contract/contracts/CSGOSteamTrade.sol",
  "compiler": {
    "name": "solc",
    "version": "0.4.24+commit.e67f0147.Emscripten.clang"
  },
  "schemaVersion": "3.0.16",
  "updatedAt": "2019-12-08T06:36:31.464Z",
  "devdoc": {
    "methods": {
      "fulfillItemTransferConfirmation(bytes32,uint256)": {
        "details": "The recordChainlinkFulfillment protects this function from being called by anyone other than the oracle address that the request was sent to",
        "params": {
          "_ownershipStatus": "The answer provided by the oracle",
          "_requestId": "The ID that was generated for the request"
        }
      }
    }
  },
  "userdoc": {
    "methods": {
      "fulfillItemTransferConfirmation(bytes32,uint256)": {
        "notice": "The fulfill method from requests created by this contract"
      }
    }
  }
}