{
  "contractName": "CSGOSteamTrade",
  "abi": [
    {
      "constant": true,
      "inputs": [],
      "name": "MINIMUM_PURCHASE_OFFER_AGE",
      "outputs": [
        {
          "name": "",
          "type": "uint256"
        }
      ],
      "payable": false,
      "stateMutability": "view",
      "type": "function"
    },
    {
      "constant": true,
      "inputs": [],
      "name": "owner",
      "outputs": [
        {
          "name": "",
          "type": "address"
        }
      ],
      "payable": false,
      "stateMutability": "view",
      "type": "function"
    },
    {
      "constant": true,
      "inputs": [],
      "name": "isOwner",
      "outputs": [
        {
          "name": "",
          "type": "bool"
        }
      ],
      "payable": false,
      "stateMutability": "view",
      "type": "function"
    },
    {
      "constant": true,
      "inputs": [],
      "name": "OWNERSHIP_STATUS_TRUE",
      "outputs": [
        {
          "name": "",
          "type": "uint256"
        }
      ],
      "payable": false,
      "stateMutability": "view",
      "type": "function"
    },
    {
      "constant": true,
      "inputs": [],
      "name": "OWNERSHIP_STATUS_FALSE",
      "outputs": [
        {
          "name": "",
          "type": "uint256"
        }
      ],
      "payable": false,
      "stateMutability": "view",
      "type": "function"
    },
    {
      "constant": true,
      "inputs": [
        {
          "name": "",
          "type": "address"
        }
      ],
      "name": "linkTokenFunds",
      "outputs": [
        {
          "name": "",
          "type": "uint256"
        }
      ],
      "payable": false,
      "stateMutability": "view",
      "type": "function"
    },
    {
      "constant": true,
      "inputs": [],
      "name": "CHECK_INVENTORY_CONTAINS_ITEM_METHOD",
      "outputs": [
        {
          "name": "",
          "type": "string"
        }
      ],
      "payable": false,
      "stateMutability": "view",
      "type": "function"
    },
    {
      "constant": true,
      "inputs": [],
      "name": "OWNERSHIP_STATUS_INVENTORY_PRIVATE",
      "outputs": [
        {
          "name": "",
          "type": "uint256"
        }
      ],
      "payable": false,
      "stateMutability": "view",
      "type": "function"
    },
    {
      "constant": false,
      "inputs": [
        {
          "name": "newOwner",
          "type": "address"
        }
      ],
      "name": "transferOwnership",
      "outputs": [],
      "payable": false,
      "stateMutability": "nonpayable",
      "type": "function"
    },
    {
      "inputs": [
        {
          "name": "_link",
          "type": "address"
        }
      ],
      "payable": false,
      "stateMutability": "nonpayable",
      "type": "constructor"
    },
    {
      "anonymous": false,
      "inputs": [
        {
          "components": [
            {
              "name": "listingId",
              "type": "uint256"
            },
            {
              "name": "ownerInspectLink",
              "type": "string"
            },
            {
              "name": "wear",
              "type": "string"
            },
            {
              "name": "skinName",
              "type": "string"
            },
            {
              "name": "paintSeed",
              "type": "uint256"
            },
            {
              "name": "extraItemData",
              "type": "string"
            },
            {
              "name": "price",
              "type": "uint256"
            },
            {
              "name": "sellerAddress",
              "type": "address"
            },
            {
              "components": [
                {
                  "name": "owner",
                  "type": "address"
                },
                {
                  "name": "creationTimestamp",
                  "type": "uint256"
                },
                {
                  "name": "buyerTradeURL",
                  "type": "string"
                },
                {
                  "name": "exists",
                  "type": "bool"
                }
              ],
              "name": "purchaseOffer",
              "type": "tuple"
            },
            {
              "name": "exists",
              "type": "bool"
            }
          ],
          "indexed": false,
          "name": "listing",
          "type": "tuple"
        }
      ],
      "name": "ListingCreation",
      "type": "event"
    },
    {
      "anonymous": false,
      "inputs": [
        {
          "indexed": true,
          "name": "buyerTradeURL",
          "type": "string"
        },
        {
          "indexed": true,
          "name": "buyerAddress",
          "type": "address"
        },
        {
          "components": [
            {
              "name": "listingId",
              "type": "uint256"
            },
            {
              "name": "ownerInspectLink",
              "type": "string"
            },
            {
              "name": "wear",
              "type": "string"
            },
            {
              "name": "skinName",
              "type": "string"
            },
            {
              "name": "paintSeed",
              "type": "uint256"
            },
            {
              "name": "extraItemData",
              "type": "string"
            },
            {
              "name": "price",
              "type": "uint256"
            },
            {
              "name": "sellerAddress",
              "type": "address"
            },
            {
              "components": [
                {
                  "name": "owner",
                  "type": "address"
                },
                {
                  "name": "creationTimestamp",
                  "type": "uint256"
                },
                {
                  "name": "buyerTradeURL",
                  "type": "string"
                },
                {
                  "name": "exists",
                  "type": "bool"
                }
              ],
              "name": "purchaseOffer",
              "type": "tuple"
            },
            {
              "name": "exists",
              "type": "bool"
            }
          ],
          "indexed": false,
          "name": "listing",
          "type": "tuple"
        }
      ],
      "name": "PurchaseOfferMade",
      "type": "event"
    },
    {
      "anonymous": false,
      "inputs": [
        {
          "indexed": true,
          "name": "buyerTradeURL",
          "type": "string"
        },
        {
          "indexed": true,
          "name": "buyerAddress",
          "type": "address"
        },
        {
          "components": [
            {
              "name": "listingId",
              "type": "uint256"
            },
            {
              "name": "ownerInspectLink",
              "type": "string"
            },
            {
              "name": "wear",
              "type": "string"
            },
            {
              "name": "skinName",
              "type": "string"
            },
            {
              "name": "paintSeed",
              "type": "uint256"
            },
            {
              "name": "extraItemData",
              "type": "string"
            },
            {
              "name": "price",
              "type": "uint256"
            },
            {
              "name": "sellerAddress",
              "type": "address"
            },
            {
              "components": [
                {
                  "name": "owner",
                  "type": "address"
                },
                {
                  "name": "creationTimestamp",
                  "type": "uint256"
                },
                {
                  "name": "buyerTradeURL",
                  "type": "string"
                },
                {
                  "name": "exists",
                  "type": "bool"
                }
              ],
              "name": "purchaseOffer",
              "type": "tuple"
            },
            {
              "name": "exists",
              "type": "bool"
            }
          ],
          "indexed": false,
          "name": "listing",
          "type": "tuple"
        },
        {
          "indexed": false,
          "name": "tradeOutcome",
          "type": "uint8"
        }
      ],
      "name": "TradeDone",
      "type": "event"
    },
    {
      "anonymous": false,
      "inputs": [
        {
          "components": [
            {
              "name": "listingId",
              "type": "uint256"
            },
            {
              "name": "ownerInspectLink",
              "type": "string"
            },
            {
              "name": "wear",
              "type": "string"
            },
            {
              "name": "skinName",
              "type": "string"
            },
            {
              "name": "paintSeed",
              "type": "uint256"
            },
            {
              "name": "extraItemData",
              "type": "string"
            },
            {
              "name": "price",
              "type": "uint256"
            },
            {
              "name": "sellerAddress",
              "type": "address"
            },
            {
              "components": [
                {
                  "name": "owner",
                  "type": "address"
                },
                {
                  "name": "creationTimestamp",
                  "type": "uint256"
                },
                {
                  "name": "buyerTradeURL",
                  "type": "string"
                },
                {
                  "name": "exists",
                  "type": "bool"
                }
              ],
              "name": "purchaseOffer",
              "type": "tuple"
            },
            {
              "name": "exists",
              "type": "bool"
            }
          ],
          "indexed": false,
          "name": "listing",
          "type": "tuple"
        }
      ],
      "name": "TradeFulfilmentFail",
      "type": "event"
    },
    {
      "anonymous": false,
      "inputs": [
        {
          "indexed": false,
          "name": "sender",
          "type": "address"
        },
        {
          "indexed": false,
          "name": "amount",
          "type": "uint256"
        },
        {
          "indexed": false,
          "name": "data",
          "type": "bytes"
        }
      ],
      "name": "LinkFundsReceived",
      "type": "event"
    },
    {
      "anonymous": false,
      "inputs": [
        {
          "indexed": true,
          "name": "previousOwner",
          "type": "address"
        },
        {
          "indexed": true,
          "name": "newOwner",
          "type": "address"
        }
      ],
      "name": "OwnershipTransferred",
      "type": "event"
    },
    {
      "anonymous": false,
      "inputs": [
        {
          "indexed": true,
          "name": "id",
          "type": "bytes32"
        }
      ],
      "name": "ChainlinkRequested",
      "type": "event"
    },
    {
      "anonymous": false,
      "inputs": [
        {
          "indexed": true,
          "name": "id",
          "type": "bytes32"
        }
      ],
      "name": "ChainlinkFulfilled",
      "type": "event"
    },
    {
      "anonymous": false,
      "inputs": [
        {
          "indexed": true,
          "name": "id",
          "type": "bytes32"
        }
      ],
      "name": "ChainlinkCancelled",
      "type": "event"
    },
    {
      "constant": false,
      "inputs": [
        {
          "name": "_ownerInspectLink",
          "type": "string"
        },
        {
          "name": "_wear",
          "type": "string"
        },
        {
          "name": "_skinName",
          "type": "string"
        },
        {
          "name": "_paintSeed",
          "type": "uint256"
        },
        {
          "name": "_extraItemData",
          "type": "string"
        },
        {
          "name": "_price",
          "type": "uint256"
        }
      ],
      "name": "createListing",
      "outputs": [
        {
          "name": "listingId",
          "type": "uint256"
        }
      ],
      "payable": false,
      "stateMutability": "nonpayable",
      "type": "function"
    },
    {
      "constant": true,
      "inputs": [
        {
          "name": "_listingId",
          "type": "uint256"
        }
      ],
      "name": "getListing",
      "outputs": [
        {
          "components": [
            {
              "name": "listingId",
              "type": "uint256"
            },
            {
              "name": "ownerInspectLink",
              "type": "string"
            },
            {
              "name": "wear",
              "type": "string"
            },
            {
              "name": "skinName",
              "type": "string"
            },
            {
              "name": "paintSeed",
              "type": "uint256"
            },
            {
              "name": "extraItemData",
              "type": "string"
            },
            {
              "name": "price",
              "type": "uint256"
            },
            {
              "name": "sellerAddress",
              "type": "address"
            },
            {
              "components": [
                {
                  "name": "owner",
                  "type": "address"
                },
                {
                  "name": "creationTimestamp",
                  "type": "uint256"
                },
                {
                  "name": "buyerTradeURL",
                  "type": "string"
                },
                {
                  "name": "exists",
                  "type": "bool"
                }
              ],
              "name": "purchaseOffer",
              "type": "tuple"
            },
            {
              "name": "exists",
              "type": "bool"
            }
          ],
          "name": "listing",
          "type": "tuple"
        }
      ],
      "payable": false,
      "stateMutability": "view",
      "type": "function"
    },
    {
      "constant": true,
      "inputs": [],
      "name": "getListingsCount",
      "outputs": [
        {
          "name": "",
          "type": "uint256"
        }
      ],
      "payable": false,
      "stateMutability": "view",
      "type": "function"
    },
    {
      "constant": false,
      "inputs": [
        {
          "name": "_listingId",
          "type": "uint256"
        }
      ],
      "name": "deleteListing",
      "outputs": [],
      "payable": false,
      "stateMutability": "nonpayable",
      "type": "function"
    },
    {
      "constant": false,
      "inputs": [
        {
          "name": "_listingId",
          "type": "uint256"
        },
        {
          "name": "_buyerTradeURL",
          "type": "string"
        }
      ],
      "name": "createPurchaseOffer",
      "outputs": [],
      "payable": true,
      "stateMutability": "payable",
      "type": "function"
    },
    {
      "constant": false,
      "inputs": [
        {
          "name": "_listingId",
          "type": "uint256"
        }
      ],
      "name": "deletePurchaseOffer",
      "outputs": [],
      "payable": false,
      "stateMutability": "nonpayable",
      "type": "function"
    },
    {
      "constant": false,
      "inputs": [
        {
          "name": "_listingId",
          "type": "uint256"
        },
        {
          "name": "_oracle",
          "type": "address"
        },
        {
          "name": "_jobId",
          "type": "bytes32"
        },
        {
          "name": "_payment",
          "type": "uint256"
        },
        {
          "name": "_buyerInspectLink",
          "type": "string"
        }
      ],
      "name": "createItemTransferConfirmationRequest",
      "outputs": [
        {
          "name": "requestId",
          "type": "bytes32"
        }
      ],
      "payable": false,
      "stateMutability": "nonpayable",
      "type": "function"
    },
    {
      "constant": false,
      "inputs": [
        {
          "name": "_requestId",
          "type": "bytes32"
        },
        {
          "name": "_ownershipStatus",
          "type": "uint256"
        }
      ],
      "name": "fulfillItemTransferConfirmation",
      "outputs": [],
      "payable": false,
      "stateMutability": "nonpayable",
      "type": "function"
    },
    {
      "constant": false,
      "inputs": [
        {
          "name": "_requestId",
          "type": "bytes32"
        },
        {
          "name": "_payment",
          "type": "uint256"
        },
        {
          "name": "_expiration",
          "type": "uint256"
        }
      ],
      "name": "cancelRequest",
      "outputs": [],
      "payable": false,
      "stateMutability": "nonpayable",
      "type": "function"
    },
    {
      "constant": false,
      "inputs": [
        {
          "name": "_sender",
          "type": "address"
        },
        {
          "name": "_amount",
          "type": "uint256"
        },
        {
          "name": "_data",
          "type": "bytes"
        }
      ],
      "name": "onTokenTransfer",
      "outputs": [],
      "payable": false,
      "stateMutability": "nonpayable",
      "type": "function"
    },
    {
      "constant": false,
      "inputs": [
        {
          "name": "_amount",
          "type": "uint256"
        }
      ],
      "name": "withdrawLink",
      "outputs": [],
      "payable": false,
      "stateMutability": "nonpayable",
      "type": "function"
    },
    {
      "constant": true,
      "inputs": [
        {
          "name": "_account",
          "type": "address"
        }
      ],
      "name": "balanceOfLink",
      "outputs": [
        {
          "name": "",
          "type": "uint256"
        }
      ],
      "payable": false,
      "stateMutability": "view",
      "type": "function"
    }
  ],
  "bytecode": "0x6080604052600160045560006008553480156200001b57600080fd5b50604051602080620062b183398101806040526200003d919081019062000262565b33600660006101000a81548173ffffffffffffffffffffffffffffffffffffffff021916908373ffffffffffffffffffffffffffffffffffffffff160217905550600660009054906101000a900473ffffffffffffffffffffffffffffffffffffffff1673ffffffffffffffffffffffffffffffffffffffff16600073ffffffffffffffffffffffffffffffffffffffff167f8be0079c531659141344cd1fd0a4f28419497f9722a3daafe3b4186f6b6457e060405160405180910390a3600073ffffffffffffffffffffffffffffffffffffffff168173ffffffffffffffffffffffffffffffffffffffff1614156200014757620001416200016060201b60201c565b62000159565b62000158816200020860201b60201c565b5b50620002c2565b6200020673c89bd4e1632d3a43cb03aaad5262cbe4038bc57173ffffffffffffffffffffffffffffffffffffffff166338cc48316040518163ffffffff1660e01b815260040160206040518083038186803b158015620001bf57600080fd5b505afa158015620001d4573d6000803e3d6000fd5b505050506040513d601f19601f82011682018060405250620001fa919081019062000262565b6200020860201b60201c565b565b80600260006101000a81548173ffffffffffffffffffffffffffffffffffffffff021916908373ffffffffffffffffffffffffffffffffffffffff16021790555050565b60006200025a82516200028e565b905092915050565b6000602082840312156200027557600080fd5b600062000285848285016200024c565b91505092915050565b60006200029b82620002a2565b9050919050565b600073ffffffffffffffffffffffffffffffffffffffff82169050919050565b615fdf80620002d26000396000f3fe60806040526004361061012a5760003560e01c8063b0c6e3a0116100ab578063c8b3d7631161006f578063c8b3d763146103f4578063c8b63c5114610431578063cbaa068f1461045a578063d209be1e14610485578063e6282c6e146104a1578063f2fde38b146104ca5761012a565b8063b0c6e3a01461030b578063b4e31a2214610336578063b8def4b914610361578063bf486b701461039e578063c6d9b5f7146103c95761012a565b80638c64c812116100f25780638c64c812146102265780638da5cb5b146102635780638f32d59b1461028e57806391ca0b79146102b9578063a4c0ed36146102e25761012a565b8063107a274a1461012f57806333bfcdd81461016c5780634af4b4e6146101955780637a8042bd146101c057806382ed1972146101e9575b600080fd5b34801561013b57600080fd5b5061015660048036036101519190810190614d4c565b6104f3565b6040516101639190615c38565b60405180910390f35b34801561017857600080fd5b50610193600480360361018e9190810190614c14565b610969565b005b3480156101a157600080fd5b506101aa6109c8565b6040516101b79190615c8a565b60405180910390f35b3480156101cc57600080fd5b506101e760048036036101e29190810190614d4c565b6109ce565b005b3480156101f557600080fd5b50610210600480360361020b9190810190614b1f565b610b48565b60405161021d9190615c8a565b60405180910390f35b34801561023257600080fd5b5061024d60048036036102489190810190614d75565b610b91565b60405161025a9190615956565b60405180910390f35b34801561026f57600080fd5b506102786115a6565b6040516102859190615834565b60405180910390f35b34801561029a57600080fd5b506102a36115d0565b6040516102b0919061593b565b60405180910390f35b3480156102c557600080fd5b506102e060048036036102db9190810190614bd8565b611628565b005b3480156102ee57600080fd5b5061030960048036036103049190810190614b48565b611f25565b005b34801561031757600080fd5b5061032061206f565b60405161032d9190615c8a565b60405180910390f35b34801561034257600080fd5b5061034b612074565b6040516103589190615c8a565b60405180910390f35b34801561036d57600080fd5b5061038860048036036103839190810190614b1f565b612079565b6040516103959190615c8a565b60405180910390f35b3480156103aa57600080fd5b506103b3612091565b6040516103c091906159b6565b60405180910390f35b3480156103d557600080fd5b506103de6120ad565b6040516103eb9190615c8a565b60405180910390f35b34801561040057600080fd5b5061041b60048036036104169190810190614c63565b6120b2565b6040516104289190615c8a565b60405180910390f35b34801561043d57600080fd5b5061045860048036036104539190810190614d4c565b612326565b005b34801561046657600080fd5b5061046f612bfa565b60405161047c9190615c8a565b60405180910390f35b61049f600480360361049a9190810190614e04565b612c04565b005b3480156104ad57600080fd5b506104c860048036036104c39190810190614d4c565b6133f9565b005b3480156104d657600080fd5b506104f160048036036104ec9190810190614b1f565b613b10565b005b6104fb6147f0565b600960008381526020019081526020016000206040518061014001604052908160008201548152602001600182018054600181600116156101000203166002900480601f0160208091040260200160405190810160405280929190818152602001828054600181600116156101000203166002900480156105bd5780601f10610592576101008083540402835291602001916105bd565b820191906000526020600020905b8154815290600101906020018083116105a057829003601f168201915b50505050508152602001600282018054600181600116156101000203166002900480601f01602080910402602001604051908101604052809291908181526020018280546001816001161561010002031660029004801561065f5780601f106106345761010080835404028352916020019161065f565b820191906000526020600020905b81548152906001019060200180831161064257829003601f168201915b50505050508152602001600382018054600181600116156101000203166002900480601f0160208091040260200160405190810160405280929190818152602001828054600181600116156101000203166002900480156107015780601f106106d657610100808354040283529160200191610701565b820191906000526020600020905b8154815290600101906020018083116106e457829003601f168201915b5050505050815260200160048201548152602001600582018054600181600116156101000203166002900480601f0160208091040260200160405190810160405280929190818152602001828054600181600116156101000203166002900480156107ad5780601f10610782576101008083540402835291602001916107ad565b820191906000526020600020905b81548152906001019060200180831161079057829003601f168201915b50505050508152602001600682015481526020016007820160009054906101000a900473ffffffffffffffffffffffffffffffffffffffff1673ffffffffffffffffffffffffffffffffffffffff1673ffffffffffffffffffffffffffffffffffffffff168152602001600882016040518060800160405290816000820160009054906101000a900473ffffffffffffffffffffffffffffffffffffffff1673ffffffffffffffffffffffffffffffffffffffff1673ffffffffffffffffffffffffffffffffffffffff16815260200160018201548152602001600282018054600181600116156101000203166002900480601f01602080910402602001604051908101604052809291908181526020018280546001816001161561010002031660029004801561091f5780601f106108f45761010080835404028352916020019161091f565b820191906000526020600020905b81548152906001019060200180831161090257829003601f168201915b505050505081526020016003820160009054906101000a900460ff1615151515815250508152602001600c820160009054906101000a900460ff1615151515815250509050919050565b6109716115d0565b6109b0576040517f08c379a00000000000000000000000000000000000000000000000000000000081526004016109a790615b58565b60405180910390fd5b6109c383836391ca0b7960e01b84613b63565b505050565b61546081565b60006109d8613c76565b9050610a2c82600760003373ffffffffffffffffffffffffffffffffffffffff1673ffffffffffffffffffffffffffffffffffffffff16815260200190815260200160002054613ca090919063ffffffff16565b600760003373ffffffffffffffffffffffffffffffffffffffff1673ffffffffffffffffffffffffffffffffffffffff168152602001908152602001600020600082825403925050819055508073ffffffffffffffffffffffffffffffffffffffff1663a9059cbb33846040518363ffffffff1660e01b8152600401610ab392919061584f565b602060405180830381600087803b158015610acd57600080fd5b505af1158015610ae1573d6000803e3d6000fd5b505050506040513d601f19601f82011682018060405250610b059190810190614baf565b610b44576040517f08c379a0000000000000000000000000000000000000000000000000000000008152600401610b3b90615a18565b60405180910390fd5b5050565b6000600760008373ffffffffffffffffffffffffffffffffffffffff1673ffffffffffffffffffffffffffffffffffffffff168152602001908152602001600020549050919050565b6000853373ffffffffffffffffffffffffffffffffffffffff166009600083815260200190815260200160002060070160009054906101000a900473ffffffffffffffffffffffffffffffffffffffff1673ffffffffffffffffffffffffffffffffffffffff1614610c38576040517f08c379a0000000000000000000000000000000000000000000000000000000008152600401610c2f90615b78565b60405180910390fd5b83600760003373ffffffffffffffffffffffffffffffffffffffff1673ffffffffffffffffffffffffffffffffffffffff168152602001908152602001600020541015610cba576040517f08c379a0000000000000000000000000000000000000000000000000000000008152600401610cb190615b38565b60405180910390fd5b610cc26147f0565b600960008981526020019081526020016000206040518061014001604052908160008201548152602001600182018054600181600116156101000203166002900480601f016020809104026020016040519081016040528092919081815260200182805460018160011615610100020316600290048015610d845780601f10610d5957610100808354040283529160200191610d84565b820191906000526020600020905b815481529060010190602001808311610d6757829003601f168201915b50505050508152602001600282018054600181600116156101000203166002900480601f016020809104026020016040519081016040528092919081815260200182805460018160011615610100020316600290048015610e265780601f10610dfb57610100808354040283529160200191610e26565b820191906000526020600020905b815481529060010190602001808311610e0957829003601f168201915b50505050508152602001600382018054600181600116156101000203166002900480601f016020809104026020016040519081016040528092919081815260200182805460018160011615610100020316600290048015610ec85780601f10610e9d57610100808354040283529160200191610ec8565b820191906000526020600020905b815481529060010190602001808311610eab57829003601f168201915b5050505050815260200160048201548152602001600582018054600181600116156101000203166002900480601f016020809104026020016040519081016040528092919081815260200182805460018160011615610100020316600290048015610f745780601f10610f4957610100808354040283529160200191610f74565b820191906000526020600020905b815481529060010190602001808311610f5757829003601f168201915b50505050508152602001600682015481526020016007820160009054906101000a900473ffffffffffffffffffffffffffffffffffffffff1673ffffffffffffffffffffffffffffffffffffffff1673ffffffffffffffffffffffffffffffffffffffff168152602001600882016040518060800160405290816000820160009054906101000a900473ffffffffffffffffffffffffffffffffffffffff1673ffffffffffffffffffffffffffffffffffffffff1673ffffffffffffffffffffffffffffffffffffffff16815260200160018201548152602001600282018054600181600116156101000203166002900480601f0160208091040260200160405190810160405280929190818152602001828054600181600116156101000203166002900480156110e65780601f106110bb576101008083540402835291602001916110e6565b820191906000526020600020905b8154815290600101906020018083116110c957829003601f168201915b505050505081526020016003820160009054906101000a900460ff1615151515815250508152602001600c820160009054906101000a900460ff1615151515815250509050600115158161012001511515146040518060400160405280601181526020017f4c697374696e67206e6f7420666f756e64000000000000000000000000000000815250906111af576040517f08c379a00000000000000000000000000000000000000000000000000000000081526004016111a691906159b6565b60405180910390fd5b506001151581610100015160600151151514611200576040517f08c379a00000000000000000000000000000000000000000000000000000000081526004016111f790615c18565b60405180910390fd5b611208614861565b61121a87306391ca0b7960e01b613cf6565b905061127e6040518060400160405280600681526020017f6d6574686f640000000000000000000000000000000000000000000000000000815250604051806060016040528060218152602001615f856021913983613d279092919063ffffffff16565b6112c86040518060400160405280600b81526020017f696e73706563744c696e6b0000000000000000000000000000000000000000008152508683613d279092919063ffffffff16565b61131b6040518060400160405280600881526020017f747261646555524c0000000000000000000000000000000000000000000000008152508361010001516040015183613d279092919063ffffffff16565b6113696040518060400160405280600481526020017f7765617200000000000000000000000000000000000000000000000000000000815250836040015183613d279092919063ffffffff16565b6113b76040518060400160405280600881526020017f736b696e4e616d65000000000000000000000000000000000000000000000000815250836060015183613d279092919063ffffffff16565b61140d6040518060400160405280600981526020017f7061696e745365656400000000000000000000000000000000000000000000008152506113fd8460800151613d5a565b83613d279092919063ffffffff16565b6060600160405190808252806020026020018201604052801561144457816020015b606081526020019060019003908161142f5790505b5090506040518060400160405280600c81526020017f636f6e7461696e734974656d00000000000000000000000000000000000000008152508160008151811061148a57fe5b60200260200101819052506114df6040518060400160405280600881526020017f636f7079506174680000000000000000000000000000000000000000000000008152508284613e879092919063ffffffff16565b6114ea898389613f04565b945089600a60008781526020019081526020016000208190555061155687600760003373ffffffffffffffffffffffffffffffffffffffff1673ffffffffffffffffffffffffffffffffffffffff16815260200190815260200160002054613ca090919063ffffffff16565b600760003373ffffffffffffffffffffffffffffffffffffffff1673ffffffffffffffffffffffffffffffffffffffff168152602001908152602001600020819055505050505095945050505050565b6000600660009054906101000a900473ffffffffffffffffffffffffffffffffffffffff16905090565b6000600660009054906101000a900473ffffffffffffffffffffffffffffffffffffffff1673ffffffffffffffffffffffffffffffffffffffff163373ffffffffffffffffffffffffffffffffffffffff1614905090565b816005600082815260200190815260200160002060009054906101000a900473ffffffffffffffffffffffffffffffffffffffff1673ffffffffffffffffffffffffffffffffffffffff163373ffffffffffffffffffffffffffffffffffffffff16146116ca576040517f08c379a00000000000000000000000000000000000000000000000000000000081526004016116c190615bd8565b60405180910390fd5b6005600082815260200190815260200160002060006101000a81549073ffffffffffffffffffffffffffffffffffffffff0219169055807f7cc135e0cebb02c3480ae5d74d377283180a2601f8f644edf7987b009316c63a60405160405180910390a26000600a600085815260200190815260200160002054905061174d6147f0565b600960008381526020019081526020016000206040518061014001604052908160008201548152602001600182018054600181600116156101000203166002900480601f01602080910402602001604051908101604052809291908181526020018280546001816001161561010002031660029004801561180f5780601f106117e45761010080835404028352916020019161180f565b820191906000526020600020905b8154815290600101906020018083116117f257829003601f168201915b50505050508152602001600282018054600181600116156101000203166002900480601f0160208091040260200160405190810160405280929190818152602001828054600181600116156101000203166002900480156118b15780601f10611886576101008083540402835291602001916118b1565b820191906000526020600020905b81548152906001019060200180831161189457829003601f168201915b50505050508152602001600382018054600181600116156101000203166002900480601f0160208091040260200160405190810160405280929190818152602001828054600181600116156101000203166002900480156119535780601f1061192857610100808354040283529160200191611953565b820191906000526020600020905b81548152906001019060200180831161193657829003601f168201915b5050505050815260200160048201548152602001600582018054600181600116156101000203166002900480601f0160208091040260200160405190810160405280929190818152602001828054600181600116156101000203166002900480156119ff5780601f106119d4576101008083540402835291602001916119ff565b820191906000526020600020905b8154815290600101906020018083116119e257829003601f168201915b50505050508152602001600682015481526020016007820160009054906101000a900473ffffffffffffffffffffffffffffffffffffffff1673ffffffffffffffffffffffffffffffffffffffff1673ffffffffffffffffffffffffffffffffffffffff168152602001600882016040518060800160405290816000820160009054906101000a900473ffffffffffffffffffffffffffffffffffffffff1673ffffffffffffffffffffffffffffffffffffffff1673ffffffffffffffffffffffffffffffffffffffff16815260200160018201548152602001600282018054600181600116156101000203166002900480601f016020809104026020016040519081016040528092919081815260200182805460018160011615610100020316600290048015611b715780601f10611b4657610100808354040283529160200191611b71565b820191906000526020600020905b815481529060010190602001808311611b5457829003601f168201915b505050505081526020016003820160009054906101000a900460ff1615151515815250508152602001600c820160009054906101000a900460ff1615151515815250509050600115158161012001511515146040518060400160405280601181526020017f4c697374696e67206e6f7420666f756e6400000000000000000000000000000081525090611c3a576040517f08c379a0000000000000000000000000000000000000000000000000000000008152600401611c3191906159b6565b60405180910390fd5b506001151581610100015160600151151514611c8b576040517f08c379a0000000000000000000000000000000000000000000000000000000008152600401611c8290615b98565b60405180910390fd5b6001841415611d90578060e0015173ffffffffffffffffffffffffffffffffffffffff166108fc8260c001519081150290604051600060405180830381858888f19350505050158015611ce2573d6000803e3d6000fd5b508061010001516000015173ffffffffffffffffffffffffffffffffffffffff1681610100015160400151604051611d1a91906157f1565b60405180910390207f605be04fcd02ac6746870632461fcbbbd524668fa24cf233eef9cc36d400dfee836000604051611d54929190615c5a565b60405180910390a3600060096000848152602001908152602001600020600c0160006101000a81548160ff021916908315150217905550611f1e565b6002841415611e95578060e0015173ffffffffffffffffffffffffffffffffffffffff166108fc8260c001519081150290604051600060405180830381858888f19350505050158015611de7573d6000803e3d6000fd5b508061010001516000015173ffffffffffffffffffffffffffffffffffffffff1681610100015160400151604051611e1f91906157f1565b60405180910390207f605be04fcd02ac6746870632461fcbbbd524668fa24cf233eef9cc36d400dfee836001604051611e59929190615c5a565b60405180910390a3600060096000848152602001908152602001600020600c0160006101000a81548160ff021916908315150217905550611f1d565b6000841415611eda577f0eeeb64e033b0a06c275c4b633e27f9af17e1cfc06ee48a03cd1f46f4339334881604051611ecd9190615c38565b60405180910390a1611f1c565b6000611f1b576040517f08c379a0000000000000000000000000000000000000000000000000000000008152600401611f1290615a98565b60405180910390fd5b5b5b5b5050505050565b611f2d613c76565b73ffffffffffffffffffffffffffffffffffffffff163373ffffffffffffffffffffffffffffffffffffffff1614611f9a576040517f08c379a0000000000000000000000000000000000000000000000000000000008152600401611f91906159d8565b60405180910390fd5b7f4952ebe151ba8094091e56306252f4a4ab7ceb8cb157740cc35d9201cb6f83cd838383604051611fcd939291906158fd565b60405180910390a161202782600760008673ffffffffffffffffffffffffffffffffffffffff1673ffffffffffffffffffffffffffffffffffffffff168152602001908152602001600020546140d190919063ffffffff16565b600760008573ffffffffffffffffffffffffffffffffffffffff1673ffffffffffffffffffffffffffffffffffffffff16815260200190815260200160002081905550505050565b600181565b600081565b60076020528060005260406000206000915090505481565b604051806060016040528060218152602001615f856021913981565b600281565b6000600860008154809291906001019190505590506120cf6148ce565b6120d76147f0565b6040518061014001604052808481526020018a81526020018981526020018881526020018781526020018681526020018581526020013373ffffffffffffffffffffffffffffffffffffffff1681526020018381526020016001151581525090507fe539b388b6d741575d61aa86403070db849788f2c5e5ff1bcccd3b5e675a74cc816040516121679190615c38565b60405180910390a180600960008581526020019081526020016000206000820151816000015560208201518160010190805190602001906121a992919061490e565b5060408201518160020190805190602001906121c692919061490e565b5060608201518160030190805190602001906121e392919061490e565b506080820151816004015560a082015181600501908051906020019061220a92919061490e565b5060c0820151816006015560e08201518160070160006101000a81548173ffffffffffffffffffffffffffffffffffffffff021916908373ffffffffffffffffffffffffffffffffffffffff1602179055506101008201518160080160008201518160000160006101000a81548173ffffffffffffffffffffffffffffffffffffffff021916908373ffffffffffffffffffffffffffffffffffffffff1602179055506020820151816001015560408201518160020190805190602001906122d392919061490e565b5060608201518160030160006101000a81548160ff021916908315150217905550505061012082015181600c0160006101000a81548160ff02191690831515021790555090505050509695505050505050565b803373ffffffffffffffffffffffffffffffffffffffff166009600083815260200190815260200160002060080160000160009054906101000a900473ffffffffffffffffffffffffffffffffffffffff1673ffffffffffffffffffffffffffffffffffffffff16146123ce576040517f08c379a00000000000000000000000000000000000000000000000000000000081526004016123c590615a78565b60405180910390fd5b6123d66147f0565b600960008481526020019081526020016000206040518061014001604052908160008201548152602001600182018054600181600116156101000203166002900480601f0160208091040260200160405190810160405280929190818152602001828054600181600116156101000203166002900480156124985780601f1061246d57610100808354040283529160200191612498565b820191906000526020600020905b81548152906001019060200180831161247b57829003601f168201915b50505050508152602001600282018054600181600116156101000203166002900480601f01602080910402602001604051908101604052809291908181526020018280546001816001161561010002031660029004801561253a5780601f1061250f5761010080835404028352916020019161253a565b820191906000526020600020905b81548152906001019060200180831161251d57829003601f168201915b50505050508152602001600382018054600181600116156101000203166002900480601f0160208091040260200160405190810160405280929190818152602001828054600181600116156101000203166002900480156125dc5780601f106125b1576101008083540402835291602001916125dc565b820191906000526020600020905b8154815290600101906020018083116125bf57829003601f168201915b5050505050815260200160048201548152602001600582018054600181600116156101000203166002900480601f0160208091040260200160405190810160405280929190818152602001828054600181600116156101000203166002900480156126885780601f1061265d57610100808354040283529160200191612688565b820191906000526020600020905b81548152906001019060200180831161266b57829003601f168201915b50505050508152602001600682015481526020016007820160009054906101000a900473ffffffffffffffffffffffffffffffffffffffff1673ffffffffffffffffffffffffffffffffffffffff1673ffffffffffffffffffffffffffffffffffffffff168152602001600882016040518060800160405290816000820160009054906101000a900473ffffffffffffffffffffffffffffffffffffffff1673ffffffffffffffffffffffffffffffffffffffff1673ffffffffffffffffffffffffffffffffffffffff16815260200160018201548152602001600282018054600181600116156101000203166002900480601f0160208091040260200160405190810160405280929190818152602001828054600181600116156101000203166002900480156127fa5780601f106127cf576101008083540402835291602001916127fa565b820191906000526020600020905b8154815290600101906020018083116127dd57829003601f168201915b505050505081526020016003820160009054906101000a900460ff1615151515815250508152602001600c820160009054906101000a900460ff1615151515815250509050600115158161012001511515146040518060400160405280601181526020017f4c697374696e67206e6f7420666f756e64000000000000000000000000000000815250906128c3576040517f08c379a00000000000000000000000000000000000000000000000000000000081526004016128ba91906159b6565b60405180910390fd5b506001151581610100015160600151151514612914576040517f08c379a000000000000000000000000000000000000000000000000000000000815260040161290b90615bb8565b60405180910390fd5b3373ffffffffffffffffffffffffffffffffffffffff168161010001516000015173ffffffffffffffffffffffffffffffffffffffff161461298b576040517f08c379a000000000000000000000000000000000000000000000000000000000815260040161298290615b18565b60405180910390fd5b6000816101000151602001514203905061546081116129df576040517f08c379a00000000000000000000000000000000000000000000000000000000081526004016129d690615af8565b60405180910390fd5b8161010001516000015173ffffffffffffffffffffffffffffffffffffffff166108fc8360c001519081150290604051600060405180830381858888f19350505050158015612a32573d6000803e3d6000fd5b50600082610100015160600190151590811515815250508160096000868152602001908152602001600020600082015181600001556020820151816001019080519060200190612a8392919061490e565b506040820151816002019080519060200190612aa092919061490e565b506060820151816003019080519060200190612abd92919061490e565b506080820151816004015560a0820151816005019080519060200190612ae492919061490e565b5060c0820151816006015560e08201518160070160006101000a81548173ffffffffffffffffffffffffffffffffffffffff021916908373ffffffffffffffffffffffffffffffffffffffff1602179055506101008201518160080160008201518160000160006101000a81548173ffffffffffffffffffffffffffffffffffffffff021916908373ffffffffffffffffffffffffffffffffffffffff160217905550602082015181600101556040820151816002019080519060200190612bad92919061490e565b5060608201518160030160006101000a81548160ff021916908315150217905550505061012082015181600c0160006101000a81548160ff02191690831515021790555090505050505050565b6000600854905090565b612c0c6147f0565b600960008481526020019081526020016000206040518061014001604052908160008201548152602001600182018054600181600116156101000203166002900480601f016020809104026020016040519081016040528092919081815260200182805460018160011615610100020316600290048015612cce5780601f10612ca357610100808354040283529160200191612cce565b820191906000526020600020905b815481529060010190602001808311612cb157829003601f168201915b50505050508152602001600282018054600181600116156101000203166002900480601f016020809104026020016040519081016040528092919081815260200182805460018160011615610100020316600290048015612d705780601f10612d4557610100808354040283529160200191612d70565b820191906000526020600020905b815481529060010190602001808311612d5357829003601f168201915b50505050508152602001600382018054600181600116156101000203166002900480601f016020809104026020016040519081016040528092919081815260200182805460018160011615610100020316600290048015612e125780601f10612de757610100808354040283529160200191612e12565b820191906000526020600020905b815481529060010190602001808311612df557829003601f168201915b5050505050815260200160048201548152602001600582018054600181600116156101000203166002900480601f016020809104026020016040519081016040528092919081815260200182805460018160011615610100020316600290048015612ebe5780601f10612e9357610100808354040283529160200191612ebe565b820191906000526020600020905b815481529060010190602001808311612ea157829003601f168201915b50505050508152602001600682015481526020016007820160009054906101000a900473ffffffffffffffffffffffffffffffffffffffff1673ffffffffffffffffffffffffffffffffffffffff1673ffffffffffffffffffffffffffffffffffffffff168152602001600882016040518060800160405290816000820160009054906101000a900473ffffffffffffffffffffffffffffffffffffffff1673ffffffffffffffffffffffffffffffffffffffff1673ffffffffffffffffffffffffffffffffffffffff16815260200160018201548152602001600282018054600181600116156101000203166002900480601f0160208091040260200160405190810160405280929190818152602001828054600181600116156101000203166002900480156130305780601f1061300557610100808354040283529160200191613030565b820191906000526020600020905b81548152906001019060200180831161301357829003601f168201915b505050505081526020016003820160009054906101000a900460ff1615151515815250508152602001600c820160009054906101000a900460ff1615151515815250509050600115158161012001511515146040518060400160405280601181526020017f4c697374696e67206e6f7420666f756e64000000000000000000000000000000815250906130f9576040517f08c379a00000000000000000000000000000000000000000000000000000000081526004016130f091906159b6565b60405180910390fd5b50600015158161010001516060015115151461314a576040517f08c379a000000000000000000000000000000000000000000000000000000000815260040161314190615bf8565b60405180910390fd5b348160c0015114613190576040517f08c379a000000000000000000000000000000000000000000000000000000000815260040161318790615ab8565b60405180910390fd5b600042905061319d6148ce565b60405180608001604052803373ffffffffffffffffffffffffffffffffffffffff168152602001838152602001858152602001600115158152509050808361010001819052503373ffffffffffffffffffffffffffffffffffffffff16846040516132089190615808565b60405180910390207f2414a6846fd51791dcac3602f18917f301617892ec0d5de2d6858a64abf7c86c8560405161323f9190615c38565b60405180910390a3826009600087815260200190815260200160002060008201518160000155602082015181600101908051906020019061328192919061490e565b50604082015181600201908051906020019061329e92919061490e565b5060608201518160030190805190602001906132bb92919061490e565b506080820151816004015560a08201518160050190805190602001906132e292919061490e565b5060c0820151816006015560e08201518160070160006101000a81548173ffffffffffffffffffffffffffffffffffffffff021916908373ffffffffffffffffffffffffffffffffffffffff1602179055506101008201518160080160008201518160000160006101000a81548173ffffffffffffffffffffffffffffffffffffffff021916908373ffffffffffffffffffffffffffffffffffffffff1602179055506020820151816001015560408201518160020190805190602001906133ab92919061490e565b5060608201518160030160006101000a81548160ff021916908315150217905550505061012082015181600c0160006101000a81548160ff0219169083151502179055509050505050505050565b803373ffffffffffffffffffffffffffffffffffffffff166009600083815260200190815260200160002060070160009054906101000a900473ffffffffffffffffffffffffffffffffffffffff1673ffffffffffffffffffffffffffffffffffffffff161461349e576040517f08c379a000000000000000000000000000000000000000000000000000000000815260040161349590615b78565b60405180910390fd5b6134a66147f0565b600960008481526020019081526020016000206040518061014001604052908160008201548152602001600182018054600181600116156101000203166002900480601f0160208091040260200160405190810160405280929190818152602001828054600181600116156101000203166002900480156135685780601f1061353d57610100808354040283529160200191613568565b820191906000526020600020905b81548152906001019060200180831161354b57829003601f168201915b50505050508152602001600282018054600181600116156101000203166002900480601f01602080910402602001604051908101604052809291908181526020018280546001816001161561010002031660029004801561360a5780601f106135df5761010080835404028352916020019161360a565b820191906000526020600020905b8154815290600101906020018083116135ed57829003601f168201915b50505050508152602001600382018054600181600116156101000203166002900480601f0160208091040260200160405190810160405280929190818152602001828054600181600116156101000203166002900480156136ac5780601f10613681576101008083540402835291602001916136ac565b820191906000526020600020905b81548152906001019060200180831161368f57829003601f168201915b5050505050815260200160048201548152602001600582018054600181600116156101000203166002900480601f0160208091040260200160405190810160405280929190818152602001828054600181600116156101000203166002900480156137585780601f1061372d57610100808354040283529160200191613758565b820191906000526020600020905b81548152906001019060200180831161373b57829003601f168201915b50505050508152602001600682015481526020016007820160009054906101000a900473ffffffffffffffffffffffffffffffffffffffff1673ffffffffffffffffffffffffffffffffffffffff1673ffffffffffffffffffffffffffffffffffffffff168152602001600882016040518060800160405290816000820160009054906101000a900473ffffffffffffffffffffffffffffffffffffffff1673ffffffffffffffffffffffffffffffffffffffff1673ffffffffffffffffffffffffffffffffffffffff16815260200160018201548152602001600282018054600181600116156101000203166002900480601f0160208091040260200160405190810160405280929190818152602001828054600181600116156101000203166002900480156138ca5780601f1061389f576101008083540402835291602001916138ca565b820191906000526020600020905b8154815290600101906020018083116138ad57829003601f168201915b505050505081526020016003820160009054906101000a900460ff1615151515815250508152602001600c820160009054906101000a900460ff1615151515815250509050600115158161012001511515146040518060400160405280601181526020017f4c697374696e67206e6f7420666f756e6400000000000000000000000000000081525090613993576040517f08c379a000000000000000000000000000000000000000000000000000000000815260040161398a91906159b6565b60405180910390fd5b508061010001516060015115613a75578061010001516000015173ffffffffffffffffffffffffffffffffffffffff166108fc8260c001519081150290604051600060405180830381858888f193505050501580156139f6573d6000803e3d6000fd5b508061010001516000015173ffffffffffffffffffffffffffffffffffffffff1681610100015160400151604051613a2e91906157f1565b60405180910390207f605be04fcd02ac6746870632461fcbbbd524668fa24cf233eef9cc36d400dfee836002604051613a68929190615c5a565b60405180910390a3613adc565b600073ffffffffffffffffffffffffffffffffffffffff16604051613a999061581f565b60405180910390207f605be04fcd02ac6746870632461fcbbbd524668fa24cf233eef9cc36d400dfee836002604051613ad3929190615c5a565b60405180910390a35b600060096000858152602001908152602001600020600c0160006101000a81548160ff021916908315150217905550505050565b613b186115d0565b613b57576040517f08c379a0000000000000000000000000000000000000000000000000000000008152600401613b4e90615b58565b60405180910390fd5b613b6081614126565b50565b60006005600086815260200190815260200160002060009054906101000a900473ffffffffffffffffffffffffffffffffffffffff1690506005600086815260200190815260200160002060006101000a81549073ffffffffffffffffffffffffffffffffffffffff0219169055847fe1fe3afa0f7f761ff0a8b89086790efd5140d2907ebd5b7ff6bfcb5e075fd4c560405160405180910390a28073ffffffffffffffffffffffffffffffffffffffff16636ee4d553868686866040518563ffffffff1660e01b8152600401613c3d9493929190615971565b600060405180830381600087803b158015613c5757600080fd5b505af1158015613c6b573d6000803e3d6000fd5b505050505050505050565b6000600260009054906101000a900473ffffffffffffffffffffffffffffffffffffffff16905090565b600082821115613ce5576040517f08c379a0000000000000000000000000000000000000000000000000000000008152600401613cdc90615ad8565b60405180910390fd5b600082840390508091505092915050565b613cfe614861565b613d06614861565b613d1d85858584614256909392919063ffffffff16565b9150509392505050565b613d3e82846080015161430690919063ffffffff16565b613d5581846080015161430690919063ffffffff16565b505050565b60606000821415613da2576040518060400160405280600181526020017f30000000000000000000000000000000000000000000000000000000000000008152509050613e82565b600082905060005b60008214613dcc578080600101915050600a8281613dc457fe5b049150613daa565b6060816040519080825280601f01601f191660200182016040528015613e015781602001600182028038833980820191505090505b50905060006001830390505b60008614613e7a57600a8681613e1f57fe5b0660300160f81b82828060019003935081518110613e3957fe5b60200101907effffffffffffffffffffffffffffffffffffffffffffffffffffffffffffff1916908160001a905350600a8681613e7257fe5b049550613e0d565b819450505050505b919050565b613e9e82846080015161430690919063ffffffff16565b613eab836080015161432b565b60008090505b8151811015613ef157613ee4828281518110613ec957fe5b6020026020010151856080015161430690919063ffffffff16565b8080600101915050613eb1565b50613eff8360800151614339565b505050565b600030600454604051602001613f1b9291906157c5565b604051602081830303815290604052805190602001209050600454836060018181525050836005600083815260200190815260200160002060006101000a81548173ffffffffffffffffffffffffffffffffffffffff021916908373ffffffffffffffffffffffffffffffffffffffff160217905550807fb5e6e01e79f91267dc17b4e6314d5d4d03593d2ceee0fbb452b750bd70ea5af960405160405180910390a2600260009054906101000a900473ffffffffffffffffffffffffffffffffffffffff1673ffffffffffffffffffffffffffffffffffffffff16634000aea0858461400787614347565b6040518463ffffffff1660e01b8152600401614025939291906158fd565b602060405180830381600087803b15801561403f57600080fd5b505af1158015614053573d6000803e3d6000fd5b505050506040513d601f19601f820116820180604052506140779190810190614baf565b6140b6576040517f08c379a00000000000000000000000000000000000000000000000000000000081526004016140ad90615a58565b60405180910390fd5b60016004600082825401925050819055508090509392505050565b60008082840190508381101561411c576040517f08c379a000000000000000000000000000000000000000000000000000000000815260040161411390615a38565b60405180910390fd5b8091505092915050565b600073ffffffffffffffffffffffffffffffffffffffff168173ffffffffffffffffffffffffffffffffffffffff161415614196576040517f08c379a000000000000000000000000000000000000000000000000000000000815260040161418d906159f8565b60405180910390fd5b8073ffffffffffffffffffffffffffffffffffffffff16600660009054906101000a900473ffffffffffffffffffffffffffffffffffffffff1673ffffffffffffffffffffffffffffffffffffffff167f8be0079c531659141344cd1fd0a4f28419497f9722a3daafe3b4186f6b6457e060405160405180910390a380600660006101000a81548173ffffffffffffffffffffffffffffffffffffffff021916908373ffffffffffffffffffffffffffffffffffffffff16021790555050565b61425e614861565b61426e8560800151610100614429565b508385600001818152505082856020019073ffffffffffffffffffffffffffffffffffffffff16908173ffffffffffffffffffffffffffffffffffffffff16815250508185604001907bffffffffffffffffffffffffffffffffffffffffffffffffffffffff191690817bffffffffffffffffffffffffffffffffffffffffffffffffffffffff191681525050849050949350505050565b614313826003835161447d565b61432681836145c290919063ffffffff16565b505050565b6143368160046145e4565b50565b6143448160076145e4565b50565b6060600360009054906101000a900473ffffffffffffffffffffffffffffffffffffffff1673ffffffffffffffffffffffffffffffffffffffff166340429946905060e01b600080846000015185602001518660400151876060015160018960800151600001516040516024016143c5989796959493929190615878565b604051602081830303815290604052907bffffffffffffffffffffffffffffffffffffffffffffffffffffffff19166020820180517bffffffffffffffffffffffffffffffffffffffffffffffffffffffff83818316178352505050509050919050565b61443161498e565b60006020838161443d57fe5b0614614456576020828161444d57fe5b06602003820191505b81836020018181525050604051808452600081528281016020016040525082905092915050565b601781116144aa576144a48160058460ff16901b60ff16178461460690919063ffffffff16565b506145bd565b60ff81116144ec576144cf601860058460ff16901b178461460690919063ffffffff16565b506144e6816001856146269092919063ffffffff16565b506145bc565b61ffff811161452f57614512601960058460ff16901b178461460690919063ffffffff16565b50614529816002856146269092919063ffffffff16565b506145bb565b63ffffffff811161457457614557601a60058460ff16901b178461460690919063ffffffff16565b5061456e816004856146269092919063ffffffff16565b506145ba565b67ffffffffffffffff81116145b9576145a0601b60058460ff16901b178461460690919063ffffffff16565b506145b7816008856146269092919063ffffffff16565b505b5b5b5b5b505050565b6145ca61498e565b6145dc83846000015151848551614648565b905092915050565b614601601f60058360ff16901b178361460690919063ffffffff16565b505050565b61460e61498e565b61461e8384600001515184614701565b905092915050565b61462e61498e565b61463f84856000015151858561474f565b90509392505050565b61465061498e565b825182111561465e57600080fd5b846020015182850111156146895761468885600261468288602001518887016147b0565b026147cc565b5b6000808651805187602083010193508088870111156146a85787860182525b60208701925050505b602084106146d457805182526020820191506020810190506020840393506146b1565b60006001856020036101000a03905080198251168184511681811785525050879350505050949350505050565b61470961498e565b83602001518310614726576147258460028660200151026147cc565b5b8351805160208583010184815381861415614742576001820183525b5050508390509392505050565b61475761498e565b8460200151848301111561477557614774856002868501026147cc565b5b60006001836101000a03905085518386820101858319825116178152815185880111156147a25784870182525b505085915050949350505050565b6000818311156147c2578290506147c6565b8190505b92915050565b6060826000015190506147df8383614429565b506147ea83826145c2565b50505050565b604051806101a0016040528060008152602001606081526020016060815260200160608152602001600081526020016060815260200160008152602001600073ffffffffffffffffffffffffffffffffffffffff1681526020016148526149a8565b81526020016000151581525090565b6040518060c0016040528060008019168152602001600073ffffffffffffffffffffffffffffffffffffffff16815260200160007bffffffffffffffffffffffffffffffffffffffffffffffffffffffff19168152602001600081526020016148c86149e8565b81525090565b6040518060800160405280600073ffffffffffffffffffffffffffffffffffffffff16815260200160008152602001606081526020016000151581525090565b828054600181600116156101000203166002900490600052602060002090601f016020900481019282601f1061494f57805160ff191683800117855561497d565b8280016001018555821561497d579182015b8281111561497c578251825591602001919060010190614961565b5b50905061498a9190614a02565b5090565b604051806040016040528060608152602001600081525090565b6040518060800160405280600073ffffffffffffffffffffffffffffffffffffffff16815260200160008152602001606081526020016000151581525090565b604051806040016040528060608152602001600081525090565b614a2491905b80821115614a20576000816000905550600101614a08565b5090565b90565b6000614a338235615e38565b905092915050565b6000614a478251615e4a565b905092915050565b6000614a5b8235615e56565b905092915050565b600082601f830112614a7457600080fd5b8135614a87614a8282615cd2565b615ca5565b91508082526020830160208301858383011115614aa357600080fd5b614aae838284615ef6565b50505092915050565b600082601f830112614ac857600080fd5b8135614adb614ad682615cfe565b615ca5565b91508082526020830160208301858383011115614af757600080fd5b614b02838284615ef6565b50505092915050565b6000614b178235615e80565b905092915050565b600060208284031215614b3157600080fd5b6000614b3f84828501614a27565b91505092915050565b600080600060608486031215614b5d57600080fd5b6000614b6b86828701614a27565b9350506020614b7c86828701614b0b565b925050604084013567ffffffffffffffff811115614b9957600080fd5b614ba586828701614a63565b9150509250925092565b600060208284031215614bc157600080fd5b6000614bcf84828501614a3b565b91505092915050565b60008060408385031215614beb57600080fd5b6000614bf985828601614a4f565b9250506020614c0a85828601614b0b565b9150509250929050565b600080600060608486031215614c2957600080fd5b6000614c3786828701614a4f565b9350506020614c4886828701614b0b565b9250506040614c5986828701614b0b565b9150509250925092565b60008060008060008060c08789031215614c7c57600080fd5b600087013567ffffffffffffffff811115614c9657600080fd5b614ca289828a01614ab7565b965050602087013567ffffffffffffffff811115614cbf57600080fd5b614ccb89828a01614ab7565b955050604087013567ffffffffffffffff811115614ce857600080fd5b614cf489828a01614ab7565b9450506060614d0589828a01614b0b565b935050608087013567ffffffffffffffff811115614d2257600080fd5b614d2e89828a01614ab7565b92505060a0614d3f89828a01614b0b565b9150509295509295509295565b600060208284031215614d5e57600080fd5b6000614d6c84828501614b0b565b91505092915050565b600080600080600060a08688031215614d8d57600080fd5b6000614d9b88828901614b0b565b9550506020614dac88828901614a27565b9450506040614dbd88828901614a4f565b9350506060614dce88828901614b0b565b925050608086013567ffffffffffffffff811115614deb57600080fd5b614df788828901614ab7565b9150509295509295909350565b60008060408385031215614e1757600080fd5b6000614e2585828601614b0b565b925050602083013567ffffffffffffffff811115614e4257600080fd5b614e4e85828601614ab7565b9150509250929050565b614e6181615e8a565b82525050565b614e7081615da6565b82525050565b614e7f81615d94565b82525050565b614e8e81615db8565b82525050565b614e9d81615db8565b82525050565b614eac81615dc4565b82525050565b614ebb81615dce565b82525050565b6000614ecc82615d35565b614ed68185615d56565b9350614ee6818560208601615f05565b614eef81615f66565b840191505092915050565b6000614f0582615d2a565b614f0f8185615d56565b9350614f1f818560208601615f05565b614f2881615f66565b840191505092915050565b614f44614f3f82615e9c565b615f38565b82525050565b614f5381615ec0565b82525050565b6000614f6482615d4b565b614f6e8185615d89565b9350614f7e818560208601615f05565b80840191505092915050565b6000614f9582615d40565b614f9f8185615d67565b9350614faf818560208601615f05565b614fb881615f66565b840191505092915050565b6000614fce82615d40565b614fd88185615d78565b9350614fe8818560208601615f05565b614ff181615f66565b840191505092915050565b600061500782615d40565b6150118185615d89565b9350615021818560208601615f05565b80840191505092915050565b600061503a601a83615d78565b91507f43616e206f6e6c7920726563656976652066726f6d204c494e4b0000000000006000830152602082019050919050565b600061507a602683615d78565b91507f4f776e61626c653a206e6577206f776e657220697320746865207a65726f206160008301527f64647265737300000000000000000000000000000000000000000000000000006020830152604082019050919050565b60006150e0600f83615d78565b91507f5472616e73666572206661696c656400000000000000000000000000000000006000830152602082019050919050565b6000615120601b83615d78565b91507f536166654d6174683a206164646974696f6e206f766572666c6f7700000000006000830152602082019050919050565b6000615160602383615d78565b91507f756e61626c6520746f207472616e73666572416e6443616c6c20746f206f726160008301527f636c6500000000000000000000000000000000000000000000000000000000006020830152604082019050919050565b60006151c6601683615d78565b91507f4f6e6c792062757965722063616e20646f2074686973000000000000000000006000830152602082019050919050565b6000615206602883615d78565b91507f6f776e6572736869705374617475732068617320616e20756e737570706f727460008301527f65642076616c75650000000000000000000000000000000000000000000000006020830152604082019050919050565b600061526c601c83615d78565b91507f507269636520616e642076616c756520646f206e6f74206d61746368000000006000830152602082019050919050565b60006152ac601e83615d78565b91507f536166654d6174683a207375627472616374696f6e206f766572666c6f7700006000830152602082019050919050565b60006152ec603683615d78565b91507f546865206d696e696d756d20626c6f636b2061676520726571756972656d656e60008301527f74206e6f74206d657420666f722064656c6574696f6e000000000000000000006020830152604082019050919050565b6000615352602c83615d78565b91507f4f6e6c7920746865206f776e65722063616e2064656c6574652074686520707560008301527f726368617365206f6666657200000000000000000000000000000000000000006020830152604082019050919050565b60006153b8601583615d78565b91507f4e6f7420656e6f756768204c494e4b2066756e647300000000000000000000006000830152602082019050919050565b60006153f8602083615d78565b91507f4f776e61626c653a2063616c6c6572206973206e6f7420746865206f776e65726000830152602082019050919050565b6000615438601783615d78565b91507f4f6e6c792073656c6c65722063616e20646f20746869730000000000000000006000830152602082019050919050565b6000615478601d83615d78565b91507f4c697374696e6720686173206e6f207075726368617365206f666665720000006000830152602082019050919050565b60006154b8600083615d89565b9150600082019050919050565b60006154d2601d83615d78565b91507f5075726368617365206f6666657220646f6573206e6f742065786973740000006000830152602082019050919050565b6000615512602883615d78565b91507f536f75726365206d75737420626520746865206f7261636c65206f662074686560008301527f20726571756573740000000000000000000000000000000000000000000000006020830152604082019050919050565b6000615578602483615d78565b91507f4c697374696e6720616c7265616479206861732061207075726368617365206f60008301527f66666572000000000000000000000000000000000000000000000000000000006020830152604082019050919050565b60006155de602a83615d78565b91507f546865206c697374696e6720686173206e6f742079657420726563656976656460008301527f20616e206f666665722e000000000000000000000000000000000000000000006020830152604082019050919050565b6000610140830160008301516156506000860182615790565b50602083015184820360208601526156688282614f8a565b915050604083015184820360408601526156828282614f8a565b9150506060830151848203606086015261569c8282614f8a565b91505060808301516156b16080860182615790565b5060a083015184820360a08601526156c98282614f8a565b91505060c08301516156de60c0860182615790565b5060e08301516156f160e0860182614e67565b5061010083015184820361010086015261570b828261572d565b915050610120830151615722610120860182614e85565b508091505092915050565b60006080830160008301516157456000860182614e67565b5060208301516157586020860182615790565b50604083015184820360408601526157708282614f8a565b91505060608301516157856060860182614e85565b508091505092915050565b61579981615e2e565b82525050565b6157a881615e2e565b82525050565b6157bf6157ba82615e2e565b615f5c565b82525050565b60006157d18285614f33565b6014820191506157e182846157ae565b6020820191508190509392505050565b60006157fd8284614ffc565b915081905092915050565b60006158148284614f59565b915081905092915050565b600061582a826154ab565b9150819050919050565b60006020820190506158496000830184614e76565b92915050565b60006040820190506158646000830185614e58565b615871602083018461579f565b9392505050565b60006101008201905061588e600083018b614e76565b61589b602083018a61579f565b6158a86040830189614ea3565b6158b56060830188614e76565b6158c26080830187614eb2565b6158cf60a083018661579f565b6158dc60c083018561579f565b81810360e08301526158ee8184614efa565b90509998505050505050505050565b60006060820190506159126000830186614e76565b61591f602083018561579f565b81810360408301526159318184614ec1565b9050949350505050565b60006020820190506159506000830184614e94565b92915050565b600060208201905061596b6000830184614ea3565b92915050565b60006080820190506159866000830187614ea3565b615993602083018661579f565b6159a06040830185614eb2565b6159ad606083018461579f565b95945050505050565b600060208201905081810360008301526159d08184614fc3565b905092915050565b600060208201905081810360008301526159f18161502d565b9050919050565b60006020820190508181036000830152615a118161506d565b9050919050565b60006020820190508181036000830152615a31816150d3565b9050919050565b60006020820190508181036000830152615a5181615113565b9050919050565b60006020820190508181036000830152615a7181615153565b9050919050565b60006020820190508181036000830152615a91816151b9565b9050919050565b60006020820190508181036000830152615ab1816151f9565b9050919050565b60006020820190508181036000830152615ad18161525f565b9050919050565b60006020820190508181036000830152615af18161529f565b9050919050565b60006020820190508181036000830152615b11816152df565b9050919050565b60006020820190508181036000830152615b3181615345565b9050919050565b60006020820190508181036000830152615b51816153ab565b9050919050565b60006020820190508181036000830152615b71816153eb565b9050919050565b60006020820190508181036000830152615b918161542b565b9050919050565b60006020820190508181036000830152615bb18161546b565b9050919050565b60006020820190508181036000830152615bd1816154c5565b9050919050565b60006020820190508181036000830152615bf181615505565b9050919050565b60006020820190508181036000830152615c118161556b565b9050919050565b60006020820190508181036000830152615c31816155d1565b9050919050565b60006020820190508181036000830152615c528184615637565b905092915050565b60006040820190508181036000830152615c748185615637565b9050615c836020830184614f4a565b9392505050565b6000602082019050615c9f600083018461579f565b92915050565b6000604051905081810181811067ffffffffffffffff82111715615cc857600080fd5b8060405250919050565b600067ffffffffffffffff821115615ce957600080fd5b601f19601f8301169050602081019050919050565b600067ffffffffffffffff821115615d1557600080fd5b601f19601f8301169050602081019050919050565b600081519050919050565b600081519050919050565b600081519050919050565b600081519050919050565b600082825260208201905092915050565b600082825260208201905092915050565b600082825260208201905092915050565b600081905092915050565b6000615d9f82615e0e565b9050919050565b6000615db182615e0e565b9050919050565b60008115159050919050565b6000819050919050565b60007fffffffff0000000000000000000000000000000000000000000000000000000082169050919050565b600060038210615e0657fe5b819050919050565b600073ffffffffffffffffffffffffffffffffffffffff82169050919050565b6000819050919050565b6000615e4382615e60565b9050919050565b60008115159050919050565b6000819050919050565b600073ffffffffffffffffffffffffffffffffffffffff82169050919050565b6000819050919050565b6000615e9582615ed2565b9050919050565b6000615ea782615eae565b9050919050565b6000615eb982615e0e565b9050919050565b6000615ecb82615dfa565b9050919050565b6000615edd82615ee4565b9050919050565b6000615eef82615e0e565b9050919050565b82818337600083830152505050565b60005b83811015615f23578082015181840152602081019050615f08565b83811115615f32576000848401525b50505050565b6000615f4382615f4a565b9050919050565b6000615f5582615f77565b9050919050565b6000819050919050565b6000601f19601f8301169050919050565b60008160601b905091905056fe747261646575726c6f776e6572686173696e73706563746c696e6b746172676574a265627a7a72305820e69e396e009d546010fb82a1f038b3abe79ee4a06f90caab4fe7a89423394e956c6578706572696d656e74616cf50037",
  "source": "pragma solidity ^0.5.7;\npragma experimental ABIEncoderV2;\n\nimport \"chainlink/v0.5/contracts/ChainlinkClient.sol\";\nimport \"chainlink/v0.5/contracts/vendor/Ownable.sol\";\n\n\ncontract CSGOSteamTrade is ChainlinkClient, Ownable {\n\n    uint public constant MINIMUM_PURCHASE_OFFER_AGE = 6 hours;\n    string public constant CHECK_INVENTORY_CONTAINS_ITEM_METHOD = \"tradeurlownerhasinspectlinktarget\";\n\n    uint256 constant public OWNERSHIP_STATUS_FALSE = 0;\n    uint256 constant public OWNERSHIP_STATUS_TRUE = 1;\n    uint256 constant public OWNERSHIP_STATUS_INVENTORY_PRIVATE = 2;\n\n    mapping(address => uint256) public linkTokenFunds;\n\n    string constant ERR_LISTING_NOT_FOUND = \"Listing not found\";\n    \n    struct PurchaseOffer {\n        address payable owner;\n        uint creationTimestamp;\n        string buyerTradeURL;\n        bool exists;\n    }\n\n    struct Listing {\n        uint listingId;\n        string ownerInspectLink;\n        string wear;\n        string skinName;\n        uint paintSeed;\n        string extraItemData;\n        uint price;\n        address payable sellerAddress;\n        PurchaseOffer purchaseOffer;\n        bool exists;\n    }\n\n    event ListingCreation(\n        Listing listing\n    );\n\n    event PurchaseOfferMade(\n        string indexed buyerTradeURL,\n        address indexed buyerAddress,\n        Listing listing\n    );\n\n    enum TradeOutcome { SUCCESSFULLY_CONFIRMED, UNABLE_TO_CONFIRM_PRIVATE_PROFILE, DELETED_LISTING }\n\n    event TradeDone (\n        string indexed buyerTradeURL,\n        address indexed buyerAddress,\n        Listing listing,\n        TradeOutcome tradeOutcome\n    );\n\n    event TradeFulfilmentFail (\n        Listing listing\n    );\n\n    event LinkFundsReceived (\n        address sender,\n        uint amount,\n        bytes data\n    );\n\n    uint numListings = 0;\n    mapping(uint => Listing) listings;\n\n    mapping(bytes32 => uint) requestIdToListingId;\n    \n    /**\n    * @notice Deploy the contract with a specified address for the LINK\n    * and Oracle contract addresses\n    * @dev Sets the storage for the specified addresses\n    * @param _link The address of the LINK token contract\n    */\n    constructor(address _link) public {\n        if (_link == address(0)) {\n        setPublicChainlinkToken();\n        } else {\n        setChainlinkToken(_link);\n        }\n    }\n    \n    function createListing(string memory _ownerInspectLink, string memory _wear,\n        string memory _skinName, uint _paintSeed, string memory _extraItemData,\n        uint _price)\n        public\n        returns (uint listingId) {\n        listingId = numListings++;\n        PurchaseOffer memory emptyOffer;\n        Listing memory listing = Listing(listingId, _ownerInspectLink, _wear, _skinName, _paintSeed, _extraItemData,\n            _price, msg.sender, emptyOffer, true);\n        emit ListingCreation(listing);\n        listings[listingId] = listing;\n    }\n    \n    function getListing(uint _listingId) public view returns (Listing memory listing) {\n        listing = listings[_listingId];\n    }\n\n    function getListingsCount() public view returns (uint) {\n        return numListings;\n    }\n    \n    function deleteListing(uint _listingId)\n        public\n        onlySeller(_listingId) {\n        Listing memory listing = listings[_listingId];\n        require(listing.exists == true, ERR_LISTING_NOT_FOUND);\n\n        if (listing.purchaseOffer.exists) {\n            // return funds\n            listing.purchaseOffer.owner.transfer(listing.price);\n            emit TradeDone(listing.purchaseOffer.buyerTradeURL, listing.purchaseOffer.owner, listing, TradeOutcome.DELETED_LISTING);\n        } else {\n            emit TradeDone(\"\", address(0), listing, TradeOutcome.DELETED_LISTING);\n        }\n        \n        listings[_listingId].exists = false;\n    }\n\n    function createPurchaseOffer(uint _listingId, string memory _buyerTradeURL) public payable {\n        Listing memory listing = listings[_listingId];\n        require(listing.exists == true, ERR_LISTING_NOT_FOUND);\n        require(listing.purchaseOffer.exists == false, \"Listing already has a purchase offer\");\n        require(listing.price == msg.value, \"Price and value do not match\");\n\n        uint currentTimestamp = block.timestamp;\n        PurchaseOffer memory purchaseOffer = PurchaseOffer(msg.sender, currentTimestamp, _buyerTradeURL, true);\n        listing.purchaseOffer = purchaseOffer;\n\n        emit PurchaseOfferMade(_buyerTradeURL, msg.sender, listing);\n        listings[_listingId] = listing;\n    }\n\n    function deletePurchaseOffer(uint _listingId)\n        public\n        onlyBuyer(_listingId) {\n        Listing memory listing = listings[_listingId];\n        require(listing.exists == true, ERR_LISTING_NOT_FOUND);\n        require(listing.purchaseOffer.exists == true, \"Purchase offer does not exist\");\n        require(listing.purchaseOffer.owner == msg.sender, \"Only the owner can delete the purchase offer\");\n\n\n        uint secondsSinceOfferCreation = block.timestamp - listing.purchaseOffer.creationTimestamp;\n        require(secondsSinceOfferCreation > MINIMUM_PURCHASE_OFFER_AGE, \"The minimum block age requirement not met for deletion\");\n\n        // send the funds back to the owner of the purchase offer.\n        listing.purchaseOffer.owner.transfer(listing.price);\n\n        listing.purchaseOffer.exists = false;\n        listings[_listingId] = listing;\n    }\n\n    function createItemTransferConfirmationRequest(\n        uint _listingId,\n        address _oracle,\n        bytes32 _jobId,\n        uint256 _payment,\n        string memory _buyerInspectLink)\n        public\n        onlySeller(_listingId)\n        returns (bytes32 requestId) {\n        require(linkTokenFunds[msg.sender] >= _payment, \"Not enough LINK funds\");\n        Listing memory listing = listings[_listingId];\n        require(listing.exists == true, ERR_LISTING_NOT_FOUND);\n        require(listing.purchaseOffer.exists == true, \"The listing has not yet received an offer.\");\n        \n        Chainlink.Request memory req = buildChainlinkRequest(_jobId,\n            address(this),\n            this.fulfillItemTransferConfirmation.selector);\n            \n        req.add(\"method\", CHECK_INVENTORY_CONTAINS_ITEM_METHOD);\n        req.add(\"inspectLink\", _buyerInspectLink);\n        req.add(\"tradeURL\", listing.purchaseOffer.buyerTradeURL);\n        req.add(\"wear\", listing.wear);\n        req.add(\"skinName\", listing.skinName);\n        req.add(\"paintSeed\", uint2str(listing.paintSeed));\n        \n        string[] memory path = new string[](1);\n        path[0] = \"containsItem\";\n        req.addStringArray(\"copyPath\", path);\n\n        requestId = sendChainlinkRequestTo(_oracle, req, _payment);\n        requestIdToListingId[requestId] = _listingId;\n        linkTokenFunds[msg.sender] = linkTokenFunds[msg.sender].sub(_payment);\n    }\n\n    /**\n   * @notice The fulfill method from requests created by this contract\n   * @dev The recordChainlinkFulfillment protects this function from being called\n   * by anyone other than the oracle address that the request was sent to\n   * @param _requestId The ID that was generated for the request\n   * @param _ownershipStatus The answer provided by the oracle\n   */\n    function fulfillItemTransferConfirmation(bytes32 _requestId, uint256 _ownershipStatus)\n        public\n        recordChainlinkFulfillment(_requestId) {\n\n        uint listingId = requestIdToListingId[_requestId];\n        Listing memory listing = listings[listingId];\n        require(listing.exists == true, ERR_LISTING_NOT_FOUND);\n        require(listing.purchaseOffer.exists == true, \"Listing has no purchase offer\");\n\n        if (_ownershipStatus == OWNERSHIP_STATUS_TRUE) {\n            listing.sellerAddress.transfer(listing.price);\n            emit TradeDone(listing.purchaseOffer.buyerTradeURL, listing.purchaseOffer.owner, listing, TradeOutcome.SUCCESSFULLY_CONFIRMED);\n            listings[listingId].exists = false;\n        } else if (_ownershipStatus == OWNERSHIP_STATUS_INVENTORY_PRIVATE) {\n            listing.sellerAddress.transfer(listing.price);\n            emit TradeDone(listing.purchaseOffer.buyerTradeURL, listing.purchaseOffer.owner, listing, TradeOutcome.UNABLE_TO_CONFIRM_PRIVATE_PROFILE);\n            listings[listingId].exists = false;\n        } else if (_ownershipStatus == OWNERSHIP_STATUS_FALSE) {\n            emit TradeFulfilmentFail(listing);\n        } else {\n            require(false, 'ownershipStatus has an unsupported value');\n        }\n    }\n\n    /**\n    * @notice Call this method if no response is received within 5 minutes\n    * @param _requestId The ID that was generated for the request to cancel\n    * @param _payment The payment specified for the request to cancel\n    * the request to cancel\n    * @param _expiration The expiration generated for the request to cancel\n    */\n    function cancelRequest(\n        bytes32 _requestId,\n        uint256 _payment,\n        uint256 _expiration\n    )\n        public\n        onlyOwner {\n        cancelChainlinkRequest(_requestId, _payment, this.fulfillItemTransferConfirmation.selector, _expiration);\n    }\n\n    function onTokenTransfer(\n        address _sender,\n        uint256 _amount,\n        bytes memory _data\n    )\n        public {    \n        require(msg.sender == chainlinkTokenAddress(), \"Can only receive from LINK\");\n        emit LinkFundsReceived(_sender, _amount, _data);\n        linkTokenFunds[_sender] = linkTokenFunds[_sender].add(_amount);\n    }\n\n\n    function withdrawLink(uint256 _amount) external {\n        LinkTokenInterface link = LinkTokenInterface(chainlinkTokenAddress());\n        linkTokenFunds[msg.sender] -= linkTokenFunds[msg.sender].sub(_amount);\n        require(link.transfer(msg.sender, _amount), \"Transfer failed\");\n    }\n\n    function balanceOfLink(address _account) public view returns (uint256) {\n        return linkTokenFunds[_account];\n    }\n\n    /**\n     * @notice Converts a uint to a string. Extracted from https://github.com/provable-things/ethereum-api/blob/master/oraclizeAPI_0.5.sol\n     */\n    function uint2str(uint _i) internal pure returns (string memory _uintAsString) {\n        if (_i == 0) {\n            return \"0\";\n        }\n        uint j = _i;\n        uint len;\n        while (j != 0) {\n            len++;\n            j /= 10;\n        }\n        bytes memory bstr = new bytes(len);\n        uint k = len - 1;\n        while (_i != 0) {\n            bstr[k--] = byte(uint8(48 + _i % 10));\n            _i /= 10;\n        }\n        return string(bstr);\n    }\n\n    modifier onlySeller(uint _listingId) {\n        require(listings[_listingId].sellerAddress == msg.sender, \"Only seller can do this\");\n        _;\n    }\n\n    modifier onlyBuyer(uint _listingId) {\n        require(listings[_listingId].purchaseOffer.owner == msg.sender, \"Only buyer can do this\");\n        _;\n    }\n}",
  "sourcePath": "/Users/dan/moneywork/sugarskins/csgo-steam-eth-trade/csgo-trade-contract/contracts/CSGOSteamTrade.sol",
  "compiler": {
    "name": "solc",
    "version": "0.5.7+commit.6da8b019.Emscripten.clang"
  },
  "schemaVersion": "3.0.16",
  "updatedAt": "2020-02-09T02:32:44.805Z",
  "devdoc": {
    "methods": {
      "cancelRequest(bytes32,uint256,uint256)": {
        "params": {
          "_expiration": "The expiration generated for the request to cancel",
          "_payment": "The payment specified for the request to cancel the request to cancel",
          "_requestId": "The ID that was generated for the request to cancel"
        }
      },
      "constructor": {
        "details": "Sets the storage for the specified addresses",
        "params": {
          "_link": "The address of the LINK token contract"
        }
      },
      "fulfillItemTransferConfirmation(bytes32,uint256)": {
        "details": "The recordChainlinkFulfillment protects this function from being called by anyone other than the oracle address that the request was sent to",
        "params": {
          "_ownershipStatus": "The answer provided by the oracle",
          "_requestId": "The ID that was generated for the request"
        }
      },
      "isOwner()": {
        "details": "Returns true if the caller is the current owner."
      },
      "owner()": {
        "details": "Returns the address of the current owner."
      },
      "transferOwnership(address)": {
        "details": "Transfers ownership of the contract to a new account (`newOwner`). Can only be called by the current owner."
      }
    }
  },
  "userdoc": {
    "methods": {
      "cancelRequest(bytes32,uint256,uint256)": {
        "notice": "Call this method if no response is received within 5 minutes"
      },
      "constructor": "Deploy the contract with a specified address for the LINK and Oracle contract addresses",
      "fulfillItemTransferConfirmation(bytes32,uint256)": {
        "notice": "The fulfill method from requests created by this contract"
      }
    }
  }
}